{"abi":[{"type":"function","name":"calculatePerlin","inputs":[{"name":"x","type":"uint256","internalType":"uint256"},{"name":"y","type":"uint256","internalType":"uint256"},{"name":"seed","type":"uint256","internalType":"uint256"}],"outputs":[{"name":"","type":"uint256","internalType":"uint256"}],"stateMutability":"pure"},{"type":"function","name":"calculatePerlinAndGetItem","inputs":[{"name":"x","type":"uint256","internalType":"uint256"},{"name":"y","type":"uint256","internalType":"uint256"},{"name":"seed","type":"uint256","internalType":"uint256"}],"outputs":[{"name":"","type":"uint256","internalType":"uint256"}],"stateMutability":"view"},{"type":"function","name":"getItem","inputs":[{"name":"groupId","type":"uint256","internalType":"uint256"},{"name":"perlin","type":"uint256","internalType":"uint256"}],"outputs":[{"name":"","type":"uint256","internalType":"uint256"}],"stateMutability":"view"},{"type":"function","name":"items","inputs":[{"name":"","type":"uint256","internalType":"uint256"},{"name":"","type":"uint256","internalType":"uint256"}],"outputs":[{"name":"","type":"uint256","internalType":"uint256"}],"stateMutability":"view"},{"type":"function","name":"maxGroupIdNumber","inputs":[],"outputs":[{"name":"","type":"uint256","internalType":"uint256"}],"stateMutability":"view"},{"type":"function","name":"owner","inputs":[],"outputs":[{"name":"","type":"address","internalType":"address"}],"stateMutability":"view"},{"type":"function","name":"renounceOwnership","inputs":[],"outputs":[],"stateMutability":"nonpayable"},{"type":"function","name":"setItem","inputs":[{"name":"groupId","type":"uint256","internalType":"uint256"},{"name":"perlin","type":"uint256","internalType":"uint256"},{"name":"itemId","type":"uint256","internalType":"uint256"}],"outputs":[],"stateMutability":"nonpayable"},{"type":"function","name":"setItems","inputs":[{"name":"perlinConfigs","type":"tuple[]","internalType":"struct IPerlinItemConfig.PerlinConfig[]","components":[{"name":"groupId","type":"uint256","internalType":"uint256"},{"name":"perlinId","type":"uint256","internalType":"uint256"},{"name":"itemId","type":"uint256","internalType":"uint256"}]}],"outputs":[],"stateMutability":"nonpayable"},{"type":"function","name":"transferOwnership","inputs":[{"name":"newOwner","type":"address","internalType":"address"}],"outputs":[],"stateMutability":"nonpayable"},{"type":"event","name":"OwnershipTransferred","inputs":[{"name":"previousOwner","type":"address","indexed":true,"internalType":"address"},{"name":"newOwner","type":"address","indexed":true,"internalType":"address"}],"anonymous":false}],"bytecode":{"object":"0x60808060405234605d575f8054336001600160a01b0319821681178355916001600160a01b03909116907f8be0079c531659141344cd1fd0a4f28419497f9722a3daafe3b4186f6b6457e09080a35f600155611cce90816100628239f35b5f80fdfe6080806040526004361015610012575f80fd5b5f3560e01c9081629fc0db1461032a575080632ab4a8561461031157806331e838dd146102c157806356bdc7f3146102f057806359cc334a146102c1578063715018a61461027d5780637b7555f7146101b15780638da5cb5b1461018a578063ee33646c146101445763f2fde38b14610089575f80fd5b34610140576020366003190112610140576004356001600160a01b03811690819003610140576100b7610a3e565b80156100ec575f80546001600160a01b03198116831782556001600160a01b0316905f516020611c795f395f51905f529080a3005b60405162461bcd60e51b815260206004820152602660248201527f4f776e61626c653a206e6577206f776e657220697320746865207a65726f206160448201526564647265737360d01b6064820152608490fd5b5f80fd5b346101405761015236610344565b9061015b610a3e565b610163610a3e565b825f52600260205260405f20905f5260205260405f2055600154811161018557005b600155005b34610140575f366003190112610140575f546040516001600160a01b039091168152602090f35b34610140576020366003190112610140576004356001600160401b03811161014057366023820112156101405760048101356001600160401b03811161014057602482019160243691606084020101116101405761020d610a3e565b5f5b81811061021857005b8061022660019284866109ea565b3560206102348386886109ea565b013560406102438487896109ea565b01359061024e610a3e565b825f52600260205260405f20905f5260205260405f205582548111610275575b500161020f565b82558461026e565b34610140575f36600319011261014057610295610a3e565b5f80546001600160a01b0319811682556001600160a01b03165f516020611c795f395f51905f528280a3005b34610140576102cf3661035e565b905f52600260205260405f20905f52602052602060405f2054604051908152f35b3461014057602061030961030336610344565b91610985565b604051908152f35b3461014057602061030961032436610344565b91610374565b34610140575f366003190112610140576020906001548152f35b606090600319011261014057600435906024359060443590565b6040906003190112610140576004359060243590565b9190811561097e57604051926102e084016001600160401b0381118582101761096a576040525f8452602084015f9052604084015f9052606084015f9052608084015f905260a084015f905260c084015f905260e084015f905261010084015f905261012084015f905261014084015f905261016084015f905261018084015f90526101a084015f90526101c084015f90526101e084015f905261020084015f905261022084015f905261024084015f905261026084015f905261028084015f90526102a084015f90526102c084015f905261044f90610a95565b600f0b61020084015261046190610a95565b600f0b61022083015261047390610a95565b600f0b80610240830152610200820151600f0b9081600f0b60401d60070b60ff1660010b90818452610220840151600f0b9081600f0b60401d60070b60ff1660010b9384602087015281600f0b60401d60070b60ff1660010b60408701526104da81610c22565b6104e391610c9d565b600f0b91826102008701526104f781610c22565b61050091610c9d565b600f0b908161022087015261051481610c22565b61051d91610c9d565b600f0b918261024087015261053190610cc1565b600f0b61026086015261054390610cc1565b600f0b61028085015261055590610cc1565b600f0b6102a084015261056790610ee6565b60010b8061012084015260010b60081d60010b9061058491610a0e565b60010b80606083015261059690610ee6565b60010b8061014083015260010b60081d60010b604082015160010b6105ba91610a0e565b60010b608082015261014081015160ff16604082015160010b6105dc91610a0e565b60010b60a082015261012081015160ff16602082015160010b6105fe91610a0e565b60010b8060c083015261061090610ee6565b60010b8061016083015260010b60081d60010b604082015160010b61063491610a0e565b60010b60e082015261016081015160ff16604082015160010b61065691610a0e565b60010b80610100830152608082015160010b61067190610ee6565b908160010b918261018085015260a084015160010b61068f90610ee6565b8060010b90816101a087015260e086015160010b6106ac90610ee6565b908160010b94856101c08901526106c290610ee6565b918260010b96876101e08a01526102a0890151600f0b9689610280810151600f0b95610260820151600f0b9360010b60081d60010b94610200830151600f0b9b8c998a9586610220870151600f0b996102408b980151600f0b9a610727928c92610d8d565b809160010b60081d60010b8a8861073d8b610c62565b61074693610d8d565b9061075091610c9d565b61075a9089610ebf565b61076391610e9b565b91829160010b60081d60010b898861077a89610c62565b9061078493610d8d565b809160010b60081d60010b8a6107998a610c62565b6107a28a610c62565b906107ac93610d8d565b906107b691610c9d565b6107c09089610ebf565b6107c991610e9b565b906107d391610c9d565b6107dd908a610ebf565b6107e691610e9b565b9b8c9a846107f389610c62565b9160ff169261080193610d8d565b809161080c86610c62565b90856108178a610c62565b9160ff169261082593610d8d565b9061082f91610c9d565b6108399086610ebf565b61084291610e9b565b97889661084e84610c62565b61085788610c62565b9160ff169261086593610d8d565b946108708694610c62565b9261087a90610c62565b9061088490610c62565b9160ff169261089293610d8d565b9061089c91610c9d565b6108a591610ebf565b6108ae91610e9b565b906108b891610c9d565b6108c191610ebf565b6108ca91610e9b565b906108d491610c9d565b6108dd91610ebf565b6108e691610e9b565b600f0b6102c091909101819052600160401b0160016001607f1b031981121580610959575b1561014057600160411b60409190911b60170b0560016001607f1b031981121580610948575b1561014057600f0b603b1d6001600160801b031690565b5060016001607f1b03811315610931565b5060016001607f1b0381131561090b565b634e487b7160e01b5f52604160045260245ffd5b5050505f90565b909163ffffffff9060021c421616600283838301081561097e576109aa908383610374565b916001549081156109d65760019284010106015f52600260205260405f20905f5260205260405f205490565b634e487b7160e01b5f52601260045260245ffd5b91908110156109fa576060020190565b634e487b7160e01b5f52603260045260245ffd5b9060010b9060010b0190617fff198212617fff831317610a2a57565b634e487b7160e01b5f52601160045260245ffd5b5f546001600160a01b03163303610a5157565b606460405162461bcd60e51b815260206004820152602060248201527f4f776e61626c653a2063616c6c6572206973206e6f7420746865206f776e65726044820152fd5b5f5f8212610c18575b5f916001600160c01b038111610b235782610b0f5760039060401b045b6001600160801b038111610b0b576001600160801b03169015610af2576001607f1b8111610aee57600f0b9003600f0b90565b5080fd5b9060016001607f1b038211610b085750600f0b90565b80fd5b8280fd5b634e487b7160e01b83526012600452602483fd5b60c081811c93919084600160201b811015610c0b575b80620100006002921015610bff575b610100811015610bf3575b6010811015610be7575b6004811015610bdc575b1015610bd4575b600260be1982011c6001019081156109d65760ff0382901b04916001600160801b038311610140576003830291859060401b95838710610bc9575b50610bbe57506003905f940304905b01610abb565b935050600190610bb8565b5f190190505f610ba9565b600101610b6e565b91810191811c610b67565b6004928301921c610b5d565b6008928301921c610b53565b6010928301921c610b48565b5060e0905081811c610b39565b505f036001610a9e565b600f0b60401d60016001603f1b0319600782900b908112159081610c50575b50156101405760401b600f0b90565b60016001603f1b03121590505f610c41565b600f0b6001600160401b03190160016001607f1b031981121580610c8c575b1561014057600f0b90565b5060016001607f1b03811315610c81565b600f91820b910b0360016001607f1b031981121580610c8c571561014057600f0b90565b600f81900b600360411b0260401d60016001607f1b031981121580610d7c575b1561014057600f0b6001600f60401b03190160016001607f1b031981121580610d6b575b1561014057610d1790600f0b82610ebf565b600f0b600560411b019060016001607f1b031982121580610d5a575b1561014057610d51610d4b610d5793600f0b83610ebf565b82610ebf565b90610ebf565b90565b5060016001607f1b03821315610d33565b5060016001607f1b03811315610d05565b5060016001607f1b03811315610ce1565b9092600f90911660010b9060078213610e185760038213610dea575060018113610dc95715610dc05790610d5791610c9d565b610d5791610e9b565b600214610de157610ddc610d5792611c5d565b610c9d565b610d5791610c9d565b915060058113610e0557600414610dc05790610d5791610c9d565b600614610de157610ddc610d5792611c5d565b9192600b8213610e4f575060098113610e3c57600814610dc05790610d5791610c9d565b600a14610de157610ddc610d5792611c5d565b90600d8113610e7c57600c14610e715750610e6c610d5792611c5d565b610e9b565b9050610d5791610e9b565b600e14610e905750610ddc610d5792611c5d565b9050610d5791610c9d565b600f91820b910b0160016001607f1b031981121580610c8c571561014057600f0b90565b600f91820b910b0260401d60016001607f1b031981121580610c8c571561014057600f0b90565b60ff16607f81136115a557603f811361124d57601f81136110a657600f8113610fd65760078113610f725760038113610f445760018113610f3157610f2b576197a090565b61a08990565b600203610f3e5761895b90565b615b5a90565b60058113610f5f57600403610f5957615a0f90565b610f8390565b600603610f6c5761830d90565b610dc990565b600b8113610fa85760098113610f9557600803610f8f5761c95f90565b615f6090565b600a03610fa25761603590565b6135c290565b600d8113610fc357600c03610fbd5761c2e990565b61e90790565b600e03610fd0576107e190565b61e18c90565b601781136110425760138113611014576011811361100157601003610ffb57618c2490565b61246790565b60120361100e5761671e90565b611e4590565b6015811361102f576014036110295761458e90565b618e0890565b60160361103c5761086390565b61632590565b601b811361107857601981136110655760180361105f576125f090565b61f01590565b601a036110725761150a90565b610a1790565b601d811361109357601c0361108d576117be90565b61be0690565b601e036110a05761069490565b6194f790565b602f811361117d576027811361111957602381136110ec57602181136110d9576020036110d35761f77890565b6178ea90565b6022036110e65761ea4b90565b614b0090565b602581136111065760240361110057601a90565b611ac590565b6026036111135761c53e90565b613e5e90565b602b811361114f576029811361113c5760280361113657615efc90565b61fcdb90565b602a036111495761dbcb90565b61cb7590565b602d811361116a57602c036111645761752390565b61230b90565b602e0361117757610b2090565b61203990565b603781136111e957603381136111bb57603181136111a8576030036111a2576139b190565b61b12190565b6032036111b55761215890565b6158ed90565b603581136111d6576034036111d05761ed9590565b61953890565b6036036111e35761385790565b6157ae90565b603b811361121f576039811361120c576038036112065761ae1490565b61147d90565b603a0361121957617d8890565b6188ab90565b603d811361123a57603c036112345761aba890565b61a84490565b603e03611247576144af90565b61af4a90565b605f81136113fd57604f811361132d57604781136112c9576043811361129b57604181136112885760400361128257614aa590565b61a54790565b6042036112955761478690565b61868b90565b604581136112b6576044036112b057618b3090565b61301b90565b6046036112c357611ba690565b61a64d90565b604b81136112ff57604981136112ec576048036112e657614d9290565b61929e90565b604a036112f957619ee790565b61e75390565b604d811361131a57604c036113145761536f90565b616fe590565b604e036113275761e57a90565b617a3c90565b60578113611399576053811361136b57605181136113585760500361135257613cd390565b61d38590565b605203611365576185e690565b61e6dc90565b60558113611386576054036113805761dc6990565b61695c90565b60560361139357615c2990565b61293790565b605b81136113cf57605981136113bc576058036113b65761372e90565b612ef590565b605a036113c95761f52890565b6128f490565b605d81136113ea57605c036113e45761f46690565b61668f90565b605e036113f757618f3690565b61364190565b606f81136114d55760678113611471576063811361144357606181136114305760600361142a5761411990565b61193f90565b60620361143d57613fa190565b61a10190565b6065811361145e57606403611458576101d890565b61d85090565b60660361146b5761504990565b6149d190565b606b81136114a757606981136114945760680361148e5761d14c90565b614c8490565b606a036114a1576184bb90565b61bbd090565b606d81136114c257606c036114bc5761d05990565b61591290565b606e036114cf576112a990565b61a9c890565b6077811361154157607381136115135760718113611500576070036114fa5761c8c490565b61c48790565b60720361150d5761878290565b61827490565b6075811361152e57607403611528576174bc90565b61bc9f90565b60760361153b57619f5690565b6156a490565b607b811361157757607981136115645760780361155e5761a46490565b61646d90565b607a0361157157616dc690565b61c6ad90565b607d811361159257607c0361158c5761adba90565b61ba0390565b607e0361159f5761034090565b61403490565b60bf811361190557609f811361175d57608f811361168d576087811361162957608381136115fb57608181136115e8576080036115e2576134d990565b61d9e290565b6082036115f55761e2fa90565b61fa7c90565b608581136116165760840361161057617c7b90565b617b0590565b608603611623576105ca90565b61ca2690565b608b811361165f576089811361164c576088036116465761269390565b61937690565b608a036116595761767e90565b617eff90565b608d811361167a57608c036116745761ff5290565b61525590565b608e03611687576155d490565b61d4cf90565b609781136116f957609381136116cb57609181136116b8576090036116b25761cfce90565b61ce3b90565b6092036116c557613be390565b61e32f90565b609581136116e6576094036116e057612f1090565b61103a90565b6096036116f357613a1190565b6111b690565b609b811361172f576099811361171c576098036117165761b6bd90565b61bd1c90565b609a0361172957611c2a90565b612adf90565b609d811361174a57609c036117445761dfb790565b61b7aa90565b609e036117575761aad590565b61d57790565b60af81136118355760a781136117d15760a381136117a35760a181136117905760a00361178a576177f890565b61f89890565b60a20361179d5761980290565b61022c90565b60a581136117be5760a4036117b857612c9a90565b619aa390565b60a6036117cb5761a34690565b6146dd90565b60ab81136118075760a981136117f45760a8036117ee5761dd9990565b61996590565b60aa036118015761659b90565b619ba790565b60ad81136118225760ac0361181c5761a72b90565b612bac90565b60ae0361182f5761ac0990565b61098190565b60b781136118a15760b381136118735760b181136118605760b00361185a5761811690565b61162790565b60b20361186d576127fd90565b61fd1390565b60b5811361188e5760b4036118885761136290565b61626c90565b60b60361189b57616c6e90565b616e4f90565b60bb81136118d75760b981136118c45760b8036118be57614f7190565b6171e090565b60ba036118d15761e0e890565b61e8b290565b60bd81136118f25760bc036118ec5761b2b990565b61b97090565b60be036118ff5761706890565b6168da90565b60df8113611ab55760cf81136119e55760c781136119815760c381136119535760c181136119405760c00361193a5761daf690565b61f66190565b60c20361194d576161e490565b61e4fb90565b60c5811361196e5760c4036119685761fb2290565b6122f290565b60c60361197b5761f2c190565b61c1ee90565b60cb81136119b75760c981136119a45760c80361199e5761eed290565b61d29090565b60ca036119b15761900c90565b610cbf90565b60cd81136119d25760cc036119cc5761bfb390565b61b3a290565b60ce036119df5761a2f190565b61f15190565b60d78113611a515760d38113611a235760d18113611a105760d003611a0a5761513390565b61339190565b60d203611a1d576191eb90565b61ebf990565b60d58113611a3e5760d403611a385761f90e90565b610eef90565b60d603611a4b5761ef6b90565b616b3190565b60db8113611a875760d98113611a745760d803611a6e576131c090565b61c0d690565b60da03611a815761d61f90565b611fb590565b60dd8113611aa25760dc03611a9c5761b5c790565b61c76a90565b60de03611aaf57616a9d90565b619db890565b60ef8113611b8d5760e78113611b295760e38113611afb5760e18113611ae85760e003611ae25761b85490565b6154cc90565b60e203611af55761ccb090565b61b07390565b60e58113611b165760e403611b105761737990565b61793290565b60e603611b235761322d90565b612d7f90565b60eb8113611b5f5760e98113611b4c5760e803611b4657617f0490565b61049690565b60ea03611b59576196fe90565b61fe8a90565b60ed8113611b7a5760ec03611b7457618aec90565b61eccd90565b60ee03611b875761cd5d90565b615dde90565b60f78113611bf95760f38113611bcb5760f18113611bb85760f003611bb25761de7290565b61724390565b60f203611bc55761431d90565b611d1890565b60f58113611be65760f403611be05761184890565b6148f390565b60f603611bf35761f38d90565b618d8090565b60fb8113611c2f5760f98113611c1c5760f803611c16576180c390565b61c34e90565b60fa03611c2957614e4290565b6142d790565b60fd8113611c4a5760fc03611c445761d73d90565b613d9c90565b60fe03611c5757619cb490565b61b49790565b600f81900b60016001607f1b031914610140575f03600f0b9056fe8be0079c531659141344cd1fd0a4f28419497f9722a3daafe3b4186f6b6457e0a2646970667358221220c43c39fbe4ba3cd35aba3deadefdfe79ec63b45ac3157fb7acfd49d273b2f82064736f6c634300081c0033","linkReferences":{}},"methodIdentifiers":{"calculatePerlin(uint256,uint256,uint256)":"2ab4a856","calculatePerlinAndGetItem(uint256,uint256,uint256)":"56bdc7f3","getItem(uint256,uint256)":"59cc334a","items(uint256,uint256)":"31e838dd","maxGroupIdNumber()":"009fc0db","owner()":"8da5cb5b","renounceOwnership()":"715018a6","setItem(uint256,uint256,uint256)":"ee33646c","setItems((uint256,uint256,uint256)[])":"7b7555f7","transferOwnership(address)":"f2fde38b"},"id":174}