{"abi":[{"type":"function","name":"_msgSender","inputs":[],"outputs":[{"name":"sender","type":"address","internalType":"address"}],"stateMutability":"view"},{"type":"function","name":"_msgValue","inputs":[],"outputs":[{"name":"value","type":"uint256","internalType":"uint256"}],"stateMutability":"pure"},{"type":"function","name":"_world","inputs":[],"outputs":[{"name":"","type":"address","internalType":"address"}],"stateMutability":"view"},{"type":"function","name":"claimGift","inputs":[{"name":"landId","type":"uint256","internalType":"uint256"},{"name":"giftId","type":"uint256","internalType":"uint256"}],"outputs":[],"stateMutability":"nonpayable"},{"type":"function","name":"gift","inputs":[{"name":"landId","type":"uint256","internalType":"uint256"},{"name":"recipient","type":"uint256","internalType":"uint256"},{"name":"itemIds","type":"uint256[]","internalType":"uint256[]"},{"name":"quantities","type":"uint256[]","internalType":"uint256[]"},{"name":"message","type":"string","internalType":"string"}],"outputs":[],"stateMutability":"nonpayable"},{"type":"function","name":"supportsInterface","inputs":[{"name":"interfaceId","type":"bytes4","internalType":"bytes4"}],"outputs":[{"name":"","type":"bool","internalType":"bool"}],"stateMutability":"pure"},{"type":"event","name":"Store_DeleteRecord","inputs":[{"name":"tableId","type":"bytes32","indexed":true,"internalType":"ResourceId"},{"name":"keyTuple","type":"bytes32[]","indexed":false,"internalType":"bytes32[]"}],"anonymous":false},{"type":"event","name":"Store_SetRecord","inputs":[{"name":"tableId","type":"bytes32","indexed":true,"internalType":"ResourceId"},{"name":"keyTuple","type":"bytes32[]","indexed":false,"internalType":"bytes32[]"},{"name":"staticData","type":"bytes","indexed":false,"internalType":"bytes"},{"name":"encodedLengths","type":"bytes32","indexed":false,"internalType":"EncodedLengths"},{"name":"dynamicData","type":"bytes","indexed":false,"internalType":"bytes"}],"anonymous":false},{"type":"event","name":"Store_SpliceStaticData","inputs":[{"name":"tableId","type":"bytes32","indexed":true,"internalType":"ResourceId"},{"name":"keyTuple","type":"bytes32[]","indexed":false,"internalType":"bytes32[]"},{"name":"start","type":"uint48","indexed":false,"internalType":"uint48"},{"name":"data","type":"bytes","indexed":false,"internalType":"bytes"}],"anonymous":false},{"type":"error","name":"AccessByNoOperator","inputs":[{"name":"owner","type":"address","internalType":"address"},{"name":"caller","type":"address","internalType":"address"}]},{"type":"error","name":"Slice_OutOfBounds","inputs":[{"name":"data","type":"bytes","internalType":"bytes"},{"name":"start","type":"uint256","internalType":"uint256"},{"name":"end","type":"uint256","internalType":"uint256"}]}],"bytecode":{"object":"0x608080604052346015576122e6908161001a8239f35b5f80fdfe60806040526004361015610011575f80fd5b5f3560e01c806301ffc9a714610074578063119df25f1461006f57806345ec93541461006a578063b5106d4714610065578063d304f357146100605763e1af802c1461005b575f80fd5b6103fa565b610340565b610121565b610102565b6100d6565b346100c85760203660031901126100c85760043563ffffffff60e01b81168091036100c85763b5dee12760e01b81149081156100b7575b50151560805260206080f35b6301ffc9a760e01b149050816100ab565b5f80fd5b5f9103126100c857565b346100c8575f3660031901126100c85760206100f061055f565b6040516001600160a01b039091168152f35b346100c8575f3660031901126100c8576020604051601f193601358152f35b346100c85760403660031901126100c85760043560243561014182610576565b50606061014d8261073e565b0151608061015a8361073e565b015192815184510361021f575f5b82518110156102145761017b818461072a565b51156101c757806101c161019b6101946001948761072a565b5185610c65565b6101ba6101a8848a61072a565b516101b3858961072a565b5192610552565b9085610c92565b01610168565b60405162461bcd60e51b815280610210600482016020808252808201527f496e76656e746f727953797374656d3a20696e76616c6964206974656d206964604082015260600190565b0390fd5b61021d8461081a565b005b60405162461bcd60e51b815260206004820152601e60248201527f496e76656e746f727953797374656d3a20696e76616c696420696e70757400006044820152606490fd5b634e487b7160e01b5f52604160045260245ffd5b601f909101601f19168101906001600160401b0382119082101761029b57604052565b610264565b604051906102af60a083610278565b565b6001600160401b03811161029b5760051b60200190565b9080601f830112156100c85781356102df816102b1565b926102ed6040519485610278565b81845260208085019260051b8201019283116100c857602001905b8282106103155750505090565b8135815260209182019101610308565b6001600160401b03811161029b57601f01601f191660200190565b346100c85760a03660031901126100c8576024356004356044356001600160401b0381116100c8576103769036906004016102c8565b6064356001600160401b0381116100c8576103959036906004016102c8565b608435939091906001600160401b0385116100c857366023860112156100c8578460040135936103c485610325565b946103d26040519687610278565b80865236602482890101116100c8576020815f92602461021d9a01838a013787010152610414565b346100c8575f3660031901126100c85760206100f0611175565b9192949061042183610576565b5083518651036104d7575f5b845181101561049857610440818661072a565b51156101c757806104926104606104596001948961072a565b5187610c65565b61048b61046d848c61072a565b5161047a818410156108c0565b610484858b61072a565b519261091a565b9087610c92565b0161042d565b5091926102af949591956104b26104ad610927565b61053f565b936104bb6102a0565b958652602086015260408501526060840152608083015261093a565b60405162461bcd60e51b815260206004820152602660248201527f496e76656e746f727953797374656d3a20696e76616c696420696e707574206c604482015265656e6774687360d01b6064820152608490fd5b634e487b7160e01b5f52601160045260245ffd5b906001820180921161054d57565b61052b565b9190820180921161054d57565b36603319013560601c90811561057157565b339150565b610586610581610695565b610dd4565b60601c6105948115156109b9565b6040516331a9108f60e11b81526004810183905290602090829060249082905afa908115610656575f91610627575b506105cc61055f565b916001600160a01b03808416908316149083908215610615575b5050156105f4575050600190565b6334a0e31960e21b5f526001600160a01b039081166004521660245260445ffd5b610620925083610a43565b825f6105e6565b610649915060203d60201161064f575b6106418183610278565b810190610a19565b5f6105c3565b503d610637565b610a38565b6040519060a082016001600160401b0381118382101761029b5760405260606080835f81525f602082015282604082015282808201520152565b604051906106a4602083610278565b5f808352366020840137565b604080519091906106c18382610278565b6001815291601f1901366020840137565b604051606091906106e38382610278565b6002815291601f1901366020840137565b634e487b7160e01b5f52603260045260245ffd5b8051156107155760200190565b6106f4565b8051600210156107155760600190565b80518210156107155760209160051b010190565b61074661065b565b5061074f6106b0565b80511561071557610764916020820152610b63565b9061076d61065b565b9260406020820151910151602085015283526108086107ed6107978364ffffffffff9060381c1690565b936107a28582611558565b946107ce6107b08760801c90565b966001600160801b03166107c3816111aa565b976020890190611ca7565b6108006107f26107ed606088901c64ffffffffff1684018094866115a8565b611ceb565b9560881c64ffffffffff1690565b8101916115a8565b60808401526060830152604082015290565b6108226106b0565b908151156107155760208201526001600160a01b0361083f611175565b1630810361085157506102af90611284565b803b156100c8576040805163505a181d60e01b81526311da599d60621b613a3160f11b0160048201526024810191909152915f91839182908490829061089b906044830190610b0e565b03925af18015610656576108ac5750565b806108ba5f6102af93610278565b806100cc565b156108c757565b60405162461bcd60e51b815260206004820152602560248201527f496e76656e746f727953797374656d3a20696e73756666696369656e742062616044820152646c616e636560d81b6064820152608490fd5b9190820391821161054d57565b610937610932610695565b610eb3565b90565b906102af9181516020830151604051916020830152604082015260408152610963606082610278565b60408301519260806060820151910151610984855191835193815197611059565b9461098d6106b0565b9461099786610708565b5280608d1b928060651b928060381b9260051b9160051b0101171717916110c1565b156109c057565b60405162461bcd60e51b815260206004820152602b60248201527f4c69624c616e644163636573733a206c616e644e46547320616464726573732060448201526a063616e6e6f7420626520360ac1b6064820152608490fd5b908160209103126100c857516001600160a01b03811681036100c85790565b6040513d5f823e3d90fd5b919060405192610a54608085610278565b60038452610a6260036102b1565b602085019190601f1901368337845115610715576001600160a01b0316905282516001101561071557604083015261093791610ac291610ab591906001600160a01b0316610aaf8261071a565b52610f37565b6001600160f81b03191690565b60f81c90565b81601f820112156100c857805190610adf82610325565b92610aed6040519485610278565b828452602083830101116100c857815f9260208093018386015e8301015290565b90602080835192838152019201905f5b818110610b2b5750505090565b8251845260209384019390920191600101610b1e565b939291610b5e906040928652606060208701526060860190610b0e565b930152565b6001600160a01b03610b73611175565b16308103610ba55750610b9e9064020010190160d51b906311da599d60621b613a3160f11b016111dc565b9192909190565b60405163419b58fd60e01b815292915f91849182908190610be29064020010190160d51b906311da599d60621b613a3160f11b0160048501610b41565b03915afa908115610656575f5f935f93610bfd575b50929190565b93505090503d805f843e610c118184610278565b8201906060838303126100c85782516001600160401b0381116100c85782610c3a918501610ac8565b92602081015192604082015160018060401b0381116100c857610c5d9201610ac8565b91925f610bf7565b610c6d6106d2565b9081511561071557602082015280516001101561071557610937916040820152610fc3565b90610c9b6106d2565b9182511561071557602083015281516001101561071557604082015260405191602083015260208252610ccf604083610278565b6001600160a01b03610cdf611175565b1691308303610d11576102af9250630100080160dd1b915f9068496e76656e746f727960381b613a3160f11b01611622565b823b156100c8576040516301c85d5760e51b815268496e76656e746f727960381b613a3160f11b01600482015260a06024820152925f928492839185918391610d7b9190610d639060a4850190610b0e565b9084604485015260031984830301606485015261109d565b630100080160dd1b608483015203925af18015610656576108ac5750565b908160209103126100c8575190565b90610dc960609360ff92979695978452608060208501526080840190610b0e565b951660408201520152565b6001600160a01b03610de4611175565b16308103610e245750610937906d3702c00505050505050505050505608a1b906004906f436f6e66696741646472657373657300613a3160f11b016112b4565b604051638c364d5960e01b815291602091839182908190610e75906d3702c00505050505050505050505608a1b906004906f436f6e66696741646472657373657300613a3160f11b01828601610da8565b03915afa908115610656575f91610e8a575090565b610937915060203d602011610eac575b610ea48183610278565b810190610d99565b503d610e9a565b6001600160a01b03610ec3611175565b16308103610ef4575061093790630100080160dd1b905f9068476966744e6f6e636560381b613a3160f11b016112b4565b604051638c364d5960e01b815291602091839182908190610e7590630100080160dd1b905f9068476966744e6f6e636560381b613a3160f11b0160048601610da8565b6001600160a01b03610f47611175565b16308103610f7c575061093790630101000160d81b905f906f4c616e645065726d697373696f6e7300613a3160f11b016112b4565b604051638c364d5960e01b815291602091839182908190610e7590630101000160d81b905f906f4c616e645065726d697373696f6e7300613a3160f11b0160048601610da8565b6001600160a01b03610fd3611175565b16308103611004575061093790630100080160dd1b905f9068496e76656e746f727960381b613a3160f11b016112b4565b604051638c364d5960e01b815291602091839182908190610e7590630100080160dd1b905f9068496e76656e746f727960381b613a3160f11b0160048601610da8565b805191908290602001825e015f815290565b61108f611089936110896110786110726109379661131c565b9261131c565b916040519687956020870190611047565b90611047565b03601f198101835282610278565b805180835260209291819084018484015e5f828201840152601f01601f1916010190565b9192916001600160a01b036110d4611175565b163081036110f757506102af9391906311da599d60621b613a3160f11b01611375565b9092813b156100c85760405163298314fb60e01b81526311da599d60621b613a3160f11b01600482015260a06024820152945f94869485938793859361089b9391929161115e9161114c9060a4880190610b0e565b8681036003190160448801529061109d565b91606485015260031984830301608485015261109d565b7f629a4c26e296b22a8e0856e9f6ecb2d1008d7e00081111962cd175fa7488e175546001600160a01b03168061093757503390565b906111b482610325565b6111c16040519182610278565b82815280926111d2601f1991610325565b0190602036910137565b91925f926060926111fe6111f48760f01c838561138c565b9660e01c60ff1690565b918261120957505050565b91945092506112188382611c79565b549361122c66ffffffffffffff86166111aa565b935f92602086015b8360ff861610611245575050505050565b6112508584846113f1565b6112658261125e888c611430565b8093611445565b810180911161054d5760ff90941660ff811461054d5760010193611234565b6102af9061129f6311da599d60621b613a3160f11b0161163e565b906311da599d60621b613a3160f11b016116d2565b6112da916112c49194939461190e565b9260ff808216601b0360031b84901c169261193c565b9180602084101561130b575b5080548360031b1b926020038092116112fe57505090565b600101549060031b1c1790565b601f84169360051c0190505f6112e6565b80518060051b908082046020148115171561054d5790604051926020840191601f19603f8287010116604052845260205f9101905b83811061135f575050505090565b6020600181928451865201920192019190611351565b9290916102af94926113868561163e565b946119fe565b91909181156113a757610937926113a29161190e565b611c56565b5050506040516113b8602082610278565b5f815290565b60209181520160208251919201905f5b8181106113db5750505090565b82518452602093840193909201916001016113ce565b61108f6114185f5160206122515f395f51905f5294936040519283916020830195866113be565b51902060f89190911b6001600160f81b031916181890565b60ff64ffffffffff92166028026038011c1690565b905b6020811015611470578061145a57505050565b5f199060031b1c90818351169119905416179052565b919060018160209254845201910191601f1901611447565b9190806114d4575b505b60208110156114bc57806114a557505050565b5f1960039190911b1c825191548119169116179052565b919060018160209254845201910191601f1901611492565b602081101561153c575b801561149057929183602003908183105f1461152f575f19600384901b1c5b81548660031b1b818651169119161784528183111561152857600101920192601f199101015f611490565b5050505050565b5f19600383901b1c6114fd565b916115539061154b8460051c90565b0192601f1690565b6114de565b805182116115735760200160801b9060018060801b03161790565b6040516323230fa360e01b81526060600482015291829161159890606484019061109d565b905f602484015260448301520390fd5b8282118015611618575b6115e357908160208281940101928391011161054d57820391821161054d5760801b6001600160801b039091161790565b6040516323230fa360e01b8152606060048201529283929161160990606485019061109d565b91602484015260448301520390fd5b50805183116115b2565b9161163765ffffffffffff916102af9661193c565b1691611dfd565b655461626c657360501b66746273746f726560c81b0181146116a65760408051655461626c657360501b66746273746f726560c81b016020820190815281830193909352908152611690606082610278565b5190205f5160206122115f395f51905f52185490565b506503001811010160cd1b90565b906020610937928181520190610b0e565b6001600160581b03191690565b9092916001600160f01b03198216611bdd60f21b146118e8576116f482611fe7565b5f5b81518110156117ce5761172261171d61170f838561072a565b516001600160581b03191690565b6116c5565b611732816040809160581c161490565b611740575b506001016116f6565b611768611768611762611755611774946116c5565b6001600160601b03191690565b60601c90565b6001600160a01b031690565b90813b156100c857604051639faeaf4560e01b8152915f9083908183816117a08a8e8d60048501610b41565b03925af1918215610656576001926117ba575b5090611737565b806108ba5f6117c893610278565b5f6117b3565b50825f5160206122915f395f51905f52604051806117ec89826116b4565b0390a26118146117fc868561190e565b61180e6118098560f01c90565b6111aa565b906120ad565b60e082901c60ff166118d1575b5f5b81518110156118c95761183c61171d61170f838561072a565b61184c816080809160581c161490565b61185a575b50600101611823565b61176861176861176261175561186f946116c5565b90813b156100c8576040516383b5c95b60e01b8152915f90839081838161189b8a8e8d60048501610b41565b03925af1918215610656576001926118b5575b5090611851565b806108ba5f6118c393610278565b5f6118ae565b505050509050565b6118e36118de8685611c79565b6120cf565b611821565b5090916119095f5160206122915f395f51905f5291604051918291826116b4565b0390a2565b9061192761108f916040519283916020830195866113be565b5190205f5160206122115f395f51905f521890565b5f915f915b60ff821683106119515750505090565b909192611967848360ff91601b0360031b1c1690565b810180911161054d57926001019190611941565b9061093794926119966119a492608085526080850190610b0e565b90838203602085015261109d565b926040820152606081840391015261109d565b96959490610b5e936119dd60a096946119eb938b5260c060208c015260c08b0190610b0e565b9089820360408b015261109d565b916060880152868203608088015261109d565b9295949192916001600160f01b03198316611bdd60f21b14611c3357611a2383611fe7565b5f5b8151811015611ad057611a3e61171d61170f838561072a565b611a4e816001809160581c161490565b611a5c575b50600101611a25565b611768611768611762611755611a71946116c5565b90813b156100c8575f878b9387838a611aa28a8f6040519a8b98899788966315c19b2760e21b8852600488016119b7565b03925af191821561065657600192611abc575b5090611a53565b806108ba5f611aca93610278565b5f611ab5565b50835f5160206122315f395f51905f5260405180611af18a8d8b8a8561197b565b0390a2611b0d611b01848661190e565b865160208801916120f2565b60e082901c60ff1680611bd4575b505f5b8151811015611bc957611b3761171d61170f838561072a565b611b47816002809160581c161490565b611b55575b50600101611b1e565b611768611768611762611755611b6a946116c5565b90813b156100c8575f878b9387838a611b9b8a8f6040519a8b9889978896635b28cdaf60e01b8852600488016119b7565b03925af191821561065657600192611bb5575b5090611b4c565b806108ba5f611bc393610278565b5f611bae565b505050505050509050565b88611bdf8587611c79565b555f602088015b85878c8560ff861610611bfd575050505050611b1b565b83611c2560ff95611c1e88611c1881600199611c2a996113f1565b95611430565b80946120f2565b610552565b92011690611be6565b509093945f5160206122315f395f51905f5293611909916040519485948561197b565b6109379060405192601f19603f82860101166040528084525f6020850192611488565b90611c9261108f916040519283916020830195866113be565b5190205f5160206122715f395f51905f521890565b90915b6020811015611cd4578015611ccf575f199060031b1c90818351169119905116179052565b505050565b8151835260209283019290910190601f1901611caa565b6040805160206020600160801b0384168201810190925260016001607b1b03600584901c16808252909392909160809190911c9084015f5b838110611d305750505050565b6020600181928551855201920192019190611d23565b9060158260801c9260018060801b031604604051926020840160208360051b8601016040528285525f5b838110611d7d5750505050565b602060016015928551855201920192019190611d70565b65ffffffffffff611db16109379593606084526060840190610b0e565b93166020820152604081840391015261109d565b90611de9610937959365ffffffffffff928452608060208501526080840190610b0e565b93166040820152606081840391015261109d565b92939291906001600160f01b03198316611bdd60f21b14611fc757611e22818461190e565b93611e2c84611fe7565b90865f5b8351811015611ede57611e4961171d61170f838761072a565b611e59816004809160581c161490565b611e67575b50600101611e30565b611e7f919250611768611762611755611768936116c5565b90813b156100c8575f868a9387838b611eae6040519889968795869463964f667d60e01b865260048601611dc5565b03925af1908115610656578992600192611eca575b5090611e5e565b806108ba5f611ed893610278565b5f611ec3565b50611f159196865f5160206121f15f395f51905f5260405180611f03868b8b84611d94565b0390a265ffffffffffff8616906120be565b5f5b8151811015611fbe57611f3061171d61170f838561072a565b611f40816008809160581c161490565b611f4e575b50600101611f17565b611768611768611762611755611f63946116c5565b90813b156100c85760405163a8ba872160e01b8152915f908390818381611f908e8c8c8f60048601611dc5565b03925af191821561065657600192611faa575b5090611f45565b806108ba5f611fb893610278565b5f611fa3565b50505050509050565b6119095f5160206121f15f395f51905f5293949560405193849384611d94565b611fef6106b0565b805115610715576120a0816109379360206120a894015264ffffffffff5f5160206122515f395f51905f52604051602081019061204a8161108f876953746f7265486f6f6b7360301b66746273746f726560c81b01866113be565b51902060405191189260208201919061208390829061108f906953746f7265486f6f6b7360301b66746273746f726560c81b01866113be565b5190205f5160206122715f395f51905f52185460381c1690611c56565b805190611558565b611d46565b6102af915f60208251920192612136565b82516102af93602001929091612136565b6001810180821161054d57905b8181106120e7575050565b5f81556001016120dc565b91905b602081101561211e578061210857505050565b5f199060031b1c90818354169119905116179055565b909160016020918451815501920190601f19016120f5565b92919080612183575b505b602081101561216b578061215457505050565b5f1960039190911b1c825491518119169116179055565b909160016020918451815501920190601f1901612141565b60208110156121d4575b801561213f5791926020839003905f19600384901b1c198460031b90811c908651901c9080198354169116178155818311156115285760010193019101601f19015f61213f565b926121eb906121e38560051c90565b0193601f1690565b61218d56fe8c0b5119d4cec7b284c6b1b39252a03d1e2f2d7451a5895562524c113bb952be86425bff6b57326c7859e89024fe4f238ca327a1ae4a230180dd2f0e88aaa7d98dbb3a9672eebfd3773e72dd9c102393436816d832c7ba9e1e1ac8fcadcac7a93b4102da22e32d82fc925482184f16c09fd4281692720b87d124aef6da48a0f114e2fcc58e58e68ec7edc30c8d50dccc3ce2714a623ec81f46b6a63922d765690e1f72f429eb97e64878619984a91e687ae91610348b9ff4216782cc96e49d07a2646970667358221220d522cf65144d3e4a21868fa7a365c652dac834a3a9540d83f4e14f3ef6f182f364736f6c634300081c0033","linkReferences":{}},"methodIdentifiers":{"_msgSender()":"119df25f","_msgValue()":"45ec9354","_world()":"e1af802c","claimGift(uint256,uint256)":"b5106d47","gift(uint256,uint256,uint256[],uint256[],string)":"d304f357","supportsInterface(bytes4)":"01ffc9a7"},"id":238}