{"abi":[{"type":"function","name":"_msgSender","inputs":[],"outputs":[{"name":"sender","type":"address","internalType":"address"}],"stateMutability":"view"},{"type":"function","name":"_msgValue","inputs":[],"outputs":[{"name":"value","type":"uint256","internalType":"uint256"}],"stateMutability":"pure"},{"type":"function","name":"_world","inputs":[],"outputs":[{"name":"","type":"address","internalType":"address"}],"stateMutability":"view"},{"type":"function","name":"addNewQuest","inputs":[{"name":"questDTO","type":"tuple","internalType":"struct QuestDTO","components":[{"name":"id","type":"uint256","internalType":"uint256"},{"name":"quest","type":"tuple","internalType":"struct QuestData","components":[{"name":"duration","type":"uint256","internalType":"uint256"},{"name":"exists","type":"bool","internalType":"bool"},{"name":"questName","type":"string","internalType":"string"},{"name":"rewardIds","type":"uint256[]","internalType":"uint256[]"},{"name":"tasks","type":"bytes32[]","internalType":"bytes32[]"}]},{"name":"tasks","type":"tuple[]","internalType":"struct QuestTaskDTO[]","components":[{"name":"taskId","type":"bytes32","internalType":"bytes32"},{"name":"task","type":"tuple","internalType":"struct QuestTaskData","components":[{"name":"questId","type":"uint256","internalType":"uint256"},{"name":"taskType","type":"uint256","internalType":"uint256"},{"name":"key","type":"bytes32","internalType":"bytes32"},{"name":"quantity","type":"uint256","internalType":"uint256"},{"name":"exists","type":"bool","internalType":"bool"},{"name":"name","type":"string","internalType":"string"},{"name":"taskKeys","type":"bytes32[]","internalType":"bytes32[]"}]}]},{"name":"rewards","type":"tuple[]","internalType":"struct RewardDTO[]","components":[{"name":"id","type":"uint256","internalType":"uint256"},{"name":"reward","type":"tuple","internalType":"struct RewardData","components":[{"name":"itemId","type":"uint256","internalType":"uint256"},{"name":"rewardType","type":"uint256","internalType":"uint256"},{"name":"quantity","type":"uint256","internalType":"uint256"}]}]}]}],"outputs":[],"stateMutability":"nonpayable"},{"type":"function","name":"addNewQuests","inputs":[{"name":"quests","type":"tuple[]","internalType":"struct QuestDTO[]","components":[{"name":"id","type":"uint256","internalType":"uint256"},{"name":"quest","type":"tuple","internalType":"struct QuestData","components":[{"name":"duration","type":"uint256","internalType":"uint256"},{"name":"exists","type":"bool","internalType":"bool"},{"name":"questName","type":"string","internalType":"string"},{"name":"rewardIds","type":"uint256[]","internalType":"uint256[]"},{"name":"tasks","type":"bytes32[]","internalType":"bytes32[]"}]},{"name":"tasks","type":"tuple[]","internalType":"struct QuestTaskDTO[]","components":[{"name":"taskId","type":"bytes32","internalType":"bytes32"},{"name":"task","type":"tuple","internalType":"struct QuestTaskData","components":[{"name":"questId","type":"uint256","internalType":"uint256"},{"name":"taskType","type":"uint256","internalType":"uint256"},{"name":"key","type":"bytes32","internalType":"bytes32"},{"name":"quantity","type":"uint256","internalType":"uint256"},{"name":"exists","type":"bool","internalType":"bool"},{"name":"name","type":"string","internalType":"string"},{"name":"taskKeys","type":"bytes32[]","internalType":"bytes32[]"}]}]},{"name":"rewards","type":"tuple[]","internalType":"struct RewardDTO[]","components":[{"name":"id","type":"uint256","internalType":"uint256"},{"name":"reward","type":"tuple","internalType":"struct RewardData","components":[{"name":"itemId","type":"uint256","internalType":"uint256"},{"name":"rewardType","type":"uint256","internalType":"uint256"},{"name":"quantity","type":"uint256","internalType":"uint256"}]}]}]}],"outputs":[],"stateMutability":"nonpayable"},{"type":"function","name":"addRewards","inputs":[{"name":"rewardDTO","type":"tuple[]","internalType":"struct RewardDTO[]","components":[{"name":"id","type":"uint256","internalType":"uint256"},{"name":"reward","type":"tuple","internalType":"struct RewardData","components":[{"name":"itemId","type":"uint256","internalType":"uint256"},{"name":"rewardType","type":"uint256","internalType":"uint256"},{"name":"quantity","type":"uint256","internalType":"uint256"}]}]}],"outputs":[],"stateMutability":"nonpayable"},{"type":"function","name":"getAllActiveQuestGroups","inputs":[],"outputs":[{"name":"questGroups","type":"tuple[]","internalType":"struct QuestGroupDTO[]","components":[{"name":"id","type":"uint256","internalType":"uint256"},{"name":"questGroup","type":"tuple","internalType":"struct QuestGroupData","components":[{"name":"startsAt","type":"uint256","internalType":"uint256"},{"name":"expiresAt","type":"uint256","internalType":"uint256"},{"name":"sequential","type":"bool","internalType":"bool"},{"name":"questGroupType","type":"uint256","internalType":"uint256"},{"name":"questIds","type":"uint256[]","internalType":"uint256[]"},{"name":"rewardIds","type":"uint256[]","internalType":"uint256[]"}]},{"name":"quests","type":"tuple[]","internalType":"struct QuestDTO[]","components":[{"name":"id","type":"uint256","internalType":"uint256"},{"name":"quest","type":"tuple","internalType":"struct QuestData","components":[{"name":"duration","type":"uint256","internalType":"uint256"},{"name":"exists","type":"bool","internalType":"bool"},{"name":"questName","type":"string","internalType":"string"},{"name":"rewardIds","type":"uint256[]","internalType":"uint256[]"},{"name":"tasks","type":"bytes32[]","internalType":"bytes32[]"}]},{"name":"tasks","type":"tuple[]","internalType":"struct QuestTaskDTO[]","components":[{"name":"taskId","type":"bytes32","internalType":"bytes32"},{"name":"task","type":"tuple","internalType":"struct QuestTaskData","components":[{"name":"questId","type":"uint256","internalType":"uint256"},{"name":"taskType","type":"uint256","internalType":"uint256"},{"name":"key","type":"bytes32","internalType":"bytes32"},{"name":"quantity","type":"uint256","internalType":"uint256"},{"name":"exists","type":"bool","internalType":"bool"},{"name":"name","type":"string","internalType":"string"},{"name":"taskKeys","type":"bytes32[]","internalType":"bytes32[]"}]}]},{"name":"rewards","type":"tuple[]","internalType":"struct RewardDTO[]","components":[{"name":"id","type":"uint256","internalType":"uint256"},{"name":"reward","type":"tuple","internalType":"struct RewardData","components":[{"name":"itemId","type":"uint256","internalType":"uint256"},{"name":"rewardType","type":"uint256","internalType":"uint256"},{"name":"quantity","type":"uint256","internalType":"uint256"}]}]}]},{"name":"rewards","type":"tuple[]","internalType":"struct RewardDTO[]","components":[{"name":"id","type":"uint256","internalType":"uint256"},{"name":"reward","type":"tuple","internalType":"struct RewardData","components":[{"name":"itemId","type":"uint256","internalType":"uint256"},{"name":"rewardType","type":"uint256","internalType":"uint256"},{"name":"quantity","type":"uint256","internalType":"uint256"}]}]}]}],"stateMutability":"view"},{"type":"function","name":"getAllQuests","inputs":[],"outputs":[{"name":"quests","type":"tuple[]","internalType":"struct QuestDTO[]","components":[{"name":"id","type":"uint256","internalType":"uint256"},{"name":"quest","type":"tuple","internalType":"struct QuestData","components":[{"name":"duration","type":"uint256","internalType":"uint256"},{"name":"exists","type":"bool","internalType":"bool"},{"name":"questName","type":"string","internalType":"string"},{"name":"rewardIds","type":"uint256[]","internalType":"uint256[]"},{"name":"tasks","type":"bytes32[]","internalType":"bytes32[]"}]},{"name":"tasks","type":"tuple[]","internalType":"struct QuestTaskDTO[]","components":[{"name":"taskId","type":"bytes32","internalType":"bytes32"},{"name":"task","type":"tuple","internalType":"struct QuestTaskData","components":[{"name":"questId","type":"uint256","internalType":"uint256"},{"name":"taskType","type":"uint256","internalType":"uint256"},{"name":"key","type":"bytes32","internalType":"bytes32"},{"name":"quantity","type":"uint256","internalType":"uint256"},{"name":"exists","type":"bool","internalType":"bool"},{"name":"name","type":"string","internalType":"string"},{"name":"taskKeys","type":"bytes32[]","internalType":"bytes32[]"}]}]},{"name":"rewards","type":"tuple[]","internalType":"struct RewardDTO[]","components":[{"name":"id","type":"uint256","internalType":"uint256"},{"name":"reward","type":"tuple","internalType":"struct RewardData","components":[{"name":"itemId","type":"uint256","internalType":"uint256"},{"name":"rewardType","type":"uint256","internalType":"uint256"},{"name":"quantity","type":"uint256","internalType":"uint256"}]}]}]}],"stateMutability":"view"},{"type":"function","name":"getQuest","inputs":[{"name":"questId","type":"uint256","internalType":"uint256"}],"outputs":[{"name":"questDTO","type":"tuple","internalType":"struct QuestDTO","components":[{"name":"id","type":"uint256","internalType":"uint256"},{"name":"quest","type":"tuple","internalType":"struct QuestData","components":[{"name":"duration","type":"uint256","internalType":"uint256"},{"name":"exists","type":"bool","internalType":"bool"},{"name":"questName","type":"string","internalType":"string"},{"name":"rewardIds","type":"uint256[]","internalType":"uint256[]"},{"name":"tasks","type":"bytes32[]","internalType":"bytes32[]"}]},{"name":"tasks","type":"tuple[]","internalType":"struct QuestTaskDTO[]","components":[{"name":"taskId","type":"bytes32","internalType":"bytes32"},{"name":"task","type":"tuple","internalType":"struct QuestTaskData","components":[{"name":"questId","type":"uint256","internalType":"uint256"},{"name":"taskType","type":"uint256","internalType":"uint256"},{"name":"key","type":"bytes32","internalType":"bytes32"},{"name":"quantity","type":"uint256","internalType":"uint256"},{"name":"exists","type":"bool","internalType":"bool"},{"name":"name","type":"string","internalType":"string"},{"name":"taskKeys","type":"bytes32[]","internalType":"bytes32[]"}]}]},{"name":"rewards","type":"tuple[]","internalType":"struct RewardDTO[]","components":[{"name":"id","type":"uint256","internalType":"uint256"},{"name":"reward","type":"tuple","internalType":"struct RewardData","components":[{"name":"itemId","type":"uint256","internalType":"uint256"},{"name":"rewardType","type":"uint256","internalType":"uint256"},{"name":"quantity","type":"uint256","internalType":"uint256"}]}]}]}],"stateMutability":"view"},{"type":"function","name":"supportsInterface","inputs":[{"name":"interfaceId","type":"bytes4","internalType":"bytes4"}],"outputs":[{"name":"","type":"bool","internalType":"bool"}],"stateMutability":"pure"},{"type":"function","name":"updateQuest","inputs":[{"name":"questId","type":"uint256","internalType":"uint256"},{"name":"quest","type":"tuple","internalType":"struct QuestData","components":[{"name":"duration","type":"uint256","internalType":"uint256"},{"name":"exists","type":"bool","internalType":"bool"},{"name":"questName","type":"string","internalType":"string"},{"name":"rewardIds","type":"uint256[]","internalType":"uint256[]"},{"name":"tasks","type":"bytes32[]","internalType":"bytes32[]"}]}],"outputs":[],"stateMutability":"nonpayable"},{"type":"function","name":"upsertQuestCollections","inputs":[{"name":"questCollections","type":"tuple[]","internalType":"struct QuestCollectionDTO[]","components":[{"name":"questGroupType","type":"uint256","internalType":"uint256"},{"name":"questIds","type":"uint256[]","internalType":"uint256[]"}]}],"outputs":[],"stateMutability":"nonpayable"},{"type":"function","name":"upsertRewardColletions","inputs":[{"name":"rewardCollections","type":"tuple[]","internalType":"struct RewardCollectionDTO[]","components":[{"name":"rewardType","type":"uint256","internalType":"uint256"},{"name":"rewardIds","type":"uint256[]","internalType":"uint256[]"}]}],"outputs":[],"stateMutability":"nonpayable"},{"type":"function","name":"upsertTransformationCategories","inputs":[{"name":"transformationCategories","type":"tuple[]","internalType":"struct TransformationWithCategoriesDTO[]","components":[{"name":"base","type":"uint256","internalType":"uint256"},{"name":"input","type":"uint256","internalType":"uint256"},{"name":"categories","type":"uint256[]","internalType":"uint256[]"}]}],"outputs":[],"stateMutability":"nonpayable"},{"type":"event","name":"Store_SetRecord","inputs":[{"name":"tableId","type":"bytes32","indexed":true,"internalType":"ResourceId"},{"name":"keyTuple","type":"bytes32[]","indexed":false,"internalType":"bytes32[]"},{"name":"staticData","type":"bytes","indexed":false,"internalType":"bytes"},{"name":"encodedLengths","type":"bytes32","indexed":false,"internalType":"EncodedLengths"},{"name":"dynamicData","type":"bytes","indexed":false,"internalType":"bytes"}],"anonymous":false},{"type":"event","name":"Store_SpliceDynamicData","inputs":[{"name":"tableId","type":"bytes32","indexed":true,"internalType":"ResourceId"},{"name":"keyTuple","type":"bytes32[]","indexed":false,"internalType":"bytes32[]"},{"name":"dynamicFieldIndex","type":"uint8","indexed":false,"internalType":"uint8"},{"name":"start","type":"uint48","indexed":false,"internalType":"uint48"},{"name":"deleteCount","type":"uint40","indexed":false,"internalType":"uint40"},{"name":"encodedLengths","type":"bytes32","indexed":false,"internalType":"EncodedLengths"},{"name":"data","type":"bytes","indexed":false,"internalType":"bytes"}],"anonymous":false},{"type":"event","name":"Store_SpliceStaticData","inputs":[{"name":"tableId","type":"bytes32","indexed":true,"internalType":"ResourceId"},{"name":"keyTuple","type":"bytes32[]","indexed":false,"internalType":"bytes32[]"},{"name":"start","type":"uint48","indexed":false,"internalType":"uint48"},{"name":"data","type":"bytes","indexed":false,"internalType":"bytes"}],"anonymous":false},{"type":"error","name":"EncodedLengths_InvalidLength","inputs":[{"name":"length","type":"uint256","internalType":"uint256"}]},{"type":"error","name":"Slice_OutOfBounds","inputs":[{"name":"data","type":"bytes","internalType":"bytes"},{"name":"start","type":"uint256","internalType":"uint256"},{"name":"end","type":"uint256","internalType":"uint256"}]},{"type":"error","name":"Store_IndexOutOfBounds","inputs":[{"name":"length","type":"uint256","internalType":"uint256"},{"name":"accessedIndex","type":"uint256","internalType":"uint256"}]},{"type":"error","name":"Store_InvalidResourceType","inputs":[{"name":"expected","type":"bytes2","internalType":"bytes2"},{"name":"resourceId","type":"bytes32","internalType":"ResourceId"},{"name":"resourceIdString","type":"string","internalType":"string"}]},{"type":"error","name":"Store_InvalidSplice","inputs":[{"name":"startWithinField","type":"uint40","internalType":"uint40"},{"name":"deleteCount","type":"uint40","internalType":"uint40"},{"name":"fieldLength","type":"uint40","internalType":"uint40"}]},{"type":"error","name":"World_AccessDenied","inputs":[{"name":"resource","type":"string","internalType":"string"},{"name":"caller","type":"address","internalType":"address"}]}],"bytecode":{"object":"0x60808060405234601557613c0d908161001a8239f35b5f80fdfe60806040526004361015610011575f80fd5b5f3560e01c806301ffc9a7146100f4578063119df25f146100ef57806326129fe8146100ea578063287cd48c146100e55780633bb659a2146100e0578063425a656c146100db57806345ec9354146100d657806348198d0b146100d157806349f86f34146100cc5780637272dd79146100c75780638b9963a8146100c257806393151b04146100bd578063d52b2467146100b85763e1af802c146100b3575f80fd5b610b00565b610a36565b610844565b61071d565b610675565b610639565b6105ed565b6105ce565b610579565b6104f4565b610233565b610184565b610158565b3461014a57602036600319011261014a5760043563ffffffff60e01b811680910361014a5760209063b5dee12760e01b8114908115610139575b506040519015158152f35b6301ffc9a760e01b1490505f61012e565b5f80fd5b5f91031261014a57565b3461014a575f36600319011261014a5760206101726111c9565b6040516001600160a01b039091168152f35b3461014a57602036600319011261014a576004356001600160401b03811161014a573660238201121561014a5760048101356001600160401b03811161014a573660248260071b8401011161014a5760246101df9201610b72565b005b90602060031983011261014a576004356001600160401b03811161014a5760040182601f8201121561014a578035926001600160401b03841161014a576020808301928560051b01011161014a579190565b3461014a57610241366101e1565b61025161024c6111e0565b610b1a565b36829003607e1901915f5b828110156101df578060051b820135908482121561014a5761028b610286600193369086016110d4565b611535565b0161025c565b805180835260209291819084018484015e5f828201840152601f01601f1916010190565b90602080835192838152019201905f5b8181106102d25750505090565b82518452602093840193909201916001016102c5565b9080602083519182815201916020808360051b8301019401925f915b83831061031357505050505090565b909192939460208061039b600193601f19868203018752828a51805183520151906040848201528151604082015283820151606082015260408201516080820152606082015160a08201526080820151151560c082015260c061038560a084015160e080850152610120840190610291565b92015190610100603f19828503019101526102b5565b97019301930191939290610304565b90602080835192838152019201905f5b8181106103c75750505090565b90919260206080600192604083885180518452015180518584015284810151828401520151606082015201940191019190916103ba565b61049991815181526060610488610476602085015160806020860152805160808601526020810151151560a0860152608061046161044c604084015160a060c08a0152610120890190610291565b83870151888203607f190160e08a01526102b5565b910151858203607f19016101008701526102b5565b604085015184820360408601526102e8565b9201519060608184039101526103aa565b90565b9080602083519182815201916020808360051b8301019401925f915b8383106104c757505050505090565b90919293946020806104e5600193601f1986820301875289516103fe565b970193019301919392906104b8565b3461014a575f36600319011261014a5761051461050f6113c3565b611fab565b61051d81611332565b905f5b818110610541576040516020808252819061053d9082018661049c565b0390f35b600181019081811161057457610558600192611727565b61056282866113af565b5261056d81856113af565b5001610520565b611381565b3461014a57604036600319011261014a576024356004356001600160401b03821161014a5760a0600319833603011261014a576105c86101df926105be61024c6111e0565b3690600401610e3e565b90611422565b3461014a575f36600319011261014a576020604051601f193601358152f35b3461014a57602036600319011261014a576004356001600160401b03811161014a576080600319823603011261014a576102866101df9161062f61024c6111e0565b36906004016110d4565b3461014a57602036600319011261014a5761053d61066160043561065b61119e565b50611727565b6040519182916020835260208301906103fe565b3461014a57610683366101e1565b61068e61024c6111e0565b5f5b81811061069957005b6106a4818385611811565b359060206106b3828587611811565b0135916106d86106d16106c7848789611811565b6040810190611833565b3691610d7a565b906106e16113de565b908151156107185760208201528051600110156107185761070c610712926001956040840152612185565b906126aa565b01610690565b61131e565b3461014a5761072b366101e1565b61073661024c6111e0565b5f5b81811061074157005b61074c818385611868565b35906107696106d161075f838688611868565b6020810190611833565b91610772611400565b9283511561071857610788916020850152612185565b916001600160a01b03610799611ee1565b163081036107ce57506001926107c8915f906f526577617264436f6c6c656374696f6e613a3160f11b01612f87565b01610738565b92833b1561014a576040516377b7543160e11b8152935f928592839185918391610816919084906f526577617264436f6c6c656374696f6e613a3160f11b0160048601612677565b03925af191821561083f5760019261082f575b506107c8565b5f61083991610cb2565b5f610829565b611998565b3461014a57610852366101e1565b61085d61024c6111e0565b5f5b81811061086857005b610873818385611868565b35906108866106d161075f838688611868565b9161088f611400565b92835115610718576108a5916020850152612185565b916001600160a01b036108b6611ee1565b163081036108eb57506001926108e5915f906f5175657374436f6c6c656374696f6e00613a3160f11b01612f87565b0161085f565b92833b1561014a576040516377b7543160e11b8152935f928592839185918391610933919084906f5175657374436f6c6c656374696f6e00613a3160f11b0160048601612677565b03925af191821561083f5760019261094c575b506108e5565b5f61095691610cb2565b5f610946565b602081016020825282518091526040820191602060408360051b8301019401925f915b83831061098e57505050505090565b9091929394602080610a27600193603f19868203018752895190815181526060610488610a1586850151608088860152805160808601528781015160a08601526040810151151560c08601528381015160e086015260a0610a00608083015160c06101008901526101408801906102b5565b910151858203607f19016101208701526102b5565b6040850151848203604086015261049c565b9701930193019193929061097f565b3461014a575f36600319011261014a57610a69610a64610a5c610a576113c3565b612756565b805190612810565b61329d565b805190610a7582610d63565b91610a836040519384610cb2565b808352610a92601f1991610d63565b015f5b818110610ae95750505f5b8151811015610adb5780610abf610ab9600193856113af565b51611e2d565b610ac982866113af565b52610ad481856113af565b5001610aa0565b6040518061053d858261095c565b602090610af46118ca565b82828701015201610a95565b3461014a575f36600319011261014a576020610172611ee1565b15610b2157565b60405162461bcd60e51b815260206004820152602360248201527f526f6f744163636573734f70657261746f723a204e6f206f776e65722061636360448201526265737360e81b6064820152608490fd5b9091610b7f61024c6111e0565b5f5b83811015610c4257610b98368260071b8501611016565b90610ba9610ba46113c3565b61206b565b8251908111610c13575b50602082519201519182519260406020820151910151906040519460208601526040850152606084015260608352610bec608084610cb2565b610bf4611400565b928351156107185783610c0d92602060019601526119a3565b01610b81565b610c3c90610c1f6113c3565b60405191602083015260208252610c37604083610cb2565b61223d565b5f610bb3565b50915050565b634e487b7160e01b5f52604160045260245ffd5b604081019081106001600160401b03821117610c7757604052565b610c48565b606081019081106001600160401b03821117610c7757604052565b608081019081106001600160401b03821117610c7757604052565b601f909101601f19168101906001600160401b03821190821017610c7757604052565b60405190610ce460a083610cb2565b565b60405190610ce460e083610cb2565b3590811515820361014a57565b6001600160401b038111610c7757601f01601f191660200190565b81601f8201121561014a57803590610d3482610d02565b92610d426040519485610cb2565b8284526020838301011161014a57815f926020809301838601378301015290565b6001600160401b038111610c775760051b60200190565b929190610d8681610d63565b93610d946040519586610cb2565b602085838152019160051b810192831161014a57905b828210610db657505050565b8135815260209182019101610daa565b9080601f8301121561014a5781602061049993359101610d7a565b9080601f8301121561014a578135610df881610d63565b92610e066040519485610cb2565b81845260208085019260051b82010192831161014a57602001905b828210610e2e5750505090565b8135815260209182019101610e21565b91909160a08184031261014a57610e53610cd5565b9281358452610e6460208301610cf5565b602085015260408201356001600160401b03811161014a5781610e88918401610d1d565b604085015260608201356001600160401b03811161014a5781610eac918401610dc6565b606085015260808201356001600160401b03811161014a57610ece9201610de1565b6080830152565b9080601f8301121561014a57813591610eed83610d63565b92610efb6040519485610cb2565b80845260208085019160051b8301019183831161014a5760208101915b838310610f2757505050505090565b82356001600160401b03811161014a578201906040828703601f19011261014a5760405191610f5583610c5c565b6020810135835260408101356001600160401b03811161014a5760209101019060e08288031261014a57610f87610ce6565b9282358452602083013560208501526040830135604085015260608301356060850152610fb660808401610cf5565b608085015260a08301356001600160401b03811161014a5788610fda918501610d1d565b60a085015260c0830135936001600160401b03851161014a5761100289602096879601610de1565b60c082015283820152815201920191610f18565b80929103916080831261014a5760405161102f81610c5c565b6060819483358352601f19011261014a5760209060606040519361105285610c7c565b838101358552604081013584860152013560408401520152565b81601f8201121561014a57803561108281610d63565b926110906040519485610cb2565b81845260208085019260071b8401019281841161014a57602001915b8383106110ba575050505090565b60206080916110c98486611016565b8152019201916110ac565b919060808382031261014a57604051906110ed82610c97565b83358252909283919060208101356001600160401b03811161014a5782611115918301610e3e565b602084015260408101356001600160401b03811161014a5782611139918301610ed5565b60408401526060810135916001600160401b03831161014a5760609261115f920161106c565b910152565b6040519060a082016001600160401b03811183821017610c775760405260606080835f81525f602082015282604082015282808201520152565b604051906111ab82610c97565b606080835f81526111ba611164565b60208201528160408201520152565b36603319013560601c9081156111db57565b339150565b6040516020810190616e7360f01b82525f60228201525f60308201526020815261120b604082610cb2565b519051906020811061130d575b506112216111c9565b9061123f82600160801b600160f01b038316616e7360f01b1761297f565b80156112fd575b15611252575050600190565b608081901b6001600160801b031916906112bd90601081901b6001600160901b031916806112ee5750611283611f16565b925b806112dd57506112af611296611f16565b6040519485936001600160f01b03191660208501611f3a565b03601f198101835282610cb2565b6112d960405192839263d787b73760e01b8452600484016118e6565b0390fd5b6112e96112af916129bd565b611296565b6112f7906129bd565b92611285565b50611308828261297f565b611246565b5f199060200360031b1b165f611218565b634e487b7160e01b5f52603260045260245ffd5b9061133c82610d63565b6113496040519182610cb2565b828152809261135a601f1991610d63565b01905f5b82811061136a57505050565b60209061137561119e565b8282850101520161135e565b634e487b7160e01b5f52601160045260245ffd5b9190820180921161057457565b8051156107185760200190565b80518210156107185760209160051b010190565b604051906113d2602083610cb2565b5f808352366020840137565b604051606091906113ef8382610cb2565b6002815291601f1901366020840137565b604080519091906114118382610cb2565b6001815291601f1901366020840137565b90610ce49181516020830151151560405191602083015260f81b604082015260218152611450604182610cb2565b60408301519260806060820151910151611471855191835193815197611920565b9461147a611400565b94611484866113a2565b5280608d1b928060651b928060381b9260051b9160051b010117171791611a47565b156114ad57565b60405162461bcd60e51b815260206004820152601d60248201527f517565737420696420696e205461736b206973206e6f742076616c69640000006044820152606490fd5b156114f957565b60405162461bcd60e51b815260206004820152601460248201527315185cdac81a59081a5cc81b9bdd081d985b1a5960621b6044820152606490fd5b805160208201611546815183611422565b5f5b60408401805180518310156115e957916115e160019261157a836020611570826040996113af565b51015192516113af565b5151611588888351146114a6565b6115a28161159b8660808b5101516113af565b51146114f2565b6020828101518784015188519283018b8152604084019290925260608301526115dc916115d281608081016112af565b51902082146114f2565b611b49565b019050611548565b50505050610ce49150611bdd565b6040519060e082016001600160401b03811183821017610c7757604052606060c0835f81525f60208201525f60408201525f838201525f60808201528260a08201520152565b9061164782610d63565b6116546040519182610cb2565b8281528092611665601f1991610d63565b01905f5b82811061167557505050565b60209060405161168481610c5c565b5f815261168f6115f7565b8382015282828501015201611669565b604051906116ac82610c7c565b5f6040838281528260208201520152565b604051906116ca82610c5c565b815f8152602061115f61169f565b906116e282610d63565b6116ef6040519182610cb2565b8281528092611700601f1991610d63565b01905f5b82811061171057505050565b60209061171b6116bd565b82828501015201611704565b61172f61119e565b91611750608061173e84611c8b565b6020860194818652865201515161163d565b90604084019182525f5b60808451015180518210156117a3579061178d611779826001946113af565b51806117868488516113af565b5152611d44565b602061179a8387516113af565b5101520161175a565b50509290506117b7606083510151516116d8565b92606082019384525f5b606084510151805182101561180857816117ff816117ec6117e66060966001966113af565b51611dcc565b8951906117f983836113af565b526113af565b500190506117c1565b50509250905090565b91908110156107185760051b81013590605e198136030182121561014a570190565b903590601e198136030182121561014a57018035906001600160401b03821161014a57602001918160051b3603831361014a57565b91908110156107185760051b81013590603e198136030182121561014a570190565b6040519060c082016001600160401b03811183821017610c7757604052606060a0835f81525f60208201525f60408201525f838201528260808201520152565b604051906118d782610c97565b606080835f81526111ba61188a565b906118fe602091949394604084526040840190610291565b6001600160a01b03909416910152565b805191908290602001825e015f815290565b6112af6119509361195061193f61193961049996612185565b92612185565b91604051968795602087019061190e565b9061190e565b9192611977610499969461198593855260a0602086015260a08501906102b5565b908382036040850152610291565b9260608201526080818403910152610291565b6040513d5f823e3d90fd5b5f916001600160a01b036119b5611ee1565b163081036119e75750610ce4926514995dd85c9960521b613a3160f11b0192606092906119e185612a85565b94612b8b565b925090823b1561014a5760405163298314fb60e01b8152925f928492839185918391611a2c9160609185916514995dd85c9960521b613a3160f11b0160048701611956565b03925af1801561083f57611a3d5750565b5f610ce491610cb2565b91906001600160a01b03611a59611ee1565b16308103611a845750610ce49364145d595cdd605a1b613a3160f11b0193909291906119e185612a85565b90813b1561014a5760405163298314fb60e01b8152945f948694859387938593611a2c9391929064145d595cdd605a1b613a3160f11b0160048701611956565b91906001600160a01b03611ad6611ee1565b16308103611b055750610ce4936851756573745461736b60381b613a3160f11b0193909291906119e185612a85565b90813b1561014a5760405163298314fb60e01b8152945f948694859387938593611a2c939192906851756573745461736b60381b613a3160f11b0160048701611956565b610ce491805160208201516040830151606084015190608085015115159260405194602086015260408501526060840152608083015260f81b60a082015260818152611b9660a182610cb2565b611bc460c060a0840151930151611bbe81855190518060651b918060381b9160051b01171790565b936121de565b92611bcd611400565b90611bd7826113a2565b52611ac4565b611be56113c3565b60405191602083015260208252611bfd604083610cb2565b5f916001600160a01b03611c0f611ee1565b1692308403611c3e57610ce493506503001809010160cd1b926551756573747360501b613a3160f11b01612e20565b5090823b1561014a576040516301c85d5760e51b8152925f928492839185918391611a2c916503001809010160cd1b919085906551756573747360501b613a3160f11b0160048701612201565b611c93611164565b50611c9c611400565b80511561071857611cb1916020820152612391565b90611cba611164565b926040602082015191015160f81c151560208501528352611d32610a64611ce98364ffffffffff9060381c1690565b93611cfc611cf78683612810565b61393f565b94611d2a611d1c610a64606088901c64ffffffffff168401809486612860565b9560881c64ffffffffff1690565b810191612860565b60808401526060830152604082015290565b611d4c6115f7565b50611d55611400565b908151156107185781611d6f916020611dbf940152612468565b90611d7b9392936115f7565b93602081015190604081015190606081015190611da960a0608083015192015160f81c60808a019015159052565b6060880152604087015260208601528452612f53565b60c083015260a082015290565b611dd46116bd565b90808252611de061169f565b50611de9611400565b80511561071857611dfe91602082015261251b565b5050611e0861169f565b9060208101519060606040820151910151604084015260208301528152602082015290565b90611e366118ca565b91611e40816128da565b9083528060208401526080810191611e59835151611332565b93604081019485525f5b84518051821015611e8f5790611e88816117ec611e82826001966113af565b51611727565b5001611e63565b50509250925060a00190611ea48251516116d8565b92606082019384525f5b835180518210156118085790611eda81611ecd6117e6826001966113af565b8851906117f983836113af565b5001611eae565b7f629a4c26e296b22a8e0856e9f6ecb2d1008d7e00081111962cd175fa7488e175546001600160a01b03168061049957503390565b60405190611f25604083610cb2565b60068252651e3937b7ba1f60d11b6020830152565b61049993926003611f629260019461ffff60f01b168152601d60f91b6002820152019061190e565b601d60f91b8152019061190e565b9081602091031261014a575190565b90611fa060609360ff929796959784526080602085015260808401906102b5565b951660408201520152565b6001600160a01b03611fbb611ee1565b16308103611feb5750610499906503001809010160cd1b905f906551756573747360501b613a3160f11b01612a1d565b604051638c364d5960e01b81529160209183918290819061202d906503001809010160cd1b905f906551756573747360501b613a3160f11b0160048601611f7f565b03915afa90811561083f575f91612042575090565b610499915060203d602011612064575b61205c8183610cb2565b810190611f70565b503d612052565b6001600160a01b0361207b611ee1565b163081036120ac5750610499906503001809010160cd1b906002906551756573747360501b613a3160f11b01612a1d565b604051638c364d5960e01b81529160209183918290819061202d906503001809010160cd1b906002906551756573747360501b613a3160f11b0160048601611f7f565b6001600160a01b036120ff611ee1565b16308103612139575061049990630101000160d81b905f906f5265736f757263654163636573730000661d189ddbdc9b1960ca1b01612a1d565b604051638c364d5960e01b81529160209183918290819061202d90630101000160d81b905f906f5265736f757263654163636573730000661d189ddbdc9b1960ca1b0160048601611f7f565b80518060051b90808204602014811517156105745790604051926020840191601f19603f8287010116604052845260205f9101905b8381106121c8575050505090565b60206001819284518652019201920191906121ba565b610499906112af6121f161195094612185565b604051948593602085019061190e565b95949360ff61222461223894608096948a5260a060208b015260a08a01906102b5565b921660408801528682036060880152610291565b930152565b906001600160a01b0361224e611ee1565b169130830361228f57610ce4925065ffffffffffff61227760026503001809010160cd1b6133a7565b16906551756573747360501b613a3160f11b01613680565b823b1561014a576040516301c85d5760e51b8152925f9284928391859183916122db916503001809010160cd1b91906002906551756573747360501b613a3160f11b0160048701612201565b03925af1801561083f576122ec5750565b806122f85f8093610cb2565b80031261014a57565b81601f8201121561014a5780519061231882610d02565b926123266040519485610cb2565b8284526020838301011161014a57815f9260208093018386015e8301015290565b9160608383031261014a5782516001600160401b03811161014a578261236e918501612301565b92602081015192604082015160018060401b03811161014a576104999201612301565b6001600160a01b036123a1611ee1565b163081036123d457506123cd9064210203200160d01b9064145d595cdd605a1b613a3160f11b01612e6e565b9192909190565b60405163419b58fd60e01b815264145d595cdd605a1b613a3160f11b0160048201526060602482015292915f918491829081906124159060648301906102b5565b64210203200160d01b604483015203915afa90811561083f575f5f935f9361243e575b50929190565b9193505061245e91503d805f833e6124568183610cb2565b810190612347565b929092915f612438565b6001600160a01b03612478611ee1565b163081036124ab57506123cd9067810502202020200160b81b906851756573745461736b60381b613a3160f11b01612e6e565b60405163419b58fd60e01b81526851756573745461736b60381b613a3160f11b0160048201526060602482015292915f918491829081906124f09060648301906102b5565b67810502202020200160b81b604483015203915afa90811561083f575f5f935f9361243e5750929190565b6001600160a01b0361252b611ee1565b1630810361255957506123cd906503001801010160cd1b906514995dd85c9960521b613a3160f11b01612e6e565b60405163419b58fd60e01b81526514995dd85c9960521b613a3160f11b0160048201526060602482015292915f9184918290819061259b9060648301906102b5565b6503001801010160cd1b604483015203915afa90811561083f575f5f935f9361243e5750929190565b6001600160a01b036125d4611ee1565b1630810361260757506123cd90660308201101000960c51b90690517565737447726f75760341b613a3160f11b01612e6e565b60405163419b58fd60e01b8152690517565737447726f75760341b613a3160f11b0160048201526060602482015292915f9184918290819061264d9060648301906102b5565b660308201101000960c51b604483015203915afa90811561083f575f5f935f9361243e5750929190565b90612696610499959360ff9284526080602085015260808401906102b5565b931660408201526060818403910152610291565b905f6001600160a01b036126bc611ee1565b16923084036126e757610ce493506f5472616e73666f726d6174696f6e4361613a3160f11b01612f87565b919050823b1561014a576040516377b7543160e11b8152925f928492839185918391611a2c919084906f5472616e73666f726d6174696f6e4361613a3160f11b0160048601612677565b9060208282031261014a5781516001600160401b03811161014a576104999201612301565b6001600160a01b03612766611ee1565b1630810361278b5750610499905f906551756573747360501b613a3160f11b01613274565b604051631e78897760e01b81526551756573747360501b613a3160f11b01600482015260606024820152915f918391829081906127cc9060648301906102b5565b85604483015203915afa90811561083f575f916127e7575090565b61049991503d805f833e6127fb8183610cb2565b810190612731565b9190820391821161057457565b8051821161282b5760200160801b9060018060801b03161790565b6040516323230fa360e01b815260606004820152918291612850906064840190610291565b905f602484015260448301520390fd5b82821180156128d0575b61289b5790816020828194010192839101116105745782039182116105745760801b6001600160801b039091161790565b6040516323230fa360e01b815260606004820152928392916128c1906064850190610291565b91602484015260448301520390fd5b508051831161286a565b6128e261188a565b506128eb611400565b8051156107185761290781612972936020610a649401526125c4565b61291594929493919361188a565b946020810151906040810151906061606082015160f81c910151606089015215156040880152602087015285526129548464ffffffffff9060381c1690565b611d2a612964610a648385612810565b9560601c64ffffffffff1690565b60a0830152608082015290565b6129876113de565b90815115610718576020820152805160011015610718576001600160a01b0390911660408201526129b7906120ef565b60f81c90565b5f5b601081106129f0575b6040516001600160801b03199092166020830152601082526129eb603083610cb2565b815290565b6001600160801b03198216600382901b1b6001600160f81b03191615612a18576001016129bf565b6129c8565b612a4391612a2d91949394613379565b9260ff808216601b0360031b84901c16926133a7565b91806020841015612a74575b5080548360031b1b92602003809211612a6757505090565b600101549060031b1c1790565b601f84169360051c0190505f612a4f565b655461626c657360501b66746273746f726560c81b018114612aed5760408051655461626c657360501b66746273746f726560c81b016020820190815281830193909352908152612ad7606082610cb2565b5190205f516020613b585f395f51905f52185490565b506503001811010160cd1b90565b906104999492612b16612b24926080855260808501906102b5565b908382036020850152610291565b9260408201526060818403910152610291565b6001600160581b03191690565b9695949061223893612b6a60a09694612b78938b5260c060208c015260c08b01906102b5565b9089820360408b0152610291565b9160608801528682036080880152610291565b9295949192916001600160f01b03198316611bdd60f21b14612df857612bb0836133e6565b5f5b8151811015612c9557612bde612bd9612bcb83856113af565b516001600160581b03191690565b612b37565b612bee816001809160581c161490565b612bfc575b50600101612bb2565b612c24612c24612c1e612c11612c3094612b37565b6001600160601b03191690565b60601c90565b6001600160a01b031690565b90813b1561014a575f878b9387838a612c618a8f6040519a8b98899788966315c19b2760e21b885260048801612b44565b03925af191821561083f57600192612c7b575b5090612bf3565b80612c895f612c8f93610cb2565b8061014e565b5f612c74565b50835f516020613b785f395f51905f5260405180612cb68a8d8b8a85612afb565b0390a2612cd2612cc68486613379565b865160208801916134a4565b60e082901c60ff1680612d99575b505f5b8151811015612d8e57612cfc612bd9612bcb83856113af565b612d0c816002809160581c161490565b612d1a575b50600101612ce3565b612c24612c24612c1e612c11612d2f94612b37565b90813b1561014a575f878b9387838a612d608a8f6040519a8b9889978896635b28cdaf60e01b885260048801612b44565b03925af191821561083f57600192612d7a575b5090612d11565b80612c895f612d8893610cb2565b5f612d73565b505050505050509050565b88612da485876135a9565b555f602088015b85878c8560ff861610612dc2575050505050612ce0565b83612dea60ff95612de388612ddd81600199612def996135d7565b95613616565b80946134a4565b611395565b92011690612dab565b509093945f516020613b785f395f51905f5293612e1b9160405194859485612afb565b0390a2565b91612e3565ffffffffffff91610ce4966133a7565b1691613680565b90612e4682610d02565b612e536040519182610cb2565b8281528092612e64601f1991610d02565b0190602036910137565b91925f9260609260ff612e858760f01c8385613844565b9660e01c1680612e9457505050565b9194509250612ea383856135a9565b5493612eb766ffffffffffffff8616612e3c565b935f91602086015b8460ff851610612ed0575050505050565b612edb8484846135d7565b90612ee6858a613616565b918190835b6020811015612f3b5791612f0c93918360ff9694612f1f575b505050611395565b931660ff81146105745760010192612ebf565b5f199060031b1c908183511691199054161790525f8080612f04565b919060018160209254845201910191601f1901612eeb565b9190610a646104999164ffffffffff8560381c1664ffffffffff612f7a611cf78385612810565b9660601c16810191612860565b919091612f9483826135a9565b5492612fa08385613616565b64ffffffffff8116969095906145cf60f11b6001600160f01b031985160161323057612fd7612fcf8989612803565b835190611395565b8088141580988199613210575b506131ec57612ff4908688613ac5565b90612ffe856133e6565b915f5b835181101561309b5761301a612bd9612bcb83876113af565b61302a816010809160581c161490565b613038575b50600101613001565b60601c90813b1561014a575f898d9389838c8f8c61306d916040519a8b9889978896630abd6b4560e31b88526004880161399f565b03925af191821561083f57600192613087575b509061302f565b80612c895f61309593610cb2565b5f613080565b5096859098919884898c5f935f9060ff8d16905b8160ff8416106131c35750505065ffffffffffff927ffe158a7adba34e256807c8a149028d3162918713c3838afc643ce9f96716ebfd94926130fb928d60405196879616908d876139ec565b0390a26131b2575b613117826131128786886135d7565b613a5f565b5f5b8151811015612d8e57613132612bd9612bcb83856113af565b613142816020809160581c161490565b613150575b50600101613119565b60601c90813b1561014a575f878b9387838a6131848a8f6040519a8b9889978896636358453360e01b88526004880161399f565b03925af191821561083f5760019261319e575b5090613147565b80612c895f6131ac93610cb2565b5f613197565b856131bd84866135a9565b55613103565b94509490955060ff9250600191506131db8685613616565b019401168c8b918a959489946130af565b632994042d60e21b5f90815260045264ffffffffff8916602481905260445260645ffd5b905061322861321e8b613989565b64ffffffffff1690565b14155f612fe4565b83604051906132588261324a836020830160209181520190565b03601f198101845283610cb2565b6112d96040519283926331b4668360e01b845260048401613967565b90610499926132916132979261328b8382876135d7565b946135a9565b54613616565b90613a3c565b6040805160206020600160801b0384168201810190925260016001607b1b03600584901c16808252909392909160809190911c9084015f5b8381106132e25750505050565b60206001819285518552019201920191906132d5565b9060158260801c9260018060801b031604604051926020840160208360051b8601016040528285525f5b83811061332f5750505050565b602060016015928551855201920192019190613322565b60209181520160208251919201905f5b8181106133635750505090565b8251845260209384019390920191600101613356565b906133926112af91604051928391602083019586613346565b5190205f516020613b585f395f51905f521890565b5f915f915b60ff821683106133bc5750505090565b9091926133d2848360ff91601b0360031b1c1690565b8101809111610574579260010191906133ac565b6133ee611400565b80511561071857610a5c8161049993602061349f94015264ffffffffff5f516020613b985f395f51905f526040516020810190613449816112af876953746f7265486f6f6b7360301b66746273746f726560c81b0186613346565b5190206040519118926020820191906134829082906112af906953746f7265486f6f6b7360301b66746273746f726560c81b0186613346565b5190205f516020613bb85f395f51905f52185460381c1690613a3c565b6132f8565b91905b60208110156134d057806134ba57505050565b5f199060031b1c90818354169119905116179055565b909160016020918451815501920190601f19016134a7565b92919080613535575b505b602081101561351d578061350657505050565b5f1960039190911b1c825491518119169116179055565b909160016020918451815501920190601f19016134f3565b602081101561358d575b80156134f15791926020839003905f19600384901b1c198460031b90811c908651901c9080198354169116178155818311156135865760010193019101601f19015f6134f1565b5050505050565b926135a49061359c8560051c90565b0193601f1690565b61353f565b906135c26112af91604051928391602083019586613346565b5190205f516020613bb85f395f51905f521890565b6112af6135fe5f516020613b985f395f51905f529493604051928391602083019586613346565b51902060f89190911b6001600160f81b031916181890565b60ff64ffffffffff92166028026038011c1690565b65ffffffffffff61364861049995936060845260608401906102b5565b931660208201526040818403910152610291565b90612696610499959365ffffffffffff9284526080602085015260808401906102b5565b92939291906001600160f01b03198316611bdd60f21b14613824576136a58184613379565b936136af846133e6565b90865f5b835181101561374d576136cc612bd9612bcb83876113af565b6136dc816004809160581c161490565b6136ea575b506001016136b3565b60601c9150813b1561014a575f868a9387838b61371d6040519889968795869463964f667d60e01b86526004860161365c565b03925af190811561083f578992600192613739575b50906136e1565b80612c895f61374793610cb2565b5f613732565b506137849196865f516020613b385f395f51905f5260405180613772868b8b8461362b565b0390a265ffffffffffff861690613a70565b5f5b815181101561381b5761379f612bd9612bcb83856113af565b6137af816008809160581c161490565b6137bd575b50600101613786565b60601c90813b1561014a5760405163a8ba872160e01b8152915f9083908183816137ed8e8c8c8f6004860161365c565b03925af191821561083f57600192613807575b50906137b4565b80612c895f61381593610cb2565b5f613800565b50505050509050565b612e1b5f516020613b385f395f51905f529394956040519384938461362b565b919091811561385f576104999261385a91613379565b613a3c565b505050604051613870602082610cb2565b5f815290565b9190806138c2575b505b60208110156138aa578061389357505050565b5f1960039190911b1c825191548119169116179052565b919060018160209254845201910191601f1901613880565b6020811015613923575b801561387e57929183602003908183105f14613916575f19600384901b1c5b81548660031b1b818651169119161784528183111561358657600101920192601f199101015f61387e565b5f19600383901b1c6138eb565b9161393a906139328460051c90565b0192601f1690565b6138cc565b608081901c9190610ce4906001600160801b031661395c81612e3c565b936020850190613a81565b6060906104999392613a3160f11b825260208201528160408201520190610291565b64ffffffffff169064ffffffffff821161057457565b9294919360ff6139c7610499989664ffffffffff94875260e0602088015260e08701906102b5565b961660408501525f606085015216608083015260a082015260c0818403910152610291565b929365ffffffffffff610499979560ff613a1764ffffffffff9599969960c0895260c08901906102b5565b98166020870152166040850152166060830152608082015260a0818403910152610291565b6104999060405192601f19603f82860101166040528084525f6020850192613876565b610ce4915f602082519201926134e8565b8251610ce4936020019290916134e8565b90915b6020811015613aae578015613aa9575f199060031b1c90818351169119905116179052565b505050565b8151835260209283019290910190601f1901613a84565b9064ffffffffff8311613b245764ffffffffff8060ff66ffffffffffffff8516613aef8587613616565b87818110613b1a570301935b166028026038019416841b931b199166ffffffffffffff191617161790565b9003900393613afb565b82637149a3c160e01b5f5260045260245ffdfe8c0b5119d4cec7b284c6b1b39252a03d1e2f2d7451a5895562524c113bb952be86425bff6b57326c7859e89024fe4f238ca327a1ae4a230180dd2f0e88aaa7d98dbb3a9672eebfd3773e72dd9c102393436816d832c7ba9e1e1ac8fcadcac7a93b4102da22e32d82fc925482184f16c09fd4281692720b87d124aef6da48a0f114e2fcc58e58e68ec7edc30c8d50dccc3ce2714a623ec81f46b6a63922d76569a26469706673582212208a22215186af0d51fdcd02a197e239096556cd8725c1bee0f1137f805ba2311364736f6c634300081c0033","linkReferences":{}},"methodIdentifiers":{"_msgSender()":"119df25f","_msgValue()":"45ec9354","_world()":"e1af802c","addNewQuest((uint256,(uint256,bool,string,uint256[],bytes32[]),(bytes32,(uint256,uint256,bytes32,uint256,bool,string,bytes32[]))[],(uint256,(uint256,uint256,uint256))[]))":"48198d0b","addNewQuests((uint256,(uint256,bool,string,uint256[],bytes32[]),(bytes32,(uint256,uint256,bytes32,uint256,bool,string,bytes32[]))[],(uint256,(uint256,uint256,uint256))[])[])":"287cd48c","addRewards((uint256,(uint256,uint256,uint256))[])":"26129fe8","getAllActiveQuestGroups()":"d52b2467","getAllQuests()":"3bb659a2","getQuest(uint256)":"49f86f34","supportsInterface(bytes4)":"01ffc9a7","updateQuest(uint256,(uint256,bool,string,uint256[],bytes32[]))":"425a656c","upsertQuestCollections((uint256,uint256[])[])":"93151b04","upsertRewardColletions((uint256,uint256[])[])":"8b9963a8","upsertTransformationCategories((uint256,uint256,uint256[])[])":"7272dd79"},"id":148}