{"abi":[{"type":"function","name":"_msgSender","inputs":[],"outputs":[{"name":"sender","type":"address","internalType":"address"}],"stateMutability":"view"},{"type":"function","name":"_msgValue","inputs":[],"outputs":[{"name":"value","type":"uint256","internalType":"uint256"}],"stateMutability":"pure"},{"type":"function","name":"_world","inputs":[],"outputs":[{"name":"","type":"address","internalType":"address"}],"stateMutability":"view"},{"type":"function","name":"grantAccess","inputs":[{"name":"resourceId","type":"bytes32","internalType":"ResourceId"},{"name":"grantee","type":"address","internalType":"address"}],"outputs":[],"stateMutability":"nonpayable"},{"type":"function","name":"renounceOwnership","inputs":[{"name":"namespaceId","type":"bytes32","internalType":"ResourceId"}],"outputs":[],"stateMutability":"nonpayable"},{"type":"function","name":"revokeAccess","inputs":[{"name":"resourceId","type":"bytes32","internalType":"ResourceId"},{"name":"grantee","type":"address","internalType":"address"}],"outputs":[],"stateMutability":"nonpayable"},{"type":"function","name":"supportsInterface","inputs":[{"name":"interfaceId","type":"bytes4","internalType":"bytes4"}],"outputs":[{"name":"","type":"bool","internalType":"bool"}],"stateMutability":"pure"},{"type":"function","name":"transferOwnership","inputs":[{"name":"namespaceId","type":"bytes32","internalType":"ResourceId"},{"name":"newOwner","type":"address","internalType":"address"}],"outputs":[],"stateMutability":"nonpayable"},{"type":"event","name":"Store_DeleteRecord","inputs":[{"name":"tableId","type":"bytes32","indexed":true,"internalType":"ResourceId"},{"name":"keyTuple","type":"bytes32[]","indexed":false,"internalType":"bytes32[]"}],"anonymous":false},{"type":"event","name":"Store_SpliceStaticData","inputs":[{"name":"tableId","type":"bytes32","indexed":true,"internalType":"ResourceId"},{"name":"keyTuple","type":"bytes32[]","indexed":false,"internalType":"bytes32[]"},{"name":"start","type":"uint48","indexed":false,"internalType":"uint48"},{"name":"data","type":"bytes","indexed":false,"internalType":"bytes"}],"anonymous":false},{"type":"error","name":"Slice_OutOfBounds","inputs":[{"name":"data","type":"bytes","internalType":"bytes"},{"name":"start","type":"uint256","internalType":"uint256"},{"name":"end","type":"uint256","internalType":"uint256"}]},{"type":"error","name":"UnauthorizedCallContext","inputs":[]},{"type":"error","name":"World_AccessDenied","inputs":[{"name":"resource","type":"string","internalType":"string"},{"name":"caller","type":"address","internalType":"address"}]},{"type":"error","name":"World_InvalidResourceType","inputs":[{"name":"expected","type":"bytes2","internalType":"bytes2"},{"name":"resourceId","type":"bytes32","internalType":"ResourceId"},{"name":"resourceIdString","type":"string","internalType":"string"}]},{"type":"error","name":"World_ResourceNotFound","inputs":[{"name":"resourceId","type":"bytes32","internalType":"ResourceId"},{"name":"resourceIdString","type":"string","internalType":"string"}]}],"bytecode":{"object":"0x60a08060405234602257306080526115cf90816100278239608051816102f40152f35b5f80fdfe60806040526004361015610011575f80fd5b5f3560e01c806301ffc9a714610094578063119df25f1461008f578063219adc2e1461008a57806340554c3a1461008557806345ec9354146100805780638d53b2081461007b578063e1af802c146100765763ef5d6bbb14610071575f80fd5b61024d565b610233565b61020e565b6101ef565b6101b6565b610122565b6100f6565b346100e85760203660031901126100e85760043563ffffffff60e01b81168091036100e85763b5dee12760e01b81149081156100d7575b50151560805260206080f35b6301ffc9a760e01b149050816100cb565b5f80fd5b5f9103126100e857565b346100e8575f3660031901126100e85760206101106102da565b6040516001600160a01b039091168152f35b346100e85760203660031901126100e85760043561013e6102f1565b61014781610356565b610150816103b7565b6101586102da565b6101628183610486565b61016a6105b2565b9182511561018b5761018483826020610189960152610885565b61061e565b005b6105f6565b60409060031901126100e857600435906024356001600160a01b03811681036100e85790565b346100e8576101896101c736610190565b906101d06102f1565b6101d9816103b7565b6101ea6101e46102da565b82610486565b610658565b346100e8575f3660031901126100e8576020604051601f193601358152f35b346100e85761018961021f36610190565b906102286102f1565b6101846101e46102da565b346100e8575f3660031901126100e8576020610110610c99565b346100e85761025b36610190565b6102636102f1565b61026c82610356565b610275826103b7565b61027d6102da565b916102888382610486565b6102906105b2565b80511561018b57610189936102d4828460206101ea9501526040519060018060601b03198760601b166020830152601482526102cd60348361058a565b5f90610fdc565b8261061e565b36603319013560601c9081156102ec57565b339150565b307f00000000000000000000000000000000000000000000000000000000000000006001600160a01b03161461032357565b634f81d01360e11b5f5260045ffd5b805180835260209291819084018484015e5f828201840152601f01601f1916010190565b600160801b600160f01b038116616e7360f01b1781036103735750565b61037c81610727565b604051635c30fb6f60e01b8152616e7360f01b600482015260248101929092526060604483015281906103b3906064830190610332565b0390fd5b6103bf6105b2565b80511561018b57602081018290526103f1906a5265736f7572636549647360281b66746273746f726560c81b01610e63565b6104025f630101000160d81b610f3b565b90806020831015610475575b5080548260031b1b916020039081600111610464575b505060f81c156104315750565b61043a81610727565b906103b3604051928392637df8867360e11b84526004840152604060248401526044830190610332565b600101549060031b1c175f80610424565b601f83169260051c0190505f61040e565b600160801b600160f01b038116616e7360f01b176104a26105b2565b80511561018b5760208101919091526104c8905f51602061155a5f395f51905f52610e63565b916104da5f630500400560da1b610f3b565b92806020851015610565575b5080548460031b1b93602003908160141161054f575b50506001600160a01b03169160601c829003610516575050565b9061052361054592610727565b9060405192839263d787b73760e01b8452604060048501526044840190610332565b9060248301520390fd5b60019094929401549060031b1c17915f806104fc565b601f85169460051c0190505f6104e6565b634e487b7160e01b5f52604160045260245ffd5b601f909101601f19168101906001600160401b038211908210176105ad57604052565b610576565b604080519091906105c3838261058a565b6001815291601f1901366020840137565b604051606091906105e5838261058a565b6002815291601f1901366020840137565b634e487b7160e01b5f52603260045260245ffd5b805182101561018b5760209160051b010190565b6106266105d4565b9081511561018b57602082015280516001101561018b576001600160a01b03909116604082015261065690610ab6565b565b6106606105d4565b9081511561018b57602082015280516001101561018b576001600160a01b0390911660408281019190915251600160f81b602082015260018152610656916106a960218361058a565b65ffffffffffff6106c15f630101000160d81b610f3b565b16905f51602061153a5f395f51905f526111b3565b6001600160401b0381116105ad57601f01601f191660200190565b6040519061070060408361058a565b60068252651e3937b7ba1f60d11b6020830152565b805191908290602001825e015f815290565b608081901b6001600160801b031916906107b290601081901b6001600160901b031916806107c657506107586106f1565b925b806107b557506107a461076b6106f1565b600161079660405196879561ffff60f01b166020870152601d60f91b60228701526023860190610715565b601d60f91b81520190610715565b03601f19810183528261058a565b90565b6107c16107a491610ce2565b61076b565b6107cf90610ce2565b9261075a565b90602080835192838152019201905f5b8181106107f25750505090565b82518452602093840193909201916001016107e5565b9060206107b29281815201906107d5565b6001600160581b03191690565b9392916108439060409286526060602087015260608601906107d5565b930152565b6040513d5f823e3d90fd5b9061085d826106d6565b61086a604051918261058a565b828152809261087b601f19916106d6565b0190602036910137565b9061089c5f51602061155a5f395f51905f52610d42565b5f5b8151811015610995576108ca6108c56108b7838561060a565b516001600160581b03191690565b610819565b6108da816040809160581c161490565b6108e8575b5060010161089e565b61091061091061090a6108fd61091c94610819565b6001600160601b03191690565b60601c90565b6001600160a01b031690565b90813b156100e857604051639faeaf4560e01b8152915f90839081838161095c630500400560da1b8c5f51602061155a5f395f51905f5260048501610826565b03925af191821561099057600192610976575b50906108df565b806109845f61098a9361058a565b806100ec565b5f61096f565b610848565b506040515f51602061155a5f395f51905f52905f51602061157a5f395f51905f5290806109c28782610808565b0390a26109ef6109df845f51602061155a5f395f51905f52610e63565b6109e96014610853565b90610ea4565b5f5b8151811015610aab57610a0a6108c56108b7838561060a565b610a1a816080809160581c161490565b610a28575b506001016109f1565b61091061091061090a6108fd610a3d94610819565b90813b156100e8576040516383b5c95b60e01b8152915f908390818381610a7d630500400560da1b8c5f51602061155a5f395f51905f5260048501610826565b03925af191821561099057600192610a97575b5090610a1f565b806109845f610aa59361058a565b5f610a90565b50509050565b0390a2565b90610acd5f51602061153a5f395f51905f52610d42565b5f5b8151811015610b8957610ae86108c56108b7838561060a565b610af8816040809160581c161490565b610b06575b50600101610acf565b61091061091061090a6108fd610b1b94610819565b90813b156100e857604051639faeaf4560e01b8152915f908390818381610b5b630101000160d81b8c5f51602061153a5f395f51905f5260048501610826565b03925af191821561099057600192610b75575b5090610afd565b806109845f610b839361058a565b5f610b6e565b506040515f51602061153a5f395f51905f52905f51602061157a5f395f51905f529080610bb68782610808565b0390a2610bdd610bd3845f51602061153a5f395f51905f52610e63565b6109e96001610853565b5f5b8151811015610aab57610bf86108c56108b7838561060a565b610c08816080809160581c161490565b610c16575b50600101610bdf565b61091061091061090a6108fd610c2b94610819565b90813b156100e8576040516383b5c95b60e01b8152915f908390818381610c6b630101000160d81b8c5f51602061153a5f395f51905f5260048501610826565b03925af191821561099057600192610c85575b5090610c0d565b806109845f610c939361058a565b5f610c7e565b7f629a4c26e296b22a8e0856e9f6ecb2d1008d7e00081111962cd175fa7488e175546001600160a01b0316806107b257503390565b634e487b7160e01b5f52601160045260245ffd5b5f5b60108110610d15575b6040516001600160801b0319909216602083015260108252610d1060308361058a565b815290565b6001600160801b03198216600382901b1b6001600160f81b03191615610d3d57600101610ce4565b610ced565b610d4a6105b2565b9081511561018b576020828101918252604080516953746f7265486f6f6b7360301b66746273746f726560c81b01928101928352845192939092918301915f5b818110610e1a5750505064ffffffffff610de9610e159484610dbe6107b2989686610e0d975003601f19810183528261058a565b5190207f3b4102da22e32d82fc925482184f16c09fd4281692720b87d124aef6da48a0f11893610ec6565b5460381c169160405192601f19603f828601011660405280845260208401916114d6565b805190611377565b6113c7565b8251845260209384019390920191600101610d8a565b60209181520160208251919201905f5b818110610e4d5750505090565b8251845260209384019390920191600101610e40565b90610e7c6107a491604051928391602083019586610e30565b5190207f86425bff6b57326c7859e89024fe4f238ca327a1ae4a230180dd2f0e88aaa7d91890565b610656915f60208251920192611415565b825161065693602001929091611415565b6040516020810191610ef89082906107a4906953746f7265486f6f6b7360301b66746273746f726560c81b0186610e30565b5190207f14e2fcc58e58e68ec7edc30c8d50dccc3ce2714a623ec81f46b6a63922d765691890565b818110610f2b575050565b5f8155600101610f20565b610cce565b5f915f915b60ff82168310610f505750505090565b90919260ff8285601b0360031b1c168101809111610f3657926001019190610f40565b65ffffffffffff610f906107b295936060845260608401906107d5565b931660208201526040818403910152610332565b90610fc86107b2959365ffffffffffff9284526080602085015260808401906107d5565b931660408201526060818403910152610332565b909291610ff6825f51602061155a5f395f51905f52610e63565b9261100d5f51602061155a5f395f51905f52610d42565b905f5b82518110156110b2576110296108c56108b7838661060a565b611039816004809160581c161490565b611047575b50600101611010565b60601c90813b156100e85760405163964f667d60e01b8152915f9083908183816110848b8f8e5f51602061155a5f395f51905f5260048601610fa4565b03925af19182156109905760019261109e575b509061103e565b806109845f6110ac9361058a565b5f611097565b509382611107916040515f51602061151a5f395f51905f526f4e616d6573706163654f776e65720000661d189ddbdc9b1960ca1b0191806110f5868d8c84610f73565b0390a265ffffffffffff881690610eb5565b5f5b81518110156111ab576111226108c56108b7838561060a565b611132816008809160581c161490565b611140575b50600101611109565b60601c90813b156100e85760405163a8ba872160e01b8152915f90839081838161117d8a8e8d5f51602061155a5f395f51905f5260048601610fa4565b03925af191821561099057600192611197575b5090611137565b806109845f6111a59361058a565b5f611190565b505050509050565b92939291906001600160f01b03198316611bdd60f21b14611357576111d88184610e63565b936111e284610d42565b90865f5b8351811015611280576111ff6108c56108b7838761060a565b61120f816004809160581c161490565b61121d575b506001016111e6565b60601c9150813b156100e8575f868a9387838b6112506040519889968795869463964f667d60e01b865260048601610fa4565b03925af190811561099057899260019261126c575b5090611214565b806109845f61127a9361058a565b5f611265565b506112b79196865f51602061151a5f395f51905f52604051806112a5868b8b84610f73565b0390a265ffffffffffff861690610eb5565b5f5b815181101561134e576112d26108c56108b7838561060a565b6112e2816008809160581c161490565b6112f0575b506001016112b9565b60601c90813b156100e85760405163a8ba872160e01b8152915f9083908183816113208e8c8c8f60048601610fa4565b03925af19182156109905760019261133a575b50906112e7565b806109845f6113489361058a565b5f611333565b50505050509050565b610ab15f51602061151a5f395f51905f5293949560405193849384610f73565b805182116113925760200160801b9060018060801b03161790565b6040516323230fa360e01b8152606060048201529182916113b7906064840190610332565b905f602484015260448301520390fd5b60158160801c9160018060801b031604604051916020830160208360051b8501016040528284525f5b8381106113fe575050505090565b6020600160159285518552019201920191906113f0565b92919080611462575b505b602081101561144a578061143357505050565b5f1960039190911b1c825491518119169116179055565b909160016020918451815501920190601f1901611420565b60208110156114ba575b801561141e5791926020839003905f19600384901b1c198460031b90811c908651901c9080198354169116178155818311156114b35760010193019101601f19015f61141e565b5050505050565b926114d1906114c98560051c90565b0193601f1690565b61146c565b905b602081101561150157806114eb57505050565b5f199060031b1c90818351169119905416179052565b919060018160209254845201910191601f19016114d856fe8c0b5119d4cec7b284c6b1b39252a03d1e2f2d7451a5895562524c113bb952be7462776f726c640000000000000000005265736f7572636541636365737300007462776f726c640000000000000000004e616d6573706163654f776e657200000e1f72f429eb97e64878619984a91e687ae91610348b9ff4216782cc96e49d07a2646970667358221220d2aafd3e29cb3baea653acdb166f11bfc86d7a0c378d6b1f841988706b0790fe64736f6c634300081c0033","linkReferences":{}},"methodIdentifiers":{"_msgSender()":"119df25f","_msgValue()":"45ec9354","_world()":"e1af802c","grantAccess(bytes32,address)":"40554c3a","renounceOwnership(bytes32)":"219adc2e","revokeAccess(bytes32,address)":"8d53b208","supportsInterface(bytes4)":"01ffc9a7","transferOwnership(bytes32,address)":"ef5d6bbb"},"id":131}