{"abi":[{"type":"constructor","inputs":[{"name":"beneficiaryAddress","type":"address","internalType":"address"},{"name":"tokenAddress","type":"address","internalType":"address"}],"stateMutability":"nonpayable"},{"type":"function","name":"beneficiary","inputs":[],"outputs":[{"name":"","type":"address","internalType":"address"}],"stateMutability":"view"},{"type":"function","name":"getLastReleaseBlock","inputs":[],"outputs":[{"name":"","type":"uint256","internalType":"uint256"}],"stateMutability":"view"},{"type":"function","name":"getReleasePerBlock","inputs":[],"outputs":[{"name":"","type":"uint256","internalType":"uint256"}],"stateMutability":"view"},{"type":"function","name":"owner","inputs":[],"outputs":[{"name":"","type":"address","internalType":"address"}],"stateMutability":"view"},{"type":"function","name":"release","inputs":[],"outputs":[],"stateMutability":"nonpayable"},{"type":"function","name":"released","inputs":[],"outputs":[{"name":"","type":"uint256","internalType":"uint256"}],"stateMutability":"view"},{"type":"function","name":"renounceOwnership","inputs":[],"outputs":[],"stateMutability":"nonpayable"},{"type":"function","name":"setBeneficiary","inputs":[{"name":"beneficiaryAddress","type":"address","internalType":"address"}],"outputs":[],"stateMutability":"nonpayable"},{"type":"function","name":"setReleasePerBlock","inputs":[{"name":"releasePerBlock","type":"uint256","internalType":"uint256"}],"outputs":[],"stateMutability":"nonpayable"},{"type":"function","name":"transferOwnership","inputs":[{"name":"newOwner","type":"address","internalType":"address"}],"outputs":[],"stateMutability":"nonpayable"},{"type":"event","name":"ERC20Released","inputs":[{"name":"token","type":"address","indexed":true,"internalType":"address"},{"name":"amount","type":"uint256","indexed":false,"internalType":"uint256"}],"anonymous":false},{"type":"event","name":"OwnershipTransferred","inputs":[{"name":"previousOwner","type":"address","indexed":true,"internalType":"address"},{"name":"newOwner","type":"address","indexed":true,"internalType":"address"}],"anonymous":false}],"bytecode":{"object":"0x60803461018957601f61079838819003918201601f19168301916001600160401b0383118484101761018d57808492604094855283398101031261018957610052602061004b836101a1565b92016101a1565b5f8054336001600160a01b0319821681178355604051949290916001600160a01b0316907f8be0079c531659141344cd1fd0a4f28419497f9722a3daafe3b4186f6b6457e09080a36305f5e1006005556001600160a01b031691821561013b57506001600160a01b03169081156100f65760018060a01b0319600254161760025560018060a01b03196001541617600155436004556040516105e290816101b68239f35b60405162461bcd60e51b815260206004820152601e60248201527f56657374696e673a20746f6b656e206973207a65726f206164647265737300006044820152606490fd5b62461bcd60e51b8152602060048201526024808201527f56657374696e673a2062656e6566696369617279206973207a65726f206164646044820152637265737360e01b6064820152608490fd5b5f80fd5b634e487b7160e01b5f52604160045260245ffd5b51906001600160a01b03821682036101895756fe60806040526004361015610011575f80fd5b5f3560e01c80631c31f710146102ef57806338af3eed146102c7578063715018a61461028357806386d1a69f146102695780638da5cb5b146102425780639613252114610225578063d461f97214610208578063e8f74b57146101eb578063eafbeb72146101425763f2fde38b14610087575f80fd5b3461013e57602036600319011261013e576004356001600160a01b0381169081900361013e576100b5610535565b80156100ea575f80546001600160a01b03198116831782556001600160a01b0316905f51602061058d5f395f51905f529080a3005b60405162461bcd60e51b815260206004820152602660248201527f4f776e61626c653a206e6577206f776e657220697320746865207a65726f206160448201526564647265737360d01b6064820152608490fd5b5f80fd5b3461013e57602036600319011261013e5760043561015e610535565b61271081101561019a576305f5e1008102908082046305f5e100149015171561018657600555005b634e487b7160e01b5f52601160045260245ffd5b60405162461bcd60e51b8152602060048201526024808201527f56657374696e673a2072656c65617365506572426c6f636b20697320746f6f206044820152630d0d2ced60e31b6064820152608490fd5b3461013e575f36600319011261013e576020600554604051908152f35b3461013e575f36600319011261013e576020600454604051908152f35b3461013e575f36600319011261013e576020600354604051908152f35b3461013e575f36600319011261013e575f546040516001600160a01b039091168152602090f35b3461013e575f36600319011261013e576102816103d4565b005b3461013e575f36600319011261013e5761029b610535565b5f80546001600160a01b0319811682556001600160a01b03165f51602061058d5f395f51905f528280a3005b3461013e575f36600319011261013e576002546040516001600160a01b039091168152602090f35b3461013e57602036600319011261013e576004356001600160a01b0381169081900361013e5761031d610535565b801561033957600280546001600160a01b031916919091179055005b60405162461bcd60e51b8152602060048201526024808201527f56657374696e673a2062656e6566696369617279206973207a65726f206164646044820152637265737360e01b6064820152608490fd5b601f909101601f19168101906001600160401b038211908210176103ad57604052565b634e487b7160e01b5f52604160045260245ffd5b8181029291811591840414171561018657565b6001546040516370a0823160e01b81523060048201526001600160a01b0390911690602081602481855afa9081156104f4575f91610503575b5060045443039043821161018657670de0b6b3a76400009161043561043a92600554906103c1565b6103c1565b0480156104ff576003549080820180921161018657602091600355827fc0e523490dd523c33b1878c9eb14ff46991e3f5b2cd33710918618f2a39cba1b83604051848152a2604460018060a01b03600254165f604051958694859363a9059cbb60e01b8552600485015260248401525af180156104f4576104bd575b5043600455565b6020813d6020116104ec575b816104d66020938361038a565b8101031261013e575180151581146104b6575f80fd5b3d91506104c9565b6040513d5f823e3d90fd5b5050565b90506020813d60201161052d575b8161051e6020938361038a565b8101031261013e57515f61040d565b3d9150610511565b5f546001600160a01b0316330361054857565b606460405162461bcd60e51b815260206004820152602060248201527f4f776e61626c653a2063616c6c6572206973206e6f7420746865206f776e65726044820152fdfe8be0079c531659141344cd1fd0a4f28419497f9722a3daafe3b4186f6b6457e0a26469706673582212201601cc74827c103190c7ab11cbabf8af9798569592dabf0d0677882fc7ca786964736f6c634300081c0033","linkReferences":{}},"methodIdentifiers":{"beneficiary()":"38af3eed","getLastReleaseBlock()":"d461f972","getReleasePerBlock()":"e8f74b57","owner()":"8da5cb5b","release()":"86d1a69f","released()":"96132521","renounceOwnership()":"715018a6","setBeneficiary(address)":"1c31f710","setReleasePerBlock(uint256)":"eafbeb72","transferOwnership(address)":"f2fde38b"},"id":176}