{"abi":[{"type":"function","name":"_msgSender","inputs":[],"outputs":[{"name":"sender","type":"address","internalType":"address"}],"stateMutability":"view"},{"type":"function","name":"_msgValue","inputs":[],"outputs":[{"name":"value","type":"uint256","internalType":"uint256"}],"stateMutability":"pure"},{"type":"function","name":"_world","inputs":[],"outputs":[{"name":"","type":"address","internalType":"address"}],"stateMutability":"view"},{"type":"function","name":"getTransformation","inputs":[{"name":"base","type":"uint256","internalType":"uint256"},{"name":"input","type":"uint256","internalType":"uint256"}],"outputs":[{"name":"transformation","type":"tuple","internalType":"struct TransformationsData","components":[{"name":"next","type":"uint256","internalType":"uint256"},{"name":"yield","type":"uint256","internalType":"uint256"},{"name":"inputNext","type":"uint256","internalType":"uint256"},{"name":"yieldQuantity","type":"uint256","internalType":"uint256"},{"name":"unlockTime","type":"uint256","internalType":"uint256"},{"name":"timeout","type":"uint256","internalType":"uint256"},{"name":"timeoutYield","type":"uint256","internalType":"uint256"},{"name":"timeoutYieldQuantity","type":"uint256","internalType":"uint256"},{"name":"timeoutNext","type":"uint256","internalType":"uint256"},{"name":"isRecipe","type":"bool","internalType":"bool"},{"name":"isWaterCollection","type":"bool","internalType":"bool"},{"name":"xp","type":"uint256","internalType":"uint256"},{"name":"exists","type":"bool","internalType":"bool"}]}],"stateMutability":"view"},{"type":"function","name":"setTransformation","inputs":[{"name":"newTransformation","type":"tuple","internalType":"struct TransformationDTO","components":[{"name":"base","type":"uint256","internalType":"uint256"},{"name":"input","type":"uint256","internalType":"uint256"},{"name":"next","type":"uint256","internalType":"uint256"},{"name":"yield","type":"uint256","internalType":"uint256"},{"name":"inputNext","type":"uint256","internalType":"uint256"},{"name":"yieldQuantity","type":"uint256","internalType":"uint256"},{"name":"unlockTime","type":"uint256","internalType":"uint256"},{"name":"timeout","type":"uint256","internalType":"uint256"},{"name":"timeoutYield","type":"uint256","internalType":"uint256"},{"name":"timeoutYieldQuantity","type":"uint256","internalType":"uint256"},{"name":"timeoutNext","type":"uint256","internalType":"uint256"},{"name":"isRecipe","type":"bool","internalType":"bool"},{"name":"isWaterCollection","type":"bool","internalType":"bool"},{"name":"xp","type":"uint256","internalType":"uint256"},{"name":"exists","type":"bool","internalType":"bool"}]}],"outputs":[],"stateMutability":"nonpayable"},{"type":"function","name":"setTransformations","inputs":[{"name":"newTransformations","type":"tuple[]","internalType":"struct TransformationDTO[]","components":[{"name":"base","type":"uint256","internalType":"uint256"},{"name":"input","type":"uint256","internalType":"uint256"},{"name":"next","type":"uint256","internalType":"uint256"},{"name":"yield","type":"uint256","internalType":"uint256"},{"name":"inputNext","type":"uint256","internalType":"uint256"},{"name":"yieldQuantity","type":"uint256","internalType":"uint256"},{"name":"unlockTime","type":"uint256","internalType":"uint256"},{"name":"timeout","type":"uint256","internalType":"uint256"},{"name":"timeoutYield","type":"uint256","internalType":"uint256"},{"name":"timeoutYieldQuantity","type":"uint256","internalType":"uint256"},{"name":"timeoutNext","type":"uint256","internalType":"uint256"},{"name":"isRecipe","type":"bool","internalType":"bool"},{"name":"isWaterCollection","type":"bool","internalType":"bool"},{"name":"xp","type":"uint256","internalType":"uint256"},{"name":"exists","type":"bool","internalType":"bool"}]}],"outputs":[],"stateMutability":"nonpayable"},{"type":"function","name":"supportsInterface","inputs":[{"name":"interfaceId","type":"bytes4","internalType":"bytes4"}],"outputs":[{"name":"","type":"bool","internalType":"bool"}],"stateMutability":"pure"},{"type":"event","name":"Store_SetRecord","inputs":[{"name":"tableId","type":"bytes32","indexed":true,"internalType":"ResourceId"},{"name":"keyTuple","type":"bytes32[]","indexed":false,"internalType":"bytes32[]"},{"name":"staticData","type":"bytes","indexed":false,"internalType":"bytes"},{"name":"encodedLengths","type":"bytes32","indexed":false,"internalType":"EncodedLengths"},{"name":"dynamicData","type":"bytes","indexed":false,"internalType":"bytes"}],"anonymous":false},{"type":"error","name":"Slice_OutOfBounds","inputs":[{"name":"data","type":"bytes","internalType":"bytes"},{"name":"start","type":"uint256","internalType":"uint256"},{"name":"end","type":"uint256","internalType":"uint256"}]},{"type":"error","name":"World_AccessDenied","inputs":[{"name":"resource","type":"string","internalType":"string"},{"name":"caller","type":"address","internalType":"address"}]}],"bytecode":{"object":"0x60808060405234601557611992908161001a8239f35b5f80fdfe60806040526004361015610011575f80fd5b5f3560e01c806301ffc9a714610084578063119df25f1461007f57806315d2c6121461007a57806345ec93541461007557806359577ca014610070578063c1ff5c001461006b5763e1af802c14610066575f80fd5b61044f565b61036d565b61022e565b610170565b610112565b6100e6565b346100d85760203660031901126100d85760043563ffffffff60e01b81168091036100d85763b5dee12760e01b81149081156100c7575b50151560805260206080f35b6301ffc9a760e01b149050816100bb565b5f80fd5b5f9103126100d857565b346100d8575f3660031901126100d85760206101006107fd565b6040516001600160a01b039091168152f35b346100d85760203660031901126100d8576004356001600160401b0381116100d857366023820112156100d85760048101356001600160401b0381116100d8573660246101e08302840101116100d857602461016e92016104c1565b005b346100d8575f3660031901126100d8576020604051601f193601358152f35b61022c90929192610180806101a0830195805184526020810151602085015260408101516040850152606081015160608501526080810151608085015260a081015160a085015260c081015160c085015260e081015160e085015261010081015161010085015261020b61012082015161012086019015159052565b61014081810151151590850152610160818101519085015201511515910152565b565b346100d85760403660031901126100d85760043560243561024d61062e565b5061025661062e565b5061025f610952565b918251156103685760208301528151600110156103685781610288916040610364940152610b83565b505061029261062e565b9060208101519060408101519060608101519060808101519060a08101519060c08101519060e0810151906101008101519061032d8a610323610120840151936101406102e28183015160f81c90565b936102f261014184015160f81c90565b9261031561030b61016261014284015193015160f81c90565b1515610180840152565b610160820152019015159052565b15156101208c0152565b6101008a015260e089015260c088015260a0870152608086015260608501526040840152602083015281526040519182918261018f565b0390f35b6105de565b346100d8576101e03660031901126100d85761038f61038a610814565b610469565b61016e60c43560e4358181118015610447575b6103ab9061069e565b6103ba6103b661070b565b1590565b801561043f575b6103ca90610748565b6103d261070b565b8061042c575b6103e290156107a5565b6004359160243591604435916064359161014435916101243591610104359160a43560843561040f61071b565b9761041861070b565b996101a4359b61042661072b565b9d6109a5565b506103e261043861071b565b90506103d8565b5081156103c1565b5080156103a2565b346100d8575f3660031901126100d8576020610100610d49565b1561047057565b60405162461bcd60e51b815260206004820152602360248201527f526f6f744163636573734f70657261746f723a204e6f206f776e65722061636360448201526265737360e81b6064820152608490fd5b90916104ce61038a610814565b5f5b838110156105d8576101e0810283016104ea61038a610814565b60e08101359060c08101359081831180156105d0575b6105099061069e565b61018081019261051b6103b68561073b565b80156105c8575b61052b90610748565b6105348461073b565b806105b5575b15610544906107a5565b81359360208301359360408401359261014085013591610120860135916101008701359160a0880135608089013560608a01356105846101608c0161073b565b9861058e9061073b565b996101a08c01359b6101c0016105a39061073b565b9c6105ad9e6109a5565b6001016104d0565b506105c3610160830161073b565b61053a565b508215610522565b508215610500565b50915050565b634e487b7160e01b5f52603260045260245ffd5b634e487b7160e01b5f52604160045260245ffd5b601f909101601f19168101906001600160401b0382119082101761062957604052565b6105f2565b604051906101a082016001600160401b03811183821017610629576040525f610180838281528260208201528260408201528260608201528260808201528260a08201528260c08201528260e0820152826101008201528261012082015282610140820152826101608201520152565b156106a557565b60405162461bcd60e51b815260206004820152603860248201527f5472616e73666f726d6174696f6e733a2074696d656f7574206d7573742062656044820152772067726561746572207468616e20756e6c6f636b54696d6560401b6064820152608490fd5b6101843580151581036100d85790565b6101643580151581036100d85790565b6101c43580151581036100d85790565b3580151581036100d85790565b1561074f57565b60405162461bcd60e51b815260206004820152603b60248201525f51602061193d5f395f51905f5260448201527a06e206d757374206861766520756e6c6f636b54696d65206f66203602c1b6064820152608490fd5b156107ac57565b60405162461bcd60e51b815260206004820152603660248201525f51602061193d5f395f51905f526044820152756e206d757374206e6f7420626520612072656369706560501b6064820152608490fd5b36603319013560601c90811561080f57565b339150565b6040516020810190616e7360f01b82525f60228201525f60308201526020815261083f604082610606565b5190519060208110610941575b506108556107fd565b9061087382600160801b600160f01b038316616e7360f01b17610f0c565b8015610931575b15610886575050600190565b608081901b6001600160801b031916906108f190601081901b6001600160901b0319168061092257506108b7610d7e565b925b8061091157506108e36108ca610d7e565b6040519485936001600160f01b03191660208501610db4565b03601f198101835282610606565b61090d60405192839263d787b73760e01b845260048401610a6f565b0390fd5b61091d6108e391610f4a565b6108ca565b61092b90610f4a565b926108b9565b5061093c8282610f0c565b61087a565b5f199060200360031b1b165f61084c565b604051606091906109638382610606565b6002815291601f1901366020840137565b8051156103685760200190565b8051600110156103685760400190565b80518210156103685760209160051b010190565b9d9a9794919c999693909b989592604051809e60208201526040015260608d015260808c015260a08b015260c08a015260e0890152610100880152610120870152151560f81b610140860152151560f81b6101418501526101428401526101628301610a1491151560f81b9052565b6101438252610a2561016383610606565b610a2d610952565b92610a3784610974565b52610a4183610981565b5261022c91610c73565b805180835260209291819084018484015e5f828201840152601f01601f1916010190565b90610a87602091949394604084526040840190610a4b565b6001600160a01b03909416910152565b6001600160401b03811161062957601f01601f191660200190565b81601f820112156100d857805190610ac982610a97565b92610ad76040519485610606565b828452602083830101116100d857815f9260208093018386015e8301015290565b916060838303126100d85782516001600160401b0381116100d85782610b1f918501610ab2565b92602081015192604082015160018060401b0381116100d857610b429201610ab2565b90565b90602080835192838152019201905f5b818110610b625750505090565b8251845260209384019390920191600101610b55565b6040513d5f823e3d90fd5b6001600160a01b03610b93610d49565b16308103610bd05750610bc9907001430d002020202020202020200101200160781b905f51602061191d5f395f51905f52610e21565b9192909190565b60405163419b58fd60e01b81525f51602061191d5f395f51905f5260048201526060602482015292915f91849182908190610c0f906064830190610b45565b7001430d002020202020202020200101200160781b604483015203915afa908115610c6e575f5f935f93610c44575b50929190565b91935050610c6491503d805f833e610c5c8183610606565b810190610af8565b929092915f610c3e565b610b78565b6001600160a01b03610c83610d49565b16308103610ca9575061022c916060915f91905f51602061191d5f395f51905f52610ef5565b91823b156100d85760405163298314fb60e01b81525f51602061191d5f395f51905f52600482015260a06024820152925f928492839185918391610d2491610d0b91610cf99060a4860190610b45565b84810360031901604486015290610a4b565b8360648401526003198382030160848401526060610a4b565b03925af18015610c6e57610d355750565b80610d435f61022c93610606565b806100dc565b7f629a4c26e296b22a8e0856e9f6ecb2d1008d7e00081111962cd175fa7488e175546001600160a01b031680610b4257503390565b60405190610d8d604083610606565b60068252651e3937b7ba1f60d11b6020830152565b805191908290602001825e015f815290565b610b4293926003610ddc9260019461ffff60f01b168152601d60f91b60028201520190610da2565b601d60f91b81520190610da2565b634e487b7160e01b5f52601160045260245ffd5b60ff1660ff8114610e0f5760010190565b610dea565b91908201809211610e0f57565b91925f9260609260ff610e388760f01c8385610faa565b9660e01c1680610e4757505050565b9194509250610e5683856116fa565b549366ffffffffffffff851693610e85610e6f86610a97565b95610e7d6040519788610606565b808752610a97565b602086019590601f19013687379491865f935b8560ff861610610eaa57505050505050565b610eed9181610ee2610ee793610edb89610ec5818b8b611058565b9560ff64ffffffffff92166028026038011c1690565b8094611097565b610e14565b93610dfe565b928790610e98565b92909161022c9492610f06856111aa565b946112a8565b610f14610952565b90815115610368576020820152805160011015610368576001600160a01b039091166040820152610f449061157b565b60f81c90565b5f5b60108110610f7d575b6040516001600160801b0319909216602083015260108252610f78603083610606565b815290565b6001600160801b03198216600382901b1b6001600160f81b03191615610fa557600101610f4c565b610f55565b9190918115610fc557610b4292610fc09161164f565b61167d565b505050604051610fd6602082610606565b5f815290565b60209181520160208251919201905f5b818110610ff95750505090565b8251845260209384019390920191600101610fec565b6040515f5160206118fd5f395f51905f52916020820191906110519082906108e3906953746f7265486f6f6b7360301b66746273746f726560c81b0186610fdc565b5190201890565b6108e361107f5f5160206118fd5f395f51905f529493604051928391602083019586610fdc565b51902060f89190911b6001600160f81b031916181890565b905b60208110156110c257806110ac57505050565b5f199060031b1c90818351169119905416179052565b919060018160209254845201910191601f1901611099565b919080611126575b505b602081101561110e57806110f757505050565b5f1960039190911b1c825191548119169116179052565b919060018160209254845201910191601f19016110e4565b602081101561118e575b80156110e257929183602003908183105f14611181575f19600384901b1c5b81548660031b1b818651169119161784528183111561117a57600101920192601f199101015f6110e2565b5050505050565b5f19600383901b1c61114f565b916111a59061119d8460051c90565b0192601f1690565b611130565b655461626c657360501b66746273746f726560c81b0181146112125760408051655461626c657360501b66746273746f726560c81b0160208201908152818301939093529081526111fc606082610606565b5190205f5160206118bd5f395f51905f52185490565b506503001811010160cd1b90565b90610b42949261123b61124992608085526080850190610b45565b908382036020850152610a4b565b9260408201526060818403910152610a4b565b969594906112a39361128260a09694611290938b5260c060208c015260c08b0190610b45565b9089820360408b0152610a4b565b9160608801528682036080880152610a4b565b930152565b9295949192916001600160f01b03198316611bdd60f21b14611518576112cd83611713565b5f5b81518110156113b8576113036112f66112e88385610991565b516001600160581b03191690565b6001600160581b03191690565b611313816001809160581c161490565b611321575b506001016112cf565b6113599061134d908190611347906001600160581b0319165b6001600160601b03191690565b60601c90565b6001600160a01b031690565b90813b156100d8575f878b9387838a61138a8a8f6040519a8b98899788966315c19b2760e21b88526004880161125c565b03925af1918215610c6e576001926113a4575b5090611318565b80610d435f6113b293610606565b5f61139d565b50835f5160206118dd5f395f51905f52604051806113d98a8d8b8a85611220565b0390a26113f56113e9848661164f565b86516020880191611783565b60e082901c60ff16806114c4575b505f5b81518110156114b95761141f6112f66112e88385610991565b61142f816002809160581c161490565b61143d575b50600101611406565b61145a9061134d908190611347906001600160581b03191661133a565b90813b156100d8575f878b9387838a61148b8a8f6040519a8b9889978896635b28cdaf60e01b88526004880161125c565b03925af1918215610c6e576001926114a5575b5090611434565b80610d435f6114b393610606565b5f61149e565b505050505050509050565b886114cf85876116fa565b555f602088015b85878c8560ff8616106114ed575050505050611403565b83610ee260ff9561150888610ec58160019961150f99611058565b8094611783565b920116906114d6565b509093945f5160206118dd5f395f51905f529361153b9160405194859485611220565b0390a2565b908160209103126100d8575190565b9061157060609360ff92979695978452608060208501526080840190610b45565b951660408201520152565b6001600160a01b0361158b610d49565b163081036115c55750610b4290630101000160d81b905f906f5265736f757263654163636573730000661d189ddbdc9b1960ca1b016117c7565b604051638c364d5960e01b81529160209183918290819061161190630101000160d81b905f906f5265736f757263654163636573730000661d189ddbdc9b1960ca1b016004860161154f565b03915afa908115610c6e575f91611626575090565b610b42915060203d602011611648575b6116408183610606565b810190611540565b503d611636565b906116686108e391604051928391602083019586610fdc565b5190205f5160206118bd5f395f51905f521890565b610b429060405192601f19603f82860101166040528084525f60208501926110da565b60405160208101916116d29082906108e3906953746f7265486f6f6b7360301b66746273746f726560c81b0186610fdc565b5190207f14e2fcc58e58e68ec7edc30c8d50dccc3ce2714a623ec81f46b6a63922d765691890565b906116d26108e391604051928391602083019586610fdc565b604080516117218282610606565b600181526020810191601f190136833780511561036857610b429261176a92526117646117566117508361100f565b926116a0565b5460381c64ffffffffff1690565b9061167d565b80516001600160801b0316602090910160801b1761186e565b91905b60208110156117af578061179957505050565b5f199060031b1c90818354169119905116179055565b909160016020918451815501920190601f1901611786565b60ff916117d69194939461164f565b9216916117ec838360ff91601b0360031b1c1690565b915f935f915b818310611844575050508281602082101561182e575b505080548360031b1b9260200380921161182157505090565b600101549060031b1c1790565b90809450601f925060051c019216915f80611808565b90919461185a868360ff91601b0360031b1c1690565b8101809111610e0f579460010191906117f2565b60158160801c9160018060801b031604604051916020830160208360051b8501016040528284525f5b8381106118a5575050505090565b60206001601592855185520192019201919061189756fe86425bff6b57326c7859e89024fe4f238ca327a1ae4a230180dd2f0e88aaa7d98dbb3a9672eebfd3773e72dd9c102393436816d832c7ba9e1e1ac8fcadcac7a93b4102da22e32d82fc925482184f16c09fd4281692720b87d124aef6da48a0f1746200000000000000000000000000005472616e73666f726d6174696f6e73005472616e73666f726d6174696f6e733a20776174657220636f6c6c656374696fa2646970667358221220244725bbc6656c3f93eaae0ca09fe8ef242a973f090133c0d3ac7c562bd71ade64736f6c634300081c0033","linkReferences":{}},"methodIdentifiers":{"_msgSender()":"119df25f","_msgValue()":"45ec9354","_world()":"e1af802c","getTransformation(uint256,uint256)":"59577ca0","setTransformation((uint256,uint256,uint256,uint256,uint256,uint256,uint256,uint256,uint256,uint256,uint256,bool,bool,uint256,bool))":"c1ff5c00","setTransformations((uint256,uint256,uint256,uint256,uint256,uint256,uint256,uint256,uint256,uint256,uint256,bool,bool,uint256,bool)[])":"15d2c612","supportsInterface(bytes4)":"01ffc9a7"},"id":151}