{"abi":[{"type":"function","name":"_msgSender","inputs":[],"outputs":[{"name":"sender","type":"address","internalType":"address"}],"stateMutability":"view"},{"type":"function","name":"_msgValue","inputs":[],"outputs":[{"name":"value","type":"uint256","internalType":"uint256"}],"stateMutability":"pure"},{"type":"function","name":"_world","inputs":[],"outputs":[{"name":"","type":"address","internalType":"address"}],"stateMutability":"view"},{"type":"function","name":"calculateArea","inputs":[{"name":"x","type":"uint256","internalType":"uint256"},{"name":"y","type":"uint256","internalType":"uint256"}],"outputs":[{"name":"area","type":"uint256","internalType":"uint256"}],"stateMutability":"pure"},{"type":"function","name":"calculateExpansionArea","inputs":[{"name":"landId","type":"uint256","internalType":"uint256"},{"name":"x1","type":"uint256","internalType":"uint256"},{"name":"y1","type":"uint256","internalType":"uint256"}],"outputs":[{"name":"area","type":"uint256","internalType":"uint256"}],"stateMutability":"view"},{"type":"function","name":"calculateLandCost","inputs":[{"name":"x0","type":"uint256","internalType":"uint256"},{"name":"y0","type":"uint256","internalType":"uint256"}],"outputs":[{"name":"cost","type":"uint256","internalType":"uint256"}],"stateMutability":"view"},{"type":"function","name":"calculateLandExpansionCost","inputs":[{"name":"landId","type":"uint256","internalType":"uint256"},{"name":"x1","type":"uint256","internalType":"uint256"},{"name":"y1","type":"uint256","internalType":"uint256"}],"outputs":[{"name":"cost","type":"uint256","internalType":"uint256"}],"stateMutability":"view"},{"type":"function","name":"calculateLandInitialPurchaseCost","inputs":[],"outputs":[{"name":"cost","type":"uint256","internalType":"uint256"}],"stateMutability":"view"},{"type":"function","name":"calculateVrgdaCost","inputs":[{"name":"area","type":"uint256","internalType":"uint256"}],"outputs":[{"name":"vrgdaCost","type":"uint256","internalType":"uint256"}],"stateMutability":"view"},{"type":"function","name":"createLand","inputs":[{"name":"limitX","type":"uint256","internalType":"uint256"},{"name":"limitY","type":"uint256","internalType":"uint256"}],"outputs":[{"name":"landId","type":"uint256","internalType":"uint256"}],"stateMutability":"payable"},{"type":"function","name":"createPlayerInitialLand","inputs":[],"outputs":[{"name":"landId","type":"uint256","internalType":"uint256"}],"stateMutability":"payable"},{"type":"function","name":"expandLand","inputs":[{"name":"landId","type":"uint256","internalType":"uint256"},{"name":"x1","type":"uint256","internalType":"uint256"},{"name":"y1","type":"uint256","internalType":"uint256"}],"outputs":[],"stateMutability":"payable"},{"type":"function","name":"generateChunk","inputs":[{"name":"landId","type":"uint256","internalType":"uint256"}],"outputs":[],"stateMutability":"nonpayable"},{"type":"function","name":"setInitialLandItems","inputs":[{"name":"items","type":"tuple[]","internalType":"struct InitialLandItem[]","components":[{"name":"x","type":"uint256","internalType":"uint256"},{"name":"y","type":"uint256","internalType":"uint256"},{"name":"itemId","type":"uint256","internalType":"uint256"}]},{"name":"landIndex","type":"uint256","internalType":"uint256"},{"name":"_initialLandItemsDefaultIndex","type":"uint256","internalType":"uint256"}],"outputs":[],"stateMutability":"nonpayable"},{"type":"function","name":"setInitialLandLimits","inputs":[{"name":"limitX","type":"uint256","internalType":"uint256"},{"name":"limitY","type":"uint256","internalType":"uint256"}],"outputs":[],"stateMutability":"nonpayable"},{"type":"function","name":"setLandName","inputs":[{"name":"landId","type":"uint256","internalType":"uint256"},{"name":"name","type":"string","internalType":"string"}],"outputs":[],"stateMutability":"nonpayable"},{"type":"function","name":"supportsInterface","inputs":[{"name":"interfaceId","type":"bytes4","internalType":"bytes4"}],"outputs":[{"name":"","type":"bool","internalType":"bool"}],"stateMutability":"pure"},{"type":"event","name":"LandCreated","inputs":[{"name":"landId","type":"uint256","indexed":true,"internalType":"uint256"},{"name":"owner","type":"address","indexed":true,"internalType":"address"},{"name":"limitX","type":"uint256","indexed":false,"internalType":"uint256"},{"name":"limitY","type":"uint256","indexed":false,"internalType":"uint256"}],"anonymous":false},{"type":"event","name":"Store_DeleteRecord","inputs":[{"name":"tableId","type":"bytes32","indexed":true,"internalType":"ResourceId"},{"name":"keyTuple","type":"bytes32[]","indexed":false,"internalType":"bytes32[]"}],"anonymous":false},{"type":"event","name":"Store_SpliceDynamicData","inputs":[{"name":"tableId","type":"bytes32","indexed":true,"internalType":"ResourceId"},{"name":"keyTuple","type":"bytes32[]","indexed":false,"internalType":"bytes32[]"},{"name":"dynamicFieldIndex","type":"uint8","indexed":false,"internalType":"uint8"},{"name":"start","type":"uint48","indexed":false,"internalType":"uint48"},{"name":"deleteCount","type":"uint40","indexed":false,"internalType":"uint40"},{"name":"encodedLengths","type":"bytes32","indexed":false,"internalType":"EncodedLengths"},{"name":"data","type":"bytes","indexed":false,"internalType":"bytes"}],"anonymous":false},{"type":"event","name":"Store_SpliceStaticData","inputs":[{"name":"tableId","type":"bytes32","indexed":true,"internalType":"ResourceId"},{"name":"keyTuple","type":"bytes32[]","indexed":false,"internalType":"bytes32[]"},{"name":"start","type":"uint48","indexed":false,"internalType":"uint48"},{"name":"data","type":"bytes","indexed":false,"internalType":"bytes"}],"anonymous":false},{"type":"error","name":"AccessByNoOperator","inputs":[{"name":"owner","type":"address","internalType":"address"},{"name":"caller","type":"address","internalType":"address"}]},{"type":"error","name":"EncodedLengths_InvalidLength","inputs":[{"name":"length","type":"uint256","internalType":"uint256"}]},{"type":"error","name":"Slice_OutOfBounds","inputs":[{"name":"data","type":"bytes","internalType":"bytes"},{"name":"start","type":"uint256","internalType":"uint256"},{"name":"end","type":"uint256","internalType":"uint256"}]},{"type":"error","name":"Store_IndexOutOfBounds","inputs":[{"name":"length","type":"uint256","internalType":"uint256"},{"name":"accessedIndex","type":"uint256","internalType":"uint256"}]},{"type":"error","name":"Store_InvalidResourceType","inputs":[{"name":"expected","type":"bytes2","internalType":"bytes2"},{"name":"resourceId","type":"bytes32","internalType":"ResourceId"},{"name":"resourceIdString","type":"string","internalType":"string"}]},{"type":"error","name":"Store_InvalidSplice","inputs":[{"name":"startWithinField","type":"uint40","internalType":"uint40"},{"name":"deleteCount","type":"uint40","internalType":"uint40"},{"name":"fieldLength","type":"uint40","internalType":"uint40"}]},{"type":"error","name":"World_AccessDenied","inputs":[{"name":"resource","type":"string","internalType":"string"},{"name":"caller","type":"address","internalType":"address"}]}],"bytecode":{"object":"0x60808060405234601557614c64908161001a8239f35b5f80fdfe60806040526004361015610011575f80fd5b5f3560e01c806301ffc9a714610124578063119df25f1461011f57806320af380d1461011a57806322ed030d1461011557806326766c61146101105780632e6a413f1461010b5780633c54e9191461010657806345ec9354146101015780635a7f97fc146100fc5780636ebc40e2146100f7578063938ce40a146100f2578063b22d8056146100ed578063bf6ee85d146100e8578063c9a139b2146100e3578063d7825679146100de578063e1af802c146100d95763e2e1ea5e146100d4575f80fd5b6109ba565b6109a0565b610984565b610830565b6106ec565b610688565b610611565b610598565b61055b565b61053c565b610518565b610505565b6104e4565b6104a4565b6101c7565b61019b565b3461017a57602036600319011261017a5760043563ffffffff60e01b811680910361017a5760209063b5dee12760e01b8114908115610169575b506040519015158152f35b6301ffc9a760e01b1490505f61015e565b5f80fd5b5f91031261017a57565b6001600160a01b03909116815260200190565b3461017a575f36600319011261017a5760206101b561119d565b6040516001600160a01b039091168152f35b5f36600319011261017a576101da61119d565b6101fc6101f76101f36101ec84610a7a565b5460ff1690565b1590565b610ab2565b610204611257565b5f6020610255610212611262565b9461021e8686026112cc565b61023861022c61022c611435565b6001600160a01b031690565b906040519485809481936335313c2160e11b835260048301610188565b03925af1908115610480575f91610485575b5061027181611446565b61027a8161148d565b610283816114d2565b61028c81611517565b6102958161155c565b61032f60206102bb4260021c633fffffff165b63ffffffff33169063ffffffff91011690565b6102c581856115a1565b6102ce8461168f565b6102d784611785565b6102e084611840565b6102eb8686866118fe565b6102f961022c61022c611992565b604051808095819463155a542b60e11b835260048301919091604063ffffffff6060830194600584526005602085015216910152565b03915afa908115610480576103649161035f915f91610451575b50610352610b18565b905f5260205260405f2090565b610b67565b80511561040a575b5f5b81518110156103b457806103ae61038760019385610c23565b515160206103958487610c23565b51015160406103a48588610c23565b51015191876119b6565b0161036e565b6040805185815260208101879052610406918591339183915f516020614b4f5f395f51905f529190a36103f66103e933610a7a565b805460ff19166001179055565b6040519081529081906020820190565b0390f35b5061044c61035f610419610b18565b7f4ce38aeb11518ae515e362ca51bcf483a6bdb783bd216d893582614f14142067545f9081526020919091526040902090565b61036c565b610473915060203d602011610479575b61046b81836105ce565b810190610afe565b5f610349565b503d610461565b610b0d565b61049e915060203d6020116104795761046b81836105ce565b5f610267565b3461017a57602036600319011261017a5760206104c2600435610cc6565b604051908152f35b606090600319011261017a57600435906024359060443590565b3461017a5760206104c26105006104fa366104ca565b91610dc4565b610cc6565b3461017a5760206104c26104fa366104ca565b3461017a57604036600319011261017a5760206104c2610500600435602435610c4b565b3461017a575f36600319011261017a576020604051601f193601358152f35b3461017a575f36600319011261017a5760206104c261050061058361057e6111b4565b6121b2565b61059361058e6111b4565b612238565b610c4b565b3461017a57604036600319011261017a57602060043560243560405191028152f35b634e487b7160e01b5f52604160045260245ffd5b601f909101601f19168101906001600160401b038211908210176105f157604052565b6105ba565b6001600160401b0381116105f157601f01601f191660200190565b3461017a57604036600319011261017a576024356004356001600160401b03821161017a573660238301121561017a57816004013590610650826105f6565b9161065e60405193846105ce565b808352366024828601011161017a576020815f92602461068697018387013784010152610de2565b005b3461017a57606036600319011261017a576004356001600160401b03811161017a573660238201121561017a576004810135906001600160401b03821161017a57366024606084028301011161017a57610686916024359060246044359301610ece565b3461017a57604036600319011261017a5760043560243561071361070e611bf7565b610e76565b61071b6111b4565b91604051906020820152602081526107346040826105ce565b6001600160a01b03610744613576565b163081036107af57506106869261078a919065ffffffffffff61077560035f516020614bcf5f395f51905f52613e14565b16905f516020614baf5f395f51905f52613ec9565b6107926111b4565b604051916020830152602082526107aa6040836105ce565b612ca4565b9192823b1561017a576040516301c85d5760e51b8152925f9284928391859183916107fe915f516020614bcf5f395f51905f5291906003905f516020614baf5f395f51905f5260048701612c68565b03925af1801561048057610817575b506106869061078a565b806108235f80936105ce565b80031261017a575f61080d565b604036600319011261017a576004356024356001600160a01b03610852611435565b169161085f831515610fb5565b610867611d35565b81118061096f575b6108789061100d565b602060405180946335313c2160e11b8252815f816108993360048301610188565b03925af191821561048057610406935f9361093d575b5082905f516020614b4f5f395f51905f529061092a906108e06108da4260021c633fffffff166102a8565b856115a1565b6108e98461168f565b6108f284611785565b6108fb84611840565b6109068186026112cc565b6109118186866118fe565b6040805195865260208601919091523394918291820190565b0390a36040519081529081906020820190565b61092a93506109685f516020614b4f5f395f51905f529160203d6020116104795761046b81836105ce565b93506108af565b5061087861097b611d45565b8311905061086f565b610686610990366104ca565b9161099a81611ac4565b5061106d565b3461017a575f36600319011261017a5760206101b5613576565b3461017a57602036600319011261017a576004356109d781611ac4565b506109e86109e36111b4565b611ee8565b6109f3811515611137565b5f6109fd83611d55565b92610a0781611a8a565b905f5b855181101561068657610a1d8187610c23565b51805b848210610a39575b505084841461068657600101610a0a565b610a48610a6491969296610c63565b91610a54848887611dda565b610a5f838587611df1565b61118f565b94868614610a755760010190610a20565b610a28565b6001600160a01b03165f9081527f714f0a489aa0e4328df2218779a67bb07ccb69a6ae3f379a06084b73e02c8b926020526040902090565b15610ab957565b60405162461bcd60e51b815260206004820152601f60248201527f4c616e643a204f6e6c79206f6e65206c616e64207065722061646472657373006044820152606490fd5b9081602091031261017a575190565b6040513d5f823e3d90fd5b5f80527f714f0a489aa0e4328df2218779a67bb07ccb69a6ae3f379a06084b73e02c8b906020525f516020614b6f5f395f51905f5290565b6001600160401b0381116105f15760051b60200190565b90815491610b7483610b50565b92610b8260405194856105ce565b80845260208401915f5260205f20915f905b828210610ba15750505050565b604051606081016001600160401b038111828210176105f15760019260039260209260405287548152848801548382015260028801546040820152815201940191019092610b94565b634e487b7160e01b5f52603260045260245ffd5b805160031015610c0e5760800190565b610bea565b805160021015610c0e5760600190565b8051821015610c0e5760209160051b010190565b634e487b7160e01b5f52601160045260245ffd5b81810292918115918404141715610c5e57565b610c37565b9060018201809211610c5e57565b91908201809211610c5e57565b15610c8557565b60405162461bcd60e51b81526020600482015260196024820152784c616e643a20636f73742063616e6e6f74206265207a65726f60381b6044820152606490fd5b905f91610cd9610cd46111b4565b611f9c565b80610db657505f905b808210610cf8575050610cf6821515610c7e565b565b9092610d02611a7a565b840190818511610c5e57610d1c610d176111b4565b612022565b905f824203921242831281169042841390151617610c5e57610da8610dae92610da2610d9d600196610d54610d4f6111b4565b6120a8565b93610d8c610d68610d636111b4565b61212c565b92670de0b6b3a76400008b610d7b6139d4565b920102670de0b6b3a7640000020590565b9003670de0b6b3a764000091020590565b613306565b906134af565b90610c71565b930190610ce2565b610dc1929350610c4b565b90565b610dd6610dd082611a8a565b91611aa7565b82029183029202010190565b610deb81611ac4565b50610dfc610df76111b4565b6122bd565b60601c91823b1561017a57610e37925f92836040518096819582946349c6720560e11b84526004840152604060248401526044830190610e52565b03925af1801561048057610e485750565b5f610cf6916105ce565b805180835260209291819084018484015e5f828201840152601f01601f1916010190565b15610e7d57565b60405162461bcd60e51b815260206004820152602360248201527f526f6f744163636573734f70657261746f723a204e6f206f776e65722061636360448201526265737360e81b6064820152608490fd5b9192610edb61070e611bf7565b5f80527f714f0a489aa0e4328df2218779a67bb07ccb69a6ae3f379a06084b73e02c8b9160205260405f20555f5b818110610f165750505050565b5f8481525f516020614b6f5f395f51905f526020526040902060019190610f3c90610f78565b50610f48828587610fa5565b3581556020610f58838688610fa5565b01358382015560026040610f6d848789610fa5565b013591015501610f09565b805490600160401b8210156105f15760018201808255821015610c0e575f52600360205f20910201905f90565b9190811015610c0e576060020190565b15610fbc57565b60405162461bcd60e51b8152602060048201526024808201527f4c616e64436f6e6669673a204c616e644e4654732061646472657373206e6f74604482015263081cd95d60e21b6064820152608490fd5b1561101457565b60405162461bcd60e51b815260206004820152602b60248201527f4c616e64436f6e6669673a206d696e696d756d207374617274696e67206c696d60448201526a1a5d1cc81b9bdd081b595d60aa1b6064820152608490fd5b919080158061109c575b611097578261109261108d8484610cf697610dc4565b6112cc565b6118fe565b505050565b508115611077565b6110ad81611ac4565b506110b96109e36111b4565b6110c4811515611137565b5f6110ce83611d55565b926110d881611a8a565b905f5b855181101561110a576110ee8187610c23565b51805b848210611112575b505084841461110a576001016110db565b505050505050565b610a4861112191969296610c63565b9486861461113257600101906110f1565b6110f9565b1561113e57565b60405162461bcd60e51b815260206004820152602360248201527f67656e65726174654368756e6b3a20636f6e666967757265206368756e6b2073604482015262697a6560e81b6064820152608490fd5b5f198114610c5e5760010190565b36603319013560601c9081156111af57565b339150565b604051906111c36020836105ce565b5f808352366020840137565b604051606091906111e083826105ce565b6002815291601f1901366020840137565b6040805190919061120283826105ce565b6001815291601f1901366020840137565b60405160a0919061122483826105ce565b6004815291601f1901366020840137565b6040516080919061124683826105ce565b6003815291601f1901366020840137565b610dc161057e6111b4565b610dc161058e6111b4565b1561127457565b60405162461bcd60e51b8152602060048201526018602482015277125b98dbdc9c9958dd081c185e5b595b9d08185b5bdd5b9d60421b6044820152606490fd5b9081602091031261017a5751801515810361017a5790565b6112ee6112e96112db83610cc6565b926112e4611a7a565b610c71565b612acf565b3461138857602061134c9161130761022c61022c612b7f565b61130f612b8f565b6040516323b872dd60e01b81523360048201526001600160a01b0390911660248201526044810192909252909283919082905f9082906064820190565b03925af180156104805761135d5750565b61137e9060203d602011611381575b61137681836105ce565b8101906112b4565b50565b503d61136c565b61139390341461126d565b6113a161022c61022c612b7f565b803b1561017a575f60049160405192838092630d0e30db60e41b825234905af180156104805761141b575b505f602061134c6113e161022c61022c612b7f565b6113e9612b8f565b60405163a9059cbb60e01b81526001600160a01b03909116600482015234602482015293849283919082906044820190565b806114295f61142f936105ce565b8061017e565b5f6113cc565b611440610df76111b4565b60601c90565b61144e6111cf565b805115610c0e57816020820152805160011015610c0e57806103f2604061147693015261234a565b60018101809111610c5e576103f2610cf692612b9f565b6114956111cf565b805115610c0e57816020820152805160011015610c0e5780606e60406114bc93015261234a565b60018101809111610c5e57606e610cf692612b9f565b6114da6111cf565b805115610c0e57816020820152805160011015610c0e5780606f604061150193015261234a565b60018101809111610c5e57606f610cf692612b9f565b61151f6111cf565b805115610c0e57816020820152805160011015610c0e57806070604061154693015261234a565b60018101809111610c5e576070610cf692612b9f565b6115646111cf565b805115610c0e57816020820152805160011015610c0e5780606c604061158b93015261234a565b60018101809111610c5e57606c610cf692612b9f565b6115a96111f1565b90815115610c0e5760208201526040519163ffffffff60e01b9060e01b166020830152600482526115db6024836105ce565b6001600160a01b036115eb613576565b169130830361162057610cf692506b072848090101010008210101609d1b916005905f516020614bef5f395f51905f52613884565b90823b1561017a576040516301c85d5760e51b8152925f928492839185918391611670916b072848090101010008210101609d1b91906005905f516020614bef5f395f51905f5260048701612c68565b03925af18015610480576116815750565b806114295f610cf6936105ce565b6116976111f1565b90815115610c0e5760208201526040515f6020820152602081526116bc6040826105ce565b6001600160a01b036116cc613576565b169130830361171057610cf6925065ffffffffffff6116fb60036b072848090101010008210101609d1b613e14565b16905f516020614bef5f395f51905f52613ec9565b823b1561017a576040516301c85d5760e51b8152925f92849283918591839161175f916b072848090101010008210101609d1b91906003905f516020614bef5f395f51905f5260048701612c68565b03925af18015610480576117705750565b8061177c5f80936105ce565b80031261017a57565b61178d6111f1565b90815115610c0e5760208201526040515f6020820152602081526117b26040826105ce565b6001600160a01b036117c2613576565b16913083036117f157610cf6925065ffffffffffff6116fb60026b072848090101010008210101609d1b613e14565b823b1561017a576040516301c85d5760e51b8152925f92849283918591839161175f916b072848090101010008210101609d1b91906002905f516020614bef5f395f51905f5260048701612c68565b6118486111f1565b90815115610c0e576020820152604051600160f81b6020820152600181526118716021826105ce565b6001600160a01b03611881613576565b16913083036118b057610cf6925065ffffffffffff6116fb60046b072848090101010008210101609d1b613e14565b823b1561017a576040516301c85d5760e51b8152925f92849283918591839161175f916b072848090101010008210101609d1b91906004905f516020614bef5f395f51905f52828701612c68565b919080158061198a575b6110975761191583611a8a565b9061191f84611aa7565b6119276111f1565b91825115610c0e57611964938361195d928860208997015260405192016020830152602082526119586040836105ce565b612d2e565b0183612dbd565b5f5b818110611978575050610cf6906110a4565b60019061198484612e7f565b01611966565b508115611908565b61144061199d6111b4565b6123ce565b61ffff5f199116019061ffff8211610c5e57565b929190918015611a6f576119cb828486612ff3565b9061ffff821615611a2257816119f8611a159261ffff6119ef610cf69997966119a2565b1685888861303c565b611a1061ffff611a07836119a2565b16848787613125565b6119a2565b9261ffff4294169261321c565b60019150611a4261ffff611a37858789612ff3565b16918285878961303c565b611a4f428285878961321c565b611a5b81848688613125565b019161ffff8311610c5e57610cf6936138df565b5090610cf692612efa565b610dc1611a856111b4565b61245c565b611a926111f1565b805115610c0e57610dc19160208201526124e1565b611aaf6111f1565b805115610c0e57610dc1916020820152612569565b6001600160a01b03611ad4611435565b168015611b9e576040516331a9108f60e11b81526004810183905290602090829060249082905afa908115610480575f91611b6f575b50611b1361119d565b916001600160a01b03808416908316149083908215611b5d575b505015611b3b575050600190565b6334a0e31960e21b5f526001600160a01b039081166004521660245260445b5ffd5b611b689250836134fc565b825f611b2d565b611b91915060203d602011611b97575b611b8981836105ce565b8101906134dd565b5f611b0a565b503d611b7f565b60405162461bcd60e51b815260206004820152602b60248201527f4c69624c616e644163636573733a206c616e644e46547320616464726573732060448201526a063616e6e6f7420626520360ac1b6064820152608490fd5b6040516020810190616e7360f01b82525f60228201525f603082015260208152611c226040826105ce565b5190519060208110611d24575b50611c3861119d565b90611c5682600160801b600160f01b038316616e7360f01b1761438d565b8015611d14575b15611c69575050600190565b608081901b6001600160801b03191690611cd490601081901b6001600160901b03191680611d055750611c9a6139e4565b925b80611cf45750611cc6611cad6139e4565b6040519485936001600160f01b03191660208501613a1a565b03601f1981018352826105ce565b611cf060405192839263d787b73760e01b84526004840161354e565b0390fd5b611d00611cc6916143cb565b611cad565b611d0e906143cb565b92611c9c565b50611d1f828261438d565b611c5d565b5f199060200360031b1b165f611c2f565b610dc1611d406111b4565b6125f3565b610dc1611d506111b4565b612679565b611d5d6111f1565b90815115610c0e5781611d77916020611d7f94015261360d565b8051906136c1565b6040805160206020600160801b0384168201810190925260016001607b1b03600584901c168082529092909160809190911c9083015f5b838110611dc4575050505090565b6020600181928551855201920192019190611db6565b9091610cf692611deb828285613711565b926119b6565b919091611dfc6111f1565b92835115610c0e5764ffffffffff91602085015260405192602084015260208352611e286040846105ce565b825164ffffffffff169160059190911b166001600160a01b03611e49613576565b1693308503611e5c57610cf69450613a92565b929390813b1561017a575f80946116706040519788968795869463605144ad60e11b8652600486016137c5565b90602080835192838152019201905f5b818110611ea65750505090565b8251845260209384019390920191600101611e99565b90611edd60609360ff92979695978452608060208501526080840190611e89565b951660408201520152565b6001600160a01b03611ef8613576565b16308103611f2a5750610dc1905f516020614bcf5f395f51905f5290600d905f516020614baf5f395f51905f5261381c565b604051638c364d5960e01b815291602091839182908190611f6e905f516020614bcf5f395f51905f5290600d905f516020614baf5f395f51905f5260048601611ebc565b03915afa908115610480575f91611f83575090565b610dc1915060203d6020116104795761046b81836105ce565b6001600160a01b03611fac613576565b16308103611fde5750610dc1905f516020614bcf5f395f51905f52906001905f516020614baf5f395f51905f5261381c565b604051638c364d5960e01b815291602091839182908190611f6e905f516020614bcf5f395f51905f52906001905f516020614baf5f395f51905f5260048601611ebc565b6001600160a01b03612032613576565b163081036120645750610dc19067050028010101010160bd1b9060039064567267646160581b613a3160f11b0161381c565b604051638c364d5960e01b815291602091839182908190611f6e9067050028010101010160bd1b9060039064567267646160581b613a3160f11b0160048601611ebc565b6001600160a01b036120b8613576565b163081036120e95750610dc19067050028010101010160bd1b905f9064567267646160581b613a3160f11b0161381c565b604051638c364d5960e01b815291602091839182908190611f6e9067050028010101010160bd1b905f9064567267646160581b613a3160f11b0160048601611ebc565b6001600160a01b0361213c613576565b1630810361216e5750610dc19067050028010101010160bd1b9060019064567267646160581b613a3160f11b0161381c565b604051638c364d5960e01b815291602091839182908190611f6e9067050028010101010160bd1b9060019064567267646160581b613a3160f11b0160048601611ebc565b6001600160a01b036121c2613576565b163081036121f45750610dc1905f516020614bcf5f395f51905f52906003905f516020614baf5f395f51905f5261381c565b604051638c364d5960e01b815291602091839182908190611f6e905f516020614bcf5f395f51905f52906003905f516020614baf5f395f51905f5260048601611ebc565b6001600160a01b03612248613576565b1630810361227a5750610dc1905f516020614bcf5f395f51905f52906004905f516020614baf5f395f51905f5261381c565b604051638c364d5960e01b815291602091839182908190611f6e905f516020614bcf5f395f51905f52906004905f516020614baf5f395f51905f52828601611ebc565b6001600160a01b036122cd613576565b163081036123035750610dc1906d3702c00505050505050505050505608a1b906004905f516020614b8f5f395f51905f5261381c565b604051638c364d5960e01b815291602091839182908190611f6e906d3702c00505050505050505050505608a1b906004905f516020614b8f5f395f51905f52828601611ebc565b6001600160a01b0361235a613576565b1630810361238b5750610dc190630100080160dd1b905f9068496e76656e746f727960381b613a3160f11b0161381c565b604051638c364d5960e01b815291602091839182908190611f6e90630100080160dd1b905f9068496e76656e746f727960381b613a3160f11b0160048601611ebc565b6001600160a01b036123de613576565b163081036124145750610dc1906d3702c00505050505050505050505608a1b906006905f516020614b8f5f395f51905f5261381c565b604051638c364d5960e01b815291602091839182908190611f6e906d3702c00505050505050505050505608a1b906006905f516020614b8f5f395f51905f5260048601611ebc565b6001600160a01b0361246c613576565b1630810361249e5750610dc19067050028010101010160bd1b9060049064567267646160581b613a3160f11b0161381c565b604051638c364d5960e01b815291602091839182908190611f6e9067050028010101010160bd1b9060049064567267646160581b613a3160f11b01828601611ebc565b6001600160a01b036124f1613576565b163081036125245750610dc1906b072848090101010008210101609d1b905f905f516020614bef5f395f51905f5261381c565b604051638c364d5960e01b815291602091839182908190611f6e906b072848090101010008210101609d1b905f905f516020614bef5f395f51905f5260048601611ebc565b6001600160a01b03612579613576565b163081036125ad5750610dc1906b072848090101010008210101609d1b906001905f516020614bef5f395f51905f5261381c565b604051638c364d5960e01b815291602091839182908190611f6e906b072848090101010008210101609d1b906001905f516020614bef5f395f51905f5260048601611ebc565b6001600160a01b03612603613576565b163081036126355750610dc1905f516020614bcf5f395f51905f52906005905f516020614baf5f395f51905f5261381c565b604051638c364d5960e01b815291602091839182908190611f6e905f516020614bcf5f395f51905f52906005905f516020614baf5f395f51905f5260048601611ebc565b6001600160a01b03612689613576565b163081036126bb5750610dc1905f516020614bcf5f395f51905f52906006905f516020614baf5f395f51905f5261381c565b604051638c364d5960e01b815291602091839182908190611f6e905f516020614bcf5f395f51905f52906006905f516020614baf5f395f51905f5260048601611ebc565b6001600160a01b0361270f613576565b163081036127455750610dc1906d3702c00505050505050505050505608a1b906001905f516020614b8f5f395f51905f5261381c565b604051638c364d5960e01b815291602091839182908190611f6e906d3702c00505050505050505050505608a1b906001905f516020614b8f5f395f51905f5260048601611ebc565b6001600160a01b0361279d613576565b163081036127d35750610dc1906d3702c00505050505050505050505608a1b906005905f516020614b8f5f395f51905f5261381c565b604051638c364d5960e01b815291602091839182908190611f6e906d3702c00505050505050505050505608a1b906005905f516020614b8f5f395f51905f5260048601611ebc565b6001600160a01b0361282b613576565b1630810361285b5750610dc190630100800160d91b905f906713185b9910d95b1b60421b613a3160f11b0161381c565b604051638c364d5960e01b815291602091839182908190611f6e90630100800160d91b905f906713185b9910d95b1b60421b613a3160f11b0160048601611ebc565b6001600160a01b036128ad613576565b163081036128e25750610dc190630101000160d81b905f906f4c616e645065726d697373696f6e7300613a3160f11b0161381c565b604051638c364d5960e01b815291602091839182908190611f6e90630101000160d81b905f906f4c616e645065726d697373696f6e7300613a3160f11b0160048601611ebc565b6001600160a01b03612939613576565b1630810361296d5750610dc1906b072848090101010008210101609d1b906005905f516020614bef5f395f51905f5261381c565b604051638c364d5960e01b815291602091839182908190611f6e906b072848090101010008210101609d1b906005905f516020614bef5f395f51905f5260048601611ebc565b6001600160a01b036129c3613576565b163081036129f55750610dc19067050028010101010160bd1b9060029064567267646160581b613a3160f11b0161381c565b604051638c364d5960e01b815291602091839182908190611f6e9067050028010101010160bd1b9060029064567267646160581b613a3160f11b0160048601611ebc565b6001600160a01b03612a49613576565b16308103612a835750610dc190630101000160d81b905f906f5265736f757263654163636573730000661d189ddbdc9b1960ca1b0161381c565b604051638c364d5960e01b815291602091839182908190611f6e90630101000160d81b905f906f5265736f757263654163636573730000661d189ddbdc9b1960ca1b0160048601611ebc565b612ad76111b4565b60405191602083015260208252612aef6040836105ce565b6001600160a01b03612aff613576565b1691308303612b3257610cf6925067050028010101010160bd1b9160049064567267646160581b613a3160f11b01613884565b90823b1561017a576040516301c85d5760e51b8152925f9284928391859183916116709167050028010101010160bd1b919060049064567267646160581b613a3160f11b01828701612c68565b611440612b8a6111b4565b6126ff565b611440612b9a6111b4565b61278d565b90612ba86111cf565b91825115610c0e576020830152815160011015610c0e57604082015260405191602083015260208252612bdc6040836105ce565b5f916001600160a01b03612bee613576565b1692308403612c1e57610cf69350630100080160dd1b9268496e76656e746f727960381b613a3160f11b01613884565b5090823b1561017a576040516301c85d5760e51b8152925f928492839185918391610e3791630100080160dd1b9190859068496e76656e746f727960381b613a3160f11b01600487015b95949360ff612c8b612c9f94608096948a5260a060208b015260a08a0190611e89565b921660408801528682036060880152610e52565b930152565b906001600160a01b03612cb5613576565b1691308303612ce257610cf6925065ffffffffffff61077560045f516020614bcf5f395f51905f52613e14565b823b1561017a576040516301c85d5760e51b8152925f92849283918591839161175f915f516020614bcf5f395f51905f5291906004905f516020614baf5f395f51905f52828701612c68565b5f91906001600160a01b03612d41613576565b16308103612d6d575065ffffffffffff6116fb610cf6946b072848090101010008210101609d1b613e14565b8093503b1561017a576040516301c85d5760e51b8152925f928492839185918391610e37916b072848090101010008210101609d1b919085905f516020614bef5f395f51905f5260048701612c68565b612dc56111f1565b90815115610c0e57602082015260405191602083015260208252612dea6040836105ce565b6001600160a01b03612dfa613576565b1691308303612e2f57610cf692506b072848090101010008210101609d1b916001905f516020614bef5f395f51905f52613884565b90823b1561017a576040516301c85d5760e51b8152925f928492839185918391611670916b072848090101010008210101609d1b91906001905f516020614bef5f395f51905f5260048701612c68565b612e876111f1565b90815115610c0e5760208201526040515f602082015260208152612eac6040826105ce565b6001600160a01b03612ebc613576565b1691308303612ecf57610cf692506140b8565b90823b1561017a57611670925f9283604051809681958294630a87993160e11b8452600484016138a0565b91612f06818385612ff3565b61ffff811615612fed57612f2b81611a10612f2361ffff946119a2565b8587896138df565b1691612f35611213565b93845115610c0e576020850152835160011015610c0e576040840152825160021015610c0e576060830152612f6982610bfe565b526001600160a01b03612f7a613576565b16308103612f9f5750610cf690674c616e644974656d60401b613a3160f11b01614643565b803b1561017a576040805163505a181d60e01b8152674c616e644974656d60401b613a3160f11b0160048201526024810191909152915f91839182908490829061175f906044830190611e89565b50505050565b9190612ffd611235565b92835115610c0e576020840152825160011015610c0e576040830152815160021015610c0e578161303591606061ffff94015261281b565b60f01c1690565b929190613047611213565b93845115610c0e576020850152835160011015610c0e57604084015261306c83610c13565b5261307682610bfe565b526040519160208301526020825261308f6040836105ce565b5f916001600160a01b036130a1613576565b16923084036130d457610cf6935067810500202020200160b81b92674c616e644974656d60401b613a3160f11b01613884565b5090823b1561017a576040516301c85d5760e51b8152925f928492839185918391610e379167810500202020200160b81b91908590674c616e644974656d60401b613a3160f11b0160048701612c68565b929190613130611213565b93845115610c0e576020850152835160011015610c0e57604084015261315583610c13565b5261315f82610bfe565b526040515f6020820152600181526131786021826105ce565b6001600160a01b03613188613576565b16913083036131cd57610cf6925065ffffffffffff6131b3600467810500202020200160b81b613e14565b1690674c616e644974656d60401b613a3160f11b01613ec9565b823b1561017a576040516301c85d5760e51b8152925f92849283918591839161175f9167810500202020200160b81b9190600490674c616e644974656d60401b613a3160f11b01828701612c68565b929190613227611213565b93845115610c0e576020850152835160011015610c0e57604084015261324c83610c13565b5261325682610bfe565b526040519160208301526020825261326f6040836105ce565b6001600160a01b0361327f613576565b16913083036132b557610cf6925067810500202020200160b81b91600190674c616e644974656d60401b613a3160f11b01613884565b90823b1561017a576040516301c85d5760e51b8152925f9284928391859183916116709167810500202020200160b81b9190600190674c616e644974656d60401b613a3160f11b0160048701612c68565b680248ce36a70cb26b3e198113156134aa57680755bf798b4a1bf1e58112156134765761333c90604e1b6503782dace9d9900590565b74029d9dc38563c32e5c2f6dc192ee70ef65f9978af36133746001605f1b6bb17217f7d1cf79abc9e3b398606085901b050160601d90565b916bb17217f7d1cf79abc9e3b398830290036e05180bb14799ab47a8a8cb2a527d5761346a6c10fe68e7fd37d0007b713f76508301830260601d6d360d7aeea093263ecc6e0ecb291760621b9084906e0587f503bb6ea29d25fcb740196450908083016d01d3967ed30fc4f89c02bab5708119016d02d16720577bd19bf614176fe9ea9091010260601d010201926e02c72388d9f74f51a9331fed693f1419613462826db1bbb201f443cf962f1a1d3db4a582826d1a521255e34f6a5061b25ef1c9c31982826d0277594991cfc85f6e2461837cd96c240c330e9fb2d9cbaf0fd5aafb198201820260601d83565b010260601d90565b019005029060c3031c90565b60405162461bcd60e51b815260206004820152600c60248201526b4558505f4f564552464c4f5760a01b6044820152606490fd5b505f90565b8181029181158284058214175f19909210600160ff1b90911317161561017a57670de0b6b3a7640000900590565b9081602091031261017a57516001600160a01b038116810361017a5790565b613504611235565b90815115610c0e576001600160a01b03166020820152805160011015610c0e5760ff9261354792604083015260018060a01b031661354182610c13565b5261289d565b60f81c1690565b90613566602091949394604084526040840190610e52565b6001600160a01b03909416910152565b7f629a4c26e296b22a8e0856e9f6ecb2d1008d7e00081111962cd175fa7488e175546001600160a01b031680610dc157503390565b60208183031261017a578051906001600160401b03821161017a570181601f8201121561017a578051906135de826105f6565b926135ec60405194856105ce565b8284526020838301011161017a57815f9260208093018386015e8301015290565b6001600160a01b0361361d613576565b1630810361363f5750610dc1905f905f516020614bef5f395f51905f52613a50565b604051631e78897760e01b81525f516020614bef5f395f51905f52600482015260606024820152915f9183918290819061367d906064830190611e89565b85604483015203915afa908115610480575f91613698575090565b610dc191503d805f833e6136ac81836105ce565b8101906135ab565b91908203918211610c5e57565b805182116136dc5760200160801b9060018060801b03161790565b6040516323230fa360e01b815260606004820152918291613701906064840190610e52565b905f602484015260448301520390fd5b916127105a106137be576137236111f1565b91825115610c0e5761373e8361378795602080960152612929565b60e01c9161375061022c61022c611992565b91604051958694859384936356bdc7f360e01b85526004850191604091949363ffffffff9160608501968552602085015216910152565b03915afa5f918161379d575b50610dc157505f90565b6137b791925060203d6020116104795761046b81836105ce565b905f613793565b5050505f90565b5f516020614bef5f395f51905f52815260c060208201819052610dc1959394919264ffffffffff929183916137fc91860190611e89565b955f604086015216606084015216608082015260a0818403910152610e52565b6138429161382c91949394613de6565b9260ff808216601b0360031b84901c1692613e14565b91806020841015613873575b5080548360031b1b9260200380921161386657505090565b600101549060031b1c1790565b601f84169360051c0190505f61384e565b9161389965ffffffffffff91610cf696613e14565b1691613ec9565b5f516020614bef5f395f51905f528152608060208201819052610dc19391926138cb91840190611e89565b915f60408201526060818403910152610e52565b9291906138ea611235565b93845115610c0e576020850152835160011015610c0e57604084015261390f83610c13565b5260405160f09190911b6001600160f01b0319166020820152600281526139376022826105ce565b5f916001600160a01b03613949613576565b16308103613987575065ffffffffffff61396d610cf694630100800160d91b613e14565b16906713185b9910d95b1b60421b613a3160f11b01613ec9565b8093503b1561017a576040516301c85d5760e51b8152925f928492839185918391610e3791630100800160d91b919085906713185b9910d95b1b60421b613a3160f11b0160048701612c68565b610dc16139df6111b4565b6129b3565b604051906139f36040836105ce565b60068252651e3937b7ba1f60d11b6020830152565b805191908290602001825e015f815290565b610dc193926003613a429260019461ffff60f01b168152601d60f91b60028201520190613a08565b601d60f91b81520190613a08565b91613a7390613a6d610dc193613a6783828861442b565b95614656565b5461447d565b9160405192601f19603f82860101166040528084526020840191614697565b919392613aac835f516020614bef5f395f51905f52614656565b54613ab75f8261447d565b613ad3613acb64ffffffffff8916836136b4565b845190610c71565b8181141596908780613d93575b613d775764ffffffffff861692808411613d5a5750613b00905f856146da565b613b165f516020614bef5f395f51905f5261456a565b925f5b8451811015613bf757613b45613b40613b328388610c23565b516001600160581b03191690565b613e84565b613b55816010809160581c161490565b613b63575b50600101613b19565b61022c61022c611440613b78613b8594613e84565b6001600160601b03191690565b90813b1561017a575f898d9382808e613bc98e8e6040519a8b9889978896630abd6b4560e31b8852674c616e64496e666f60401b613a3160f11b01600489016144c9565b03925af191821561048057600192613be3575b5090613b5a565b806114295f613bf1936105ce565b5f613bdc565b5085919450613c6d92986001613d55575b885f516020614aef5f395f51905f52878d613c4887604051938493674c616e64496e666f60401b613a3160f11b01975f65ffffffffffff8c16918761451a565b0390a2613d37575b613c685f895f516020614bef5f395f51905f5261442b565b614632565b5f5b8151811015613d2d57613c88613b40613b328385610c23565b613c98816020809160581c161490565b613ca6575b50600101613c6f565b61022c61022c611440613b78613cbb94613e84565b90813b1561017a575f868a9382808b613cff8b8b6040519a8b9889978896636358453360e01b8852674c616e64496e666f60401b613a3160f11b01600489016144c9565b03925af191821561048057600192613d19575b5090613c9d565b806114295f613d27936105ce565b5f613d12565b5050505050509050565b84613d4f895f516020614bef5f395f51905f52614656565b55613c50565b613c08565b637e8578d360e01b5f5260045264ffffffffff861660245260445ffd5b632994042d60e21b5f52611b5a64ffffffffff84168a886144ae565b5082613dac613da28b89614492565b64ffffffffff1690565b1415613ae0565b60209181520160208251919201905f5b818110613dd05750505090565b8251845260209384019390920191600101613dc3565b90613dff611cc691604051928391602083019586613db3565b5190205f516020614b2f5f395f51905f521890565b5f915f915b60ff82168310613e295750505090565b909192613e3f848360ff91601b0360031b1c1690565b8101809111610c5e57926001019190613e19565b65ffffffffffff613e70610dc19593606084526060840190611e89565b931660208201526040818403910152610e52565b6001600160581b03191690565b90613eb5610dc1959365ffffffffffff928452608060208501526080840190611e89565b931660408201526060818403910152610e52565b92939291906001600160f01b03198316611bdd60f21b1461409357613eee8184613de6565b93613ef88461456a565b90865f5b8351811015613faa57613f15613b40613b328387610c23565b613f25816004809160581c161490565b613f33575b50600101613efc565b613f4b91925061022c611440613b7861022c93613e84565b90813b1561017a575f868a9387838b613f7a6040519889968795869463964f667d60e01b865260048601613e91565b03925af1908115610480578992600192613f96575b5090613f2a565b806114295f613fa4936105ce565b5f613f8f565b50613fe19196865f516020614b0f5f395f51905f5260405180613fcf868b8b84613e53565b0390a265ffffffffffff861690614632565b5f5b815181101561408a57613ffc613b40613b328385610c23565b61400c816008809160581c161490565b61401a575b50600101613fe3565b61022c61022c611440613b7861402f94613e84565b90813b1561017a5760405163a8ba872160e01b8152915f90839081838161405c8e8c8c8f60048601613e91565b03925af191821561048057600192614076575b5090614011565b806114295f614084936105ce565b5f61406f565b50505050509050565b6140b35f516020614b0f5f395f51905f5293949560405193849384613e53565b0390a2565b9091906140d2815f516020614bef5f395f51905f52614656565b54916140de5f8461447d565b9264ffffffffff8416916140fd6140f55f876136b4565b875190610c71565b85811415958680614377575b614362578085116143455750614120905f846146da565b906141375f516020614bef5f395f51905f5261456a565b915f5b83518110156141f957614153613b40613b328387610c23565b614163816010809160581c161490565b614171575b5060010161413a565b61022c61022c611440613b7861418694613e84565b90813b1561017a575f87819382808c8f6141cb908d6040519a8b9889978896630abd6b4560e31b8852674c616e64496e666f60401b613a3160f11b01600489016144c9565b03925af1918215610480576001926141e5575b5090614168565b806114295f6141f3936105ce565b5f6141de565b509250946001614340575b6040515f516020614bef5f395f51905f52905f516020614aef5f395f51905f52908061423d8b885f65ffffffffffff8c16818e8761451a565b0390a2614322575b6142628684613c685f885f516020614bef5f395f51905f5261442b565b5f5b815181101561408a5761427d613b40613b328385610c23565b61428d816020809160581c161490565b61429b575b50600101614264565b61022c61022c611440613b786142b094613e84565b90813b1561017a575f85819382808a6142f48e8b6040519a8b9889978896636358453360e01b8852674c616e64496e666f60401b613a3160f11b01600489016144c9565b03925af19182156104805760019261430e575b5090614292565b806114295f61431c936105ce565b5f614307565b8161433a855f516020614bef5f395f51905f52614656565b55614245565b614204565b637e8578d360e01b5f5260045264ffffffffff841660245260445ffd5b611b5a85632994042d60e21b5f525f816144ae565b5080614386613da25f88614492565b1415614109565b6143956111cf565b90815115610c0e576020820152805160011015610c0e576001600160a01b0390911660408201526143c590612a39565b60f81c90565b5f5b601081106143fe575b6040516001600160801b03199092166020830152601082526143f96030836105ce565b815290565b6001600160801b03198216600382901b1b6001600160f81b03191615614426576001016143cd565b6143d6565b611cc66144657f3b4102da22e32d82fc925482184f16c09fd4281692720b87d124aef6da48a0f19493604051928391602083019586613db3565b51902060f89190911b6001600160f81b031916181890565b60ff64ffffffffff92166028026038011c1690565b9064ffffffffff8091169116019064ffffffffff8211610c5e57565b64ffffffffff90811660045290811660245216604452606490565b9364ffffffffff929060ff6144f58593610dc19b99959a979a895260e060208a015260e0890190611e89565b9816604087015216606085015216608083015260a082015260c0818403910152610e52565b929365ffffffffffff610dc1979560ff61454564ffffffffff9599969960c0895260c0890190611e89565b98166020870152166040850152166060830152608082015260a0818403910152610e52565b6145726111f1565b805115610c0e5760208101919091526145d390611d77613a735f613a6d6145b382866953746f7265486f6f6b7360301b66746273746f726560c81b0161442b565b946953746f7265486f6f6b7360301b66746273746f726560c81b01614656565b60158160801c9160018060801b031604604051916020830160208360051b8501016040528284525f5b83811061460a575050505090565b6020600160159285518552019201920191906145fc565b610cf6915f60208251920192614753565b8251610cf693602001929091614753565b610cf69161465082614814565b916148ea565b9061466f611cc691604051928391602083019586613db3565b5190207f14e2fcc58e58e68ec7edc30c8d50dccc3ce2714a623ec81f46b6a63922d765691890565b905b60208110156146c257806146ac57505050565b5f199060031b1c90818351169119905416179052565b919060018160209254845201910191601f1901614699565b9064ffffffffff83116147405764ffffffffff8060ff66ffffffffffffff851680614705868861447d565b90888281106147335790500301935b166028026038019416841b931b199166ffffffffffffff191617161790565b9190925003900393614714565b82637149a3c160e01b5f5260045260245ffd5b929190806147a0575b505b6020811015614788578061477157505050565b5f1960039190911b1c825491518119169116179055565b909160016020918451815501920190601f190161475e565b60208110156147f8575b801561475c5791926020839003905f19600384901b1c198460031b90811c908651901c9080198354169116178155818311156147f15760010193019101601f19015f61475c565b5050505050565b9261480f906148078560051c90565b0193601f1690565b6147aa565b655461626c657360501b66746273746f726560c81b01811461487c5760408051655461626c657360501b66746273746f726560c81b0160208201908152818301939093529081526148666060826105ce565b5190205f516020614b2f5f395f51905f52185490565b506503001811010160cd1b90565b906020610dc1928181520190611e89565b939291612c9f906040928652606060208701526060860190611e89565b906148c2826105f6565b6148cf60405191826105ce565b82815280926148e0601f19916105f6565b0190602036910137565b9092916001600160f01b03198216611bdd60f21b14614aaa5761490c8261456a565b5f5b81518110156149a257614927613b40613b328385610c23565b614937816040809160581c161490565b614945575b5060010161490e565b60601c90813b1561017a57604051639faeaf4560e01b8152915f9083908183816149748a8e8d6004850161489b565b03925af19182156104805760019261498e575b509061493c565b806114295f61499c936105ce565b5f614987565b50825f516020614c0f5f395f51905f52604051806149c0898261488a565b0390a26149e86149d08685613de6565b6149e26149dd8560f01c90565b6148b8565b90614621565b60e082901c60ff16614a93575b5f5b8151811015614a8b57614a10613b40613b328385610c23565b614a20816080809160581c161490565b614a2e575b506001016149f7565b60601c90813b1561017a576040516383b5c95b60e01b8152915f908390818381614a5d8a8e8d6004850161489b565b03925af191821561048057600192614a77575b5090614a25565b806114295f614a85936105ce565b5f614a70565b505050509050565b614aa5614aa08685614656565b614acb565b6149f5565b5090916140b35f516020614c0f5f395f51905f52916040519182918261488a565b60018101808211610c5e57905b818110614ae3575050565b5f8155600101614ad856fefe158a7adba34e256807c8a149028d3162918713c3838afc643ce9f96716ebfd8c0b5119d4cec7b284c6b1b39252a03d1e2f2d7451a5895562524c113bb952be86425bff6b57326c7859e89024fe4f238ca327a1ae4a230180dd2f0e88aaa7d93a53cbf526b0b0223e60834e48ed0dd66081d05ea6a4700ab69ff02987b6d45f671c5f479e86e5704fbf84fed0149337be55d12eef13e7cb1ad04cef1f5af3c674620000000000000000000000000000436f6e666967416464726573736573007462000000000000000000000000000043616665436f736d6f73436f6e66696701d40f0420202020202020202020142020202000000000000000000000000000746200000000000000000000000000004c616e64496e666f00000000000000000e1f72f429eb97e64878619984a91e687ae91610348b9ff4216782cc96e49d07a2646970667358221220a4f1d50301f28e4440a88bde3c38c6814d9598a58a507938a6bb052b4f1ec34d64736f6c634300081c0033","linkReferences":{}},"methodIdentifiers":{"_msgSender()":"119df25f","_msgValue()":"45ec9354","_world()":"e1af802c","calculateArea(uint256,uint256)":"6ebc40e2","calculateExpansionArea(uint256,uint256,uint256)":"2e6a413f","calculateLandCost(uint256,uint256)":"3c54e919","calculateLandExpansionCost(uint256,uint256,uint256)":"26766c61","calculateLandInitialPurchaseCost()":"5a7f97fc","calculateVrgdaCost(uint256)":"22ed030d","createLand(uint256,uint256)":"c9a139b2","createPlayerInitialLand()":"20af380d","expandLand(uint256,uint256,uint256)":"d7825679","generateChunk(uint256)":"e2e1ea5e","setInitialLandItems((uint256,uint256,uint256)[],uint256,uint256)":"b22d8056","setInitialLandLimits(uint256,uint256)":"bf6ee85d","setLandName(uint256,string)":"938ce40a","supportsInterface(bytes4)":"01ffc9a7"},"id":136}