{"abi":[{"type":"function","name":"_msgSender","inputs":[],"outputs":[{"name":"sender","type":"address","internalType":"address"}],"stateMutability":"view"},{"type":"function","name":"_msgValue","inputs":[],"outputs":[{"name":"value","type":"uint256","internalType":"uint256"}],"stateMutability":"pure"},{"type":"function","name":"_world","inputs":[],"outputs":[{"name":"","type":"address","internalType":"address"}],"stateMutability":"view"},{"type":"function","name":"buyItem","inputs":[{"name":"landId","type":"uint256","internalType":"uint256"},{"name":"listingId","type":"uint256","internalType":"uint256"},{"name":"quantity","type":"uint256","internalType":"uint256"}],"outputs":[],"stateMutability":"payable"},{"type":"function","name":"cancelListing","inputs":[{"name":"landId","type":"uint256","internalType":"uint256"},{"name":"listingId","type":"uint256","internalType":"uint256"}],"outputs":[],"stateMutability":"nonpayable"},{"type":"function","name":"getAllListings","inputs":[],"outputs":[{"name":"marketPlaceListings","type":"tuple[]","internalType":"struct MarketplaceSystem.MarketPlaceListingDTO[]","components":[{"name":"listingId","type":"uint256","internalType":"uint256"},{"name":"owner","type":"uint256","internalType":"uint256"},{"name":"itemId","type":"uint256","internalType":"uint256"},{"name":"unitPrice","type":"uint256","internalType":"uint256"},{"name":"quantity","type":"uint256","internalType":"uint256"}]}],"stateMutability":"view"},{"type":"function","name":"getListing","inputs":[{"name":"listingId","type":"uint256","internalType":"uint256"}],"outputs":[{"name":"marketPlaceListing","type":"tuple","internalType":"struct MarketplaceSystem.MarketPlaceListingDTO","components":[{"name":"listingId","type":"uint256","internalType":"uint256"},{"name":"owner","type":"uint256","internalType":"uint256"},{"name":"itemId","type":"uint256","internalType":"uint256"},{"name":"unitPrice","type":"uint256","internalType":"uint256"},{"name":"quantity","type":"uint256","internalType":"uint256"}]}],"stateMutability":"view"},{"type":"function","name":"listItem","inputs":[{"name":"landId","type":"uint256","internalType":"uint256"},{"name":"itemId","type":"uint256","internalType":"uint256"},{"name":"price","type":"uint256","internalType":"uint256"},{"name":"quantity","type":"uint256","internalType":"uint256"}],"outputs":[],"stateMutability":"nonpayable"},{"type":"function","name":"supportsInterface","inputs":[{"name":"interfaceId","type":"bytes4","internalType":"bytes4"}],"outputs":[{"name":"","type":"bool","internalType":"bool"}],"stateMutability":"pure"},{"type":"event","name":"MarketplaceItemCancelled","inputs":[{"name":"landId","type":"uint256","indexed":false,"internalType":"uint256"},{"name":"listingId","type":"uint256","indexed":false,"internalType":"uint256"},{"name":"itemId","type":"uint256","indexed":false,"internalType":"uint256"},{"name":"price","type":"uint256","indexed":false,"internalType":"uint256"},{"name":"quantity","type":"uint256","indexed":false,"internalType":"uint256"}],"anonymous":false},{"type":"event","name":"MarketplaceItemListed","inputs":[{"name":"landId","type":"uint256","indexed":false,"internalType":"uint256"},{"name":"listingId","type":"uint256","indexed":false,"internalType":"uint256"},{"name":"itemId","type":"uint256","indexed":false,"internalType":"uint256"},{"name":"price","type":"uint256","indexed":false,"internalType":"uint256"},{"name":"quantity","type":"uint256","indexed":false,"internalType":"uint256"}],"anonymous":false},{"type":"event","name":"MarketplaceItemPurchased","inputs":[{"name":"landId","type":"uint256","indexed":false,"internalType":"uint256"},{"name":"listingId","type":"uint256","indexed":false,"internalType":"uint256"},{"name":"itemId","type":"uint256","indexed":false,"internalType":"uint256"},{"name":"price","type":"uint256","indexed":false,"internalType":"uint256"},{"name":"quantity","type":"uint256","indexed":false,"internalType":"uint256"}],"anonymous":false},{"type":"event","name":"Store_DeleteRecord","inputs":[{"name":"tableId","type":"bytes32","indexed":true,"internalType":"ResourceId"},{"name":"keyTuple","type":"bytes32[]","indexed":false,"internalType":"bytes32[]"}],"anonymous":false},{"type":"event","name":"Store_SetRecord","inputs":[{"name":"tableId","type":"bytes32","indexed":true,"internalType":"ResourceId"},{"name":"keyTuple","type":"bytes32[]","indexed":false,"internalType":"bytes32[]"},{"name":"staticData","type":"bytes","indexed":false,"internalType":"bytes"},{"name":"encodedLengths","type":"bytes32","indexed":false,"internalType":"EncodedLengths"},{"name":"dynamicData","type":"bytes","indexed":false,"internalType":"bytes"}],"anonymous":false},{"type":"event","name":"Store_SpliceStaticData","inputs":[{"name":"tableId","type":"bytes32","indexed":true,"internalType":"ResourceId"},{"name":"keyTuple","type":"bytes32[]","indexed":false,"internalType":"bytes32[]"},{"name":"start","type":"uint48","indexed":false,"internalType":"uint48"},{"name":"data","type":"bytes","indexed":false,"internalType":"bytes"}],"anonymous":false},{"type":"error","name":"AccessByNoOperator","inputs":[{"name":"owner","type":"address","internalType":"address"},{"name":"caller","type":"address","internalType":"address"}]},{"type":"error","name":"Slice_OutOfBounds","inputs":[{"name":"data","type":"bytes","internalType":"bytes"},{"name":"start","type":"uint256","internalType":"uint256"},{"name":"end","type":"uint256","internalType":"uint256"}]}],"bytecode":{"object":"0x60808060405234601557612b65908161001a8239f35b5f80fdfe60806040526004361015610011575f80fd5b5f3560e01c806301ffc9a7146100a4578063107a274a1461009f578063119df25f1461009a5780631f6a83181461009557806345ec935414610090578063637f94e11461008b578063ae73ccec14610086578063dc422d4b146100815763e1af802c1461007c575f80fd5b610647565b610554565b610476565b610330565b610311565b61018c565b610160565b610129565b346100f85760203660031901126100f85760043563ffffffff60e01b81168091036100f85763b5dee12760e01b81149081156100e7575b50151560805260206080f35b6301ffc9a760e01b149050816100db565b5f80fd5b60808091805184526020810151602085015260408101516040850152606081015160608501520151910152565b346100f85760203660031901126100f85760a06101476004356106d7565b61015460405180926100fc565bf35b5f9103126100f857565b346100f8575f3660031901126100f857602061017a6109f4565b6040516001600160a01b039091168152f35b60603660031901126100f8576044356024356004356101aa81610a0b565b50806101b583610ad2565b146102be57826101e77f198fdc3cfe59433c09dacd58c4dfdbf1ba28f6a8c13bffd188bf795f0ecf28e3941515610782565b6101f083610af2565b8111156102b557506102a161020483610af2565b61020d84610b0f565b61021685610b2c565b906102326102248484610800565b61022d88610ad2565b610bb3565b61023d838287610c84565b61024f8361024a88610af2565b610826565b806102a6575061025e86610d84565b61027661027161026c610e04565b610818565b610e14565b604051958695869192608093969594919660a084019784526020840152604083015260608201520152565b0390a1005b6102b09087610ca5565b61025e565b6102a190610204565b60405162461bcd60e51b815260206004820152602560248201527f4d61726b6574706c6163653a2063616e6e6f742062757920796f7572206f776e604482015264206974656d60d81b6064820152608490fd5b346100f8575f3660031901126100f8576020604051601f193601358152f35b346100f85760803660031901126100f85760643560243560043560443561035682610a0b565b508361036284846119f7565b106103e3577fbd3b4c67c900d86ca7ee8b2ee8dbfea7e6c59e748a03f4b553a751e8ac5850bd93816103986102a1931515610833565b6103a3821515610891565b6103b36103ae610ebb565b6108fa565b946103bd86610ecb565b6103cb6102716103ae610e04565b6103d8838383888a610f8c565b610276838287611087565b60405162461bcd60e51b815260206004820152602260248201527f4d61726b6574706c6163653a20696e73756666696369656e74207175616e7469604482015261747960f01b6064820152608490fd5b60206040818301928281528451809452019201905f5b8181106104565750505090565b909192602060a08261046b60019488516100fc565b019401929101610449565b346100f8575f3660031901126100f85761048e610ebb565b610496610e04565b906104a082610915565b916104ae6040519384610675565b8083526104bd601f1991610915565b015f5b81811061053d5750505f6001905b828211156104e857604051806104e48682610433565b0390f35b6104f86104f4836109d1565b1590565b6105335761052761052d9161050c846106d7565b610516828861095e565b52610521818761095e565b5061092c565b9161092c565b906104ce565b9061052d9061092c565b60209061054861069d565b828287010152016104c0565b346100f85760403660031901126100f85760043560243561057482610a0b565b508161057f82610ad2565b036105e8577f97e068b313ff391f1fac9b46dd591d302ba8436e47fb2e203a22d2b28d169d00916102a16105b283610b0f565b6105bb84610af2565b906105c585610b2c565b906105d461027161026c610e04565b6105dd86610d84565b610276838287610c84565b60405162461bcd60e51b815260206004820152603160248201527f4d61726b6574706c6163653a2063616e6e6f742063616e63656c20616e6f7468604482015270657220757365722773206c697374696e6760781b6064820152608490fd5b346100f8575f3660031901126100f857602061017a611b4c565b634e487b7160e01b5f52604160045260245ffd5b601f909101601f19168101906001600160401b0382119082101761069857604052565b610661565b6040519060a082016001600160401b03811183821017610698576040525f6080838281528260208201528260408201528260608201520152565b6106df61069d565b906106e9816109d1565b6106f1575090565b6106f961069d565b50610702610972565b80511561077d57808260206107189301526117ef565b505061072261069d565b60208201519060408301519360608401519260a0608086015195015160f81c95602084019460408501966060860198151560808701528852865284528252855251602085015251604084015251606083015251608082015290565b61093a565b1561078957565b60405162461bcd60e51b815260206004820152603560248201527f4d61726b6574706c6163653a207075726368617365207175616e74697479206d60448201527407573742062652067726561746572207468616e203605c1b6064820152608490fd5b634e487b7160e01b5f52601160045260245ffd5b8181029291811591840414171561081357565b6107ec565b5f1981019190821161081357565b9190820391821161081357565b1561083a57565b60405162461bcd60e51b815260206004820152602960248201527f4d61726b6574706c6163653a207072696365206d75737420626520677265617460448201526806572207468616e20360bc1b6064820152608490fd5b1561089857565b60405162461bcd60e51b815260206004820152603460248201527f4d61726b6574706c6163653a206c697374696e67207175616e74697479206d75604482015273073742062652067726561746572207468616e20360641b6064820152608490fd5b906001820180921161081357565b9190820180921161081357565b6001600160401b0381116106985760051b60200190565b5f1981146108135760010190565b634e487b7160e01b5f52603260045260245ffd5b80516002101561077d5760600190565b805182101561077d5760209160051b010190565b604080519091906109838382610675565b6001815291601f1901366020840137565b604051906109a3602083610675565b5f808352366020840137565b604051606091906109c08382610675565b6002815291601f1901366020840137565b6109d9610972565b80511561077d576109ee916020820152611186565b60f81c90565b36603319013560601c908115610a0657565b339150565b610a1481611914565b610a1c6109f4565b916001600160a01b03828116908416818114928315610a66575b50505015610a45575050600190565b6334a0e31960e21b5f526001600160a01b039081166004521660245260445ffd5b604051935090916080610a798186610675565b60038552601f190136602086013783511561077d57602084015282516001101561077d57826109ee92610abd926040610aca960152610ab78261094e565b52611245565b6001600160f81b03191690565b5f8080610a36565b610ada610972565b80511561077d57610aef9160208201526112d1565b90565b610afa610972565b80511561077d57610aef916020820152611351565b610b17610972565b80511561077d57610aef9160208201526113d3565b610b34610972565b80511561077d57610aef916020820152611455565b15610b5057565b60405162461bcd60e51b8152602060048201526018602482015277125b98dbdc9c9958dd081c185e5b595b9d08185b5bdd5b9d60421b6044820152606490fd5b6040513d5f823e3d90fd5b908160209103126100f8575180151581036100f85790565b610bbc90611914565b9034610c6057602090610c1f92610be3610bd7610bd76119e1565b6001600160a01b031690565b6040516323b872dd60e01b81523360048201526001600160a01b03909216602483015260448201929092529283919082905f9082906064820190565b03925af18015610c5b57610c305750565b610c519060203d602011610c54575b610c498183610675565b810190610b9b565b50565b503d610c3f565b610b90565b5f808093610c7082943414610b49565b34906001600160a01b031682f115610c5b57565b9190610c9081846119f7565b91820180921161081357610ca392611a24565b565b610cad610972565b9081511561077d57602082015260405191602083015260208252610cd2604083610675565b6001600160a01b03610ce2611b4c565b1691308303610d1357610ca3925067810500202020200160b81b916003905f516020612a105f395f51905f52611cc3565b90823b156100f8576040516301c85d5760e51b8152925f928492839185918391610d5f9167810500202020200160b81b91906003905f516020612a105f395f51905f5260048701611b15565b03925af18015610c5b57610d705750565b80610d7e5f610ca393610675565b80610156565b610d8c610972565b9081511561077d5760208201526001600160a01b03610da9611b4c565b16308103610dbb5750610ca390611cdf565b803b156100f8576040805163505a181d60e01b81525f516020612a105f395f51905f5260048201526024810191909152915f918391829084908290610d5f906044830190611127565b610aef610e0f610994565b6114d7565b610e1c610994565b60405191602083015260208252610e34604083610675565b6001600160a01b03610e44611b4c565b1691308303610e7257610ca3925064020010010160d51b916001905f516020612af05f395f51905f52611cc3565b90823b156100f8576040516301c85d5760e51b8152925f928492839185918391610d5f9164020010010160d51b91906001905f516020612af05f395f51905f5260048701611b15565b610aef610ec6610994565b611553565b610ed3610994565b60405191602083015260208252610eeb604083610675565b5f916001600160a01b03610efd611b4c565b1692308403610f2857610ca3935064020010010160d51b925f516020612af05f395f51905f52611cc3565b5090823b156100f8576040516301c85d5760e51b8152925f928492839185918391610f719164020010010160d51b919085905f516020612af05f395f51905f5260048701611b15565b03925af18015610c5b57610f825750565b5f610ca391610675565b92909391604051946020860152604085015260608401526080830152600160f81b60a083015260818252610fc160a183610675565b610fc9610972565b9081511561077d5760208201526001600160a01b03610fe6611b4c565b1630810361100c5750610ca3916060915f91905f516020612a105f395f51905f52611d0d565b91823b156100f85760405163298314fb60e01b81525f516020612a105f395f51905f52600482015260a06024820152925f928492839185918391610d5f9161106e9161105c9060a4860190611127565b84810360031901604486015290611af1565b8360648401526003198382030160848401526060611af1565b919061109381846119f7565b918083106110ad57820391821161081357610ca392611a24565b60405162461bcd60e51b815260206004820152603d60248201527f4c6962496e76656e746f72794d616e6167656d656e742064656372656173655160448201527f75616e746974793a20696e73756666696369656e742062616c616e63650000006064820152608490fd5b908160209103126100f8575190565b90602080835192838152019201905f5b8181106111445750505090565b8251845260209384019390920191600101611137565b9061117b60609360ff92979695978452608060208501526080840190611127565b951660408201520152565b6001600160a01b03611196611b4c565b163081036111c65750610aef9067810500202020200160b81b906004905f516020612a105f395f51905f52611b81565b604051638c364d5960e01b8152916020918391829081906112079067810500202020200160b81b906004905f516020612a105f395f51905f5282860161115a565b03915afa908115610c5b575f9161121c575090565b610aef915060203d60201161123e575b6112368183610675565b810190611118565b503d61122c565b6001600160a01b03611255611b4c565b1630810361128a5750610aef90630101000160d81b905f906f4c616e645065726d697373696f6e7300613a3160f11b01611b81565b604051638c364d5960e01b81529160209183918290819061120790630101000160d81b905f906f4c616e645065726d697373696f6e7300613a3160f11b016004860161115a565b6001600160a01b036112e1611b4c565b163081036113105750610aef9067810500202020200160b81b905f905f516020612a105f395f51905f52611b81565b604051638c364d5960e01b8152916020918391829081906112079067810500202020200160b81b905f905f516020612a105f395f51905f526004860161115a565b6001600160a01b03611361611b4c565b163081036113915750610aef9067810500202020200160b81b906003905f516020612a105f395f51905f52611b81565b604051638c364d5960e01b8152916020918391829081906112079067810500202020200160b81b906003905f516020612a105f395f51905f526004860161115a565b6001600160a01b036113e3611b4c565b163081036114135750610aef9067810500202020200160b81b906001905f516020612a105f395f51905f52611b81565b604051638c364d5960e01b8152916020918391829081906112079067810500202020200160b81b906001905f516020612a105f395f51905f526004860161115a565b6001600160a01b03611465611b4c565b163081036114955750610aef9067810500202020200160b81b906002905f516020612a105f395f51905f52611b81565b604051638c364d5960e01b8152916020918391829081906112079067810500202020200160b81b906002905f516020612a105f395f51905f526004860161115a565b6001600160a01b036114e7611b4c565b163081036115145750610aef9064020010010160d51b906001905f516020612af05f395f51905f52611b81565b604051638c364d5960e01b8152916020918391829081906112079064020010010160d51b906001905f516020612af05f395f51905f526004860161115a565b6001600160a01b03611563611b4c565b1630810361158f5750610aef9064020010010160d51b905f905f516020612af05f395f51905f52611b81565b604051638c364d5960e01b8152916020918391829081906112079064020010010160d51b905f905f516020612af05f395f51905f526004860161115a565b6001600160a01b036115dd611b4c565b163081036116135750610aef906d3702c00505050505050505050505608a1b906004905f516020612a705f395f51905f52611b81565b604051638c364d5960e01b815291602091839182908190611207906d3702c00505050505050505050505608a1b906004905f516020612a705f395f51905f5282860161115a565b6001600160a01b0361166a611b4c565b163081036116a05750610aef906d3702c00505050505050505050505608a1b906001905f516020612a705f395f51905f52611b81565b604051638c364d5960e01b815291602091839182908190611207906d3702c00505050505050505050505608a1b906001905f516020612a705f395f51905f526004860161115a565b6001600160a01b036116f8611b4c565b163081036117295750610aef90630100080160dd1b905f9068496e76656e746f727960381b613a3160f11b01611b81565b604051638c364d5960e01b81529160209183918290819061120790630100080160dd1b905f9068496e76656e746f727960381b613a3160f11b016004860161115a565b6001600160401b03811161069857601f01601f191660200190565b81601f820112156100f85780519061179e8261176c565b926117ac6040519485610675565b828452602083830101116100f857815f9260208093018386015e8301015290565b9392916117ea906040928652606060208701526060860190611127565b930152565b6001600160a01b036117ff611b4c565b16308103611833575061182c9067810500202020200160b81b905f516020612a105f395f51905f52611c1b565b9192909190565b60405163419b58fd60e01b815292915f918491829081906118729067810500202020200160b81b905f516020612a105f395f51905f52600485016117cd565b03915afa908115610c5b575f5f935f9361188d575b50929190565b93505090503d805f843e6118a18184610675565b8201906060838303126100f85782516001600160401b0381116100f857826118ca918501611787565b92602081015192604082015160018060401b0381116100f8576118ed9201611787565b91925f611887565b908160209103126100f857516001600160a01b03811681036100f85790565b61192461191f610994565b6115cd565b60601c8015611988576040516331a9108f60e11b81526004810192909252602090829060249082905afa908115610c5b575f9161195f575090565b610aef915060203d602011611981575b6119798183610675565b8101906118f5565b503d61196f565b60405162461bcd60e51b815260206004820152602b60248201527f4c69624c616e644163636573733a206c616e644e46547320616464726573732060448201526a063616e6e6f7420626520360ac1b6064820152608490fd5b6119f16119ec610994565b61165a565b60601c90565b6119ff6109af565b9081511561077d57602082015280516001101561077d57610aef9160408201526116e8565b90611a2d6109af565b9182511561077d57602083015281516001101561077d57604082015260405191602083015260208252611a61604083610675565b5f916001600160a01b03611a73611b4c565b1692308403611aa357610ca39350630100080160dd1b9268496e76656e746f727960381b613a3160f11b01611cc3565b5090823b156100f8576040516301c85d5760e51b8152925f928492839185918391610f7191630100080160dd1b9190859068496e76656e746f727960381b613a3160f11b0160048701611b15565b805180835260209291819084018484015e5f828201840152601f01601f1916010190565b95949360ff611b386117ea94608096948a5260a060208b015260a08a0190611127565b921660408801528682036060880152611af1565b7f629a4c26e296b22a8e0856e9f6ecb2d1008d7e00081111962cd175fa7488e175546001600160a01b031680610aef57503390565b611ba791611b9191949394611d57565b9260ff808216601b0360031b84901c1692611d93565b91806020841015611bd8575b5080548360031b1b92602003809211611bcb57505090565b600101549060031b1c1790565b601f84169360051c0190505f611bb3565b90611bf38261176c565b611c006040519182610675565b8281528092611c11601f199161176c565b0190602036910137565b91925f92606092611c3d611c338760f01c8385611dd2565b9660e01c60ff1690565b9182611c4857505050565b9194509250611c57838261277a565b5493611c6b66ffffffffffffff8616611be9565b935f92602086015b8360ff861610611c84575050505050565b611c8f858484611e04565b611ca482611c9d888c611e43565b8093611e58565b81018091116108135760ff90941660ff81146108135760010193611c73565b91611cd865ffffffffffff91610ca396611d93565b1691611fe1565b610ca390611cf95f516020612a105f395f51905f526121f0565b905f516020612a105f395f51905f52612277565b929091610ca39492611d1e856121f0565b946124ff565b60209181520160208251919201905f5b818110611d415750505090565b8251845260209384019390920191600101611d34565b90611d7e611d7091604051928391602083019586611d24565b03601f198101835282610675565b5190205f516020612a505f395f51905f521890565b5f915f915b60ff82168310611da85750505090565b909192611dbe848360ff91601b0360031b1c1690565b810180911161081357926001019190611d98565b9190918115611ded57610aef92611de891611d57565b612757565b505050604051611dfe602082610675565b5f815290565b611d70611e2b5f516020612ab05f395f51905f529493604051928391602083019586611d24565b51902060f89190911b6001600160f81b031916181890565b60ff64ffffffffff92166028026038011c1690565b905b6020811015611e835780611e6d57505050565b5f199060031b1c90818351169119905416179052565b919060018160209254845201910191601f1901611e5a565b919080611ee7575b505b6020811015611ecf5780611eb857505050565b5f1960039190911b1c825191548119169116179052565b919060018160209254845201910191601f1901611ea5565b6020811015611f4f575b8015611ea357929183602003908183105f14611f42575f19600384901b1c5b81548660031b1b8186511691191617845281831115611f3b57600101920192601f199101015f611ea3565b5050505050565b5f19600383901b1c611f10565b91611f6690611f5e8460051c90565b0192601f1690565b611ef1565b65ffffffffffff611f88610aef9593606084526060840190611127565b931660208201526040818403910152611af1565b6001600160581b03191690565b90611fcd610aef959365ffffffffffff928452608060208501526080840190611127565b931660408201526060818403910152611af1565b92939291906001600160f01b03198316611bdd60f21b146121cb576120068184611d57565b93612010846127a8565b90865f5b83518110156120e25761204061203b61202d838761095e565b516001600160581b03191690565b611f9c565b612050816004809160581c161490565b61205e575b50600101612014565b612083919250610bd76119f1612076610bd793611f9c565b6001600160601b03191690565b90813b156100f8575f868a9387838b6120b26040519889968795869463964f667d60e01b865260048601611fa9565b03925af1908115610c5b5789926001926120ce575b5090612055565b80610d7e5f6120dc93610675565b5f6120c7565b506121199196865f516020612a305f395f51905f5260405180612107868b8b84611f6b565b0390a265ffffffffffff86169061288f565b5f5b81518110156121c25761213461203b61202d838561095e565b612144816008809160581c161490565b612152575b5060010161211b565b610bd7610bd76119f161207661216794611f9c565b90813b156100f85760405163a8ba872160e01b8152915f9083908183816121948e8c8c8f60048601611fa9565b03925af1918215610c5b576001926121ae575b5090612149565b80610d7e5f6121bc93610675565b5f6121a7565b50505050509050565b6121eb5f516020612a305f395f51905f5293949560405193849384611f6b565b0390a2565b655461626c657360501b66746273746f726560c81b0181146122585760408051655461626c657360501b66746273746f726560c81b016020820190815281830193909352908152612242606082610675565b5190205f516020612a505f395f51905f52185490565b506503001811010160cd1b90565b906020610aef928181520190611127565b9092916001600160f01b03198216611bdd60f21b1461245b57612299826127a8565b5f5b8151811015612341576122b461203b61202d838561095e565b6122c4816040809160581c161490565b6122d2575b5060010161229b565b610bd7610bd76119f16120766122e794611f9c565b90813b156100f857604051639faeaf4560e01b8152915f9083908183816123138a8e8d600485016117cd565b03925af1918215610c5b5760019261232d575b50906122c9565b80610d7e5f61233b93610675565b5f612326565b50825f516020612b105f395f51905f526040518061235f8982612266565b0390a261238761236f8685611d57565b61238161237c8560f01c90565b611be9565b9061287e565b60e082901c60ff16612444575b5f5b815181101561243c576123af61203b61202d838561095e565b6123bf816080809160581c161490565b6123cd575b50600101612396565b610bd7610bd76119f16120766123e294611f9c565b90813b156100f8576040516383b5c95b60e01b8152915f90839081838161240e8a8e8d600485016117cd565b03925af1918215610c5b57600192612428575b50906123c4565b80610d7e5f61243693610675565b5f612421565b505050509050565b612456612451868561277a565b6128a0565b612394565b5090916121eb5f516020612b105f395f51905f529160405191829182612266565b90610aef94926124976124a592608085526080850190611127565b908382036020850152611af1565b9260408201526060818403910152611af1565b969594906117ea936124de60a096946124ec938b5260c060208c015260c08b0190611127565b9089820360408b0152611af1565b9160608801528682036080880152611af1565b9295949192916001600160f01b03198316611bdd60f21b1461273457612524836127a8565b5f5b81518110156125d15761253f61203b61202d838561095e565b61254f816001809160581c161490565b61255d575b50600101612526565b610bd7610bd76119f161207661257294611f9c565b90813b156100f8575f878b9387838a6125a38a8f6040519a8b98899788966315c19b2760e21b8852600488016124b8565b03925af1918215610c5b576001926125bd575b5090612554565b80610d7e5f6125cb93610675565b5f6125b6565b50835f516020612a905f395f51905f52604051806125f28a8d8b8a8561247c565b0390a261260e6126028486611d57565b865160208801916128c3565b60e082901c60ff16806126d5575b505f5b81518110156126ca5761263861203b61202d838561095e565b612648816002809160581c161490565b612656575b5060010161261f565b610bd7610bd76119f161207661266b94611f9c565b90813b156100f8575f878b9387838a61269c8a8f6040519a8b9889978896635b28cdaf60e01b8852600488016124b8565b03925af1918215610c5b576001926126b6575b509061264d565b80610d7e5f6126c493610675565b5f6126af565b505050505050509050565b886126e0858761277a565b555f602088015b85878c8560ff8616106126fe57505050505061261c565b8361272660ff9561271f886127198160019961272b99611e04565b95611e43565b80946128c3565b610908565b920116906126e7565b509093945f516020612a905f395f51905f52936121eb916040519485948561247c565b610aef9060405192601f19603f82860101166040528084525f6020850192611e9b565b90612793611d7091604051928391602083019586611d24565b5190205f516020612ad05f395f51905f521890565b6127b0610972565b9081511561077d5781612865916020610aef94015261285f5f516020612ab05f395f51905f52604051602081019061280681611d70876953746f7265486f6f6b7360301b66746273746f726560c81b0186611d24565b51902060405191189260208201919061283f908290611d70906953746f7265486f6f6b7360301b66746273746f726560c81b0186611d24565b5190205f516020612ad05f395f51905f52185460381c64ffffffffff1690565b90612757565b80516001600160801b0316602090910160801b176129c1565b610ca3915f60208251920192612907565b8251610ca393602001929091612907565b6001810180821161081357905b8181106128b8575050565b5f81556001016128ad565b91905b60208110156128ef57806128d957505050565b5f199060031b1c90818354169119905116179055565b909160016020918451815501920190601f19016128c6565b92919080612954575b505b602081101561293c578061292557505050565b5f1960039190911b1c825491518119169116179055565b909160016020918451815501920190601f1901612912565b60208110156129a5575b80156129105791926020839003905f19600384901b1c198460031b90811c908651901c908019835416911617815581831115611f3b5760010193019101601f19015f612910565b926129bc906129b48560051c90565b0193601f1690565b61295e565b60158160801c9160018060801b031604604051916020830160208360051b8501016040528284525f5b8381106129f8575050505090565b6020600160159285518552019201920191906129ea56fe746200000000000000000000000000004d61726b6574706c6163654c697374698c0b5119d4cec7b284c6b1b39252a03d1e2f2d7451a5895562524c113bb952be86425bff6b57326c7859e89024fe4f238ca327a1ae4a230180dd2f0e88aaa7d974620000000000000000000000000000436f6e666967416464726573736573008dbb3a9672eebfd3773e72dd9c102393436816d832c7ba9e1e1ac8fcadcac7a93b4102da22e32d82fc925482184f16c09fd4281692720b87d124aef6da48a0f114e2fcc58e58e68ec7edc30c8d50dccc3ce2714a623ec81f46b6a63922d76569746200000000000000000000000000004d61726b6574706c6163654e6f6e63650e1f72f429eb97e64878619984a91e687ae91610348b9ff4216782cc96e49d07a264697066735822122054c26ee9b66b1fb165b87b395ce5b7319c3f649ae2981dbeb6546d53749536d364736f6c634300081c0033","linkReferences":{}},"methodIdentifiers":{"_msgSender()":"119df25f","_msgValue()":"45ec9354","_world()":"e1af802c","buyItem(uint256,uint256,uint256)":"1f6a8318","cancelListing(uint256,uint256)":"dc422d4b","getAllListings()":"ae73ccec","getListing(uint256)":"107a274a","listItem(uint256,uint256,uint256,uint256)":"637f94e1","supportsInterface(bytes4)":"01ffc9a7"},"id":147}