{"abi":[{"type":"function","name":"_msgSender","inputs":[],"outputs":[{"name":"sender","type":"address","internalType":"address"}],"stateMutability":"view"},{"type":"function","name":"_msgValue","inputs":[],"outputs":[{"name":"value","type":"uint256","internalType":"uint256"}],"stateMutability":"pure"},{"type":"function","name":"_world","inputs":[],"outputs":[{"name":"","type":"address","internalType":"address"}],"stateMutability":"view"},{"type":"function","name":"createUserTestScerarioLand","inputs":[{"name":"player","type":"address","internalType":"address"},{"name":"limitX","type":"uint256","internalType":"uint256"},{"name":"limitY","type":"uint256","internalType":"uint256"},{"name":"landItems","type":"tuple[]","internalType":"struct LandItemDTO[]","components":[{"name":"x","type":"uint256","internalType":"uint256"},{"name":"y","type":"uint256","internalType":"uint256"},{"name":"itemId","type":"uint256","internalType":"uint256"},{"name":"placementTime","type":"uint256","internalType":"uint256"},{"name":"stackIndex","type":"uint256","internalType":"uint256"},{"name":"isRotated","type":"bool","internalType":"bool"},{"name":"dynamicUnlockTime","type":"uint256","internalType":"uint256"},{"name":"dynamicTimeoutTime","type":"uint256","internalType":"uint256"}]}],"outputs":[],"stateMutability":"nonpayable"},{"type":"function","name":"resetUserTestLandScenario","inputs":[{"name":"landId","type":"uint256","internalType":"uint256"},{"name":"limitX","type":"uint256","internalType":"uint256"},{"name":"limitY","type":"uint256","internalType":"uint256"},{"name":"landItems","type":"tuple[]","internalType":"struct LandItemDTO[]","components":[{"name":"x","type":"uint256","internalType":"uint256"},{"name":"y","type":"uint256","internalType":"uint256"},{"name":"itemId","type":"uint256","internalType":"uint256"},{"name":"placementTime","type":"uint256","internalType":"uint256"},{"name":"stackIndex","type":"uint256","internalType":"uint256"},{"name":"isRotated","type":"bool","internalType":"bool"},{"name":"dynamicUnlockTime","type":"uint256","internalType":"uint256"},{"name":"dynamicTimeoutTime","type":"uint256","internalType":"uint256"}]}],"outputs":[],"stateMutability":"nonpayable"},{"type":"function","name":"supportsInterface","inputs":[{"name":"interfaceId","type":"bytes4","internalType":"bytes4"}],"outputs":[{"name":"","type":"bool","internalType":"bool"}],"stateMutability":"pure"},{"type":"event","name":"LandCreated","inputs":[{"name":"landId","type":"uint256","indexed":true,"internalType":"uint256"},{"name":"owner","type":"address","indexed":true,"internalType":"address"},{"name":"limitX","type":"uint256","indexed":false,"internalType":"uint256"},{"name":"limitY","type":"uint256","indexed":false,"internalType":"uint256"}],"anonymous":false},{"type":"event","name":"Store_DeleteRecord","inputs":[{"name":"tableId","type":"bytes32","indexed":true,"internalType":"ResourceId"},{"name":"keyTuple","type":"bytes32[]","indexed":false,"internalType":"bytes32[]"}],"anonymous":false},{"type":"event","name":"Store_SpliceDynamicData","inputs":[{"name":"tableId","type":"bytes32","indexed":true,"internalType":"ResourceId"},{"name":"keyTuple","type":"bytes32[]","indexed":false,"internalType":"bytes32[]"},{"name":"dynamicFieldIndex","type":"uint8","indexed":false,"internalType":"uint8"},{"name":"start","type":"uint48","indexed":false,"internalType":"uint48"},{"name":"deleteCount","type":"uint40","indexed":false,"internalType":"uint40"},{"name":"encodedLengths","type":"bytes32","indexed":false,"internalType":"EncodedLengths"},{"name":"data","type":"bytes","indexed":false,"internalType":"bytes"}],"anonymous":false},{"type":"event","name":"Store_SpliceStaticData","inputs":[{"name":"tableId","type":"bytes32","indexed":true,"internalType":"ResourceId"},{"name":"keyTuple","type":"bytes32[]","indexed":false,"internalType":"bytes32[]"},{"name":"start","type":"uint48","indexed":false,"internalType":"uint48"},{"name":"data","type":"bytes","indexed":false,"internalType":"bytes"}],"anonymous":false},{"type":"error","name":"EncodedLengths_InvalidLength","inputs":[{"name":"length","type":"uint256","internalType":"uint256"}]},{"type":"error","name":"Slice_OutOfBounds","inputs":[{"name":"data","type":"bytes","internalType":"bytes"},{"name":"start","type":"uint256","internalType":"uint256"},{"name":"end","type":"uint256","internalType":"uint256"}]},{"type":"error","name":"Store_IndexOutOfBounds","inputs":[{"name":"length","type":"uint256","internalType":"uint256"},{"name":"accessedIndex","type":"uint256","internalType":"uint256"}]},{"type":"error","name":"Store_InvalidResourceType","inputs":[{"name":"expected","type":"bytes2","internalType":"bytes2"},{"name":"resourceId","type":"bytes32","internalType":"ResourceId"},{"name":"resourceIdString","type":"string","internalType":"string"}]},{"type":"error","name":"Store_InvalidSplice","inputs":[{"name":"startWithinField","type":"uint40","internalType":"uint40"},{"name":"deleteCount","type":"uint40","internalType":"uint40"},{"name":"fieldLength","type":"uint40","internalType":"uint40"}]},{"type":"error","name":"World_AccessDenied","inputs":[{"name":"resource","type":"string","internalType":"string"},{"name":"caller","type":"address","internalType":"address"}]}],"bytecode":{"object":"0x60808060405234601557613519908161001a8239f35b5f80fdfe60806040526004361015610011575f80fd5b5f3560e01c806301ffc9a714610074578063119df25f1461006f57806345ec93541461006a578063cbe3d24414610065578063cc85a885146100605763e1af802c1461005b575f80fd5b6104a0565b610380565b610151565b610102565b6100d6565b346100c85760203660031901126100c85760043563ffffffff60e01b81168091036100c85763b5dee12760e01b81149081156100b7575b50151560805260206080f35b6301ffc9a760e01b149050816100ab565b5f80fd5b5f9103126100c857565b346100c8575f3660031901126100c85760206100f0610709565b6040516001600160a01b039091168152f35b346100c8575f3660031901126100c8576020604051601f193601358152f35b9181601f840112156100c8578235916001600160401b0383116100c8576020808501948460081b0101116100c857565b346100c85760803660031901126100c8576004356024356044356064356001600160401b0381116100c85761018a903690600401610121565b9190926101c7610198610720565b6101aa6101a3610709565b8092610e39565b801561035a575b6101ba906104ba565b6101c2610720565b610e39565b8015610345575b6101d7906104ba565b6101e085610f32565b5160206101ec87610f32565b01515f5b8281106102be57505050610203856113f7565b5f5b8181106102ac575050610218818661094e565b6102228286610a2d565b61022b85610b14565b61023485610c0a565b5f5b828110610299575050505f5b81811061024b57005b8061029361025c6001938587610535565b35602061026a848789610535565b013590604061027a85888a610535565b013591608061028a86898b610535565b01359189610d4e565b01610242565b6001906102a68388610cc5565b01610236565b6001906102b88861141a565b01610205565b5f5b8281106102d057506001016101f0565b6102e56102de82848c610ff1565b61ffff1690565b5f5b838b8383111561031f57849350610303925090600194916111ca565b61030e81848c61127d565b61031981848c611335565b016102c0565b828583836103368484610340999861033b9861103a565b6110fd565b610886565b6102e7565b506101d76103533387610769565b90506101ce565b506101ba6103683389610769565b90506101b1565b6001600160a01b038116036100c857565b346100c85760803660031901126100c85760043561039d8161036f565b6044356024356064356001600160401b0381116100c8576103c2903690600401610121565b9290916103cd610720565b946103d6610709565b956103e18782610e39565b156103f357506103f195506105a0565b005b8690608081901b6001600160801b0319169061046090601081901b6001600160901b031916806104915750610426612287565b925b806104805750610452610439612287565b6040519485936001600160f01b031916602085016122bd565b03601f19810183528261055e565b61047c60405192839263d787b73760e01b84526004840161196c565b0390fd5b61048c61045291612b5a565b610439565b61049a90612b5a565b92610428565b346100c8575f3660031901126100c85760206100f0611cad565b156104c157565b60405162461bcd60e51b815260206004820152603260248201527f4f6e6c79206f776e6572206f72206c616e64206f70657261746f722063616e2060448201527131b0b636103a3434b990333ab731ba34b7b760711b6064820152608490fd5b634e487b7160e01b5f52603260045260245ffd5b91908110156105455760081b0190565b610521565b634e487b7160e01b5f52604160045260245ffd5b601f909101601f19168101906001600160401b0382119082101761058157604052565b61054a565b908160209103126100c8575190565b6040513d5f823e3d90fd5b90936105bc6105b06105b0610e23565b6001600160a01b031690565b6040516335313c2160e11b81526001600160a01b03841660048201529490602090869060249082905f905af1948515610704575f956106d3575b50610601868661094e565b61060b8486610a2d565b61061485610b14565b61061d85610c0a565b5f5b8481106106c057505f5b828110610672575050604080519586526020860193909352506001600160a01b0316927f3a53cbf526b0b0223e60834e48ed0dd66081d05ea6a4700ab69ff02987b6d45f9190a3565b806106ba6106836001938686610535565b356020610691848888610535565b01359060406106a1858989610535565b01359160806106b1868a8a610535565b0135918b610d4e565b01610629565b6001906106cd8888610cc5565b0161061f565b6106f691955060203d6020116106fd575b6106ee818361055e565b810190610586565b935f6105f6565b503d6106e4565b610595565b36603319013560601c90811561071b57565b339150565b6040516020810190616e7360f01b82525f60228201525f60308201526020815261074b60408261055e565b519051906020811061075b575090565b5f199060200360031b1b1690565b906001600160a01b0361077a610e23565b16918215610819576040516331a9108f60e11b81526004810182905292602090849060249082905afa928315610704575f936107e8575b506107ba610709565b6001600160a01b038481169116149283156107d6575b50505090565b6107e09350610e85565b5f80806107d0565b61080b91935060203d602011610812575b610803818361055e565b810190610e70565b915f6107b1565b503d6107f9565b60405162461bcd60e51b815260206004820152602b60248201527f4c69624c616e644163636573733a206c616e644e46547320616464726573732060448201526a063616e6e6f7420626520360ac1b6064820152608490fd5b634e487b7160e01b5f52601160045260245ffd5b5f1981146108945760010190565b610872565b604080519091906108aa838261055e565b6001815291601f1901366020840137565b60405160a091906108cc838261055e565b6004815291601f1901366020840137565b604051906108ec60208361055e565b5f808352366020840137565b60405160809190610909838261055e565b6003815291601f1901366020840137565b8051600210156105455760600190565b8051600310156105455760800190565b80518210156105455760209160051b010190565b610956610899565b908151156105455760208201526040519160208301526020825261097b60408361055e565b5f916001600160a01b0361098d611cad565b16923084036109c1576109bf93506b072848090101010008210101609d1b925f5160206134a45f395f51905f52611f5d565b565b5090823b156100c8576040516301c85d5760e51b8152925f928492839185918391610a11916b072848090101010008210101609d1b919085905f5160206134a45f395f51905f5260048701611510565b03925af1801561070457610a23575b50565b5f6109bf9161055e565b610a35610899565b9081511561054557602082015260405191602083015260208252610a5a60408361055e565b6001600160a01b03610a6a611cad565b1691308303610a9f576109bf92506b072848090101010008210101609d1b916001905f5160206134a45f395f51905f52611f5d565b90823b156100c8576040516301c85d5760e51b8152925f928492839185918391610aef916b072848090101010008210101609d1b91906001905f5160206134a45f395f51905f5260048701611510565b03925af1801561070457610b005750565b80610b0e5f6109bf9361055e565b806100cc565b610b1c610899565b908151156105455760208201526040515f602082015260208152610b4160408261055e565b6001600160a01b03610b51611cad565b1691308303610b95576109bf925065ffffffffffff610b8060036b072848090101010008210101609d1b6127c4565b16905f5160206134a45f395f51905f52612879565b823b156100c8576040516301c85d5760e51b8152925f928492839185918391610be4916b072848090101010008210101609d1b91906003905f5160206134a45f395f51905f5260048701611510565b03925af1801561070457610bf55750565b80610c015f809361055e565b8003126100c857565b610c12610899565b908151156105455760208201526040515f602082015260208152610c3760408261055e565b6001600160a01b03610c47611cad565b1691308303610c76576109bf925065ffffffffffff610b8060026b072848090101010008210101609d1b6127c4565b823b156100c8576040516301c85d5760e51b8152925f928492839185918391610be4916b072848090101010008210101609d1b91906002905f5160206134a45f395f51905f5260048701611510565b90610cce610899565b9182511561054557602083015260405190602082015260208152610cf360408261055e565b6001600160a01b03610d03611cad565b1691308303610d16576109bf9250611f79565b90823b156100c857610aef925f9283604051809681958294630a87993160e11b845260048401611690565b9190820180921161089457565b93909192938115610e1c5761ffff610d67858584610ff1565b16851015610dfc575b610d786108bb565b80511561054557816020820152805160011015610545576109bf95610de282866040610df795015287610daa8261091a565b5282610db58261092a565b5260405190610ddd82610dcf896020830160209181520190565b03601f19810184528361055e565b61154c565b610def42828888876116cf565b8585846117b9565b611896565b600185018086116108945761ffff610e17911685858461121c565b610d70565b5050505050565b610e33610e2e6108dd565b6119c0565b60601c90565b90610e5781600160801b600160f01b038416616e7360f01b17611ce2565b918215610e6357505090565b610e6d9250611ce2565b90565b908160209103126100c85751610e6d8161036f565b610e8d6108f8565b90815115610545576001600160a01b031660208201528051600110156105455760ff92610ed092604083015260018060a01b0316610eca8261091a565b52611a7b565b60f81c1690565b6040519061014082016001600160401b03811183821017610581576040526060610120835f81525f60208201525f60408201525f838201525f60808201525f60a08201525f60c08201525f60e08201525f6101008201520152565b610f3a610ed7565b50610f43610899565b908151156105455781610f5d916020610fe8940152611db1565b90610f69939293610ed7565b93602081015190604081015190606081015190610fd2608082015191610fc960a082015160f81c918b60a182015160e01c9160e060a58201519260e560c5840151930151610100820152015260c08d015260a08c019063ffffffff169052565b151560808a0152565b6060880152604087015260208601528452612435565b61012082015290565b9190610ffb6108f8565b92835115610545576020840152825160011015610545576040830152815160021015610545578161103391606061ffff940152611b07565b60f01c1690565b9291906110456108bb565b938451156105455760208501528351600110156105455760408401528251600210156105455760608301526110798261092a565b526001600160a01b0361108a611cad565b163081036110af57506109bf90674c616e644974656d60401b613a3160f11b016124a5565b803b156100c8576040805163505a181d60e01b8152674c616e644974656d60401b613a3160f11b0160048201526024810191909152915f918391829084908290610aef9060448301906114b9565b9291906111086108bb565b9384511561054557602085015283516001101561054557604084015282516002101561054557606083015261113c8261092a565b526001600160a01b0361114d611cad565b1630810361117757506109bf906f4c616e644974656d436f6f6b696e6753613a3160f11b016124a5565b803b156100c8576040805163505a181d60e01b81526f4c616e644974656d436f6f6b696e6753613a3160f11b0160048201526024810191909152915f918391829084908290610aef9060448301906114b9565b90916111d46108f8565b91825115610545576020830152815160011015610545576109bf9260408301526111fd8261091a565b52604051905f60208301526002825261121760228361055e565b6115f2565b906112256108f8565b91825115610545576020830152815160011015610545576109bf936002936112179260408501526112558461091a565b52604051938491602083019061ffff60f01b9060f01b1681520103601f19810184528361055e565b91906112876108f8565b928351156105455760208401528251600110156105455760408301528151600210156105455760608201526001600160a01b036112c2611cad565b163081036112e757506109bf906713185b9910d95b1b60421b613a3160f11b016124a5565b803b156100c8576040805163505a181d60e01b81526713185b9910d95b1b60421b613a3160f11b0160048201526024810191909152915f918391829084908290610aef9060448301906114b9565b919061133f6108f8565b928351156105455760208401528251600110156105455760408301528151600210156105455760608201526001600160a01b0361137a611cad565b163081036113a457506109bf906f4c616e645461626c6573416e64436861613a3160f11b016124a5565b803b156100c8576040805163505a181d60e01b81526f4c616e645461626c6573416e64436861613a3160f11b0160048201526024810191909152915f918391829084908290610aef9060448301906114b9565b6113ff610899565b80511561054557611414916020820152611ebf565b60051c90565b611422610899565b908151156105455760208201526001600160a01b0361143f611cad565b1630810361145157506109bf906124c5565b803b156100c8575f91829160405180948180946336700e8160e21b82526020606061149f6004850193674c616e64496e666f60401b613a3160f11b01855260808486015260808501906114b9565b92856040820152015203925af1801561070457610b005750565b90602080835192838152019201905f5b8181106114d65750505090565b82518452602093840193909201916001016114c9565b805180835260209291819084018484015e5f828201840152601f01601f1916010190565b95949360ff61153361154794608096948a5260a060208b015260a08a01906114b9565b9216604088015286820360608801526114ec565b930152565b5f91906001600160a01b0361155f611cad565b163081036115a1575065ffffffffffff6115876109bf9467810500202020200160b81b6127c4565b1690674c616e644974656d60401b613a3160f11b01612879565b8093503b156100c8576040516301c85d5760e51b8152925f928492839185918391610a119167810500202020200160b81b91908590674c616e644974656d60401b613a3160f11b0160048701611510565b5f91906001600160a01b03611605611cad565b16308103611643575065ffffffffffff6116296109bf94630100800160d91b6127c4565b16906713185b9910d95b1b60421b613a3160f11b01612879565b8093503b156100c8576040516301c85d5760e51b8152925f928492839185918391610a1191630100800160d91b919085906713185b9910d95b1b60421b613a3160f11b0160048701611510565b5f5160206134a45f395f51905f528152608060208201819052610e6d9391926116bb918401906114b9565b915f604082015260608184039101526114ec565b9291906116da6108bb565b938451156105455760208501528351600110156105455760408401526116ff8361091a565b526117098261092a565b526040519160208301526020825261172260408361055e565b6001600160a01b03611732611cad565b1691308303611768576109bf925067810500202020200160b81b91600190674c616e644974656d60401b613a3160f11b01611f5d565b90823b156100c8576040516301c85d5760e51b8152925f928492839185918391610aef9167810500202020200160b81b9190600190674c616e644974656d60401b613a3160f11b0160048701611510565b9291906117c46108bb565b938451156105455760208501528351600110156105455760408401526117e98361091a565b526117f38261092a565b526040515f60208201526001815261180c60218261055e565b6001600160a01b0361181c611cad565b1691308303611847576109bf925065ffffffffffff611587600467810500202020200160b81b6127c4565b823b156100c8576040516301c85d5760e51b8152925f928492839185918391610be49167810500202020200160b81b9190600490674c616e644974656d60401b613a3160f11b01828701611510565b909192610a2093604051936020850193639aa3d5cd60e01b85526024860152604485015260648401526084830152608482526118d360a48361055e565b5f806118e56118e06108dd565b611b89565b60601c92604051946118f860608761055e565b602786527f416464726573733a206c6f772d6c6576656c2064656c65676174652063616c6c6020870152660819985a5b195960ca1b60408701525190845af43d15611964573d9161194883611d33565b92611956604051948561055e565b83523d5f602085013e6131fc565b6060916131fc565b906119846020919493946040845260408401906114ec565b6001600160a01b03909416910152565b906119b560609360ff929796959784526080602085015260808401906114b9565b951660408201520152565b6001600160a01b036119d0611cad565b16308103611a065750610e6d906d3702c00505050505050505050505608a1b906004905f5160206134445f395f51905f526122f3565b604051638c364d5960e01b815291602091839182908190611a4d906d3702c00505050505050505050505608a1b906004905f5160206134445f395f51905f52828601611994565b03915afa908115610704575f91611a62575090565b610e6d915060203d6020116106fd576106ee818361055e565b6001600160a01b03611a8b611cad565b16308103611ac05750610e6d90630101000160d81b905f906f4c616e645065726d697373696f6e7300613a3160f11b016122f3565b604051638c364d5960e01b815291602091839182908190611a4d90630101000160d81b905f906f4c616e645065726d697373696f6e7300613a3160f11b0160048601611994565b6001600160a01b03611b17611cad565b16308103611b475750610e6d90630100800160d91b905f906713185b9910d95b1b60421b613a3160f11b016122f3565b604051638c364d5960e01b815291602091839182908190611a4d90630100800160d91b905f906713185b9910d95b1b60421b613a3160f11b0160048601611994565b6001600160a01b03611b99611cad565b16308103611bcf5750610e6d906d3702c00505050505050505050505608a1b906008905f5160206134445f395f51905f526122f3565b604051638c364d5960e01b815291602091839182908190611a4d906d3702c00505050505050505050505608a1b906008905f5160206134445f395f51905f5260048601611994565b6001600160a01b03611c27611cad565b16308103611c615750610e6d90630101000160d81b905f906f5265736f757263654163636573730000661d189ddbdc9b1960ca1b016122f3565b604051638c364d5960e01b815291602091839182908190611a4d90630101000160d81b905f906f5265736f757263654163636573730000661d189ddbdc9b1960ca1b0160048601611994565b7f629a4c26e296b22a8e0856e9f6ecb2d1008d7e00081111962cd175fa7488e175546001600160a01b031680610e6d57503390565b604051906060611cf2818461055e565b600283526020830190601f19013682378251156105455752805160011015610545576001600160a01b039091166040820152611d2d90611c17565b60f81c90565b6001600160401b03811161058157601f01601f191660200190565b81601f820112156100c857805190611d6582611d33565b92611d73604051948561055e565b828452602083830101116100c857815f9260208093018386015e8301015290565b9392916115479060409286526060602087015260608601906114b9565b6001600160a01b03611dc1611cad565b16308103611df95750611df2906b072848090101010008210101609d1b905f5160206134a45f395f51905f5261238d565b9192909190565b60405163419b58fd60e01b815292915f91849182908190611e3c906b072848090101010008210101609d1b905f5160206134a45f395f51905f5260048501611d94565b03915afa908115610704575f5f935f93611e57575b50929190565b93505090503d805f843e611e6b818461055e565b8201906060838303126100c85782516001600160401b0381116100c85782611e94918501611d4e565b92602081015192604082015160018060401b0381116100c857611eb79201611d4e565b91925f611e51565b6001600160a01b03611ecf611cad565b16308103611efa5750610e6d905f90611ef5905f5160206134a45f395f51905f52612a5f565b612a6d565b60405163dbbf0e2160e01b81525f5160206134a45f395f51905f52600482019081526060602483015290926020928492909183918291611f3e9060648401906114b9565b90604060ff5f1691015203915afa908115610704575f91611a62575090565b91611f7265ffffffffffff916109bf966127c4565b1691612879565b909190611f93815f5160206134a45f395f51905f5261315c565b5491611f9f5f84612a6d565b9264ffffffffff841691611fbe611fb65f876124b8565b875190610d41565b85811415958680612267575b612252578085116122345750611fe1905f8461318a565b90611ff85f5160206134a45f395f51905f52613074565b915f5b83518110156120da57612027612022612014838761093a565b516001600160581b03191690565b612834565b612037816010809160581c161490565b612045575b50600101611ffb565b6105b06105b0610e3361205a61206794612834565b6001600160601b03191690565b90813b156100c8575f87819382808c8f6120ac908d6040519a8b9889978896630abd6b4560e31b8852674c616e64496e666f60401b613a3160f11b0160048901612ab9565b03925af1918215610704576001926120c6575b509061203c565b80610b0e5f6120d49361055e565b5f6120bf565b50925094600161222f575b6040515f5160206134a45f395f51905f52905f5160206133e45f395f51905f52908061211e8b885f65ffffffffffff8c16818e87612b0a565b0390a2612211575b61214886846121435f885f5160206134a45f395f51905f52612c4d565b61314b565b5f5b815181101561220857612163612022612014838561093a565b612173816020809160581c161490565b612181575b5060010161214a565b6105b06105b0610e3361205a61219694612834565b90813b156100c8575f85819382808a6121da8e8b6040519a8b9889978896636358453360e01b8852674c616e64496e666f60401b613a3160f11b0160048901612ab9565b03925af1918215610704576001926121f4575b5090612178565b80610b0e5f6122029361055e565b5f6121ed565b50505050509050565b81612229855f5160206134a45f395f51905f5261315c565b55612126565b6120e5565b637e8578d360e01b5f5260045264ffffffffff841660245260445b5ffd5b61224f85632994042d60e21b5f525f81612a9e565b50806122806122765f88612a82565b64ffffffffff1690565b1415611fca565b6040519061229660408361055e565b60068252651e3937b7ba1f60d11b6020830152565b805191908290602001825e015f815290565b610e6d939260036122e59260019461ffff60f01b168152601d60f91b600282015201906122ab565b601d60f91b815201906122ab565b6123199161230391949394612bed565b9260ff808216601b0360031b84901c16926127c4565b9180602084101561234a575b5080548360031b1b9260200380921161233d57505090565b600101549060031b1c1790565b601f84169360051c0190505f612325565b9061236582611d33565b612372604051918261055e565b8281528092612383601f1991611d33565b0190602036910137565b91925f926060926123af6123a58760f01c8385612c1b565b9660e01c60ff1690565b91826123ba57505050565b91945092506123c9838261315c565b54936123dd66ffffffffffffff861661235b565b935f92602086015b8360ff8616106123f6575050505050565b612401858484612c4d565b6124168261240f888c612a6d565b8093612c8c565b81018091116108945760ff90941660ff811461089457600101936123e5565b9064ffffffffff61244a9260381c1690612d98565b6040805160206020600160801b0384168201810190925260016001607b1b03600584901c168082529092909160809190911c9083015f5b83811061248f575050505090565b6020600181928551855201920192019190612481565b6109bf916124b282612de8565b91612e6f565b9190820391821161089457565b6124dc815f5160206134a45f395f51905f5261315c565b54906124e85f83612a6d565b9264ffffffffff841692601f1984018481116108945764ffffffffff169161250f5f611d33565b9561251d604051978861055e565b5f8752601f1961252c5f611d33565b013660208901376125496125416020836124b8565b885190610d41565b9081811415968780986127ad575b6127975750808511612234575061256f905f8461318a565b906125865f5160206134a45f395f51905f52613074565b915f5b8351811015612649576125a2612022612014838761093a565b6125b2816010809160581c161490565b6125c0575b50600101612589565b6105b06105b0610e3361205a6125d594612834565b90813b156100c8575f8760209382808c8f61261b908d6040519a8b9889978896630abd6b4560e31b8852674c616e64496e666f60401b613a3160f11b0160048901612ab9565b03925af191821561070457600192612635575b50906125b7565b80610b0e5f6126439361055e565b5f61262e565b509250946001612792575b6040515f5160206134a45f395f51905f52905f5160206133e45f395f51905f52908061268e8b88602065ffffffffffff8c165f8e87612b0a565b0390a2612774575b6126b386846121435f885f5160206134a45f395f51905f52612c4d565b5f5b8151811015612208576126ce612022612014838561093a565b6126de816020809160581c161490565b6126ec575b506001016126b5565b6105b06105b0610e3361205a61270194612834565b90813b156100c8575f8560209382808a6127468e8b6040519a8b9889978896636358453360e01b8852674c616e64496e666f60401b613a3160f11b0160048901612ab9565b03925af191821561070457600192612760575b50906126e3565b80610b0e5f61276e9361055e565b5f612759565b8161278c855f5160206134a45f395f51905f5261315c565b55612696565b612654565b632994042d60e21b5f5261224f90602087612a9e565b50816127bd612276602089612a82565b1415612557565b5f915f915b60ff821683106127d95750505090565b9091926127ef848360ff91601b0360031b1c1690565b8101809111610894579260010191906127c9565b65ffffffffffff612820610e6d95936060845260608401906114b9565b9316602082015260408184039101526114ec565b6001600160581b03191690565b90612865610e6d959365ffffffffffff9284526080602085015260808401906114b9565b9316604082015260608184039101526114ec565b92939291906001600160f01b03198316611bdd60f21b14612a3a5761289e8184612bed565b936128a884613074565b90865f5b835181101561295a576128c5612022612014838761093a565b6128d5816004809160581c161490565b6128e3575b506001016128ac565b6128fb9192506105b0610e3361205a6105b093612834565b90813b156100c8575f868a9387838b61292a6040519889968795869463964f667d60e01b865260048601612841565b03925af1908115610704578992600192612946575b50906128da565b80610b0e5f6129549361055e565b5f61293f565b506129919196865f5160206134045f395f51905f526040518061297f868b8b84612803565b0390a265ffffffffffff86169061314b565b5f5b8151811015612208576129ac612022612014838561093a565b6129bc816008809160581c161490565b6129ca575b50600101612993565b6105b06105b0610e3361205a6129df94612834565b90813b156100c85760405163a8ba872160e01b8152915f908390818381612a0c8e8c8c8f60048601612841565b03925af191821561070457600192612a26575b50906129c1565b80610b0e5f612a349361055e565b5f612a1f565b612a5a5f5160206134045f395f51905f5293949560405193849384612803565b0390a2565b90612a699161315c565b5490565b60ff64ffffffffff92166028026038011c1690565b9064ffffffffff8091169116019064ffffffffff821161089457565b64ffffffffff90811660045290811660245216604452606490565b9364ffffffffff929060ff612ae58593610e6d9b99959a979a895260e060208a015260e08901906114b9565b9816604087015216606085015216608083015260a082015260c08184039101526114ec565b929365ffffffffffff610e6d979560ff612b3564ffffffffff9599969960c0895260c08901906114b9565b98166020870152166040850152166060830152608082015260a08184039101526114ec565b5f5b60108110612b8d575b6040516001600160801b0319909216602083015260108252612b8860308361055e565b815290565b6001600160801b03198216600382901b1b6001600160f81b03191615612bb557600101612b5c565b612b65565b60209181520160208251919201905f5b818110612bd75750505090565b8251845260209384019390920191600101612bca565b90612c0661045291604051928391602083019586612bba565b5190205f5160206134245f395f51905f521890565b9190918115612c3657610e6d92612c3191612bed565b613295565b505050604051612c4760208261055e565b5f815290565b610452612c745f5160206134645f395f51905f529493604051928391602083019586612bba565b51902060f89190911b6001600160f81b031916181890565b905b6020811015612cb75780612ca157505050565b5f199060031b1c90818351169119905416179052565b919060018160209254845201910191601f1901612c8e565b919080612d1b575b505b6020811015612d035780612cec57505050565b5f1960039190911b1c825191548119169116179052565b919060018160209254845201910191601f1901612cd9565b6020811015612d7c575b8015612cd757929183602003908183105f14612d6f575f19600384901b1c5b81548660031b1b8186511691191617845281831115610e1c57600101920192601f199101015f612cd7565b5f19600383901b1c612d44565b91612d9390612d8b8460051c90565b0192601f1690565b612d25565b80518211612db35760200160801b9060018060801b03161790565b6040516323230fa360e01b815260606004820152918291612dd89060648401906114ec565b905f602484015260448301520390fd5b655461626c657360501b66746273746f726560c81b018114612e505760408051655461626c657360501b66746273746f726560c81b016020820190815281830193909352908152612e3a60608261055e565b5190205f5160206134245f395f51905f52185490565b506503001811010160cd1b90565b906020610e6d9281815201906114b9565b9092916001600160f01b03198216611bdd60f21b1461305357612e9182613074565b5f5b8151811015612f3957612eac612022612014838561093a565b612ebc816040809160581c161490565b612eca575b50600101612e93565b6105b06105b0610e3361205a612edf94612834565b90813b156100c857604051639faeaf4560e01b8152915f908390818381612f0b8a8e8d60048501611d94565b03925af191821561070457600192612f25575b5090612ec1565b80610b0e5f612f339361055e565b5f612f1e565b50825f5160206134c45f395f51905f5260405180612f578982612e5e565b0390a2612f7f612f678685612bed565b612f79612f748560f01c90565b61235b565b9061313a565b60e082901c60ff1661303c575b5f5b815181101561303457612fa7612022612014838561093a565b612fb7816080809160581c161490565b612fc5575b50600101612f8e565b6105b06105b0610e3361205a612fda94612834565b90813b156100c8576040516383b5c95b60e01b8152915f9083908183816130068a8e8d60048501611d94565b03925af191821561070457600192613020575b5090612fbc565b80610b0e5f61302e9361055e565b5f613019565b505050509050565b61304e613049868561315c565b613306565b612f8c565b509091612a5a5f5160206134c45f395f51905f529160405191829182612e5e565b61307c610899565b8051156105455761312d81610e6d93602061313594015264ffffffffff5f5160206134645f395f51905f5260405160208101906130d781610452876953746f7265486f6f6b7360301b66746273746f726560c81b0186612bba565b519020604051911892602082019190613110908290610452906953746f7265486f6f6b7360301b66746273746f726560c81b0186612bba565b5190205f5160206134845f395f51905f52185460381c1690613295565b805190612d98565b6132b8565b6109bf915f60208251920192613329565b82516109bf93602001929091613329565b9061317561045291604051928391602083019586612bba565b5190205f5160206134845f395f51905f521890565b9064ffffffffff83116131e95764ffffffffff8060ff66ffffffffffffff85166131b48587612a6d565b878181106131df570301935b166028026038019416841b931b199166ffffffffffffff191617161790565b90039003936131c0565b82637149a3c160e01b5f5260045260245ffd5b9192901561325e5750815115613210575090565b3b156132195790565b60405162461bcd60e51b815260206004820152601d60248201527f416464726573733a2063616c6c20746f206e6f6e2d636f6e74726163740000006044820152606490fd5b8251909150156132715750805190602001fd5b60405162461bcd60e51b81526020600482015290819061047c9060248301906114ec565b610e6d9060405192601f19603f82860101166040528084525f6020850192612ccf565b9060158260801c9260018060801b031604604051926020840160208360051b8601016040528285525f5b8381106132ef5750505050565b6020600160159285518552019201920191906132e2565b6001810180821161089457905b81811061331e575050565b5f8155600101613313565b92919080613376575b505b602081101561335e578061334757505050565b5f1960039190911b1c825491518119169116179055565b909160016020918451815501920190601f1901613334565b60208110156133c7575b80156133325791926020839003905f19600384901b1c198460031b90811c908651901c908019835416911617815581831115610e1c5760010193019101601f19015f613332565b926133de906133d68560051c90565b0193601f1690565b61338056fefe158a7adba34e256807c8a149028d3162918713c3838afc643ce9f96716ebfd8c0b5119d4cec7b284c6b1b39252a03d1e2f2d7451a5895562524c113bb952be86425bff6b57326c7859e89024fe4f238ca327a1ae4a230180dd2f0e88aaa7d974620000000000000000000000000000436f6e666967416464726573736573003b4102da22e32d82fc925482184f16c09fd4281692720b87d124aef6da48a0f114e2fcc58e58e68ec7edc30c8d50dccc3ce2714a623ec81f46b6a63922d76569746200000000000000000000000000004c616e64496e666f00000000000000000e1f72f429eb97e64878619984a91e687ae91610348b9ff4216782cc96e49d07a264697066735822122065fee6f9d3ed449c76dabbb03ee142619081f20f5343d57787b5289d826435c664736f6c634300081c0033","linkReferences":{}},"methodIdentifiers":{"_msgSender()":"119df25f","_msgValue()":"45ec9354","_world()":"e1af802c","createUserTestScerarioLand(address,uint256,uint256,(uint256,uint256,uint256,uint256,uint256,bool,uint256,uint256)[])":"cc85a885","resetUserTestLandScenario(uint256,uint256,uint256,(uint256,uint256,uint256,uint256,uint256,bool,uint256,uint256)[])":"cbe3d244","supportsInterface(bytes4)":"01ffc9a7"},"id":141}