{"abi":[{"type":"function","name":"_msgSender","inputs":[],"outputs":[{"name":"sender","type":"address","internalType":"address"}],"stateMutability":"view"},{"type":"function","name":"_msgValue","inputs":[],"outputs":[{"name":"value","type":"uint256","internalType":"uint256"}],"stateMutability":"pure"},{"type":"function","name":"_world","inputs":[],"outputs":[{"name":"","type":"address","internalType":"address"}],"stateMutability":"view"},{"type":"function","name":"registerStoreHook","inputs":[{"name":"tableId","type":"bytes32","internalType":"ResourceId"},{"name":"hookAddress","type":"address","internalType":"contract IStoreHook"},{"name":"enabledHooksBitmap","type":"uint8","internalType":"uint8"}],"outputs":[],"stateMutability":"nonpayable"},{"type":"function","name":"registerTable","inputs":[{"name":"tableId","type":"bytes32","internalType":"ResourceId"},{"name":"fieldLayout","type":"bytes32","internalType":"FieldLayout"},{"name":"keySchema","type":"bytes32","internalType":"Schema"},{"name":"valueSchema","type":"bytes32","internalType":"Schema"},{"name":"keyNames","type":"string[]","internalType":"string[]"},{"name":"fieldNames","type":"string[]","internalType":"string[]"}],"outputs":[],"stateMutability":"nonpayable"},{"type":"function","name":"supportsInterface","inputs":[{"name":"interfaceId","type":"bytes4","internalType":"bytes4"}],"outputs":[{"name":"","type":"bool","internalType":"bool"}],"stateMutability":"pure"},{"type":"function","name":"unregisterStoreHook","inputs":[{"name":"tableId","type":"bytes32","internalType":"ResourceId"},{"name":"hookAddress","type":"address","internalType":"contract IStoreHook"}],"outputs":[],"stateMutability":"nonpayable"},{"type":"event","name":"Store_SetRecord","inputs":[{"name":"tableId","type":"bytes32","indexed":true,"internalType":"ResourceId"},{"name":"keyTuple","type":"bytes32[]","indexed":false,"internalType":"bytes32[]"},{"name":"staticData","type":"bytes","indexed":false,"internalType":"bytes"},{"name":"encodedLengths","type":"bytes32","indexed":false,"internalType":"EncodedLengths"},{"name":"dynamicData","type":"bytes","indexed":false,"internalType":"bytes"}],"anonymous":false},{"type":"event","name":"Store_SpliceDynamicData","inputs":[{"name":"tableId","type":"bytes32","indexed":true,"internalType":"ResourceId"},{"name":"keyTuple","type":"bytes32[]","indexed":false,"internalType":"bytes32[]"},{"name":"dynamicFieldIndex","type":"uint8","indexed":false,"internalType":"uint8"},{"name":"start","type":"uint48","indexed":false,"internalType":"uint48"},{"name":"deleteCount","type":"uint40","indexed":false,"internalType":"uint40"},{"name":"encodedLengths","type":"bytes32","indexed":false,"internalType":"EncodedLengths"},{"name":"data","type":"bytes","indexed":false,"internalType":"bytes"}],"anonymous":false},{"type":"event","name":"Store_SpliceStaticData","inputs":[{"name":"tableId","type":"bytes32","indexed":true,"internalType":"ResourceId"},{"name":"keyTuple","type":"bytes32[]","indexed":false,"internalType":"bytes32[]"},{"name":"start","type":"uint48","indexed":false,"internalType":"uint48"},{"name":"data","type":"bytes","indexed":false,"internalType":"bytes"}],"anonymous":false},{"type":"error","name":"EncodedLengths_InvalidLength","inputs":[{"name":"length","type":"uint256","internalType":"uint256"}]},{"type":"error","name":"FieldLayout_Empty","inputs":[]},{"type":"error","name":"FieldLayout_InvalidStaticDataLength","inputs":[{"name":"staticDataLength","type":"uint256","internalType":"uint256"},{"name":"computedStaticDataLength","type":"uint256","internalType":"uint256"}]},{"type":"error","name":"FieldLayout_StaticLengthDoesNotFitInAWord","inputs":[{"name":"index","type":"uint256","internalType":"uint256"}]},{"type":"error","name":"FieldLayout_StaticLengthIsNotZero","inputs":[{"name":"index","type":"uint256","internalType":"uint256"}]},{"type":"error","name":"FieldLayout_StaticLengthIsZero","inputs":[{"name":"index","type":"uint256","internalType":"uint256"}]},{"type":"error","name":"FieldLayout_TooManyDynamicFields","inputs":[{"name":"numFields","type":"uint256","internalType":"uint256"},{"name":"maxFields","type":"uint256","internalType":"uint256"}]},{"type":"error","name":"FieldLayout_TooManyFields","inputs":[{"name":"numFields","type":"uint256","internalType":"uint256"},{"name":"maxFields","type":"uint256","internalType":"uint256"}]},{"type":"error","name":"Schema_InvalidLength","inputs":[{"name":"length","type":"uint256","internalType":"uint256"}]},{"type":"error","name":"Schema_StaticTypeAfterDynamicType","inputs":[]},{"type":"error","name":"Slice_OutOfBounds","inputs":[{"name":"data","type":"bytes","internalType":"bytes"},{"name":"start","type":"uint256","internalType":"uint256"},{"name":"end","type":"uint256","internalType":"uint256"}]},{"type":"error","name":"Store_IndexOutOfBounds","inputs":[{"name":"length","type":"uint256","internalType":"uint256"},{"name":"accessedIndex","type":"uint256","internalType":"uint256"}]},{"type":"error","name":"Store_InvalidFieldNamesLength","inputs":[{"name":"expected","type":"uint256","internalType":"uint256"},{"name":"received","type":"uint256","internalType":"uint256"}]},{"type":"error","name":"Store_InvalidKeyNamesLength","inputs":[{"name":"expected","type":"uint256","internalType":"uint256"},{"name":"received","type":"uint256","internalType":"uint256"}]},{"type":"error","name":"Store_InvalidResourceType","inputs":[{"name":"expected","type":"bytes2","internalType":"bytes2"},{"name":"resourceId","type":"bytes32","internalType":"ResourceId"},{"name":"resourceIdString","type":"string","internalType":"string"}]},{"type":"error","name":"Store_InvalidSplice","inputs":[{"name":"startWithinField","type":"uint40","internalType":"uint40"},{"name":"deleteCount","type":"uint40","internalType":"uint40"},{"name":"fieldLength","type":"uint40","internalType":"uint40"}]},{"type":"error","name":"Store_InvalidStaticDataLength","inputs":[{"name":"expected","type":"uint256","internalType":"uint256"},{"name":"received","type":"uint256","internalType":"uint256"}]},{"type":"error","name":"Store_InvalidValueSchemaDynamicLength","inputs":[{"name":"expected","type":"uint256","internalType":"uint256"},{"name":"received","type":"uint256","internalType":"uint256"}]},{"type":"error","name":"Store_InvalidValueSchemaLength","inputs":[{"name":"expected","type":"uint256","internalType":"uint256"},{"name":"received","type":"uint256","internalType":"uint256"}]},{"type":"error","name":"Store_InvalidValueSchemaStaticLength","inputs":[{"name":"expected","type":"uint256","internalType":"uint256"},{"name":"received","type":"uint256","internalType":"uint256"}]},{"type":"error","name":"Store_TableAlreadyExists","inputs":[{"name":"tableId","type":"bytes32","internalType":"ResourceId"},{"name":"tableIdString","type":"string","internalType":"string"}]},{"type":"error","name":"Store_TableNotFound","inputs":[{"name":"tableId","type":"bytes32","internalType":"ResourceId"},{"name":"tableIdString","type":"string","internalType":"string"}]},{"type":"error","name":"UnauthorizedCallContext","inputs":[]},{"type":"error","name":"World_AccessDenied","inputs":[{"name":"resource","type":"string","internalType":"string"},{"name":"caller","type":"address","internalType":"address"}]},{"type":"error","name":"World_AlreadyInitialized","inputs":[]},{"type":"error","name":"World_CallbackNotAllowed","inputs":[{"name":"functionSelector","type":"bytes4","internalType":"bytes4"}]},{"type":"error","name":"World_DelegationNotFound","inputs":[{"name":"delegator","type":"address","internalType":"address"},{"name":"delegatee","type":"address","internalType":"address"}]},{"type":"error","name":"World_FunctionSelectorAlreadyExists","inputs":[{"name":"functionSelector","type":"bytes4","internalType":"bytes4"}]},{"type":"error","name":"World_FunctionSelectorNotFound","inputs":[{"name":"functionSelector","type":"bytes4","internalType":"bytes4"}]},{"type":"error","name":"World_InsufficientBalance","inputs":[{"name":"balance","type":"uint256","internalType":"uint256"},{"name":"amount","type":"uint256","internalType":"uint256"}]},{"type":"error","name":"World_InterfaceNotSupported","inputs":[{"name":"contractAddress","type":"address","internalType":"address"},{"name":"interfaceId","type":"bytes4","internalType":"bytes4"}]},{"type":"error","name":"World_InvalidNamespace","inputs":[{"name":"namespace","type":"bytes14","internalType":"bytes14"}]},{"type":"error","name":"World_InvalidResourceId","inputs":[{"name":"resourceId","type":"bytes32","internalType":"ResourceId"},{"name":"resourceIdString","type":"string","internalType":"string"}]},{"type":"error","name":"World_InvalidResourceType","inputs":[{"name":"expected","type":"bytes2","internalType":"bytes2"},{"name":"resourceId","type":"bytes32","internalType":"ResourceId"},{"name":"resourceIdString","type":"string","internalType":"string"}]},{"type":"error","name":"World_ResourceAlreadyExists","inputs":[{"name":"resourceId","type":"bytes32","internalType":"ResourceId"},{"name":"resourceIdString","type":"string","internalType":"string"}]},{"type":"error","name":"World_ResourceNotFound","inputs":[{"name":"resourceId","type":"bytes32","internalType":"ResourceId"},{"name":"resourceIdString","type":"string","internalType":"string"}]},{"type":"error","name":"World_SystemAlreadyExists","inputs":[{"name":"system","type":"address","internalType":"address"}]},{"type":"error","name":"World_UnlimitedDelegationNotAllowed","inputs":[]}],"bytecode":{"object":"0x60a080604052346022573060805261244f90816100278239608051816108e10152f35b5f80fdfe60806040526004361015610011575f80fd5b5f3560e01c806301ffc9a714610084578063056091291461007f5780630ba51f491461007a578063119df25f1461007557806345ec935414610070578063530f4b601461006b5763e1af802c14610066575f80fd5b610775565b61061f565b610600565b6105d4565b610239565b6100f2565b346100d85760203660031901126100d85760043563ffffffff60e01b81168091036100d85763b5dee12760e01b81149081156100c7575b50151560805260206080f35b6301ffc9a760e01b149050816100bb565b5f80fd5b602435906001600160a01b03821682036100d857565b346100d85760403660031901126100d85760043561010e6100dc565b6101166108de565b610127610121610bfd565b8361091f565b6001600160a01b031690610139610c21565b8051156102045761015d61015582846020610162950152611c4b565b805190611cf0565b611d40565b61016c8151610c6b565b5f935f5b83518110156101f557816001600160a01b036101ae6101a86101a3610195868a610c57565b516001600160581b03191690565b610c14565b60601c90565b16036101bd575b600101610170565b94600180916101ec6101d26101958a89610c57565b6101dc8388610c57565b6001600160581b03199091169052565b019590506101b5565b610202838688825261170e565b005b610c43565b9181601f840112156100d8578235916001600160401b0383116100d8576020808501948460051b0101116100d857565b346100d85760c03660031901126100d8576004356064356044356024356084356001600160401b0381116100d857610275903690600401610209565b9060a4356001600160401b0381116100d857610295903690600401610209565b9261029e6108de565b608088901b6001600160801b031916156105a3576102eb926102e3916102cb6102c68b610b2f565b610b45565b6102dc6102d6610bfd565b8b61091f565b369161083b565b92369161083b565b906001600160f01b03198616613a3160f11b8114159081610593575b5061055d5761031583610d88565b61031e84610ec2565b61032785610fac565b805161033285611060565b808203610548575050815161034684611060565b90818103610530575061035886611060565b9080820361051b57505061036f8560e81c60ff1690565b61037c8460e81c60ff1690565b9081810361050257506103928660e01c60ff1690565b61039f8560e01c60ff1690565b8082036104ed5750505f5b8181106104995750506001600160f01b038616613a3160f11b8117906103d790611bdd60f21b1791610cfd565b908115610489575b50610441579361043c936104289361043661040b946104196102029a9960405197889160208301610b9e565b03601f1981018852876107e1565b60405196879160208301610b9e565b03601f1981018752866107e1565b866110e4565b61116d565b85604051906104698261045b836020830160209181520190565b03601f1981018452836107e1565b61048560405192839263dfaaf9cf60e01b8452600484016107b3565b0390fd5b6104939150610cfd565b5f6103df565b6104a38186611074565b6104b56104b0838a611082565b6110ad565b81036104c457506001016103aa565b6104d46104b06104ea938a611082565b6309531f6d60e21b5f5290600452602452604490565b5ffd5b63edea958760e01b5f5260045260245260445ffd5b6365cc0adf60e01b5f526104ea91600452602452604490565b631e53a9b160e31b5f5260045260245260445ffd5b621f7b1360ea1b5f526104ea91600452602452604490565b6301ee597360e31b5f5260045260245260445ffd5b85604051906105778261045b836020830160209181520190565b6104856040519283926331b4668360e01b845260048401610b7c565b611bdd60f21b141590505f610307565b876105ad81610a7a565b604051637256034f60e11b815291829161048591600484016107b3565b5f9103126100d857565b346100d8575f3660031901126100d85760206105ee610bfd565b6040516001600160a01b039091168152f35b346100d8575f3660031901126100d8576020604051601f193601358152f35b346100d85760603660031901126100d85760043561063b6100dc565b6044359060ff821682036100d8576106516108de565b6001600160a01b031661066381611ae2565b80610765575b80610756575b15610739576106806102c684610b2f565b61069161068b610bfd565b8461091f565b6145cf60f11b6001600160f01b031984160161071f576106b76106b384610cfd565b1590565b6106e95761020292916106e39160601b6001600160601b03191660589190911b60ff60581b1617610c14565b90611389565b82604051906107038261045b836020830160209181520190565b6104856040519283926341e713ad60e01b8452600484016107b3565b82604051906105778261045b836020830160209181520190565b6374b5e6ff60e01b5f52600452630c399cb560e11b60245260445ffd5b5061076081611b70565b61066f565b5061076f81611b3f565b15610669565b346100d8575f3660031901126100d85760206105ee6116d9565b805180835260209291819084018484015e5f828201840152601f01601f1916010190565b6040906107ca93928152816020820152019061078f565b90565b634e487b7160e01b5f52604160045260245ffd5b601f909101601f19168101906001600160401b0382119082101761080457604052565b6107cd565b6001600160401b0381116108045760051b60200190565b6001600160401b03811161080457601f01601f191660200190565b9291909261084884610809565b9361085660405195866107e1565b602085828152019060051b8201918383116100d85780915b83831061087c575050505050565b82356001600160401b0381116100d857820185601f820112156100d8578035916108a583610820565b6108b260405191826107e1565b83815287602085850101116100d8575f602085819682809701838601378301015281520192019161086e565b307f00000000000000000000000000000000000000000000000000000000000000006001600160a01b03161461091057565b634f81d01360e11b5f5260045ffd5b600160801b600160f01b038116616e7360f01b1761093b610c21565b805115610204576020810191909152610970906f4e616d6573706163654f776e65720000661d189ddbdc9b1960ca1b01611bd4565b916109825f630500400560da1b611c15565b92806020851015610a0d575b5080548460031b1b9360200390816014116109f7575b50506001600160a01b03169160601c8290036109be575050565b906109cb6109ed92610a7a565b9060405192839263d787b73760e01b845260406004850152604484019061078f565b9060248301520390fd5b60019094929401549060031b1c17915f806109a4565b601f85169460051c0190505f61098e565b634e487b7160e01b5f52601160045260245ffd5b91908201809211610a3f57565b610a1e565b60405190610a536040836107e1565b60068252651e3937b7ba1f60d11b6020830152565b805191908290602001825e015f815290565b6001600160801b0319608082901b16906107ca906001600160901b0319601082901b1680610b205750610aab610a44565b925b6001600160801b03198116610b0f5750610b01610ac8610a44565b6001610af360405196879561ffff60f01b166020870152601d60f91b60228701526023860190610a68565b601d60f91b81520190610a68565b03601f1981018352826107e1565b610b1b610b0191610c9d565b610ac8565b610b2990610c9d565b92610aad565b600160801b600160f01b0316616e7360f01b1790565b610b4e81610cfd565b15610b565750565b610b5f81610a7a565b604051637df8867360e11b815291829161048591600484016107b3565b6060906107ca9392613a3160f11b82526020820152816040820152019061078f565b602081016020825282518091526040820191602060408360051b8301019401925f915b838310610bd057505050505090565b9091929394602080610bee600193603f19868203018752895161078f565b97019301930191939290610bc1565b36603319013560601c908115610c0f57565b339150565b6001600160581b03191690565b60408051909190610c3283826107e1565b6001815291601f1901366020840137565b634e487b7160e01b5f52603260045260245ffd5b80518210156102045760209160051b010190565b90610c7582610809565b610c8260405191826107e1565b8281528092610c93601f1991610809565b0190602036910137565b5f5b60108110610cd0575b6040516001600160801b0319909216602083015260108252610ccb6030836107e1565b815290565b6001600160801b03198216600382901b1b6001600160f81b03191615610cf857600101610c9f565b610ca8565b610d05610c21565b805115610204576020810191909152610d2b905f5160206123da5f395f51905f52611bd4565b610d3c5f630101000160d81b611c15565b90806020831015610d77575b5080548260031b1b916020039081600111610d66575b505060f81c90565b600101549060031b1c175f80610d5e565b601f83169260051c0190505f610d48565b8015610eb357610d9b8160e01c60ff1690565b60058111610e9c57610dba610db38360e81c60ff1690565b9182610a32565b601c8111610e8557505f5f5b828110610e2b5750610dd88360f01c90565b808203610e165750505b601c8110610dee575050565b610df88183611074565b610e0457600101610de2565b631d8d44db60e01b5f5260045260245ffd5b6375d4b26f60e11b5f5260045260245260445ffd5b929190610e388484611074565b9081610e52576353b2dd0560e01b5f52600485905260245ffd5b6020829593949511610e7157600191610e6a91610a32565b9101610dc6565b637237f23760e01b5f52600483905260245ffd5b63ecd893b960e01b5f52600452601c60245260445ffd5b6333c9efb160e11b5f52600452600560245260445ffd5b63500cf26d60e11b5f5260045ffd5b610ecf8160e01c60ff1690565b9060058211610f9857610eef610ee88260e81c60ff1690565b9283610a32565b91601c8311610f84575f5f5b828110610f5c5750610f0d8360f01c90565b809103610f4a57505b828110610f2257505050565b610f2f6104b08284611082565b610f3b57600101610f16565b6307a25a1160e51b5f5260045ffd5b63d498615960e01b5f5260045260245ffd5b90610f6a6104b08386611082565b908115610f3b57600191610f7d91610a32565b9101610efb565b63d498615960e01b5f52600483905260245ffd5b63d498615960e01b5f52600482905260245ffd5b801561104c57610fbf8160e01c60ff1690565b9060058211610f9857610fd8610ee88260e81c60ff1690565b91601c8311610f84575f5f5b8281106110245750610ff68360f01c90565b809103610f4a57505b82811061100b57505050565b6110186104b08284611082565b610f3b57600101610fff565b906110326104b08386611082565b908115610f3b5760019161104591610a32565b9101610fe4565b63d498615960e01b5f90815260045260245ffd5b60ff9081808260e01c169160e81c16011690565b60ff91601b0360031b1c1690565b60ff91601b0360031b1c1660c68110156110995790565b634e487b7160e01b5f52602160045260245ffd5b60c681101561109957606160ff821610156110cb57601f1660010190565b60c6811015611099576061036110e057601490565b5f90565b9490919261112b9493604051936020850152604084015260608301526060825261110f6080836107e1565b61113f8351936111318351936040519788936020850190610a68565b90610a68565b03601f1981018652856107e1565b611147610c21565b928351156102045761116b9560208501528160601b918160381b910117179161186a565b565b90611176610c21565b9182511561020457602083015260405191600160f81b6020840152600183526111a06021846107e1565b5f926111b9825f5160206123da5f395f51905f52611bd4565b926111d05f5160206123da5f395f51905f52611ff0565b905f5b8251811015611280576111ec6101a36101958386610c57565b6111fc816004809160581c161490565b61120a575b506001016111d3565b60601c90813b156100d85760405163964f667d60e01b8152915f9083908183816112478b8f8e5f5160206123da5f395f51905f52600486016121df565b03925af191821561127b57600192611261575b5090611201565b8061126f5f611275936107e1565b806105ca565b5f61125a565b61185f565b5060405190946112dd918491905f5160206123da5f395f51905f52907f8c0b5119d4cec7b284c6b1b39252a03d1e2f2d7451a5895562524c113bb952be90806112cb868d8c846121ae565b0390a265ffffffffffff8816906122ef565b5f5b8151811015611381576112f86101a36101958385610c57565b611308816008809160581c161490565b611316575b506001016112df565b60601c90813b156100d85760405163a8ba872160e01b8152915f9083908183816113538a8e8d5f5160206123da5f395f51905f52600486016121df565b03925af191821561127b5760019261136d575b509061130d565b8061126f5f61137b936107e1565b5f611366565b505050509050565b919091611394610c21565b908151156102045760208201526040519260018060581b0319166020840152601583526113c26035846107e1565b60405160208101906113e681610b01855f5160206123fa5f395f51905f5286611ba1565b5190205f5160206123ba5f395f51905f521854603881901c64ffffffffff16906114105f82612199565b61142561141d5f83611797565b875190610a32565b81811415959086806116b9575b61169c5764ffffffffff85169280841161167f5750611452905f85612300565b876114695f5160206123fa5f395f51905f52611ff0565b935f5b8551811015611523576114856101a36101958389610c57565b611495816010809160581c161490565b6114a3575b5060010161146c565b60601c9250823b156100d8575f88819482808f6114f38f918e6040519b8c9889978896630abd6b4560e31b88526953746f7265486f6f6b7360301b66746273746f726560c81b016004890161224e565b03925af190811561127b578b9360019261150f575b509061149a565b8061126f5f61151d936107e1565b5f611508565b509091945061159e9297600161167a575b875f51602061237a5f395f51905f5260405180611579878b5f6953746f7265486f6f6b7360301b66746273746f726560c81b01978165ffffffffffff8c16918761229f565b0390a261165c575b6115995f885f5160206123fa5f395f51905f52612147565b6122ef565b5f5b8151811015611653576115b96101a36101958385610c57565b6115c9816020809160581c161490565b6115d7575b506001016115a0565b60601c90813b156100d8575f85819382808a6116258e8b6040519a8b9889978896636358453360e01b88526953746f7265486f6f6b7360301b66746273746f726560c81b016004890161224e565b03925af191821561127b5760019261163f575b50906115ce565b8061126f5f61164d936107e1565b5f611638565b50505050509050565b84611674885f5160206123fa5f395f51905f52612119565b55611581565b611534565b637e8578d360e01b5f5260045264ffffffffff851660245260445ffd5b6104ea855f64ffffffffff86632994042d60e21b83521691612233565b50826116d26116c85f88612217565b64ffffffffff1690565b1415611432565b7f629a4c26e296b22a8e0856e9f6ecb2d1008d7e00081111962cd175fa7488e175546001600160a01b0316806107ca57503390565b919091611719610c21565b908151156102045760208201528251906015820282810460151483151715610a3f5791604051926020840190601f19603f8287010116604052845260205f9601955b828110611780575093945061116b93505f5160206123fa5f395f51905f529050611d8e565b60206001601592895185520197019101909561175b565b91908203918211610a3f57565b90602080835192838152019201905f5b8181106117c15750505090565b82518452602093840193909201916001016117b4565b906107ca94926117f2611800926080855260808501906117a4565b90838203602085015261078f565b926040820152606081840391015261078f565b9695949061185a9361183960a09694611847938b5260c060208c015260c08b01906117a4565b9089820360408b015261078f565b916060880152868203608088015261078f565b930152565b6040513d5f823e3d90fd5b939290916118845f51602061239a5f395f51905f52611ff0565b5f5b815181101561193e5761189f6101a36101958385610c57565b6118af816001809160581c161490565b6118bd575b50600101611886565b60601c90813b156100d8575f85899386838a611910604051988996879586946315c19b2760e21b86526503001811010160cd1b93655461626c657360501b66746273746f726560c81b0160048801611813565b03925af191821561127b5760019261192a575b50906118b4565b8061126f5f611938936107e1565b5f611923565b506040515f51602061239a5f395f51905f52907f8dbb3a9672eebfd3773e72dd9c102393436816d832c7ba9e1e1ac8fcadcac7a9908061198187878a8d856117d7565b0390a26119aa61199e875f51602061239a5f395f51905f52611bd4565b85516020870191612014565b6002611a6c565b505f5b8151811015611653576119cd6101a36101958385610c57565b6119dd816002809160581c161490565b6119eb575b506001016119b4565b60601c90813b156100d8575f85899386838a611a3e60405198899687958694635b28cdaf60e01b86526503001811010160cd1b93655461626c657360501b66746273746f726560c81b0160048801611813565b03925af191821561127b57600192611a58575b50906119e2565b8061126f5f611a66936107e1565b5f611a51565b82611a84885f51602061239a5f395f51905f52612119565b555f602085015b8260ff831610611a9c5750506119b1565b60ff90600190611ad990611abe858d5f51602061239a5f395f51905f52612147565b90611ad481611acd888c612199565b8094612014565b610a32565b92011690611a8b565b5f602091604051838101906301ffc9a760e01b82526301ffc9a760e01b602482015260248152611b136044826107e1565b5191617530fa5f513d82611b33575b5081611b2c575090565b9050151590565b6020111591505f611b22565b5f602091604051838101906301ffc9a760e01b825263ffffffff60e01b602482015260248152611b136044826107e1565b5f602091604051838101906301ffc9a760e01b8252630c399cb560e11b602482015260248152611b136044826107e1565b60209181520160208251919201905f5b818110611bbe5750505090565b8251845260209384019390920191600101611bb1565b90611bed610b0191604051928391602083019586611ba1565b5190207f86425bff6b57326c7859e89024fe4f238ca327a1ae4a230180dd2f0e88aaa7d91890565b5f915f915b60ff82168310611c2a5750505090565b909192611c378483611074565b8101809111610a3f57926001019190611c1a565b64ffffffffff611c80611c6c5f845f5160206123fa5f395f51905f52612147565b925f5160206123fa5f395f51905f52612119565b5460ff5f166028026038011c1660405191601f19603f838501011660405281835260208301915b6020811015611cd85780611cbc575b50505090565b5f199060031b1c908183511691199054161790525f8080611cb6565b919060018160209254845201910191601f1901611ca7565b80518211611d0b5760200160801b9060018060801b03161790565b6040516323230fa360e01b815260606004820152918291611d3090606484019061078f565b905f602484015260448301520390fd5b60158160801c9160018060801b031604604051916020830160208360051b8501016040528284525f5b838110611d77575050505090565b602060016015928551855201920192019190611d69565b929091611d9b8385612119565b54611da65f82612199565b9364ffffffffff8516936145cf60f11b6001600160f01b0319881601611fd657611ddb611dd38688611797565b855190610a32565b8087141580978198611fbf575b50611faa57611df8905f85612300565b90611e0288611ff0565b915f5b8351811015611ea157611e1e6101a36101958387610c57565b611e2e816010809160581c161490565b611e3c575b50600101611e05565b60601c90813b156100d8575f80809388828f611e738f8f908f906040519b8c998a988997630abd6b4560e31b89526004890161224e565b03925af191821561127b57600192611e8d575b5090611e33565b8061126f5f611e9b936107e1565b5f611e86565b509350956001611fa5575b875f51602061237a5f395f51905f5260405180611ed689898c65ffffffffffff5f165f8c8761229f565b0390a2611f94575b611eee845f61159981868c612147565b5f5b8151811015611f8a57611f096101a36101958385610c57565b611f19816020809160581c161490565b611f27575b50600101611ef0565b60601c90813b156100d8575f80809386828d611f5c8c8c8f6040519b8c998a988997636358453360e01b89526004890161224e565b03925af191821561127b57600192611f76575b5090611f1e565b8061126f5f611f84936107e1565b5f611f6f565b5050505050509050565b82611f9f8389612119565b55611ede565b611eac565b6104ea86632994042d60e21b5f52805f612233565b9050611fce6116c8885f612217565b14155f611de8565b86604051906105778261045b836020830160209181520190565b611ff8610c21565b80511561020457610155816107ca93602061015d940152611c4b565b91905b6020811015612040578061202a57505050565b5f199060031b1c90818354169119905116179055565b909160016020918451815501920190601f1901612017565b929190806120a5575b505b602081101561208d578061207657505050565b5f1960039190911b1c825491518119169116179055565b909160016020918451815501920190601f1901612063565b60208110156120fd575b80156120615791926020839003905f19600384901b1c198460031b90811c908651901c9080198354169116178155818311156120f65760010193019101601f19015f612061565b5050505050565b926121149061210c8560051c90565b0193601f1690565b6120af565b90612132610b0191604051928391602083019586611ba1565b5190205f5160206123ba5f395f51905f521890565b610b016121817f3b4102da22e32d82fc925482184f16c09fd4281692720b87d124aef6da48a0f19493604051928391602083019586611ba1565b51902060f89190911b6001600160f81b031916181890565b60ff64ffffffffff92166028026038011c1690565b65ffffffffffff6121cb6107ca95936060845260608401906117a4565b93166020820152604081840391015261078f565b906122036107ca959365ffffffffffff9284526080602085015260808401906117a4565b93166040820152606081840391015261078f565b9064ffffffffff8091169116019064ffffffffff8211610a3f57565b64ffffffffff90811660045290811660245216604452606490565b9364ffffffffff929060ff61227a85936107ca9b99959a979a895260e060208a015260e08901906117a4565b9816604087015216606085015216608083015260a082015260c081840391015261078f565b929365ffffffffffff6107ca979560ff6122ca64ffffffffff9599969960c0895260c08901906117a4565b98166020870152166040850152166060830152608082015260a081840391015261078f565b825161116b93602001929091612058565b9064ffffffffff83116123665764ffffffffff8060ff66ffffffffffffff85168061232b8688612199565b90888281106123595790500301935b166028026038019416841b931b199166ffffffffffffff191617161790565b919092500390039361233a565b82637149a3c160e01b5f5260045260245ffdfefe158a7adba34e256807c8a149028d3162918713c3838afc643ce9f96716ebfd746273746f72650000000000000000005461626c65730000000000000000000014e2fcc58e58e68ec7edc30c8d50dccc3ce2714a623ec81f46b6a63922d76569746273746f72650000000000000000005265736f757263654964730000000000746273746f726500000000000000000053746f7265486f6f6b73000000000000a2646970667358221220f65684bf1474977aec607eadd5fa2aa0e6d234244147d1f885e08da4a3ad527764736f6c634300081c0033","linkReferences":{}},"methodIdentifiers":{"_msgSender()":"119df25f","_msgValue()":"45ec9354","_world()":"e1af802c","registerStoreHook(bytes32,address,uint8)":"530f4b60","registerTable(bytes32,bytes32,bytes32,bytes32,string[],string[])":"0ba51f49","supportsInterface(bytes4)":"01ffc9a7","unregisterStoreHook(bytes32,address)":"05609129"},"id":135}