{"abi":[{"type":"function","name":"_msgSender","inputs":[],"outputs":[{"name":"sender","type":"address","internalType":"address"}],"stateMutability":"view"},{"type":"function","name":"_msgValue","inputs":[],"outputs":[{"name":"value","type":"uint256","internalType":"uint256"}],"stateMutability":"pure"},{"type":"function","name":"_world","inputs":[],"outputs":[{"name":"","type":"address","internalType":"address"}],"stateMutability":"view"},{"type":"function","name":"installModule","inputs":[{"name":"module","type":"address","internalType":"contract IModule"},{"name":"encodedArgs","type":"bytes","internalType":"bytes"}],"outputs":[],"stateMutability":"nonpayable"},{"type":"function","name":"supportsInterface","inputs":[{"name":"interfaceId","type":"bytes4","internalType":"bytes4"}],"outputs":[{"name":"","type":"bool","internalType":"bool"}],"stateMutability":"pure"},{"type":"event","name":"Store_SpliceStaticData","inputs":[{"name":"tableId","type":"bytes32","indexed":true,"internalType":"ResourceId"},{"name":"keyTuple","type":"bytes32[]","indexed":false,"internalType":"bytes32[]"},{"name":"start","type":"uint48","indexed":false,"internalType":"uint48"},{"name":"data","type":"bytes","indexed":false,"internalType":"bytes"}],"anonymous":false},{"type":"error","name":"Slice_OutOfBounds","inputs":[{"name":"data","type":"bytes","internalType":"bytes"},{"name":"start","type":"uint256","internalType":"uint256"},{"name":"end","type":"uint256","internalType":"uint256"}]},{"type":"error","name":"UnauthorizedCallContext","inputs":[]},{"type":"error","name":"World_InterfaceNotSupported","inputs":[{"name":"contractAddress","type":"address","internalType":"address"},{"name":"interfaceId","type":"bytes4","internalType":"bytes4"}]}],"bytecode":{"object":"0x60a0806040523460225730608052610c6a908161002782396080518161020d0152f35b5f80fdfe60806040526004361015610011575f80fd5b5f3560e01c806301ffc9a714610064578063119df25f1461005f57806345ec93541461005a5780638da798da146100555763e1af802c14610050575f80fd5b6101f0565b610168565b6100f2565b6100c6565b346100b85760203660031901126100b85760043563ffffffff60e01b81168091036100b85763b5dee12760e01b81149081156100a7575b50151560805260206080f35b6301ffc9a760e01b1490508161009b565b5f80fd5b5f9103126100b857565b346100b8575f3660031901126100b85760206100e0610338565b6040516001600160a01b039091168152f35b346100b8575f3660031901126100b8576020604051601f193601358152f35b634e487b7160e01b5f52604160045260245ffd5b601f909101601f19168101906001600160401b0382119082101761014857604052565b610111565b6001600160401b03811161014857601f01601f191660200190565b346100b85760403660031901126100b8576004356001600160a01b03811681036100b857602435906001600160401b0382116100b857366023830112156100b8578160040135906101b88261014d565b916101c66040519384610125565b80835236602482860101116100b8576020815f9260246101ee9701838701378401015261020a565b005b346100b8575f3660031901126100b85760206100e06104e2565b307f00000000000000000000000000000000000000000000000000000000000000006001600160a01b0316146102f1576001600160a01b03169061024d82610517565b806102e1575b806102d2575b156102b557906102b3916102a561026e610338565b6040516313861fb560e01b60208201529084906102a0836102928760248301610324565b03601f198101855284610125565b61034f565b50602081519101209061043e565b565b506374b5e6ff60e01b5f5260045262dfba3960e71b60245260445ffd5b506102dc826105a5565b610259565b506102eb82610574565b15610253565b634f81d01360e11b5f5260045ffd5b805180835260209291819084018484015e5f828201840152601f01601f1916010190565b906020610335928181520190610300565b90565b36603319013560601c90811561034a57565b339150565b905f9283809361039660346020604051809482808301988051918291018a5e82019060018060601b03199060601b1683820152868482015203016014810184520182610125565b51925af13d156103d0573d906103ab8261014d565b916103b96040519384610125565b82523d5f602084013e5b156103cb5790565b6104b1565b6060906103c3565b6001600160401b0381116101485760051b60200190565b604080519091906104008382610125565b6001815291601f1901366020840137565b634e487b7160e01b5f52603260045260245ffd5b80518210156104395760209160051b010190565b610411565b6040519061044d606083610125565b6002825261045b60026103d8565b602083019190601f1901368337825115610439576001600160a01b03169052805160011015610439576040818101929092529051600160f81b6020820152600181526102b3916104ac602183610125565b6104b9565b602081519101fd5b6102b391905f906f496e7374616c6c65644d6f64756c6573661d189ddbdc9b1960ca1b0161067c565b7f629a4c26e296b22a8e0856e9f6ecb2d1008d7e00081111962cd175fa7488e175546001600160a01b03168061033557503390565b5f602091604051838101906301ffc9a760e01b82526301ffc9a760e01b602482015260248152610548604482610125565b5191617530fa5f513d82610568575b5081610561575090565b9050151590565b6020111591505f610557565b5f602091604051838101906301ffc9a760e01b825263ffffffff60e01b602482015260248152610548604482610125565b5f602091604051838101906301ffc9a760e01b825262dfba3960e71b602482015260248152610548604482610125565b90602080835192838152019201905f5b8181106105f25750505090565b82518452602093840193909201916001016105e5565b65ffffffffffff61062561033595936060845260608401906105d5565b931660208201526040818403910152610300565b9061065d610335959365ffffffffffff9284526080602085015260808401906105d5565b931660408201526060818403910152610300565b6040513d5f823e3d90fd5b92939291906001600160f01b03198316611bdd60f21b14610897576106a18184610909565b936106ab84610982565b90865f5b83518110156107a6576106e36106d66106c88387610425565b516001600160581b03191690565b6001600160581b03191690565b6106f3816004809160581c161490565b610701575b506001016106af565b90915061073c9061073090819061072a906001600160581b0319165b6001600160601b03191690565b60601c90565b6001600160a01b031690565b90813b156100b8575f868a9387838b61076b6040519889968795869463964f667d60e01b865260048601610639565b03925af19081156107a1578992600192610787575b50906106f8565b806107955f61079b93610125565b806100bc565b5f610780565b610671565b506107dd9196865f516020610c155f395f51905f52604051806107cb868b8b84610608565b0390a265ffffffffffff861690610a43565b5f5b815181101561088e576107f86106d66106c88385610425565b610808816008809160581c161490565b610816575b506001016107df565b6108339061073090819061072a906001600160581b03191661071d565b90813b156100b85760405163a8ba872160e01b8152915f9083908183816108608e8c8c8f60048601610639565b03925af19182156107a15760019261087a575b509061080d565b806107955f61088893610125565b5f610873565b50505050509050565b6108b75f516020610c155f395f51905f5293949560405193849384610608565b0390a2565b6953746f7265486f6f6b7360301b66746273746f726560c81b0181528151602091820192909101905f5b8181106108f35750505090565b82518452602093840193909201916001016108e6565b90604051906020820192835281604081019160208151939101925f5b818110610969575050610941925003601f198101835282610125565b5190207f86425bff6b57326c7859e89024fe4f238ca327a1ae4a230180dd2f0e88aaa7d91890565b8451835260209485019486945090920191600101610925565b61098a6103ef565b80511561043957610a3681610335936020610a3e94015264ffffffffff60405160208101906109cb816109bd86856108bc565b03601f198101835282610125565b5190207f3b4102da22e32d82fc925482184f16c09fd4281692720b87d124aef6da48a0f11891604051610a06816109bd6020820194856108bc565b5190207f14e2fcc58e58e68ec7edc30c8d50dccc3ce2714a623ec81f46b6a63922d76569185460381c1690610bb3565b805190610a54565b610aa4565b82516102b393602001929091610af2565b80518211610a6f5760200160801b9060018060801b03161790565b6040516323230fa360e01b815260606004820152918291610a94906064840190610300565b905f602484015260448301520390fd5b60158160801c9160018060801b031604604051916020830160208360051b8501016040528284525f5b838110610adb575050505090565b602060016015928551855201920192019190610acd565b92919080610b3f575b505b6020811015610b275780610b1057505050565b5f1960039190911b1c825491518119169116179055565b909160016020918451815501920190601f1901610afd565b6020811015610b97575b8015610afb5791926020839003905f19600384901b1c198460031b90811c908651901c908019835416911617815581831115610b905760010193019101601f19015f610afb565b5050505050565b92610bae90610ba68560051c90565b0193601f1690565b610b49565b60408051838101603f01601f1916909152828152916103359160208401915b6020811015610bfc5780610be557505050565b5f1960039190911b1c825191548119169116179052565b919060018160209254845201910191601f1901610bd256fe8c0b5119d4cec7b284c6b1b39252a03d1e2f2d7451a5895562524c113bb952bea26469706673582212202658612da16ad891ed51dfa8cbc359de0c4f6c8748f7a062807ba129fa540ae264736f6c634300081c0033","linkReferences":{}},"methodIdentifiers":{"_msgSender()":"119df25f","_msgValue()":"45ec9354","_world()":"e1af802c","installModule(address,bytes)":"8da798da","supportsInterface(bytes4)":"01ffc9a7"},"id":134}