{"abi":[{"type":"function","name":"_msgSender","inputs":[],"outputs":[{"name":"sender","type":"address","internalType":"address"}],"stateMutability":"view"},{"type":"function","name":"_msgValue","inputs":[],"outputs":[{"name":"value","type":"uint256","internalType":"uint256"}],"stateMutability":"pure"},{"type":"function","name":"_world","inputs":[],"outputs":[{"name":"","type":"address","internalType":"address"}],"stateMutability":"view"},{"type":"function","name":"onERC1155BatchReceived","inputs":[{"name":"","type":"address","internalType":"address"},{"name":"","type":"address","internalType":"address"},{"name":"","type":"uint256[]","internalType":"uint256[]"},{"name":"","type":"uint256[]","internalType":"uint256[]"},{"name":"","type":"bytes","internalType":"bytes"}],"outputs":[{"name":"","type":"bytes4","internalType":"bytes4"}],"stateMutability":"nonpayable"},{"type":"function","name":"onERC1155Received","inputs":[{"name":"","type":"address","internalType":"address"},{"name":"","type":"address","internalType":"address"},{"name":"","type":"uint256","internalType":"uint256"},{"name":"","type":"uint256","internalType":"uint256"},{"name":"","type":"bytes","internalType":"bytes"}],"outputs":[{"name":"","type":"bytes4","internalType":"bytes4"}],"stateMutability":"nonpayable"},{"type":"function","name":"supportsInterface","inputs":[{"name":"interfaceId","type":"bytes4","internalType":"bytes4"}],"outputs":[{"name":"","type":"bool","internalType":"bool"}],"stateMutability":"pure"}],"bytecode":{"object":"0x608080604052346015576103de908161001a8239f35b5f80fdfe6080806040526004361015610012575f80fd5b5f3560e01c90816301ffc9a7146101d357508063119df25f1461019757806345ec935414610178578063bc197c81146100e3578063e1af802c146100b75763f23a6e611461005e575f80fd5b346100b35760a03660031901126100b357610077610258565b5061008061026e565b506084356001600160401b0381116100b3576100a090369060040161031f565b5060405163f23a6e6160e01b8152602090f35b5f80fd5b346100b3575f3660031901126100b35760206100d1610370565b6040516001600160a01b039091168152f35b346100b35760a03660031901126100b3576100fc610258565b5061010561026e565b506044356001600160401b0381116100b3576101259036906004016102bd565b506064356001600160401b0381116100b3576101459036906004016102bd565b506084356001600160401b0381116100b35761016590369060040161031f565b5060405163bc197c8160e01b8152602090f35b346100b3575f3660031901126100b3576020604051601f193601358152f35b346100b3575f3660031901126100b35736603319013560601c80156101cc575b6040516001600160a01b039091168152602090f35b50336101b7565b346100b35760203660031901126100b3576004359063ffffffff60e01b82168092036100b357602091630271189760e51b8114908115610247575b811561021c575b5015158152f35b63b5dee12760e01b811491508115610236575b5083610215565b6301ffc9a760e01b1490508361022f565b630168425160e71b8114915061020e565b600435906001600160a01b03821682036100b357565b602435906001600160a01b03821682036100b357565b6040519190601f01601f191682016001600160401b038111838210176102a957604052565b634e487b7160e01b5f52604160045260245ffd5b9080601f830112156100b3578135916001600160401b0383116102a9578260051b906020806102ed818501610284565b8096815201928201019283116100b357602001905b82821061030f5750505090565b8135815260209182019101610302565b81601f820112156100b3578035906001600160401b0382116102a95761034e601f8301601f1916602001610284565b92828452602083830101116100b357815f926020809301838601378301015290565b7f629a4c26e296b22a8e0856e9f6ecb2d1008d7e00081111962cd175fa7488e175546001600160a01b0316806103a557503390565b9056fea26469706673582212203ddd3e0edd2cd4d040158a91d4f38609a5c3fc74a98ad29d182c3e0111e1917a64736f6c634300081c0033","linkReferences":{}},"methodIdentifiers":{"_msgSender()":"119df25f","_msgValue()":"45ec9354","_world()":"e1af802c","onERC1155BatchReceived(address,address,uint256[],uint256[],bytes)":"bc197c81","onERC1155Received(address,address,uint256,uint256,bytes)":"f23a6e61","supportsInterface(bytes4)":"01ffc9a7"},"id":266}