{"abi":[{"type":"function","name":"_msgSender","inputs":[],"outputs":[{"name":"sender","type":"address","internalType":"address"}],"stateMutability":"view"},{"type":"function","name":"_msgValue","inputs":[],"outputs":[{"name":"value","type":"uint256","internalType":"uint256"}],"stateMutability":"pure"},{"type":"function","name":"_world","inputs":[],"outputs":[{"name":"","type":"address","internalType":"address"}],"stateMutability":"view"},{"type":"function","name":"supportsInterface","inputs":[{"name":"interfaceId","type":"bytes4","internalType":"bytes4"}],"outputs":[{"name":"","type":"bool","internalType":"bool"}],"stateMutability":"pure"},{"type":"function","name":"transferBalanceToAddress","inputs":[{"name":"fromNamespaceId","type":"bytes32","internalType":"ResourceId"},{"name":"toAddress","type":"address","internalType":"address"},{"name":"amount","type":"uint256","internalType":"uint256"}],"outputs":[],"stateMutability":"nonpayable"},{"type":"function","name":"transferBalanceToNamespace","inputs":[{"name":"fromNamespaceId","type":"bytes32","internalType":"ResourceId"},{"name":"toNamespaceId","type":"bytes32","internalType":"ResourceId"},{"name":"amount","type":"uint256","internalType":"uint256"}],"outputs":[],"stateMutability":"nonpayable"},{"type":"event","name":"Store_SpliceStaticData","inputs":[{"name":"tableId","type":"bytes32","indexed":true,"internalType":"ResourceId"},{"name":"keyTuple","type":"bytes32[]","indexed":false,"internalType":"bytes32[]"},{"name":"start","type":"uint48","indexed":false,"internalType":"uint48"},{"name":"data","type":"bytes","indexed":false,"internalType":"bytes"}],"anonymous":false},{"type":"error","name":"Slice_OutOfBounds","inputs":[{"name":"data","type":"bytes","internalType":"bytes"},{"name":"start","type":"uint256","internalType":"uint256"},{"name":"end","type":"uint256","internalType":"uint256"}]},{"type":"error","name":"UnauthorizedCallContext","inputs":[]},{"type":"error","name":"World_AccessDenied","inputs":[{"name":"resource","type":"string","internalType":"string"},{"name":"caller","type":"address","internalType":"address"}]},{"type":"error","name":"World_AlreadyInitialized","inputs":[]},{"type":"error","name":"World_CallbackNotAllowed","inputs":[{"name":"functionSelector","type":"bytes4","internalType":"bytes4"}]},{"type":"error","name":"World_DelegationNotFound","inputs":[{"name":"delegator","type":"address","internalType":"address"},{"name":"delegatee","type":"address","internalType":"address"}]},{"type":"error","name":"World_FunctionSelectorAlreadyExists","inputs":[{"name":"functionSelector","type":"bytes4","internalType":"bytes4"}]},{"type":"error","name":"World_FunctionSelectorNotFound","inputs":[{"name":"functionSelector","type":"bytes4","internalType":"bytes4"}]},{"type":"error","name":"World_InsufficientBalance","inputs":[{"name":"balance","type":"uint256","internalType":"uint256"},{"name":"amount","type":"uint256","internalType":"uint256"}]},{"type":"error","name":"World_InterfaceNotSupported","inputs":[{"name":"contractAddress","type":"address","internalType":"address"},{"name":"interfaceId","type":"bytes4","internalType":"bytes4"}]},{"type":"error","name":"World_InvalidNamespace","inputs":[{"name":"namespace","type":"bytes14","internalType":"bytes14"}]},{"type":"error","name":"World_InvalidResourceId","inputs":[{"name":"resourceId","type":"bytes32","internalType":"ResourceId"},{"name":"resourceIdString","type":"string","internalType":"string"}]},{"type":"error","name":"World_InvalidResourceType","inputs":[{"name":"expected","type":"bytes2","internalType":"bytes2"},{"name":"resourceId","type":"bytes32","internalType":"ResourceId"},{"name":"resourceIdString","type":"string","internalType":"string"}]},{"type":"error","name":"World_ResourceAlreadyExists","inputs":[{"name":"resourceId","type":"bytes32","internalType":"ResourceId"},{"name":"resourceIdString","type":"string","internalType":"string"}]},{"type":"error","name":"World_ResourceNotFound","inputs":[{"name":"resourceId","type":"bytes32","internalType":"ResourceId"},{"name":"resourceIdString","type":"string","internalType":"string"}]},{"type":"error","name":"World_SystemAlreadyExists","inputs":[{"name":"system","type":"address","internalType":"address"}]},{"type":"error","name":"World_UnlimitedDelegationNotAllowed","inputs":[]}],"bytecode":{"object":"0x60a0806040523460225730608052610f1690816100278239608051816103a20152f35b5f80fdfe60806040526004361015610011575f80fd5b5f3560e01c806301ffc9a714610074578063119df25f1461006f57806345afd1991461006a57806345ec935414610065578063c9c85a60146100605763e1af802c1461005b575f80fd5b6102e9565b6101ec565b6101cd565b610102565b6100d6565b346100c85760203660031901126100c85760043563ffffffff60e01b81168091036100c85763b5dee12760e01b81149081156100b7575b50151560805260206080f35b6301ffc9a760e01b149050816100ab565b5f80fd5b5f9103126100c857565b346100c8575f3660031901126100c85760206100f0610388565b6040516001600160a01b039091168152f35b346100c85760603660031901126100c8576004356024356001600160a01b038116908190036100c8576044359161013761039f565b610148610142610388565b82610404565b610151816104ce565b8084116101b6578381039081116101b1575f80808686610172839688610551565b5af13d156101a9573d9061018582610360565b916101936040519384610338565b82523d5f602084013e5b156101a457005b6107d4565b60609061019d565b610303565b8390630e0e2d4d60e01b5f5260045260245260445ffd5b346100c8575f3660031901126100c8576020604051601f193601358152f35b346100c85760603660031901126100c85760043560243560443561020e61039f565b610217836107dc565b610220826107dc565b610228610484565b8051156102e4578083602061023e93015261091d565b60f81c156102ac57610257610251610388565b84610404565b610260836104ce565b92838211610293579061028361027d9261027d8361029197610317565b90610551565b61028c836104ce565b61037b565b005b630e0e2d4d60e01b5f526004849052602482905260445ffd5b506102b68161086f565b906102e0604051928392637df8867360e11b845260048401526040602484015260448301906103e0565b0390fd5b6104a6565b346100c8575f3660031901126100c85760206100f06109af565b634e487b7160e01b5f52601160045260245ffd5b919082039182116101b157565b634e487b7160e01b5f52604160045260245ffd5b601f909101601f19168101906001600160401b0382119082101761035b57604052565b610324565b6001600160401b03811161035b57601f01601f191660200190565b919082018092116101b157565b36603319013560601c90811561039a57565b339150565b307f00000000000000000000000000000000000000000000000000000000000000006001600160a01b0316146103d157565b634f81d01360e11b5f5260045ffd5b805180835260209291819084018484015e5f828201840152601f01601f1916010190565b61042182600160801b600160f01b038316616e7360f01b176109e4565b8015610474575b15610431575050565b9061043e6104609261086f565b9060405192839263d787b73760e01b84526040600485015260448401906103e0565b6001600160a01b0390911660248301520390fd5b5061047f82826109e4565b610428565b604080519091906104958382610338565b6001815291601f1901366020840137565b634e487b7160e01b5f52603260045260245ffd5b80518210156102e45760209160051b010190565b6104d6610484565b8051156102e45760208101919091526104fc905f516020610ec15f395f51905f52610ae2565b61050d5f630100080160dd1b610b5b565b90806020831015610540575b5080548260031b1b91602003908160201161053357505090565b600101549060031b1c1790565b601f83169260051c0190505f610519565b91909161055c610484565b908151156102e457602082015260405192602084015260208352610581604084610338565b5f9261059a825f516020610ec15f395f51905f52610ae2565b926105b15f516020610ec15f395f51905f52610c3a565b905f5b82518110156106b1576105e86105db6105cd83866104ba565b516001600160581b03191690565b6001600160581b03191690565b6105f8816004809160581c161490565b610606575b506001016105b4565b61063e9061063290819061062c906001600160581b0319165b6001600160601b03191690565b60601c90565b6001600160a01b031690565b90813b156100c85760405163964f667d60e01b8152915f9083908183816106788b8f8e5f516020610ec15f395f51905f5260048601610bf7565b03925af19182156106ac57600192610692575b50906105fd565b806106a05f6106a693610338565b806100cc565b5f61068b565b610c2f565b50604051909461070e918491905f516020610ec15f395f51905f52907f8c0b5119d4cec7b284c6b1b39252a03d1e2f2d7451a5895562524c113bb952be90806106fc868d8c84610bc6565b0390a265ffffffffffff881690610ced565b5f5b81518110156107cc576107296105db6105cd83856104ba565b610739816008809160581c161490565b610747575b50600101610710565b6107649061063290819061062c906001600160581b03191661061f565b90813b156100c85760405163a8ba872160e01b8152915f90839081838161079e8a8e8d5f516020610ec15f395f51905f5260048601610bf7565b03925af19182156106ac576001926107b8575b509061073e565b806106a05f6107c693610338565b5f6107b1565b505050509050565b602081519101fd5b600160801b600160f01b038116616e7360f01b1781036107f95750565b6108028161086f565b604051635c30fb6f60e01b8152616e7360f01b600482015260248101929092526060604483015281906102e09060648301906103e0565b60405190610848604083610338565b60068252651e3937b7ba1f60d11b6020830152565b805191908290602001825e015f815290565b608081901b6001600160801b031916906108fa90601081901b6001600160901b0319168061090e57506108a0610839565b925b806108fd57506108ec6108b3610839565b60016108de60405196879561ffff60f01b166020870152601d60f91b6022870152602386019061085d565b601d60f91b8152019061085d565b03601f198101835282610338565b90565b6109096108ec91610a35565b6108b3565b61091790610a35565b926108a2565b610941906a5265736f7572636549647360281b66746273746f726560c81b01610ae2565b6109525f630101000160d81b610b5b565b90806020831015610978575b5080548260031b1b91602003908160011161053357505090565b601f83169260051c0190505f61095e565b610941906f5265736f757263654163636573730000661d189ddbdc9b1960ca1b01610ae2565b7f629a4c26e296b22a8e0856e9f6ecb2d1008d7e00081111962cd175fa7488e175546001600160a01b0316806108fa57503390565b6040519060606109f48184610338565b600283526020830190601f19013682378251156102e457528051600110156102e4576001600160a01b039091166040820152610a2f90610989565b60f81c90565b5f5b60108110610a68575b6040516001600160801b0319909216602083015260108252610a63603083610338565b815290565b6001600160801b03198216600382901b1b6001600160f81b03191615610a9057600101610a37565b610a40565b6953746f7265486f6f6b7360301b66746273746f726560c81b0181528151602091820192909101905f5b818110610acc5750505090565b8251845260209384019390920191600101610abf565b90604051906020820192835281604081019160208151939101925f5b818110610b42575050610b1a925003601f198101835282610338565b5190207f86425bff6b57326c7859e89024fe4f238ca327a1ae4a230180dd2f0e88aaa7d91890565b8451835260209485019486945090920191600101610afe565b5f915f915b60ff82168310610b705750505090565b90919260ff8285601b0360031b1c1681018091116101b157926001019190610b60565b90602080835192838152019201905f5b818110610bb05750505090565b8251845260209384019390920191600101610ba3565b65ffffffffffff610be36108fa9593606084526060840190610b93565b9316602082015260408184039101526103e0565b90610c1b6108fa959365ffffffffffff928452608060208501526080840190610b93565b9316604082015260608184039101526103e0565b6040513d5f823e3d90fd5b610c42610484565b8051156102e457610ce0816108fa936020610ce894015264ffffffffff6040516020810190610c75816108ec8685610a95565b5190207f3b4102da22e32d82fc925482184f16c09fd4281692720b87d124aef6da48a0f11891604051610cb0816108ec602082019485610a95565b5190207f14e2fcc58e58e68ec7edc30c8d50dccc3ce2714a623ec81f46b6a63922d76569185460381c1690610e5f565b805190610d00565b610d50565b8251610cfe93602001929091610d9e565b565b80518211610d1b5760200160801b9060018060801b03161790565b6040516323230fa360e01b815260606004820152918291610d409060648401906103e0565b905f602484015260448301520390fd5b60158160801c9160018060801b031604604051916020830160208360051b8501016040528284525f5b838110610d87575050505090565b602060016015928551855201920192019190610d79565b92919080610deb575b505b6020811015610dd35780610dbc57505050565b5f1960039190911b1c825491518119169116179055565b909160016020918451815501920190601f1901610da9565b6020811015610e43575b8015610da75791926020839003905f19600384901b1c198460031b90811c908651901c908019835416911617815581831115610e3c5760010193019101601f19015f610da7565b5050505050565b92610e5a90610e528560051c90565b0193601f1690565b610df5565b60408051838101603f01601f1916909152828152916108fa9160208401915b6020811015610ea85780610e9157505050565b5f1960039190911b1c825191548119169116179052565b919060018160209254845201910191601f1901610e7e56fe7462776f726c6400000000000000000042616c616e6365730000000000000000a2646970667358221220f6647cb0451788895adeac68b5bd5be3ff889527b7703b6f7adf854ec4dfc28864736f6c634300081c0033","linkReferences":{}},"methodIdentifiers":{"_msgSender()":"119df25f","_msgValue()":"45ec9354","_world()":"e1af802c","supportsInterface(bytes4)":"01ffc9a7","transferBalanceToAddress(bytes32,address,uint256)":"45afd199","transferBalanceToNamespace(bytes32,bytes32,uint256)":"c9c85a60"},"id":132}