{"abi":[{"type":"function","name":"_msgSender","inputs":[],"outputs":[{"name":"sender","type":"address","internalType":"address"}],"stateMutability":"view"},{"type":"function","name":"_msgValue","inputs":[],"outputs":[{"name":"value","type":"uint256","internalType":"uint256"}],"stateMutability":"pure"},{"type":"function","name":"_world","inputs":[],"outputs":[{"name":"","type":"address","internalType":"address"}],"stateMutability":"view"},{"type":"function","name":"installModule","inputs":[{"name":"module","type":"address","internalType":"contract IModule"},{"name":"encodedArgs","type":"bytes","internalType":"bytes"}],"outputs":[],"stateMutability":"nonpayable"},{"type":"function","name":"registerDelegation","inputs":[{"name":"delegatee","type":"address","internalType":"address"},{"name":"delegationControlId","type":"bytes32","internalType":"ResourceId"},{"name":"initCallData","type":"bytes","internalType":"bytes"}],"outputs":[],"stateMutability":"nonpayable"},{"type":"function","name":"registerFunctionSelector","inputs":[{"name":"systemId","type":"bytes32","internalType":"ResourceId"},{"name":"systemFunctionSignature","type":"string","internalType":"string"}],"outputs":[{"name":"worldFunctionSelector","type":"bytes4","internalType":"bytes4"}],"stateMutability":"nonpayable"},{"type":"function","name":"registerNamespace","inputs":[{"name":"namespaceId","type":"bytes32","internalType":"ResourceId"}],"outputs":[],"stateMutability":"nonpayable"},{"type":"function","name":"registerNamespaceDelegation","inputs":[{"name":"namespaceId","type":"bytes32","internalType":"ResourceId"},{"name":"delegationControlId","type":"bytes32","internalType":"ResourceId"},{"name":"initCallData","type":"bytes","internalType":"bytes"}],"outputs":[],"stateMutability":"nonpayable"},{"type":"function","name":"registerRootFunctionSelector","inputs":[{"name":"systemId","type":"bytes32","internalType":"ResourceId"},{"name":"worldFunctionSignature","type":"string","internalType":"string"},{"name":"systemFunctionSignature","type":"string","internalType":"string"}],"outputs":[{"name":"worldFunctionSelector","type":"bytes4","internalType":"bytes4"}],"stateMutability":"nonpayable"},{"type":"function","name":"registerStoreHook","inputs":[{"name":"tableId","type":"bytes32","internalType":"ResourceId"},{"name":"hookAddress","type":"address","internalType":"contract IStoreHook"},{"name":"enabledHooksBitmap","type":"uint8","internalType":"uint8"}],"outputs":[],"stateMutability":"nonpayable"},{"type":"function","name":"registerSystem","inputs":[{"name":"systemId","type":"bytes32","internalType":"ResourceId"},{"name":"system","type":"address","internalType":"contract System"},{"name":"publicAccess","type":"bool","internalType":"bool"}],"outputs":[],"stateMutability":"nonpayable"},{"type":"function","name":"registerSystemHook","inputs":[{"name":"systemId","type":"bytes32","internalType":"ResourceId"},{"name":"hookAddress","type":"address","internalType":"contract ISystemHook"},{"name":"enabledHooksBitmap","type":"uint8","internalType":"uint8"}],"outputs":[],"stateMutability":"nonpayable"},{"type":"function","name":"registerTable","inputs":[{"name":"tableId","type":"bytes32","internalType":"ResourceId"},{"name":"fieldLayout","type":"bytes32","internalType":"FieldLayout"},{"name":"keySchema","type":"bytes32","internalType":"Schema"},{"name":"valueSchema","type":"bytes32","internalType":"Schema"},{"name":"keyNames","type":"string[]","internalType":"string[]"},{"name":"fieldNames","type":"string[]","internalType":"string[]"}],"outputs":[],"stateMutability":"nonpayable"},{"type":"function","name":"supportsInterface","inputs":[{"name":"interfaceId","type":"bytes4","internalType":"bytes4"}],"outputs":[{"name":"","type":"bool","internalType":"bool"}],"stateMutability":"pure"},{"type":"function","name":"unregisterDelegation","inputs":[{"name":"delegatee","type":"address","internalType":"address"}],"outputs":[],"stateMutability":"nonpayable"},{"type":"function","name":"unregisterNamespaceDelegation","inputs":[{"name":"namespaceId","type":"bytes32","internalType":"ResourceId"}],"outputs":[],"stateMutability":"nonpayable"},{"type":"function","name":"unregisterStoreHook","inputs":[{"name":"tableId","type":"bytes32","internalType":"ResourceId"},{"name":"hookAddress","type":"address","internalType":"contract IStoreHook"}],"outputs":[],"stateMutability":"nonpayable"},{"type":"function","name":"unregisterSystemHook","inputs":[{"name":"systemId","type":"bytes32","internalType":"ResourceId"},{"name":"hookAddress","type":"address","internalType":"contract ISystemHook"}],"outputs":[],"stateMutability":"nonpayable"},{"type":"event","name":"Store_DeleteRecord","inputs":[{"name":"tableId","type":"bytes32","indexed":true,"internalType":"ResourceId"},{"name":"keyTuple","type":"bytes32[]","indexed":false,"internalType":"bytes32[]"}],"anonymous":false},{"type":"event","name":"Store_SetRecord","inputs":[{"name":"tableId","type":"bytes32","indexed":true,"internalType":"ResourceId"},{"name":"keyTuple","type":"bytes32[]","indexed":false,"internalType":"bytes32[]"},{"name":"staticData","type":"bytes","indexed":false,"internalType":"bytes"},{"name":"encodedLengths","type":"bytes32","indexed":false,"internalType":"EncodedLengths"},{"name":"dynamicData","type":"bytes","indexed":false,"internalType":"bytes"}],"anonymous":false},{"type":"event","name":"Store_SpliceDynamicData","inputs":[{"name":"tableId","type":"bytes32","indexed":true,"internalType":"ResourceId"},{"name":"keyTuple","type":"bytes32[]","indexed":false,"internalType":"bytes32[]"},{"name":"dynamicFieldIndex","type":"uint8","indexed":false,"internalType":"uint8"},{"name":"start","type":"uint48","indexed":false,"internalType":"uint48"},{"name":"deleteCount","type":"uint40","indexed":false,"internalType":"uint40"},{"name":"encodedLengths","type":"bytes32","indexed":false,"internalType":"EncodedLengths"},{"name":"data","type":"bytes","indexed":false,"internalType":"bytes"}],"anonymous":false},{"type":"event","name":"Store_SpliceStaticData","inputs":[{"name":"tableId","type":"bytes32","indexed":true,"internalType":"ResourceId"},{"name":"keyTuple","type":"bytes32[]","indexed":false,"internalType":"bytes32[]"},{"name":"start","type":"uint48","indexed":false,"internalType":"uint48"},{"name":"data","type":"bytes","indexed":false,"internalType":"bytes"}],"anonymous":false},{"type":"error","name":"EncodedLengths_InvalidLength","inputs":[{"name":"length","type":"uint256","internalType":"uint256"}]},{"type":"error","name":"FieldLayout_Empty","inputs":[]},{"type":"error","name":"FieldLayout_InvalidStaticDataLength","inputs":[{"name":"staticDataLength","type":"uint256","internalType":"uint256"},{"name":"computedStaticDataLength","type":"uint256","internalType":"uint256"}]},{"type":"error","name":"FieldLayout_StaticLengthDoesNotFitInAWord","inputs":[{"name":"index","type":"uint256","internalType":"uint256"}]},{"type":"error","name":"FieldLayout_StaticLengthIsNotZero","inputs":[{"name":"index","type":"uint256","internalType":"uint256"}]},{"type":"error","name":"FieldLayout_StaticLengthIsZero","inputs":[{"name":"index","type":"uint256","internalType":"uint256"}]},{"type":"error","name":"FieldLayout_TooManyDynamicFields","inputs":[{"name":"numFields","type":"uint256","internalType":"uint256"},{"name":"maxFields","type":"uint256","internalType":"uint256"}]},{"type":"error","name":"FieldLayout_TooManyFields","inputs":[{"name":"numFields","type":"uint256","internalType":"uint256"},{"name":"maxFields","type":"uint256","internalType":"uint256"}]},{"type":"error","name":"Schema_InvalidLength","inputs":[{"name":"length","type":"uint256","internalType":"uint256"}]},{"type":"error","name":"Schema_StaticTypeAfterDynamicType","inputs":[]},{"type":"error","name":"Slice_OutOfBounds","inputs":[{"name":"data","type":"bytes","internalType":"bytes"},{"name":"start","type":"uint256","internalType":"uint256"},{"name":"end","type":"uint256","internalType":"uint256"}]},{"type":"error","name":"Store_IndexOutOfBounds","inputs":[{"name":"length","type":"uint256","internalType":"uint256"},{"name":"accessedIndex","type":"uint256","internalType":"uint256"}]},{"type":"error","name":"Store_InvalidFieldNamesLength","inputs":[{"name":"expected","type":"uint256","internalType":"uint256"},{"name":"received","type":"uint256","internalType":"uint256"}]},{"type":"error","name":"Store_InvalidKeyNamesLength","inputs":[{"name":"expected","type":"uint256","internalType":"uint256"},{"name":"received","type":"uint256","internalType":"uint256"}]},{"type":"error","name":"Store_InvalidResourceType","inputs":[{"name":"expected","type":"bytes2","internalType":"bytes2"},{"name":"resourceId","type":"bytes32","internalType":"ResourceId"},{"name":"resourceIdString","type":"string","internalType":"string"}]},{"type":"error","name":"Store_InvalidSplice","inputs":[{"name":"startWithinField","type":"uint40","internalType":"uint40"},{"name":"deleteCount","type":"uint40","internalType":"uint40"},{"name":"fieldLength","type":"uint40","internalType":"uint40"}]},{"type":"error","name":"Store_InvalidStaticDataLength","inputs":[{"name":"expected","type":"uint256","internalType":"uint256"},{"name":"received","type":"uint256","internalType":"uint256"}]},{"type":"error","name":"Store_InvalidValueSchemaDynamicLength","inputs":[{"name":"expected","type":"uint256","internalType":"uint256"},{"name":"received","type":"uint256","internalType":"uint256"}]},{"type":"error","name":"Store_InvalidValueSchemaLength","inputs":[{"name":"expected","type":"uint256","internalType":"uint256"},{"name":"received","type":"uint256","internalType":"uint256"}]},{"type":"error","name":"Store_InvalidValueSchemaStaticLength","inputs":[{"name":"expected","type":"uint256","internalType":"uint256"},{"name":"received","type":"uint256","internalType":"uint256"}]},{"type":"error","name":"Store_TableAlreadyExists","inputs":[{"name":"tableId","type":"bytes32","internalType":"ResourceId"},{"name":"tableIdString","type":"string","internalType":"string"}]},{"type":"error","name":"Store_TableNotFound","inputs":[{"name":"tableId","type":"bytes32","internalType":"ResourceId"},{"name":"tableIdString","type":"string","internalType":"string"}]},{"type":"error","name":"UnauthorizedCallContext","inputs":[]},{"type":"error","name":"World_AccessDenied","inputs":[{"name":"resource","type":"string","internalType":"string"},{"name":"caller","type":"address","internalType":"address"}]},{"type":"error","name":"World_AlreadyInitialized","inputs":[]},{"type":"error","name":"World_CallbackNotAllowed","inputs":[{"name":"functionSelector","type":"bytes4","internalType":"bytes4"}]},{"type":"error","name":"World_DelegationNotFound","inputs":[{"name":"delegator","type":"address","internalType":"address"},{"name":"delegatee","type":"address","internalType":"address"}]},{"type":"error","name":"World_FunctionSelectorAlreadyExists","inputs":[{"name":"functionSelector","type":"bytes4","internalType":"bytes4"}]},{"type":"error","name":"World_FunctionSelectorNotFound","inputs":[{"name":"functionSelector","type":"bytes4","internalType":"bytes4"}]},{"type":"error","name":"World_InsufficientBalance","inputs":[{"name":"balance","type":"uint256","internalType":"uint256"},{"name":"amount","type":"uint256","internalType":"uint256"}]},{"type":"error","name":"World_InterfaceNotSupported","inputs":[{"name":"contractAddress","type":"address","internalType":"address"},{"name":"interfaceId","type":"bytes4","internalType":"bytes4"}]},{"type":"error","name":"World_InvalidNamespace","inputs":[{"name":"namespace","type":"bytes14","internalType":"bytes14"}]},{"type":"error","name":"World_InvalidResourceId","inputs":[{"name":"resourceId","type":"bytes32","internalType":"ResourceId"},{"name":"resourceIdString","type":"string","internalType":"string"}]},{"type":"error","name":"World_InvalidResourceType","inputs":[{"name":"expected","type":"bytes2","internalType":"bytes2"},{"name":"resourceId","type":"bytes32","internalType":"ResourceId"},{"name":"resourceIdString","type":"string","internalType":"string"}]},{"type":"error","name":"World_ResourceAlreadyExists","inputs":[{"name":"resourceId","type":"bytes32","internalType":"ResourceId"},{"name":"resourceIdString","type":"string","internalType":"string"}]},{"type":"error","name":"World_ResourceNotFound","inputs":[{"name":"resourceId","type":"bytes32","internalType":"ResourceId"},{"name":"resourceIdString","type":"string","internalType":"string"}]},{"type":"error","name":"World_SystemAlreadyExists","inputs":[{"name":"system","type":"address","internalType":"address"}]},{"type":"error","name":"World_UnlimitedDelegationNotAllowed","inputs":[]}],"bytecode":{"object":"0x60a08060405234602257306080526156d8908161002782396080518161160f0152f35b5f80fdfe60806040526004361015610011575f80fd5b5f3560e01c806301ffc9a714610134578063056091291461012f5780630ba51f491461012a578063119df25f146101255780631d2257ba1461012057806326d981021461011b5780633350b6a91461011657806345ec935414610111578063530f4b601461010c5780636548a90a146101075780638da798da14610102578063a92813ad146100fd578063aa66e9c8146100f8578063b29e4089146100f3578063bfdfaff7146100ee578063cdc938c5146100e9578063d5f8337f146100e45763e1af802c146100df575f80fd5b61147e565b61136f565b611273565b6111a6565b611024565b610f34565b610e29565b610d28565b610c24565b610b33565b610b04565b6109c4565b610872565b6107a1565b6106da565b61033b565b61019f565b3461018a57602036600319011261018a5760043563ffffffff60e01b811680910361018a5760209063b5dee12760e01b8114908115610179575b506040519015158152f35b6301ffc9a760e01b1490505f61016e565b5f80fd5b6001600160a01b0381160361018a57565b3461018a57604036600319011261018a576004356024356101bf8161018e565b6101c761160c565b6101d86101d26118d5565b83611675565b6001600160a01b0316906101ea61197e565b8051156103065760208101829052610256906102519061024990610243610235610221835f5160206156635f395f51905f52614167565b925f5160206156635f395f51905f5261414e565b5460381c64ffffffffff1690565b90614f0e565b8051906149a9565b6149f9565b6102608151612b3f565b5f935f5b83518110156102e957816001600160a01b036102a261029c610297610289868a6119b4565b516001600160581b03191690565b6115ff565b60601c90565b16036102b1575b600101610264565b94600180916102e06102c66102898a896119b4565b6102d083886119b4565b6001600160581b03199091169052565b019590506102a9565b85835261030483865f5160206156635f395f51905f52613dae565b005b6119a0565b9181601f8401121561018a578235916001600160401b03831161018a576020808501948460051b01011161018a57565b3461018a5760c036600319011261018a576004356064356044356024356084356001600160401b03811161018a5761037790369060040161030b565b9060a4356001600160401b03811161018a5761039790369060040161030b565b926103a061160c565b6001600160801b03196103b289611753565b16156106a9576103f1926103e9916103d16103cc8b611829565b61183f565b6103e26103dc6118d5565b8b611675565b36916114ed565b9236916114ed565b906001600160f01b03198616613a3160f11b8114159081610699575b506106635761041b83613017565b61042484613151565b61042d8561323b565b8051610438856132ef565b80820361064e575050815161044c846132ef565b90818103610636575061045e866132ef565b908082036106215750506104758560e81c60ff1690565b6104828460e81c60ff1690565b9081810361060857506104988660e01c60ff1690565b6104a58560e01c60ff1690565b8082036105f35750505f5b81811061059f5750506001600160f01b038616613a3160f11b8117906104dd90611bdd60f21b1791612be9565b90811561058f575b5061054757936105429361052e9361053c6105119461051f6103049a9960405197889160208301611876565b03601f19810188528761071a565b60405196879160208301611876565b03601f19810187528661071a565b86613373565b612013565b856040519061056f82610561836020830160209181520190565b03601f19810184528361071a565b61058b60405192839263dfaaf9cf60e01b8452600484016114bc565b0390fd5b6105999150612be9565b5f6104e5565b6105a98186613303565b6105bb6105b6838a613311565b61333c565b81036105ca57506001016104b0565b6105da6105b66105f0938a613311565b6309531f6d60e21b5f5290600452602452604490565b5ffd5b63edea958760e01b5f5260045260245260445ffd5b6365cc0adf60e01b5f526105f091600452602452604490565b631e53a9b160e31b5f5260045260245260445ffd5b621f7b1360ea1b5f526105f091600452602452604490565b6301ee597360e31b5f5260045260245260445ffd5b856040519061067d82610561836020830160209181520190565b61058b6040519283926331b4668360e01b84526004840161157a565b611bdd60f21b141590505f61040d565b876106b381611787565b604051637256034f60e11b815291829161058b91600484016114bc565b5f91031261018a57565b3461018a575f36600319011261018a5760206106f46118d5565b6040516001600160a01b039091168152f35b634e487b7160e01b5f52604160045260245ffd5b601f909101601f19168101906001600160401b0382119082101761073d57604052565b610706565b6001600160401b03811161073d57601f01601f191660200190565b81601f8201121561018a5760208135910161077782610742565b92610785604051948561071a565b8284528282011161018a57815f92602092838601378301015290565b3461018a57606036600319011261018a576004356107be8161018e565b6024356044356001600160401b03811161018a576107e090369060040161075d565b906107e961160c565b6107f16118d5565b926107fa61195c565b805115610306576001600160a01b0385166020820152805160011015610306576108499160018060a01b031660408201526040519061084482610561866020830160209181520190565b61378d565b61085281612e4f565b61085857005b6103049261086d61086883611fcf565b611d54565b612e9b565b3461018a57604036600319011261018a576004356024356001600160401b03811161018a576108a590369060040161075d565b906108ae61160c565b618c8760f01b6001600160f01b031982160161099e576108cd8161183f565b6108de6108d86118d5565b82611675565b610908826109036108fe6108f1856118ec565b6001600160901b03191690565b6118fc565b6115ae565b805160208201209092906001600160e01b03191691610926836119c8565b610981579261095c8261097d9561095761094f6109629651602085012063ffffffff60e01b1690565b809288611a35565b611d0c565b82611d0c565b604051918291826001600160e01b0319909116815260200190565b0390f35b631e8e8d7160e11b5f526001600160e01b0319831660045260245ffd5b6109a781611787565b604051635c30fb6f60e01b815291829161058b9160048401611558565b3461018a57606036600319011261018a576004356024356109e48161018e565b60443590811515820361018a576109f961160c565b618c8760f01b6001600160f01b0319841601610afa57610a1883611829565b90610a228261183f565b610a2d6101d26118d5565b6001600160a01b031691610a4083611dc3565b6001600160801b0319610a5285611753565b1615610af057610a6183611f7d565b848115159182610ae5575b5050610ac95783610aaf610ab592610a8661030497611fcf565b6001600160a01b03811615610aba5780610aa2610aa892612211565b86612428565b8583612639565b836128c0565b612ac1565b50610ac483612013565b610aa8565b63c0b7074160e01b5f526001600160a01b03831660045260245ffd5b14159050845f610a6c565b836106b381611787565b826109a781611787565b3461018a575f36600319011261018a576020604051601f193601358152f35b6044359060ff8216820361018a57565b3461018a57606036600319011261018a57600435602435610b538161018e565b610b5b610b23565b90610b6461160c565b6001600160a01b0316610b7681611e32565b610b826103cc84611829565b610b93610b8d6118d5565b84611675565b6145cf60f11b6001600160f01b0319841601610c0a57610bb9610bb584612be9565b1590565b610bd4576102976103049392610bce92612ffa565b90613a48565b8260405190610bee82610561836020830160209181520190565b61058b6040519283926341e713ad60e01b8452600484016114bc565b826040519061067d82610561836020830160209181520190565b3461018a57606036600319011261018a576004356024356001600160401b03811161018a57610c5790369060040161075d565b6044356001600160401b03811161018a57610c7690369060040161075d565b610c7e61160c565b610cce610cc0604051610cbb81610cad60208201602090616e7360f01b81525f60028201525f60108201520190565b03601f19810183528261071a565b6115dd565b610cc86118d5565b90611675565b63ffffffff60e01b82516020840120169263ffffffff60e01b825160208401201690610cf9856119c8565b610d1557610962928261095787969461095c9461097d99611a35565b84631e8e8d7160e11b5f5260045260245ffd5b3461018a57604036600319011261018a57600435610d458161018e565b6024356001600160401b03811161018a57610d6490369060040161075d565b90610d6d61160c565b6001600160a01b031690610d8082611ea1565b610dc8610d8b6118d5565b83604051916313861fb560e01b602084015260206024840152610dc383610db56044820188611498565b03601f19810185528461071a565b613d79565b9015610e2157506020815191012090610ddf61195c565b90815115610306576020820152805160011015610306576040818101929092529051600160f81b602082015261030491610e1c8260218101610561565b6137bf565b602081519101fd5b3461018a57604036600319011261018a57600435602435610e498161018e565b610e5161160c565b610e5c6101d26118d5565b6001600160a01b031690610e6e61197e565b8051156103065760208101829052610eb9906102519061024990610243610235610ea5835f5160206156035f395f51905f52614167565b925f5160206156035f395f51905f5261414e565b610ec38151612b3f565b5f935f5b8351811015610f1957816001600160a01b03610eec61029c610297610289868a6119b4565b1603610efb575b600101610ec7565b9460018091610f106102c66102898a896119b4565b01959050610ef3565b85835261030483865f5160206156035f395f51905f52613dae565b3461018a57602036600319011261018a57600435610f5061160c565b610f5981612b71565b610f628161183f565b610f6d6108d86118d5565b610f7561197e565b908151156103065760208201526001600160a01b03610f92613e8b565b16308103610fb25750610304905f5160206156235f395f51905f52614ca9565b803b1561018a576040805163505a181d60e01b81525f5160206156235f395f51905f5260048201526024810191909152915f918391829084908290610ffb9060448301906133fa565b03925af1801561101f5761100b57005b806110195f6103049361071a565b806106d0565b6134b5565b3461018a57602036600319011261018a5760043561104061160c565b61104981612b71565b611052816118ec565b6110656001600160901b031982166118fc565b90815191826110c5575b50505061107b81612be9565b61109f578061108c61030492612013565b6110946118d5565b90610ab58282612c51565b6110a881611787565b6040516306e147b560e11b815291829161058b91600484016114bc565b9192909190605f60f81b6001600160f81b03196110ed6110e487612bce565b85016020015190565b1614611189575f5b6110fe85612bce565b81101561117c57602081840101516001600160f81b031916605f60f81b148061114b575b61112e576001016110f5565b630efb4b8560e01b5f526001600160901b0319841660045260245ffd5b50605f60f81b61117661116961116084611733565b86016020015190565b6001600160f81b03191690565b14611122565b50925050505f808061106f565b630efb4b8560e01b5f526001600160901b0319831660045260245ffd5b3461018a57606036600319011261018a576004356024356044356001600160401b03811161018a576111dc90369060040161075d565b906111e561160c565b6111ee83612b71565b6111f781612e4f565b15611264576112046118d5565b9261120f8482611675565b61121b61086883611fcf565b61122361197e565b80511561030657611253916020820152604051908360208301526020825261124c60408361071a565b5f90614312565b815161125b57005b61030492612e9b565b6371ee9e8160e01b5f5260045ffd5b3461018a57602036600319011261018a576004356112908161018e565b61129861160c565b6112a06118d5565b906112a961195c565b91825115610306576001600160a01b03166020830152815160011015610306576001600160a01b0390811660408301526112e1613e8b565b163081036113015750610304905f5160206154435f395f51905f52614ca9565b803b1561018a576040805163505a181d60e01b81525f5160206154435f395f51905f5260048201526024810191909152915f91839182908490829061134a9060448301906133fa565b03925af1801561101f5761135a57005b806113665f809361071a565b80031261018a57005b3461018a57606036600319011261018a5760043560243561138f8161018e565b611397610b23565b906113a061160c565b618c8760f01b6001600160f01b0319841601610afa576001600160a01b031690611402906113cd83611f0e565b6113d68461183f565b6113e26103cc85611829565b6113f36113ed6118d5565b85611675565b6001600160581b031992612ffa565b1661140b61197e565b918251156103065760208301526040519060208201526015815261143060358261071a565b6001600160a01b03611440613e8b565b16913083036114535761030492506146cf565b90823b1561018a57610ffb925f9283604051809681958294630a87993160e11b845260048401613e4c565b3461018a575f36600319011261018a5760206106f4613e8b565b805180835260209291819084018484015e5f828201840152601f01601f1916010190565b6040906114d3939281528160208201520190611498565b90565b6001600160401b03811161073d5760051b60200190565b9291906114f9816114d6565b93611507604051958661071a565b602085838152019160051b81019183831161018a5781905b83821061152d575050505050565b81356001600160401b03811161018a5760209161154d878493870161075d565b81520191019061151f565b6060906114d3939261737960f01b825260208201528160408201520190611498565b6060906114d39392613a3160f11b825260208201528160408201520190611498565b805191908290602001825e015f815290565b6115db906105616115cc94936002604051968794602086019061159c565b615f5f60f01b8152019061159c565b565b6020815191015190602081106115f1575090565b5f199060200360031b1b1690565b6001600160581b03191690565b307f00000000000000000000000000000000000000000000000000000000000000006001600160a01b03161461163e57565b634f81d01360e11b5f5260045ffd5b90611665602091949394604084526040840190611498565b6001600160a01b03909416910152565b61167e81611829565b61168661197e565b805115610306576116e49160208201526040516116c881610cad60208201946f4e616d6573706163654f776e65720000661d189ddbdc9b1960ca1b0186613ec0565b5190205f5160206154c35f395f51905f521860145f5b91613f57565b60601c6001600160a01b038316036116fa575050565b61170390611787565b61058b60405192839263d787b73760e01b84526004840161164d565b634e487b7160e01b5f52601160045260245ffd5b906001820180921161174157565b61171f565b9190820180921161174157565b60801b6001600160801b03191690565b6040519061177260408361071a565b60068252651e3937b7ba1f60d11b6020830152565b601081901b6001600160901b031916906114d3906117a481611753565b928061181a57506117b3611763565b925b6001600160801b031981166118095750610cad6117d0611763565b60016117fb60405196879561ffff60f01b166020870152601d60f91b6022870152602386019061159c565b601d60f91b8152019061159c565b611815610cad916118fc565b6117d0565b611823906118fc565b926117b5565b600160801b600160f01b0316616e7360f01b1790565b61184881612be9565b156118505750565b61185981611787565b604051637df8867360e11b815291829161058b91600484016114bc565b602081016020825282518091526040820191602060408360051b8301019401925f915b8383106118a857505050505090565b90919293946020806118c6600193603f198682030187528951611498565b97019301930191939290611899565b36603319013560601c9081156118e757565b339150565b60101b6001600160901b03191690565b5f5b6010811061192f575b6040516001600160801b031990921660208301526010825261192a60308361071a565b815290565b6001600160801b03198216600382901b1b6001600160f81b03191615611957576001016118fe565b611907565b6040516060919061196d838261071a565b6002815291601f1901366020840137565b6040805190919061198f838261071a565b6001815291601f1901366020840137565b634e487b7160e01b5f52603260045260245ffd5b80518210156103065760209160051b010190565b6119d061197e565b805115610306576114d39163ffffffff60e01b166020820152604051611a1b81610cad60208201946f46756e6374696f6e53656c6563746f72661d189ddbdc9b1960ca1b0186613ec0565b5190205f5160206154c35f395f51905f521860205f6116de565b92919091604051916020830193845263ffffffff60e01b16604083015260248252611a6160448361071a565b611a6961197e565b93845115610306576001600160e01b0319166020850152611a965f5160206154835f395f51905f52613f93565b905f5b8251811015611b8357611ab261029761028983866119b4565b611ac2816001809160581c161490565b611ad0575b50600101611a99565b611af2611af261029c611ae5611afe946115ff565b6001600160601b03191690565b6001600160a01b031690565b90813b1561018a575f60608893828089611b55604051988996879586946315c19b2760e21b865264090080080160d21b936f46756e6374696f6e53656c6563746f72661d189ddbdc9b1960ca1b0160048801613469565b03925af191821561101f57600192611b6f575b5090611ac7565b806110195f611b7d9361071a565b5f611b68565b506040519093611bdc915f5160206154835f395f51905f52905f5160206155435f395f51905f529080611bba60605f8a8d8561342d565b0390a2611bd4865f5160206154835f395f51905f52613ef3565b84519061400e565b5f5b505f5b8151811015611cae57611bfa61029761028983856119b4565b611c0a816002809160581c161490565b611c18575b50600101611be1565b611af2611af261029c611ae5611c2d946115ff565b90813b1561018a575f6040518093635b28cdaf60e01b8252818381611c808c6060848d64090080080160d21b936f46756e6374696f6e53656c6563746f72661d189ddbdc9b1960ca1b0160048801613469565b03925af191821561101f57600192611c9a575b5090611c0f565b806110195f611ca89361071a565b5f611c93565b5050509050565b8260ff831610611cc6575050611bde565b60ff90600190611d0390611ce8858b5f5160206154835f395f51905f526141ac565b90611cfe81611cf7885f6141d3565b809461400e565b611746565b92011690611cb5565b9061056190611d27815191604051938491602083019061159c565b611d2f61197e565b90815115610306576115db9363ffffffff60e01b1660208301528060381b17906134c0565b611d5d816141e8565b80611db3575b80611d9c575b15611d715750565b6374b5e6ff60e01b5f9081526001600160a01b03919091166004526301a86b5560e41b602452604490fd5b50611dae6301a86b5560e41b82614276565b611d69565b50611dbd81614245565b15611d63565b611dcc816141e8565b80611e22575b80611e0b575b15611de05750565b6374b5e6ff60e01b5f9081526001600160a01b039190911660045263b5dee12760e01b602452604490fd5b50611e1d63b5dee12760e01b82614276565b611dd8565b50611e2c81614245565b15611dd2565b611e3b816141e8565b80611e91575b80611e7a575b15611e4f5750565b6374b5e6ff60e01b5f9081526001600160a01b0391909116600452630c399cb560e11b602452604490fd5b50611e8c630c399cb560e11b82614276565b611e47565b50611e9b81614245565b15611e41565b611eaa816141e8565b80611efe575b80611ee8575b15611ebe5750565b6374b5e6ff60e01b5f9081526001600160a01b039190911660045262dfba3960e71b602452604490fd5b50611ef962dfba3960e71b82614276565b611eb6565b50611f0881614245565b15611eb0565b611f17816141e8565b80611f6d575b80611f56575b15611f2b5750565b6374b5e6ff60e01b5f9081526001600160a01b0391909116600452630a81f7f560e31b602452604490fd5b50611f68630a81f7f560e31b82614276565b611f23565b50611f7781614245565b15611f1d565b611f8561197e565b805115610306576114d39160018060a01b03166020820152604051611a1b81610cad60208201946f53797374656d52656769737472790000661d189ddbdc9b1960ca1b0186613ec0565b611fd761197e565b8051156103065761029c9160208201526040516116c881610cad60208201946653797374656d7360481b661d189ddbdc9b1960ca1b0186613ec0565b9061201c61197e565b9182511561030657602083015260405191600160f81b60208401526001835261204660218461071a565b5f9261205f825f5160206156435f395f51905f52613ef3565b926120765f5160206156435f395f51905f52613f93565b905f5b825181101561211b5761209261029761028983866119b4565b6120a2816004809160581c161490565b6120b0575b50600101612079565b60601c90813b1561018a5760405163964f667d60e01b8152915f9083908183816120ed8b8f8e5f5160206156435f395f51905f52600486016142da565b03925af191821561101f57600192612107575b50906120a7565b806110195f6121159361071a565b5f612100565b506040519094612165918491905f5160206156435f395f51905f52905f5160206154a35f395f51905f529080612153868d8c846142a9565b0390a265ffffffffffff88169061469b565b5f5b81518110156122095761218061029761028983856119b4565b612190816008809160581c161490565b61219e575b50600101612167565b60601c90813b1561018a5760405163a8ba872160e01b8152915f9083908183816121db8a8e8d5f5160206156435f395f51905f52600486016142da565b03925af191821561101f576001926121f5575b5090612195565b806110195f6122039361071a565b5f6121ee565b505050509050565b9061221a61197e565b91825115610306576001600160a01b031660208301526122465f5160206154e35f395f51905f52613f93565b5f5b81518110156123025761226161029761028983856119b4565b612271816040809160581c161490565b61227f575b50600101612248565b611af2611af261029c611ae5612294946115ff565b90813b1561018a57604051639faeaf4560e01b8152915f9083908183816122d4630100080160dd1b8c5f5160206154e35f395f51905f5260048501613811565b03925af191821561101f576001926122ee575b5090612276565b806110195f6122fc9361071a565b5f6122e7565b506040515f5160206154e35f395f51905f52905f5160206156835f395f51905f52908061232f8782613800565b0390a261236161234c845f5160206154e35f395f51905f52613ef3565b61235b602061382e565b61382e565b9061468a565b5f5b815181101561241d5761237c61029761028983856119b4565b61238c816080809160581c161490565b61239a575b50600101612363565b611af2611af261029c611ae56123af946115ff565b90813b1561018a576040516383b5c95b60e01b8152915f9083908183816123ef630100080160dd1b8c5f5160206154e35f395f51905f5260048501613811565b03925af191821561101f57600192612409575b5090612391565b806110195f6124179361071a565b5f612402565b50509050565b6146ac565b919061243261195c565b92835115610306576020840152825160011015610306576001600160a01b0316604083015261246d5f5160206155235f395f51905f52613f93565b5f5b81518110156125295761248861029761028983856119b4565b612498816040809160581c161490565b6124a6575b5060010161246f565b611af2611af261029c611ae56124bb946115ff565b90813b1561018a57604051639faeaf4560e01b8152915f9083908183816124fb630101000160d81b8c5f5160206155235f395f51905f5260048501613811565b03925af191821561101f57600192612515575b509061249d565b806110195f6125239361071a565b5f61250e565b506040515f5160206155235f395f51905f52905f5160206156835f395f51905f5290806125568782613800565b0390a261257d612573845f5160206155235f395f51905f52613ef3565b61235b600161382e565b5f5b815181101561241d5761259861029761028983856119b4565b6125a8816080809160581c161490565b6125b6575b5060010161257f565b611af2611af261029c611ae56125cb946115ff565b90813b1561018a576040516383b5c95b60e01b8152915f90839081838161260b630101000160d81b8c5f5160206155235f395f51905f5260048501613811565b03925af191821561101f57600192612625575b50906125ad565b806110195f6126339361071a565b5f61261e565b60405160609290921b6001600160601b0319166020830190815292151560f81b6034830152601582529261266e60358361071a565b61267661197e565b938451156103065760208501526126995f5160206155a35f395f51905f52613f93565b905f5b8251811015612767576126b561029761028983866119b4565b6126c5816001809160581c161490565b6126d3575b5060010161269c565b611af2611af261029c611ae56126e8946115ff565b90813b1561018a575f60608893828089612739604051988996879586946315c19b2760e21b865264150200140160d01b936653797374656d7360481b661d189ddbdc9b1960ca1b0160048801613469565b03925af191821561101f57600192612753575b50906126ca565b806110195f6127619361071a565b5f61274c565b5060405190936127b8915f5160206155a35f395f51905f52905f5160206155435f395f51905f52908061279e60605f8a8d8561342d565b0390a2611bd4865f5160206155a35f395f51905f52613ef3565b5f5b505f5b8151811015611cae576127d661029761028983856119b4565b6127e6816002809160581c161490565b6127f4575b506001016127bd565b611af2611af261029c611ae5612809946115ff565b90813b1561018a575f6040518093635b28cdaf60e01b82528183816128568c6060848d64150200140160d01b936653797374656d7360481b661d189ddbdc9b1960ca1b0160048801613469565b03925af191821561101f57600192612870575b50906127eb565b806110195f61287e9361071a565b5f612869565b8260ff8316106128955750506127ba565b60ff906001906128b790611ce8858b5f5160206155a35f395f51905f526141ac565b92011690612884565b9190916128cb61197e565b908151156103065760018060a01b03166020820152604051926020840152602083526128f860408461071a565b5f92612911825f5160206154e35f395f51905f52613ef3565b926129285f5160206154e35f395f51905f52613f93565b90855f5b83518110156129d15761294561029761028983876119b4565b612955816004809160581c161490565b612963575b5060010161292c565b60601c9150813b1561018a5760405163964f667d60e01b8152915f9083908183816129a18b8f8e5f5160206154e35f395f51905f52600486016142da565b03925af190811561101f5788926001926129bd575b509061295a565b806110195f6129cb9361071a565b5f6129b6565b508390612a1d92966040515f5160206154a35f395f51905f526f53797374656d52656769737472790000661d189ddbdc9b1960ca1b019180612a1587878d846142a9565b0390a261469b565b5f5b815181101561220957612a3861029761028983856119b4565b612a48816008809160581c161490565b612a56575b50600101612a1f565b60601c90813b1561018a5760405163a8ba872160e01b8152915f908390818381612a938a8e8d5f5160206154e35f395f51905f52600486016142da565b03925af191821561101f57600192612aad575b5090612a4d565b806110195f612abb9361071a565b5f612aa6565b612ac961195c565b90815115610306576020820152805160011015610306576001600160a01b0390911660408281019190915251600160f81b6020820152600181526115db91612b1260218361071a565b65ffffffffffff612b2a5f630101000160d81b613f21565b16905f5160206155235f395f51905f526144cf565b90612b49826114d6565b612b56604051918261071a565b8281528092612b67601f19916114d6565b0190602036910137565b600160801b600160f01b038116616e7360f01b178103612b8e5750565b612b9781611787565b604051635c30fb6f60e01b8152616e7360f01b6004820152602481019290925260606044830152819061058b906064830190611498565b5f1981019190821161174157565b9190820391821161174157565b612bf161197e565b80511561030657612c4b916020820152604051612c3181610cad60208201946a5265736f7572636549647360281b66746273746f726560c81b0186613ec0565b5190205f5160206154c35f395f51905f521860015f6116de565b60f81c90565b919091612c5c61197e565b908151156103065760208201526040519260018060601b03199060601b16602084015260148352612c8e60348461071a565b5f92612ca7825f5160206155835f395f51905f52613ef3565b92612cbe5f5160206155835f395f51905f52613f93565b90855f5b8351811015612d6757612cdb61029761028983876119b4565b612ceb816004809160581c161490565b612cf9575b50600101612cc2565b60601c9150813b1561018a5760405163964f667d60e01b8152915f908390818381612d378b8f8e5f5160206155835f395f51905f52600486016142da565b03925af190811561101f578892600192612d53575b5090612cf0565b806110195f612d619361071a565b5f612d4c565b508390612dab92966040515f5160206154a35f395f51905f526f4e616d6573706163654f776e65720000661d189ddbdc9b1960ca1b019180612a1587878d846142a9565b5f5b815181101561220957612dc661029761028983856119b4565b612dd6816008809160581c161490565b612de4575b50600101612dad565b60601c90813b1561018a5760405163a8ba872160e01b8152915f908390818381612e218a8e8d5f5160206155835f395f51905f52600486016142da565b03925af191821561101f57600192612e3b575b5090612ddb565b806110195f612e499361071a565b5f612e34565b8015159081612e5c575090565b9050612e9660405161737960f01b60208201525f6022820152681d5b9b1a5b5a5d195960ba1b603082015260208152610cbb60408261071a565b141590565b909291612ea784614cbc565b5f5b8151811015612f3d57612ec261029761028983856119b4565b612ed2816001809160581c161490565b612ee0575b50600101612ea9565b60601c90813b1561018a5760405163c332303160e01b8152915f908390818381612f0f8a8e8d60048501613e28565b03925af191821561101f57600192612f29575b5090612ed7565b806110195f612f379361071a565b5f612f22565b50612f4a82865f86614d6a565b9094905f5b8351811015612fe557612f6861029761028983876119b4565b612f78816002809160581c161490565b612f86575b50600101612f4f565b60601c90813b1561018a575f86612fb7938b838b6040519788958694859363973d8f9960e01b855260048501613e28565b03925af191821561101f57600192612fd1575b5090612f7d565b806110195f612fdf9361071a565b5f612fca565b509493509450505015612ff55790565b610e21565b60601b6001600160601b03191660589190911b60ff60581b161790565b80156131425761302a8160e01c60ff1690565b6005811161312b576130496130428360e81c60ff1690565b9182611746565b601c811161311457505f5f5b8281106130ba57506130678360f01c90565b8082036130a55750505b601c811061307d575050565b6130878183613303565b61309357600101613071565b631d8d44db60e01b5f5260045260245ffd5b6375d4b26f60e11b5f5260045260245260445ffd5b9291906130c78484613303565b90816130e1576353b2dd0560e01b5f52600485905260245ffd5b6020829593949511613100576001916130f991611746565b9101613055565b637237f23760e01b5f52600483905260245ffd5b63ecd893b960e01b5f52600452601c60245260445ffd5b6333c9efb160e11b5f52600452600560245260445ffd5b63500cf26d60e11b5f5260045ffd5b61315e8160e01c60ff1690565b90600582116132275761317e6131778260e81c60ff1690565b9283611746565b91601c8311613213575f5f5b8281106131eb575061319c8360f01c90565b8091036131d957505b8281106131b157505050565b6131be6105b68284613311565b6131ca576001016131a5565b6307a25a1160e51b5f5260045ffd5b63d498615960e01b5f5260045260245ffd5b906131f96105b68386613311565b9081156131ca5760019161320c91611746565b910161318a565b63d498615960e01b5f52600483905260245ffd5b63d498615960e01b5f52600482905260245ffd5b80156132db5761324e8160e01c60ff1690565b9060058211613227576132676131778260e81c60ff1690565b91601c8311613213575f5f5b8281106132b357506132858360f01c90565b8091036131d957505b82811061329a57505050565b6132a76105b68284613311565b6131ca5760010161328e565b906132c16105b68386613311565b9081156131ca576001916132d491611746565b9101613273565b63d498615960e01b5f90815260045260245ffd5b60ff9081808260e01c169160e81c16011690565b60ff91601b0360031b1c1690565b60ff91601b0360031b1c1660c68110156133285790565b634e487b7160e01b5f52602160045260245ffd5b60c681101561332857606160ff8216101561335a57601f1660010190565b60c68110156133285760610361336f57601490565b5f90565b949091926133ba9493604051936020850152604084015260608301526060825261339e60808361071a565b6133ce8351936133c0835193604051978893602085019061159c565b9061159c565b03601f19810186528561071a565b6133d661197e565b92835115610306576115db9560208501528160601b918160381b9101171791613507565b90602080835192838152019201905f5b8181106134175750505090565b825184526020938401939092019160010161340a565b906114d39492613448613456926080855260808501906133fa565b908382036020850152611498565b9260408201526060818403910152611498565b969594906134b09361348f60a0969461349d938b5260c060208c015260c08b01906133fa565b9089820360408b0152611498565b9160608801528682036080880152611498565b930152565b6040513d5f823e3d90fd5b6040516f46756e6374696f6e5369676e61747572661bdd1ddbdc9b1960ca1b01935f5160206155435f395f51905f52939192839261350292916060908561342d565b0390a2565b939290916135215f5160206155035f395f51905f52613f93565b5f5b81518110156135ed5761353c61029761028983856119b4565b61354c816001809160581c161490565b61355a575b50600101613523565b611af2611af261029c611ae561356f946115ff565b90813b1561018a575f85899386838a6135bf604051988996879586946315c19b2760e21b86526503001811010160cd1b93655461626c657360501b66746273746f726560c81b0160048801613469565b03925af191821561101f576001926135d9575b5090613551565b806110195f6135e79361071a565b5f6135d2565b506040515f5160206155035f395f51905f52905f5160206155435f395f51905f52908061361d87878a8d8561342d565b0390a261364661363a875f5160206155035f395f51905f52613ef3565b8551602087019161400e565b6002613723565b505f5b815181101561371a5761366961029761028983856119b4565b613679816002809160581c161490565b613687575b50600101613650565b611af2611af261029c611ae561369c946115ff565b90813b1561018a575f85899386838a6136ec60405198899687958694635b28cdaf60e01b86526503001811010160cd1b93655461626c657360501b66746273746f726560c81b0160048801613469565b03925af191821561101f57600192613706575b509061367e565b806110195f6137149361071a565b5f6136ff565b50505050509050565b8261373b885f5160206155035f395f51905f5261414e565b555f602085015b8260ff83161061375357505061364d565b60ff9060019061378490613775858d5f5160206155035f395f51905f526141ac565b90611cfe81611cf7888c6141d3565b92011690613742565b6115db919065ffffffffffff6137aa5f630100080160dd1b613f21565b16905f5160206154435f395f51905f526144cf565b6115db919065ffffffffffff6137dc5f630101000160d81b613f21565b16906f496e7374616c6c65644d6f64756c6573661d189ddbdc9b1960ca1b016144cf565b9060206114d39281815201906133fa565b9392916134b09060409286526060602087015260608601906133fa565b9061383882610742565b613845604051918261071a565b8281528092612b67601f1991610742565b9092916001600160f01b03198216611bdd60f21b14613a275761387882613f93565b5f5b81518110156139205761389361029761028983856119b4565b6138a3816040809160581c161490565b6138b1575b5060010161387a565b611af2611af261029c611ae56138c6946115ff565b90813b1561018a57604051639faeaf4560e01b8152915f9083908183816138f28a8e8d60048501613811565b03925af191821561101f5760019261390c575b50906138a8565b806110195f61391a9361071a565b5f613905565b50825f5160206156835f395f51905f526040518061393e8982613800565b0390a261395b61394e8685613ef3565b61235b6123568560f01c90565b6139688260e01c60ff1690565b613a15575b5f5b81518110156122095761398861029761028983856119b4565b613998816080809160581c161490565b6139a6575b5060010161396f565b611af2611af261029c611ae56139bb946115ff565b90813b1561018a576040516383b5c95b60e01b8152915f9083908183816139e78a8e8d60048501613811565b03925af191821561101f57600192613a01575b509061399d565b806110195f613a0f9361071a565b5f6139fa565b613a22612423868561414e565b61396d565b5090916135025f5160206156835f395f51905f529160405191829182613800565b919091613a5361197e565b908151156103065760208201526040519260018060581b031916602084015260158352613a8160358461071a565b613a8a81614113565b54603881901c64ffffffffff1690613aa25f826141d3565b93613ab8613ab05f87612bdc565b875190611746565b85811415958680613d2a575b613d0c57808511613cef5750613adb905f84615220565b90613af25f5160206156635f395f51905f52613f93565b915f5b8351811015613ba957613b0e61029761028983876119b4565b613b1e816010809160581c161490565b613b2c575b50600101613af5565b60601c90813b1561018a575f87819382808c8f613b7b908d6040519a8b9889978896630abd6b4560e31b88526953746f7265486f6f6b7360301b66746273746f726560c81b0160048901614e6d565b03925af191821561101f57600192613b95575b5090613b23565b806110195f613ba39361071a565b5f613b8e565b509250946001613cea575b6040515f5160206156635f395f51905f52905f5160206154635f395f51905f529080613bed8b885f65ffffffffffff8c16818e87614ebe565b0390a2613ccc575b613c178684613c125f885f5160206156635f395f51905f526141ac565b61469b565b5f5b815181101561371a57613c3261029761028983856119b4565b613c42816020809160581c161490565b613c50575b50600101613c19565b60601c90813b1561018a575f85819382808a613c9e8e8b6040519a8b9889978896636358453360e01b88526953746f7265486f6f6b7360301b66746273746f726560c81b0160048901614e6d565b03925af191821561101f57600192613cb8575b5090613c47565b806110195f613cc69361071a565b5f613cb1565b81613ce4855f5160206156635f395f51905f5261414e565b55613bf5565b613bb4565b637e8578d360e01b5f5260045264ffffffffff841660245260445ffd5b632994042d60e21b5f9081526105f09164ffffffffff169086614e52565b5080613d43613d395f88614e36565b64ffffffffff1690565b1415613ac4565b3d15613d74573d90613d5b82610742565b91613d69604051938461071a565b82523d5f602084013e565b606090565b90613d885f809493819461496b565b9082602083519301915af1613d9b613d4a565b9091565b5f9391613d889185949361496b565b90929192613dba61197e565b9081511561030657602082015283519160158302838104601514841517156117415792604051936020850190601f19603f8288010116604052855260205f9701965b828110613e11575050506115db939450614a47565b602060016015928a51855201980191019096613dfc565b6114d3939260609260018060a01b0316825260208201528160408201520190611498565b5f5160206156035f395f51905f5281526080602082018190526114d3939192613e77918401906133fa565b915f60408201526060818403910152611498565b7f629a4c26e296b22a8e0856e9f6ecb2d1008d7e00081111962cd175fa7488e175546001600160a01b0316806114d357503390565b60209181520160208251919201905f5b818110613edd5750505090565b8251845260209384019390920191600101613ed0565b90613f0c610cad91604051928391602083019586613ec0565b5190205f5160206154c35f395f51905f521890565b5f915f915b60ff82168310613f365750505090565b909192613f438483613303565b810180911161174157926001019190613f26565b6020831015613f85575b80548360031b1b92602003809211613f7857505090565b600101549060031b1c1790565b601f83169260051c01613f61565b613f9b61197e565b80511561030657610249816114d393602061025194015264ffffffffff6140035f5160206155635f395f51905f526040516020810190613ff981610cad886953746f7265486f6f6b7360301b66746273746f726560c81b0186613ec0565b5190201892614113565b5460381c1690614f0e565b91905b602081101561403a578061402457505050565b5f199060031b1c90818354169119905116179055565b909160016020918451815501920190601f1901614011565b9291908061409f575b505b6020811015614087578061407057505050565b5f1960039190911b1c825491518119169116179055565b909160016020918451815501920190601f190161405d565b60208110156140f7575b801561405b5791926020839003905f19600384901b1c198460031b90811c908651901c9080198354169116178155818311156140f05760010193019101601f19015f61405b565b5050505050565b9261410e906141068560051c90565b0193601f1690565b6140a9565b6040516020810191614139908290610cad905f5160206156635f395f51905f5286613ec0565b5190205f5160206155e35f395f51905f521890565b90614139610cad91604051928391602083019586613ec0565b610cad61418d5f5160206155635f395f51905f5293604051928391602083019586613ec0565b5190201890565b51902060f89190911b6001600160f81b031916181890565b610cad6141945f5160206155635f395f51905f529493604051928391602083019586613ec0565b60ff64ffffffffff92166028026038011c1690565b5f602091604051838101906301ffc9a760e01b82526301ffc9a760e01b60248201526024815261421960448261071a565b5191617530fa5f513d82614239575b5081614232575090565b9050151590565b6020111591505f614228565b5f602091604051838101906301ffc9a760e01b825263ffffffff60e01b60248201526024815261421960448261071a565b5f90602092604051848101916301ffc9a760e01b835263ffffffff60e01b1660248201526024815261421960448261071a565b65ffffffffffff6142c66114d395936060845260608401906133fa565b931660208201526040818403910152611498565b906142fe6114d3959365ffffffffffff9284526080602085015260808401906133fa565b931660408201526060818403910152611498565b90929161432c825f5160206156235f395f51905f52613ef3565b926143435f5160206156235f395f51905f52613f93565b905f5b82518110156143e85761435f61029761028983866119b4565b61436f816004809160581c161490565b61437d575b50600101614346565b60601c90813b1561018a5760405163964f667d60e01b8152915f9083908183816143ba8b8f8e5f5160206156235f395f51905f52600486016142da565b03925af191821561101f576001926143d4575b5090614374565b806110195f6143e29361071a565b5f6143cd565b50938261442b916040515f5160206154a35f395f51905f526f4e616d65737061636544656c65676174661d189ddbdc9b1960ca1b019180612153868d8c846142a9565b5f5b81518110156122095761444661029761028983856119b4565b614456816008809160581c161490565b614464575b5060010161442d565b60601c90813b1561018a5760405163a8ba872160e01b8152915f9083908183816144a18a8e8d5f5160206156235f395f51905f52600486016142da565b03925af191821561101f576001926144bb575b509061445b565b806110195f6144c99361071a565b5f6144b4565b92939291906001600160f01b03198316611bdd60f21b1461466a576144f48184613ef3565b936144fe84613f93565b90865f5b835181101561459c5761451b61029761028983876119b4565b61452b816004809160581c161490565b614539575b50600101614502565b60601c9150813b1561018a575f868a9387838b61456c6040519889968795869463964f667d60e01b8652600486016142da565b03925af190811561101f578992600192614588575b5090614530565b806110195f6145969361071a565b5f614581565b506145d39196865f5160206154a35f395f51905f52604051806145c1868b8b846142a9565b0390a265ffffffffffff86169061469b565b5f5b815181101561371a576145ee61029761028983856119b4565b6145fe816008809160581c161490565b61460c575b506001016145d5565b60601c90813b1561018a5760405163a8ba872160e01b8152915f90839081838161463c8e8c8c8f600486016142da565b03925af191821561101f57600192614656575b5090614603565b806110195f6146649361071a565b5f61464f565b6135025f5160206154a35f395f51905f52939495604051938493846142a9565b6115db915f60208251920192614052565b82516115db93602001929091614052565b6001810180821161174157905b8181106146c4575050565b5f81556001016146b9565b9091906146e9815f5160206156035f395f51905f5261414e565b54916146f55f846141d3565b9264ffffffffff84169161470c613ab05f87612bdc565b85811415958680614955575b61494057808511613cef575061472f905f84615220565b906147465f5160206156035f395f51905f52613f93565b915f5b83518110156147fe5761476261029761028983876119b4565b614772816010809160581c161490565b614780575b50600101614749565b60601c90813b1561018a575f87819382808c8f6147d0908d6040519a8b9889978896630abd6b4560e31b88526a53797374656d486f6f6b7360281b661d189ddbdc9b1960ca1b0160048901614e6d565b03925af191821561101f576001926147ea575b5090614777565b806110195f6147f89361071a565b5f6147e3565b50925094600161493b575b6040515f5160206156035f395f51905f52905f5160206154635f395f51905f5290806148428b885f65ffffffffffff8c16818e87614ebe565b0390a261491d575b6148678684613c125f885f5160206156035f395f51905f526141ac565b5f5b815181101561371a5761488261029761028983856119b4565b614892816020809160581c161490565b6148a0575b50600101614869565b60601c90813b1561018a575f85819382808a6148ef8e8b6040519a8b9889978896636358453360e01b88526a53797374656d486f6f6b7360281b661d189ddbdc9b1960ca1b0160048901614e6d565b03925af191821561101f57600192614909575b5090614897565b806110195f6149179361071a565b5f614902565b81614935855f5160206156035f395f51905f5261414e565b5561484a565b614809565b6105f085632994042d60e21b5f525f81614e52565b5080614964613d395f88614e36565b1415614718565b6034906114d39261498694604051958693602085019061159c565b9160018060601b03199060601b168252601482015203601481018452018261071a565b805182116149c45760200160801b9060018060801b03161790565b6040516323230fa360e01b8152606060048201529182916149e9906064840190611498565b905f602484015260448301520390fd5b60158160801c9160018060801b031604604051916020830160208360051b8501016040528284525f5b838110614a30575050505090565b602060016015928551855201920192019190614a22565b929091614a54838561414e565b54614a5f5f826141d3565b9364ffffffffff8516936145cf60f11b6001600160f01b0319881601614c8f57614a94614a8c8688612bdc565b855190611746565b8087141580978198614c78575b50614c6357614ab1905f85615220565b90614abb88613f93565b915f5b8351811015614b5a57614ad761029761028983876119b4565b614ae7816010809160581c161490565b614af5575b50600101614abe565b60601c90813b1561018a575f80809388828f614b2c8f8f908f906040519b8c998a988997630abd6b4560e31b895260048901614e6d565b03925af191821561101f57600192614b46575b5090614aec565b806110195f614b549361071a565b5f614b3f565b509350956001614c5e575b875f5160206154635f395f51905f5260405180614b8f89898c65ffffffffffff5f165f8c87614ebe565b0390a2614c4d575b614ba7845f613c1281868c6141ac565b5f5b8151811015614c4357614bc261029761028983856119b4565b614bd2816020809160581c161490565b614be0575b50600101614ba9565b60601c90813b1561018a575f80809386828d614c158c8c8f6040519b8c998a988997636358453360e01b895260048901614e6d565b03925af191821561101f57600192614c2f575b5090614bd7565b806110195f614c3d9361071a565b5f614c28565b5050505050509050565b82614c58838961414e565b55614b97565b614b65565b6105f086632994042d60e21b5f52805f614e52565b9050614c87613d39885f614e36565b14155f614aa1565b866040519061067d82610561836020830160209181520190565b6115db91614cb682614f31565b91613856565b614cc461197e565b80511561030657610249816114d393602061025194015264ffffffffff5f5160206155635f395f51905f526040516020810190614d2081610cad876a53797374656d486f6f6b7360281b661d189ddbdc9b1960ca1b0186613ec0565b519020604051911892602082019190614d4d908290610cad905f5160206156035f395f51905f5286613ec0565b5190205f5160206155e35f395f51905f52185460381c1690614f0e565b929190614d7561197e565b80511561030657826020820152614d8d6015826153a3565b9050614da56034602083015160601c92015160f81c90565b9092906001600160a01b03841615614e2c5715614e1d575b81614df9575b6001600160901b031990614dd6906118ec565b16614de457613d9b936151ff565b90614df39291613d9b94613d9f565b90151591565b614e18614e0582611829565b614e1284611cfe83614fd4565b90615019565b614dc3565b614e278582614f97565b614dbd565b5061185981611787565b9064ffffffffff8091169116019064ffffffffff821161174157565b64ffffffffff90811660045290811660245216604452606490565b9364ffffffffff929060ff614e9985936114d39b99959a979a895260e060208a015260e08901906133fa565b9816604087015216606085015216608083015260a082015260c0818403910152611498565b929365ffffffffffff6114d3979560ff614ee964ffffffffff9599969960c0895260c08901906133fa565b98166020870152166040850152166060830152608082015260a0818403910152611498565b6114d39060405192601f19603f82860101166040528084525f60208501926152da565b5f5160206155035f395f51905f528114614f8957604080515f5160206155035f395f51905f526020820190815281830193909352908152614f7360608261071a565b5190205f5160206154c35f395f51905f52185490565b506503001811010160cd1b90565b614fb482600160801b600160f01b038316616e7360f01b176153e0565b8015614fc4575b156116fa575050565b50614fcf82826153e0565b614fbb565b614fdc61197e565b805115610306576114d3916020820152604051611a1b81610cad60208201946742616c616e63657360401b661d189ddbdc9b1960ca1b0186613ec0565b91909161502461197e565b908151156103065760208201526040519260208401526020835261504960408461071a565b5f92615062825f5160206155c35f395f51905f52613ef3565b926150795f5160206155c35f395f51905f52613f93565b90855f5b83518110156151225761509661029761028983876119b4565b6150a6816004809160581c161490565b6150b4575b5060010161507d565b60601c9150813b1561018a5760405163964f667d60e01b8152915f9083908183816150f28b8f8e5f5160206155c35f395f51905f52600486016142da565b03925af190811561101f57889260019261510e575b50906150ab565b806110195f61511c9361071a565b5f615107565b50604051919561515b92859291905f5160206155c35f395f51905f52905f5160206154a35f395f51905f529080612a1587878d846142a9565b5f5b81518110156122095761517661029761028983856119b4565b615186816008809160581c161490565b615194575b5060010161515d565b60601c90813b1561018a5760405163a8ba872160e01b8152915f9083908183816151d18a8e8d5f5160206155c35f395f51905f52600486016142da565b03925af191821561101f576001926151eb575b509061518b565b806110195f6151f99361071a565b5f6151e4565b5f939161520e9185949361496b565b90602082519201905af4613d9b613d4a565b9064ffffffffff83116152865764ffffffffff8060ff66ffffffffffffff85168061524b86886141d3565b90888281106152795790500301935b166028026038019416841b931b199166ffffffffffffff191617161790565b919092500390039361525a565b82637149a3c160e01b5f5260045260245ffd5b60208110156152c257806152ac57505050565b5f199060031b1c90818351169119905416179052565b919060018160209254845201910191601f1901615299565b919080615326575b505b602081101561530e57806152f757505050565b5f1960039190911b1c825191548119169116179052565b919060018160209254845201910191601f19016152e4565b6020811015615387575b80156152e257929183602003908183105f1461537a575f19600384901b1c5b81548660031b1b81865116911916178452818311156140f057600101920192601f199101015f6152e2565b5f19600383901b1c61534f565b9161539e906153968460051c90565b0192601f1690565b615330565b9080156153ca576114d3916153c5905f5160206155a35f395f51905f52613ef3565b614f0e565b50506040516153da60208261071a565b5f815290565b6153e861195c565b9081511561030657602082015280516001101561030657612c4b9160018060a01b03166040820152604051612c3181610cad60208201946f5265736f757263654163636573730000661d189ddbdc9b1960ca1b0186613ec056fe7462776f726c640000000000000000005573657244656c65676174696f6e436ffe158a7adba34e256807c8a149028d3162918713c3838afc643ce9f96716ebfd7462776f726c6400000000000000000046756e6374696f6e53656c6563746f728c0b5119d4cec7b284c6b1b39252a03d1e2f2d7451a5895562524c113bb952be86425bff6b57326c7859e89024fe4f238ca327a1ae4a230180dd2f0e88aaa7d97462776f726c6400000000000000000053797374656d52656769737472790000746273746f72650000000000000000005461626c6573000000000000000000007462776f726c640000000000000000005265736f7572636541636365737300008dbb3a9672eebfd3773e72dd9c102393436816d832c7ba9e1e1ac8fcadcac7a93b4102da22e32d82fc925482184f16c09fd4281692720b87d124aef6da48a0f17462776f726c640000000000000000004e616d6573706163654f776e657200007462776f726c6400000000000000000053797374656d730000000000000000007462776f726c6400000000000000000042616c616e636573000000000000000014e2fcc58e58e68ec7edc30c8d50dccc3ce2714a623ec81f46b6a63922d765697462776f726c6400000000000000000053797374656d486f6f6b7300000000007462776f726c640000000000000000004e616d65737061636544656c65676174746273746f72650000000000000000005265736f757263654964730000000000746273746f726500000000000000000053746f7265486f6f6b730000000000000e1f72f429eb97e64878619984a91e687ae91610348b9ff4216782cc96e49d07a26469706673582212201fb76fc15b516da35dd8dc1a306fa6adbe30de7677ed03b8b1c39eb0eb83d78f64736f6c634300081c0033","linkReferences":{}},"methodIdentifiers":{"_msgSender()":"119df25f","_msgValue()":"45ec9354","_world()":"e1af802c","installModule(address,bytes)":"8da798da","registerDelegation(address,bytes32,bytes)":"1d2257ba","registerFunctionSelector(bytes32,string)":"26d98102","registerNamespace(bytes32)":"b29e4089","registerNamespaceDelegation(bytes32,bytes32,bytes)":"bfdfaff7","registerRootFunctionSelector(bytes32,string,string)":"6548a90a","registerStoreHook(bytes32,address,uint8)":"530f4b60","registerSystem(bytes32,address,bool)":"3350b6a9","registerSystemHook(bytes32,address,uint8)":"d5f8337f","registerTable(bytes32,bytes32,bytes32,bytes32,string[],string[])":"0ba51f49","supportsInterface(bytes4)":"01ffc9a7","unregisterDelegation(address)":"cdc938c5","unregisterNamespaceDelegation(bytes32)":"aa66e9c8","unregisterStoreHook(bytes32,address)":"05609129","unregisterSystemHook(bytes32,address)":"a92813ad"},"id":128}