{"abi":[{"type":"function","name":"_msgSender","inputs":[],"outputs":[{"name":"sender","type":"address","internalType":"address"}],"stateMutability":"view"},{"type":"function","name":"_msgValue","inputs":[],"outputs":[{"name":"value","type":"uint256","internalType":"uint256"}],"stateMutability":"pure"},{"type":"function","name":"_world","inputs":[],"outputs":[{"name":"","type":"address","internalType":"address"}],"stateMutability":"view"},{"type":"function","name":"getActiveTables","inputs":[{"name":"landId","type":"uint256","internalType":"uint256"}],"outputs":[{"name":"","type":"uint256","internalType":"uint256"}],"stateMutability":"view"},{"type":"function","name":"getChairsOfTables","inputs":[{"name":"landId","type":"uint256","internalType":"uint256"},{"name":"x","type":"uint256","internalType":"uint256"},{"name":"y","type":"uint256","internalType":"uint256"}],"outputs":[{"name":"","type":"uint256[3]","internalType":"uint256[3]"}],"stateMutability":"view"},{"type":"function","name":"getLandItems","inputs":[{"name":"landId","type":"uint256","internalType":"uint256"},{"name":"x","type":"uint256","internalType":"uint256"},{"name":"y","type":"uint256","internalType":"uint256"}],"outputs":[{"name":"landItems","type":"tuple[]","internalType":"struct LandItemDTO[]","components":[{"name":"x","type":"uint256","internalType":"uint256"},{"name":"y","type":"uint256","internalType":"uint256"},{"name":"itemId","type":"uint256","internalType":"uint256"},{"name":"placementTime","type":"uint256","internalType":"uint256"},{"name":"stackIndex","type":"uint256","internalType":"uint256"},{"name":"isRotated","type":"bool","internalType":"bool"},{"name":"dynamicUnlockTime","type":"uint256","internalType":"uint256"},{"name":"dynamicTimeoutTime","type":"uint256","internalType":"uint256"}]}],"stateMutability":"view"},{"type":"function","name":"getLandItems3d","inputs":[{"name":"landId","type":"uint256","internalType":"uint256"}],"outputs":[{"name":"land3d","type":"tuple[][][]","internalType":"struct LandItemDTO[][][]","components":[{"name":"x","type":"uint256","internalType":"uint256"},{"name":"y","type":"uint256","internalType":"uint256"},{"name":"itemId","type":"uint256","internalType":"uint256"},{"name":"placementTime","type":"uint256","internalType":"uint256"},{"name":"stackIndex","type":"uint256","internalType":"uint256"},{"name":"isRotated","type":"bool","internalType":"bool"},{"name":"dynamicUnlockTime","type":"uint256","internalType":"uint256"},{"name":"dynamicTimeoutTime","type":"uint256","internalType":"uint256"}]}],"stateMutability":"view"},{"type":"function","name":"getPlacementTime","inputs":[{"name":"landId","type":"uint256","internalType":"uint256"},{"name":"x","type":"uint256","internalType":"uint256"},{"name":"y","type":"uint256","internalType":"uint256"}],"outputs":[{"name":"","type":"uint256","internalType":"uint256"}],"stateMutability":"view"},{"type":"function","name":"getRotation","inputs":[{"name":"landId","type":"uint256","internalType":"uint256"},{"name":"x","type":"uint256","internalType":"uint256"},{"name":"y","type":"uint256","internalType":"uint256"}],"outputs":[{"name":"","type":"bool","internalType":"bool"}],"stateMutability":"view"},{"type":"function","name":"getTablesOfChairs","inputs":[{"name":"landId","type":"uint256","internalType":"uint256"},{"name":"x","type":"uint256","internalType":"uint256"},{"name":"y","type":"uint256","internalType":"uint256"}],"outputs":[{"name":"","type":"uint256[3]","internalType":"uint256[3]"}],"stateMutability":"view"},{"type":"function","name":"supportsInterface","inputs":[{"name":"interfaceId","type":"bytes4","internalType":"bytes4"}],"outputs":[{"name":"","type":"bool","internalType":"bool"}],"stateMutability":"pure"},{"type":"error","name":"Slice_OutOfBounds","inputs":[{"name":"data","type":"bytes","internalType":"bytes"},{"name":"start","type":"uint256","internalType":"uint256"},{"name":"end","type":"uint256","internalType":"uint256"}]}],"bytecode":{"object":"0x6080806040523460155761186a908161001a8239f35b5f80fdfe60806040526004361015610011575f80fd5b5f3560e01c806301ffc9a7146100c4578063119df25f146100bf5780632712950e146100ba5780632c1b47e5146100b557806345ec9354146100b05780634d3802a0146100ab57806394c45e76146100a6578063b3df3846146100a1578063d35e5ce71461009c578063e15b346b146100975763e1af802c14610092575f80fd5b61069a565b61061d565b6105bb565b610543565b6104a5565b61040f565b6103a9565b6102c8565b61015a565b61011e565b3461011a57602036600319011261011a5760043563ffffffff60e01b811680910361011a5760209063b5dee12760e01b8114908115610109575b506040519015158152f35b6301ffc9a760e01b1490505f6100fe565b5f80fd5b3461011a575f36600319011261011a5736603319013560601c8015610153575b6040516001600160a01b039091168152602090f35b503361013e565b3461011a57602036600319011261011a57600435610176610945565b90815115610196578161018e91602080940152610c58565b604051908152f35b610798565b9060e061010092805183526020810151602084015260408101516040840152606081015160608401526080810151608084015260a0810151151560a084015260c081015160c0840152015160e08201520190565b602081016020825282518091526040820191602060408360051b8301019401925f915b83831061022157505050505090565b9091929394603f19828203018352855190815180825260208201906020808260051b8501019401925f5b82811061026c57505050505060208060019297019301930191939290610212565b9091929394601f19838203018552855190602080835192838152019201905f905b8082106102ac575050506020806001929701950191019291909261024b565b90919260206102be600192865161019b565b940192019061028d565b3461011a57602036600319011261011a576004356102e581610a06565b519060206102f282610a06565b0151916102fe81610730565b9261030c60405194856106fb565b818452610328601f1961031e84610730565b0160208601610747565b5f5b828110610343576040518061033f87826101ef565b0390f35b61034c82610763565b61035682876107cc565b5261036181866107cc565b505f5b828110610374575060010161032a565b806103a281610386600194868a61088c565b610390868b6107cc565b519061039c83836107cc565b526107cc565b5001610364565b3461011a575f36600319011261011a576020604051601f193601358152f35b606090600319011261011a57600435906024359060443590565b919060608301925f905b600382106103f957505050565b60208060019285518152019301910190916103ec565b3461011a5761041d366103c8565b91606060405161042d82826106fb565b369037606060405161043f82826106fb565b36903761044a610967565b908151156101965760208201528051600110156101965761048f6104878261033f95610499956040610494960152610481826107ac565b52611137565b805190611285565b61130a565b611365565b604051918291826103e2565b3461011a576104b3366103c8565b919061ffff6104cb6104c6858486610ac5565b6107f4565b16906104d5610989565b928351156101965760208401528251600110156101965760408301528151600210156101965761051e8261052b9261033f956060610531960152610518826107bc565b52610d32565b6001600160f81b03191690565b60f81c90565b60405190151581529081906020820190565b3461011a57610551366103c8565b91606060405161056182826106fb565b369037606060405161057382826106fb565b36903761057e610967565b908151156101965760208201528051600110156101965761048f6104878261033f956104999560406104949601526105b5826107ac565b526111e0565b3461011a576105d26105cc366103c8565b9161088c565b6040518091602082016020835281518091526020604084019201905f5b8181106105fd575050500390f35b919350916020610610600192865161019b565b94019101918493926105ef565b3461011a5761062b366103c8565b909161ffff61063e6104c6848685610ac5565b1692610648610989565b918251156101965760208301528151600110156101965760408201528051600210156101965761033f9261068a926060830152610684826107bc565b52610dbd565b6040519081529081906020820190565b3461011a575f36600319011261011a5760206106b4611390565b6040516001600160a01b039091168152f35b634e487b7160e01b5f52604160045260245ffd5b61010081019081106001600160401b038211176106f657604052565b6106c6565b601f909101601f19168101906001600160401b038211908210176106f657604052565b6040519061072e610100836106fb565b565b6001600160401b0381116106f65760051b60200190565b5f5b82811061075557505050565b606082820152602001610749565b9061072e61077083610730565b61077d60405191826106fb565b83815260208194610790601f1991610730565b019101610747565b634e487b7160e01b5f52603260045260245ffd5b8051600210156101965760600190565b8051600310156101965760800190565b80518210156101965760209160051b010190565b634e487b7160e01b5f52601160045260245ffd5b61ffff5f199116019061ffff821161080857565b6107e0565b9061081782610730565b61082460405191826106fb565b8281528092610835601f1991610730565b01905f5b82811061084557505050565b602090604051610854816106da565b5f81525f838201525f60408201525f60608201525f60808201525f60a08201525f60c08201525f60e082015282828501015201610839565b91906108a361089c838386610ac5565b61ffff1690565b916108ad8361080d565b935f5b8481106108bf57505050505090565b806108ce600192858786610b48565b80519060208101519061091f6108e76080830151151590565b60606040840151930151936108fa61071e565b958b87528a60208801526040870152606086015285608086015260a085019015159052565b60c083015260e082015261093382896107cc565b5261093e81886107cc565b50016108b0565b6040805190919061095683826106fb565b6001815291601f1901366020840137565b6040516080919061097883826106fb565b6003815291601f1901366020840137565b60405160a0919061099a83826106fb565b6004815291601f1901366020840137565b6040519061014082016001600160401b038111838210176106f6576040526060610120835f81525f60208201525f60408201525f838201525f60808201525f60a08201525f60c08201525f60e08201525f6101008201520152565b610a0e6109ab565b50610a17610945565b908151156101965781610a31916020610abc940152610f76565b90610a3d9392936109ab565b93602081015190604081015190606081015190610aa6608082015191610a9d60a082015160f81c918b60a182015160e01c9160e060a58201519260e560c5840151930151610100820152015260c08d015260a08c019063ffffffff169052565b151560808a0152565b6060880152604087015260208601528452611541565b61012082015290565b9190610acf610967565b928351156101965760208401528251600110156101965760408301528151600210156101965781610b0791606061ffff940152610e49565b60f01c1690565b6040519060a082016001600160401b038111838210176106f6576040525f6080838281528260208201528260408201528260608201520152565b919290610b53610b0e565b50610b5c610989565b9283511561019657602084015282516001101561019657604083015281516002101561019657610b9a926060830152610b94826107bc565b52611061565b5050610ba4610b0e565b9060208101519060408101519060608101519060a0608082015191015160f81c15156080860152606085015260408401526020830152815290565b9081602091031261011a575190565b90602080835192838152019201905f5b818110610c0b5750505090565b8251845260209384019390920191600101610bfe565b90610c4260609360ff92979695978452608060208501526080840190610bee565b951660408201520152565b6040513d5f823e3d90fd5b6001600160a01b03610c68611390565b16308103610ca45750610ca1906b072848090101010008210101609d1b90600290674c616e64496e666f60401b613a3160f11b016113c5565b90565b604051638c364d5960e01b815291602091839182908190610cef906b072848090101010008210101609d1b90600290674c616e64496e666f60401b613a3160f11b0160048601610c21565b03915afa908115610d2d575f91610d04575090565b610ca1915060203d602011610d26575b610d1e81836106fb565b810190610bdf565b503d610d14565b610c4d565b6001600160a01b03610d42611390565b16308103610d775750610ca19067810500202020200160b81b90600490674c616e644974656d60401b613a3160f11b016113c5565b604051638c364d5960e01b815291602091839182908190610cef9067810500202020200160b81b90600490674c616e644974656d60401b613a3160f11b01828601610c21565b6001600160a01b03610dcd611390565b16308103610e025750610ca19067810500202020200160b81b90600190674c616e644974656d60401b613a3160f11b016113c5565b604051638c364d5960e01b815291602091839182908190610cef9067810500202020200160b81b90600190674c616e644974656d60401b613a3160f11b0160048601610c21565b6001600160a01b03610e59611390565b16308103610e895750610ca190630100800160d91b905f906713185b9910d95b1b60421b613a3160f11b016113c5565b604051638c364d5960e01b815291602091839182908190610cef90630100800160d91b905f906713185b9910d95b1b60421b613a3160f11b0160048601610c21565b6001600160401b0381116106f657601f01601f191660200190565b81601f8201121561011a57805190610efd82610ecb565b92610f0b60405194856106fb565b8284526020838301011161011a57815f9260208093018386015e8301015290565b9160608383031261011a5782516001600160401b03811161011a5782610f53918501610ee6565b92602081015192604082015160018060401b03811161011a57610ca19201610ee6565b6001600160a01b03610f86611390565b16308103610fc35750610fbc906b072848090101010008210101609d1b90674c616e64496e666f60401b613a3160f11b0161147d565b9192909190565b60405163419b58fd60e01b8152674c616e64496e666f60401b613a3160f11b0160048201526060602482015292915f91849182908190611007906064830190610bee565b6b072848090101010008210101609d1b604483015203915afa908115610d2d575f5f935f93611037575b50929190565b9193505061105791503d805f833e61104f81836106fb565b810190610f2c565b929092915f611031565b6001600160a01b03611071611390565b163081036110a35750610fbc9067810500202020200160b81b90674c616e644974656d60401b613a3160f11b0161147d565b60405163419b58fd60e01b8152674c616e644974656d60401b613a3160f11b0160048201526060602482015292915f918491829081906110e7906064830190610bee565b67810500202020200160b81b604483015203915afa908115610d2d575f5f935f936110375750929190565b9060208282031261011a5781516001600160401b03811161011a57610ca19201610ee6565b6001600160a01b03611147611390565b1630810361116a5750610ca1906001905f5160206118155f395f51905f52611559565b604051631e78897760e01b81525f5160206118155f395f51905f52600482015260606024820152915f918391829081906111a8906064830190610bee565b6001604483015203915afa908115610d2d575f916111c4575090565b610ca191503d805f833e6111d881836106fb565b810190611112565b6001600160a01b036111f0611390565b163081036112125750610ca1905f905f5160206118155f395f51905f52611559565b604051631e78897760e01b81525f5160206118155f395f51905f52600482015260606024820152915f91839182908190611250906064830190610bee565b85604483015203915afa908115610d2d575f916111c4575090565b9190820180921161080857565b9190820391821161080857565b805182116112bd576112a75f6112a18160206112ae950161126b565b93611278565b9160801b90565b6001600160801b039091161790565b60849060206040519384926323230fa360e01b8452606060048501528051928391826064870152018585015e5f838301850181905260248401526044830152601f01601f19168101030190fd5b6040805160206020600160801b0384168201810190925260016001607b1b03600584901c168082529092909160809190911c9083015f5b83811061134f575050505090565b6020600181928551855201920192019190611341565b6040516113736060826106fb565b60603682379060038151105f14611388575090565b602091500190565b7f629a4c26e296b22a8e0856e9f6ecb2d1008d7e00081111962cd175fa7488e175546001600160a01b031680610ca157503390565b60ff916113d4919493946115b5565b9216916113ea838360ff91601b0360031b1c1690565b915f935f915b818310611442575050508281602082101561142c575b505080548360031b1b9260200380921161141f57505090565b600101549060031b1c1790565b90809450601f925060051c019216915f80611406565b909194611458868360ff91601b0360031b1c1690565b8101809111610808579460010191906113f0565b60ff1660ff81146108085760010190565b91925f9260609260ff6114948760f01c8385611604565b9660e01c16806114a357505050565b91945092506114b283856117d3565b549366ffffffffffffff8516936114c885610ecb565b946114d660405196876106fb565b8086526114e5601f1991610ecb565b013660208701375f9186602087015b8560ff86161061150657505050505050565b611539918161152e6115339361152789611521818b8b611636565b95611688565b809461169d565b61126b565b9361146c565b9287906114f4565b610ca19164ffffffffff61048f9260381c1690611285565b90610ca19261157661157c92611570838287611636565b946117d3565b54611688565b906117b0565b60209181520160208251919201905f5b81811061159f5750505090565b8251845260209384019390920191600101611592565b906115dc6115ce91604051928391602083019586611582565b03601f1981018352826106fb565b5190207f86425bff6b57326c7859e89024fe4f238ca327a1ae4a230180dd2f0e88aaa7d91890565b919091811561161f57610ca19261161a916115b5565b6117b0565b5050506040516116306020826106fb565b5f815290565b6115ce6116707f3b4102da22e32d82fc925482184f16c09fd4281692720b87d124aef6da48a0f19493604051928391602083019586611582565b51902060f89190911b6001600160f81b031916181890565b60ff64ffffffffff92166028026038011c1690565b905b60208110156116c857806116b257505050565b5f199060031b1c90818351169119905416179052565b919060018160209254845201910191601f190161169f565b91908061172c575b505b602081101561171457806116fd57505050565b5f1960039190911b1c825191548119169116179052565b919060018160209254845201910191601f19016116ea565b6020811015611794575b80156116e857929183602003908183105f14611787575f19600384901b1c5b81548660031b1b818651169119161784528183111561178057600101920192601f199101015f6116e8565b5050505050565b5f19600383901b1c611755565b916117ab906117a38460051c90565b0192601f1690565b611736565b610ca19060405192601f19603f82860101166040528084525f60208501926116e0565b906117ec6115ce91604051928391602083019586611582565b5190207f14e2fcc58e58e68ec7edc30c8d50dccc3ce2714a623ec81f46b6a63922d76569189056fe746200000000000000000000000000004c616e645461626c6573416e64436861a2646970667358221220ddf9100d95ef34dafd7e5f489548250a11c6fb09644ce283e3e5d738076f0b6c64736f6c634300081c0033","linkReferences":{}},"methodIdentifiers":{"_msgSender()":"119df25f","_msgValue()":"45ec9354","_world()":"e1af802c","getActiveTables(uint256)":"2712950e","getChairsOfTables(uint256,uint256,uint256)":"b3df3846","getLandItems(uint256,uint256,uint256)":"d35e5ce7","getLandItems3d(uint256)":"2c1b47e5","getPlacementTime(uint256,uint256,uint256)":"e15b346b","getRotation(uint256,uint256,uint256)":"94c45e76","getTablesOfChairs(uint256,uint256,uint256)":"4d3802a0","supportsInterface(bytes4)":"01ffc9a7"},"id":145}