{"abi":[{"type":"function","name":"_msgSender","inputs":[],"outputs":[{"name":"sender","type":"address","internalType":"address"}],"stateMutability":"view"},{"type":"function","name":"_msgValue","inputs":[],"outputs":[{"name":"value","type":"uint256","internalType":"uint256"}],"stateMutability":"pure"},{"type":"function","name":"_world","inputs":[],"outputs":[{"name":"","type":"address","internalType":"address"}],"stateMutability":"view"},{"type":"function","name":"activateAllQuestGroups","inputs":[{"name":"landId","type":"uint256","internalType":"uint256"}],"outputs":[],"stateMutability":"nonpayable"},{"type":"function","name":"activateLandQuestGroup","inputs":[{"name":"landId","type":"uint256","internalType":"uint256"},{"name":"questGroupId","type":"uint256","internalType":"uint256"}],"outputs":[],"stateMutability":"nonpayable"},{"type":"function","name":"getActiveLandQuestGroups","inputs":[{"name":"landId","type":"uint256","internalType":"uint256"}],"outputs":[{"name":"","type":"tuple[]","internalType":"struct LandQuestGroupDTO[]","components":[{"name":"landId","type":"uint256","internalType":"uint256"},{"name":"questGroupId","type":"uint256","internalType":"uint256"},{"name":"landQuestGroup","type":"tuple","internalType":"struct LandQuestGroupData","components":[{"name":"active","type":"bool","internalType":"bool"},{"name":"numberOfQuests","type":"uint256","internalType":"uint256"},{"name":"numberOfCompletedQuests","type":"uint256","internalType":"uint256"},{"name":"claimed","type":"bool","internalType":"bool"},{"name":"expiresAt","type":"uint256","internalType":"uint256"}]},{"name":"landQuests","type":"tuple[]","internalType":"struct LandQuestDTO[]","components":[{"name":"landId","type":"uint256","internalType":"uint256"},{"name":"questGroupId","type":"uint256","internalType":"uint256"},{"name":"questId","type":"uint256","internalType":"uint256"},{"name":"landQuest","type":"tuple","internalType":"struct LandQuestData","components":[{"name":"numberOfTasks","type":"uint256","internalType":"uint256"},{"name":"numberOfCompletedTasks","type":"uint256","internalType":"uint256"},{"name":"claimed","type":"bool","internalType":"bool"},{"name":"active","type":"bool","internalType":"bool"},{"name":"expiresAt","type":"uint256","internalType":"uint256"}]},{"name":"landQuestTasks","type":"tuple[]","internalType":"struct LandQuestTaskDTO[]","components":[{"name":"taskId","type":"bytes32","internalType":"bytes32"},{"name":"landId","type":"uint256","internalType":"uint256"},{"name":"questGroupId","type":"uint256","internalType":"uint256"},{"name":"questId","type":"uint256","internalType":"uint256"},{"name":"taskType","type":"uint256","internalType":"uint256"},{"name":"key","type":"bytes32","internalType":"bytes32"},{"name":"quantity","type":"uint256","internalType":"uint256"},{"name":"landQuestTask","type":"tuple","internalType":"struct LandQuestTaskProgressData","components":[{"name":"taskProgress","type":"uint256","internalType":"uint256"},{"name":"taskCompleted","type":"bool","internalType":"bool"}]}]}]}]}],"stateMutability":"view"},{"type":"function","name":"getLandQuestGroup","inputs":[{"name":"landId","type":"uint256","internalType":"uint256"},{"name":"questGroupId","type":"uint256","internalType":"uint256"}],"outputs":[{"name":"","type":"tuple","internalType":"struct LandQuestGroupDTO","components":[{"name":"landId","type":"uint256","internalType":"uint256"},{"name":"questGroupId","type":"uint256","internalType":"uint256"},{"name":"landQuestGroup","type":"tuple","internalType":"struct LandQuestGroupData","components":[{"name":"active","type":"bool","internalType":"bool"},{"name":"numberOfQuests","type":"uint256","internalType":"uint256"},{"name":"numberOfCompletedQuests","type":"uint256","internalType":"uint256"},{"name":"claimed","type":"bool","internalType":"bool"},{"name":"expiresAt","type":"uint256","internalType":"uint256"}]},{"name":"landQuests","type":"tuple[]","internalType":"struct LandQuestDTO[]","components":[{"name":"landId","type":"uint256","internalType":"uint256"},{"name":"questGroupId","type":"uint256","internalType":"uint256"},{"name":"questId","type":"uint256","internalType":"uint256"},{"name":"landQuest","type":"tuple","internalType":"struct LandQuestData","components":[{"name":"numberOfTasks","type":"uint256","internalType":"uint256"},{"name":"numberOfCompletedTasks","type":"uint256","internalType":"uint256"},{"name":"claimed","type":"bool","internalType":"bool"},{"name":"active","type":"bool","internalType":"bool"},{"name":"expiresAt","type":"uint256","internalType":"uint256"}]},{"name":"landQuestTasks","type":"tuple[]","internalType":"struct LandQuestTaskDTO[]","components":[{"name":"taskId","type":"bytes32","internalType":"bytes32"},{"name":"landId","type":"uint256","internalType":"uint256"},{"name":"questGroupId","type":"uint256","internalType":"uint256"},{"name":"questId","type":"uint256","internalType":"uint256"},{"name":"taskType","type":"uint256","internalType":"uint256"},{"name":"key","type":"bytes32","internalType":"bytes32"},{"name":"quantity","type":"uint256","internalType":"uint256"},{"name":"landQuestTask","type":"tuple","internalType":"struct LandQuestTaskProgressData","components":[{"name":"taskProgress","type":"uint256","internalType":"uint256"},{"name":"taskCompleted","type":"bool","internalType":"bool"}]}]}]}]}],"stateMutability":"view"},{"type":"function","name":"removeAllExpiredQuestGroups","inputs":[{"name":"landId","type":"uint256","internalType":"uint256"}],"outputs":[],"stateMutability":"nonpayable"},{"type":"function","name":"supportsInterface","inputs":[{"name":"interfaceId","type":"bytes4","internalType":"bytes4"}],"outputs":[{"name":"","type":"bool","internalType":"bool"}],"stateMutability":"pure"},{"type":"event","name":"Store_SetRecord","inputs":[{"name":"tableId","type":"bytes32","indexed":true,"internalType":"ResourceId"},{"name":"keyTuple","type":"bytes32[]","indexed":false,"internalType":"bytes32[]"},{"name":"staticData","type":"bytes","indexed":false,"internalType":"bytes"},{"name":"encodedLengths","type":"bytes32","indexed":false,"internalType":"EncodedLengths"},{"name":"dynamicData","type":"bytes","indexed":false,"internalType":"bytes"}],"anonymous":false},{"type":"event","name":"Store_SpliceDynamicData","inputs":[{"name":"tableId","type":"bytes32","indexed":true,"internalType":"ResourceId"},{"name":"keyTuple","type":"bytes32[]","indexed":false,"internalType":"bytes32[]"},{"name":"dynamicFieldIndex","type":"uint8","indexed":false,"internalType":"uint8"},{"name":"start","type":"uint48","indexed":false,"internalType":"uint48"},{"name":"deleteCount","type":"uint40","indexed":false,"internalType":"uint40"},{"name":"encodedLengths","type":"bytes32","indexed":false,"internalType":"EncodedLengths"},{"name":"data","type":"bytes","indexed":false,"internalType":"bytes"}],"anonymous":false},{"type":"event","name":"Store_SpliceStaticData","inputs":[{"name":"tableId","type":"bytes32","indexed":true,"internalType":"ResourceId"},{"name":"keyTuple","type":"bytes32[]","indexed":false,"internalType":"bytes32[]"},{"name":"start","type":"uint48","indexed":false,"internalType":"uint48"},{"name":"data","type":"bytes","indexed":false,"internalType":"bytes"}],"anonymous":false},{"type":"error","name":"AccessByNoOperator","inputs":[{"name":"owner","type":"address","internalType":"address"},{"name":"caller","type":"address","internalType":"address"}]},{"type":"error","name":"EncodedLengths_InvalidLength","inputs":[{"name":"length","type":"uint256","internalType":"uint256"}]},{"type":"error","name":"Slice_OutOfBounds","inputs":[{"name":"data","type":"bytes","internalType":"bytes"},{"name":"start","type":"uint256","internalType":"uint256"},{"name":"end","type":"uint256","internalType":"uint256"}]},{"type":"error","name":"Store_IndexOutOfBounds","inputs":[{"name":"length","type":"uint256","internalType":"uint256"},{"name":"accessedIndex","type":"uint256","internalType":"uint256"}]},{"type":"error","name":"Store_InvalidResourceType","inputs":[{"name":"expected","type":"bytes2","internalType":"bytes2"},{"name":"resourceId","type":"bytes32","internalType":"ResourceId"},{"name":"resourceIdString","type":"string","internalType":"string"}]},{"type":"error","name":"Store_InvalidSplice","inputs":[{"name":"startWithinField","type":"uint40","internalType":"uint40"},{"name":"deleteCount","type":"uint40","internalType":"uint40"},{"name":"fieldLength","type":"uint40","internalType":"uint40"}]}],"bytecode":{"object":"0x60808060405234601557613a64908161001a8239f35b5f80fdfe60806040526004361015610011575f80fd5b5f3560e01c806301ffc9a7146100a4578063094f1ba21461009f5780630c73b1351461009a578063119df25f1461009557806345ec9354146100905780634e8097531461008b578063bd208c9214610086578063e1af802c146100815763f437df081461007c575f80fd5b6104f3565b6104d9565b6104b0565b6103fb565b61037d565b610351565b6102dc565b610299565b346100f85760203660031901126100f85760043563ffffffff60e01b81168091036100f85763b5dee12760e01b81149081156100e7575b50151560805260206080f35b6301ffc9a760e01b149050816100db565b5f80fd5b90602080835192838152019201905f5b8181106101195750505090565b90919260206101206001928260e0885180518452828101518385015260408101516040850152606081015160608501526080810151608085015260a081015160a085015260c081015160c08501520151805160e084015201511515610100820152019401910191909161010c565b9080602083519182815201916020808360051b8301019401925f915b8383106101b257505050505090565b909192939460208061022b600193601f1986820301875261012060808b51805184528581015186850152604081015160408501528160608201518051606087015287810151828701526040810151151560a08701526060810151151560c0870152015160e08501520151918161010082015201906100fc565b970193019301919392906101a3565b9061010060606102969380518452602081015160208501526080604082015180511515604087015260208101518487015260408101518287015283810151151560a0870152015160c08501520151918160e08201520190610187565b90565b346100f85760403660031901126100f8576102d86102c46024356004356102be6106a9565b50610898565b60405191829160208352602083019061023a565b0390f35b346100f85760203660031901126100f8576004356102f9816109ff565b5061031d61031861031061030b610cc5565b611bfa565b805190611e64565b61293f565b5f5b8151811015610345578061033f610338600193856107d6565b5185610bc0565b0161031f565b005b5f9103126100f857565b346100f8575f3660031901126100f857602061036b610ae5565b6040516001600160a01b039091168152f35b346100f8575f3660031901126100f8576020604051601f193601358152f35b602081016020825282518091526040820191602060408360051b8301019401925f915b8383106103ce57505050505090565b90919293946020806103ec600193603f19868203018752895161023a565b970193019301919392906103bf565b346100f85760203660031901126100f857600435610418816110d9565b805191610424836106e4565b92610432604051948561062c565b808452610441601f19916106e4565b015f5b8181106104995750505f5b825181101561048b578061046f610468600193866107d6565b5184610898565b61047982876107d6565b5261048481866107d6565b500161044f565b604051806102d8868261039c565b6020906104a46106a9565b82828801015201610444565b346100f85760403660031901126100f8576103456024356004356104d3816109ff565b50610bc0565b346100f8575f3660031901126100f857602061036b6114bc565b346100f85760203660031901126100f857600435610510816109ff565b5061051a816110d9565b90815190610527826106e4565b91610535604051938461062c565b808352601f19610544826106e4565b013660208501375f905f905b80821061056557505061034593508252611636565b909161057b61057484886107d6565b51856114f1565b80159081156105d2575b50156105b5576105ac60019161059b85896107d6565b516105a682896107d6565b52610cb2565b925b0190610550565b91806105cd6105c6600193896107d6565b518661151e565b6105ae565b905042105f610585565b634e487b7160e01b5f52604160045260245ffd5b60a081019081106001600160401b0382111761060b57604052565b6105dc565b61010081019081106001600160401b0382111761060b57604052565b601f909101601f19168101906001600160401b0382119082101761060b57604052565b6040519061065f6101008361062c565b565b6040519061065f60a08361062c565b6040519061065f60808361062c565b6040519061068c826105f0565b5f6080838281528260208201528260408201528260608201520152565b60405190608082016001600160401b0381118382101761060b57604052606080835f81525f60208201526106db61067f565b60408201520152565b6001600160401b03811161060b5760051b60200190565b90610705826106e4565b610712604051918261062c565b8281528092610723601f19916106e4565b01905f5b82811061073357505050565b602090604051610742816105f0565b5f81525f838201525f604082015261075861067f565b60608201526060608082015282828501015201610727565b634e487b7160e01b5f52603260045260245ffd5b8051600310156107945760800190565b610770565b8051600410156107945760a00190565b8051600210156107945760600190565b8051156107945760200190565b8051600110156107945760400190565b80518210156107945760209160051b010190565b60408051919082016001600160401b0381118382101761060b576040525f6020838281520152565b9061081c826106e4565b610829604051918261062c565b828152809261083a601f19916106e4565b01905f5b82811061084a57505050565b60209060405161085981610610565b5f81525f838201525f60408201525f60608201525f60808201525f60a08201525f60c08201526108876107ea565b60e08201528282850101520161083e565b6108a06106a9565b506108ab8282610d46565b906108b583610dca565b926108c084516106fb565b935f905b80518210156109dc576108d782826107d6565b51916108e4838587610dee565b966108ee84610e7e565b926108f98451610812565b975f5b855181101561098e5780610912600192886107d6565b5161091c81610ee8565b8a8c8b61093d60608501519360208601956040875191019384519286610f70565b935190519161094a61064f565b95865260208601528d60408601528c6060860152608085015260a084015260c083015260e082015261097c828d6107d6565b52610987818c6107d6565b50016108fc565b5098600194509994919790996109a2610661565b928884528760208501526040840152606083015260808201526109c582886107d6565b526109d081876107d6565b500190959493946108c4565b5050929190926109ea610670565b93845260208401526040830152606082015290565b610a0f610a0a610cc5565b611f92565b60601c610a1d811515610ffd565b6040516331a9108f60e11b81526004810183905290602090829060249082905afa908115610ae0575f91610ab1575b50610a55610ae5565b916001600160a01b03808416908316149083908215610a9f575b505015610a7d575050600190565b6334a0e31960e21b5f526001600160a01b039081166004521660245260445b5ffd5b610aaa925083611087565b825f610a6f565b610ad3915060203d602011610ad9575b610acb818361062c565b81019061105d565b5f610a4c565b503d610ac1565b61107c565b36603319013560601c908115610af757565b339150565b15610b0357565b60405162461bcd60e51b815260206004820152603160248201527f517565737447726f7570206973206e6f742073746172746564207965742063616044820152701b9b9bdd081899481858dd1a5d985d1959607a1b6064820152608490fd5b15610b6957565b60405162461bcd60e51b815260206004820152602960248201527f517565737447726f757020697320657870697265642063616e6e6f74206265206044820152681858dd1a5d985d195960ba1b6064820152608490fd5b90610bcb8183610d46565b92610bd68451151590565b8015610c91575b610c8b57610c3d6080610bef8461113d565b610c0481518015908115610c80575b50610afc565b60208101610c1d81518015908115610c75575b50610b62565b600188525182880152019485515160208201525f604082015283856111ea565b5f5b84518051821015610c685790610c62610c5a826001946107d6565b518587611260565b01610c3f565b5050925061065f9161135d565b90504211155f610c17565b90504210155f610bfe565b92505050565b5060608401511515610bdd565b634e487b7160e01b5f52601160045260245ffd5b5f198114610cc05760010190565b610c9e565b60405190610cd460208361062c565b5f808352366020840137565b60405160609190610cf1838261062c565b6002815291601f1901366020840137565b60408051909190610d13838261062c565b6001815291601f1901366020840137565b60405160809190610d35838261062c565b6003815291601f1901366020840137565b610d4e61067f565b50610d57610ce0565b9081511561079457602082015280516001101561079457610d7c916040820152611789565b5050610296610d8961067f565b91602081015160f81c906021810151906041810151906062606182015160f81c91015160808701521515606086015260408501526020840152829015159052565b610dd2610d02565b8051156107945761031081610296936020610318940152611ca7565b90610df761067f565b50610e00610d24565b9182511561079457602083015281516001101561079457604082015280516002101561079457610e34916060820152611862565b5050610e3e61067f565b90602081015190604081015190606081015160f81c906062606182015160f81c910151608086015215156060850152151560408401526020830152815290565b610e86610d02565b8051156107945761031081610296936020610318940152611d25565b6040519060e082016001600160401b0381118382101761060b57604052606060c0835f81525f60208201525f60408201525f838201525f60808201528260a08201520152565b610ef0610ea2565b50610ef9610d02565b908151156107945781610f13916020610f63940152611915565b90610f1f939293610ea2565b93602081015190604081015190606081015190610f4d60a0608083015192015160f81c60808a019015159052565b60608801526040870152602086015284526129e8565b60c083015260a082015290565b91929390610f7c6107ea565b50610f8760056106e4565b92610f95604051948561062c565b60058452610fa360056106e4565b6020850190601f190136823784511561079457528251600110156107945760408301528151600210156107945761029693610ff6936060840152610fe683610784565b52610ff082610799565b526119c8565b5050611f2e565b1561100457565b60405162461bcd60e51b815260206004820152602b60248201527f4c69624c616e644163636573733a206c616e644e46547320616464726573732060448201526a063616e6e6f7420626520360ac1b6064820152608490fd5b908160209103126100f857516001600160a01b03811681036100f85790565b6040513d5f823e3d90fd5b61108f610d24565b90815115610794576001600160a01b031660208201528051600110156107945760ff926110d292604083015260018060a01b03166110cc826107a9565b52612071565b60f81c1690565b6110e1610d02565b8051156107945761031081610296936020610318940152611db6565b6040519060c082016001600160401b0381118382101761060b57604052606060a0835f81525f60208201525f60408201525f838201528260808201520152565b6111456110fd565b5061114e610d02565b8051156107945761116a816111dd936020610318940152611a7d565b6111789492949391936110fd565b946020810151906040810151906061606082015160f81c910151606089015215156040880152602087015285526111b78464ffffffffff9060381c1690565b6111d56111c76103188385611e64565b9560601c64ffffffffff1690565b810191611eb4565b60a0830152608082015290565b61065f929182511515926020810151906040810151608060608301511515920151926040519660f81b60208801526021870152604186015260f81b606185015260628401526062835261123e60828461062c565b611246610ce0565b91611250836107b9565b5261125a826107c6565b526121c0565b9161126c818385610dee565b9160208301938451611356576112806122e7565b50611289610d02565b94855115610794575f6040916112a78887602061065f9b0152611b30565b916112c86112b69692966122e7565b91906040602083015192015160f81c90565b151560208301528152611324610318603888901c64ffffffffff16946112f66112f18783611e64565b612c9b565b956111d561131661031860608d901c64ffffffffff168401809486611eb4565b9a60881c64ffffffffff1690565b9560808201968752606082015201526113406060880160019052565b8160808801528160408801525251518452612311565b5050505050565b91611367836110d9565b905f5b82518110156113e3578361137e82856107d6565b511461138c5760010161136a565b60405162461bcd60e51b815260206004820152602960248201527f4c616e6451756573747353797374656d3a20517565737420697320616c72656160448201526864792061637469766560b81b6064820152608490fd5b50929190506113f0610d02565b91825115610794578060208401526040518260208201526020815261141660408261062c565b5f936001600160a01b036114286114bc565b16308103611452575061065f9461144d92915f51602061392f5f395f51905f5261308d565b612393565b945090843b156100f857604051630a87993160e11b8152945f928692839185918391611492919084905f51602061392f5f395f51905f526004860161242f565b03925af1928315610ae05761065f936114ac575b50612393565b5f6114b69161062c565b5f6114a6565b7f629a4c26e296b22a8e0856e9f6ecb2d1008d7e00081111962cd175fa7488e175546001600160a01b03168061029657503390565b6114f9610ce0565b90815115610794576020820152805160011015610794576102969160408201526120fd565b90611527610ce0565b91825115610794576020830152815160011015610794576040820152604051905f60208301526001825261155c60218361062c565b6001600160a01b0361156c6114bc565b169130830361159c5761065f925067031028000901000960bd1b915f905f5160206139ef5f395f51905f52612acc565b823b156100f8576040516301c85d5760e51b81525f5160206139ef5f395f51905f52600482015260a06024820152925f92849283918591839161160091906115e89060a4850190611756565b90846044850152600319848303016064850152611e26565b67031028000901000960bd1b608483015203925af18015610ae0576116225750565b806116305f61065f9361062c565b80610347565b61163e610d02565b9081511561079457602082015281518060051b9080820460201481151715610cc05790604051936020850191601f19603f8288010116604052855260205f9101905b83811061169557505050509061065f91612462565b6020600181928451865201920192019190611680565b6001600160401b03811161060b57601f01601f191660200190565b81601f820112156100f8578051906116dd826116ab565b926116eb604051948561062c565b828452602083830101116100f857815f9260208093018386015e8301015290565b916060838303126100f85782516001600160401b0381116100f857826117339185016116c6565b92602081015192604082015160018060401b0381116100f85761029692016116c6565b90602080835192838152019201905f5b8181106117735750505090565b8251845260209384019390920191600101611766565b6001600160a01b036117996114bc565b163081036117cd57506117c69067031028000901000960bd1b905f5160206139ef5f395f51905f52612831565b9192909190565b60405163419b58fd60e01b81525f5160206139ef5f395f51905f5260048201526060602482015292915f9184918290819061180c906064830190611756565b67031028000901000960bd1b604483015203915afa908115610ae0575f5f935f93611838575b50929190565b9193505061185891503d805f833e611850818361062c565b81019061170c565b929092915f611832565b6001600160a01b036118726114bc565b163081036118a557506117c69067031028010100080960bd1b906813185b99145d595cdd603a1b613a3160f11b01612831565b60405163419b58fd60e01b81526813185b99145d595cdd603a1b613a3160f11b0160048201526060602482015292915f918491829081906118ea906064830190611756565b67031028010100080960bd1b604483015203915afa908115610ae0575f5f935f936118385750929190565b6001600160a01b036119256114bc565b1630810361195857506117c69067810502202020200160b81b906851756573745461736b60381b613a3160f11b01612831565b60405163419b58fd60e01b81526851756573745461736b60381b613a3160f11b0160048201526060602482015292915f9184918290819061199d906064830190611756565b67810502202020200160b81b604483015203915afa908115610ae0575f5f935f936118385750929190565b6001600160a01b036119d86114bc565b16308103611a0c57506117c69064210200200160d01b906f4c616e6451756573745461736b50726f613a3160f11b01612831565b60405163419b58fd60e01b81526f4c616e6451756573745461736b50726f613a3160f11b0160048201526060602482015292915f91849182908190611a55906064830190611756565b64210200200160d01b604483015203915afa908115610ae0575f5f935f936118385750929190565b6001600160a01b03611a8d6114bc565b16308103611ac057506117c690660308201101000960c51b90690517565737447726f75760341b613a3160f11b01612831565b60405163419b58fd60e01b8152690517565737447726f75760341b613a3160f11b0160048201526060602482015292915f91849182908190611b06906064830190611756565b660308201101000960c51b604483015203915afa908115610ae0575f5f935f936118385750929190565b6001600160a01b03611b406114bc565b16308103611b6c57506117c69064210203200160d01b9064145d595cdd605a1b613a3160f11b01612831565b60405163419b58fd60e01b815264145d595cdd605a1b613a3160f11b0160048201526060602482015292915f91849182908190611bad906064830190611756565b64210203200160d01b604483015203915afa908115610ae0575f5f935f936118385750929190565b906020828203126100f85781516001600160401b0381116100f85761029692016116c6565b6001600160a01b03611c0a6114bc565b16308103611c2f5750610296905f906551756573747360501b613a3160f11b01612916565b604051631e78897760e01b81526551756573747360501b613a3160f11b01600482015260606024820152915f91839182908190611c70906064830190611756565b85604483015203915afa908115610ae0575f91611c8b575090565b61029691503d805f833e611c9f818361062c565b810190611bd5565b6001600160a01b03611cb76114bc565b16308103611ce05750610296905f90690517565737447726f75760341b613a3160f11b01612916565b604051631e78897760e01b8152690517565737447726f75760341b613a3160f11b01600482015260606024820152915f91839182908190611c70906064830190611756565b6001600160a01b03611d356114bc565b16308103611d5a57506102969060029064145d595cdd605a1b613a3160f11b01612916565b604051631e78897760e01b815264145d595cdd605a1b613a3160f11b01600482015260606024820152915f91839182908190611d9a906064830190611756565b6002604483015203915afa908115610ae0575f91611c8b575090565b6001600160a01b03611dc66114bc565b16308103611de85750610296905f905f51602061392f5f395f51905f52612916565b604051631e78897760e01b81525f51602061392f5f395f51905f52600482015260606024820152915f91839182908190611c70906064830190611756565b805180835260209291819084018484015e5f828201840152601f01601f1916010190565b91908201809211610cc057565b91908203918211610cc057565b80518211611e7f5760200160801b9060018060801b03161790565b6040516323230fa360e01b815260606004820152918291611ea4906064840190611e26565b905f602484015260448301520390fd5b8282118015611f24575b611eef579081602082819401019283910111610cc0578203918211610cc05760801b6001600160801b039091161790565b6040516323230fa360e01b81526060600482015292839291611f15906064850190611e26565b91602484015260448301520390fd5b5080518311611ebe565b90611f4c611f3a6107ea565b92906040602083015192015160f81c90565b151560208401528252565b908160209103126100f8575190565b90611f8760609360ff92979695978452608060208501526080840190611756565b951660408201520152565b6001600160a01b03611fa26114bc565b16308103611fe25750610296906d3702c00505050505050505050505608a1b906004906f436f6e66696741646472657373657300613a3160f11b01612a64565b604051638c364d5960e01b815291602091839182908190612033906d3702c00505050505050505050505608a1b906004906f436f6e66696741646472657373657300613a3160f11b01828601611f66565b03915afa908115610ae0575f91612048575090565b610296915060203d60201161206a575b612062818361062c565b810190611f57565b503d612058565b6001600160a01b036120816114bc565b163081036120b6575061029690630101000160d81b905f906f4c616e645065726d697373696f6e7300613a3160f11b01612a64565b604051638c364d5960e01b81529160209183918290819061203390630101000160d81b905f906f4c616e645065726d697373696f6e7300613a3160f11b0160048601611f66565b6001600160a01b0361210d6114bc565b1630810361213d57506102969067031028000901000960bd1b906004905f5160206139ef5f395f51905f52612a64565b604051638c364d5960e01b8152916020918391829081906120339067031028000901000960bd1b906004905f5160206139ef5f395f51905f52828601611f66565b919261219f61029696946121ad93855260a0602086015260a0850190611756565b908382036040850152611e26565b9260608201526080818403910152611e26565b5f916001600160a01b036121d26114bc565b16308103612201575061065f925f5160206139ef5f395f51905f5292606092906121fb85612d30565b94612e3b565b925090823b156100f85760405163298314fb60e01b8152925f9284928391859183916122439160609185915f5160206139ef5f395f51905f526004870161217e565b03925af18015610ae0576122545750565b5f61065f9161062c565b5f916001600160a01b036122706114bc565b1630810361229f575061065f926813185b99145d595cdd603a1b613a3160f11b0192606092906121fb85612d30565b925090823b156100f85760405163298314fb60e01b8152925f9284928391859183916122439160609185916813185b99145d595cdd603a1b613a3160f11b016004870161217e565b604051906122f4826105f0565b60606080835f81525f602082015282604082015282808201520152565b909161065f93928351936020810151906040810151151560806060830151151592015192604051976020890152604088015260f81b606087015260f81b606186015260628501526062845261236760828561062c565b61236f610d24565b92612379846107b9565b52612383836107c6565b5261238d826107a9565b5261225e565b61239b610d02565b90815115610794576020820152604051916020830152602082526123c060408361062c565b6001600160a01b036123d06114bc565b163081036123f4575061065f91906001905f51602061392f5f395f51905f5261308d565b91823b156100f857604051630a87993160e11b8152925f92849283918591839161224391906001905f51602061392f5f395f51905f52600486015b9061244e610296959360ff928452608060208501526080840190611756565b931660408201526060818403910152611e26565b905f6001600160a01b036124746114bc565b163081036127be57505f51602061392f5f395f51905f52612495848261367d565b54936124a18386612b9a565b64ffffffffff8116969095906145cf60f11b6001600160f01b0319851601612776576124d86124d08989611e57565b875190611e4a565b8088141580988199612755575b50612740576124f59086846138bc565b906124ff856136ef565b915f5b83518110156125e25761252e61252961251b83876107d6565b516001600160581b03191690565b612de2565b61253e816010809160581c161490565b61254c575b50600101612502565b61257461257461256e61256161258094612de2565b6001600160601b03191690565b60601c90565b6001600160a01b031690565b90813b156100f8575f898193898f8c8f6125b4908d88946040519b8c998a988997630abd6b4560e31b8952600489016135dc565b03925af1918215610ae0576001926125ce575b5090612543565b806116305f6125dc9361062c565b5f6125c7565b5092859098919888858c5f935f9060ff8d16905b8160ff8416106127175750505065ffffffffffff925f51602061394f5f395f51905f52949261262f928d60405196879616908d8761362d565b0390a2612706575b61264c865f612647888789612b4d565b6138ab565b5f5b81518110156126fb5761266761252961251b83856107d6565b612677816020809160581c161490565b612685575b5060010161264e565b61257461257461256e61256161269a94612de2565b90813b156100f8575f87819387838a8f8e8b6126cd926040519b8c998a988997636358453360e01b8952600489016135dc565b03925af1918215610ae0576001926126e7575b509061267c565b806116305f6126f59361062c565b5f6126e0565b505050505050509050565b81612711848661367d565b55612637565b94509490955060ff92506001915061272f8685612b9a565b019401168c87918a95948d946125f6565b610a9c89632994042d60e21b5f52805f6135c1565b905061276e6127648b5f6135a5565b64ffffffffff1690565b14155f6124e5565b836040519061279e82612790836020830160209181520190565b03601f19810184528361062c565b6127ba6040519283926331b4668360e01b845260048401613583565b0390fd5b80939291503b156100f8576040516377b7543160e11b8152925f928492839185918391612243919084905f51602061392f5f395f51905f526004860161242f565b90612809826116ab565b612816604051918261062c565b8281528092612827601f19916116ab565b0190602036910137565b91925f9260609260ff6128488760f01c8385612ae8565b9660e01c168061285757505050565b9194509250612866838561367d565b549361287a66ffffffffffffff86166127ff565b935f91602086015b8460ff851610612893575050505050565b61289e848484612b4d565b906128a9858a612b9a565b918190835b60208110156128fe57916128cf93918360ff96946128e2575b505050611e4a565b931660ff8114610cc05760010192612882565b5f199060031b1c908183511691199054161790525f80806128c7565b919060018160209254845201910191601f19016128ae565b90610296926129336129399261292d838287612b4d565b9461367d565b54612b9a565b90612c78565b6040805160206020600160801b0384168201810190925260016001607b1b03600584901c16808252909392909160809190911c9084015f5b8381106129845750505050565b6020600181928551855201920192019190612977565b9060158260801c9260018060801b031604604051926020840160208360051b8601016040528285525f5b8381106129d15750505050565b6020600160159285518552019201920191906129c4565b9190612a099064ffffffffff8460381c166111d56111c76112f18385611e64565b6040805160206020600160801b0384168201810190925260016001607b1b03600584901c168082529092909160809190911c9083015f5b838110612a4e575050505090565b6020600181928551855201920192019190612a40565b612a8a91612a7491949394612cc3565b9260ff808216601b0360031b84901c1692612cf1565b91806020841015612abb575b5080548360031b1b92602003809211612aae57505090565b600101549060031b1c1790565b601f84169360051c0190505f612a96565b91612ae165ffffffffffff9161065f96612cf1565b1691613399565b9190918115612b035761029692612afe91612cc3565b612c78565b505050604051612b1460208261062c565b5f815290565b60209181520160208251919201905f5b818110612b375750505090565b8251845260209384019390920191600101612b2a565b612b74612b825f5160206139cf5f395f51905f529493604051928391602083019586612b1a565b03601f19810183528261062c565b51902060f89190911b6001600160f81b031916181890565b60ff64ffffffffff92166028026038011c1690565b919080612bfb575b505b6020811015612be35780612bcc57505050565b5f1960039190911b1c825191548119169116179052565b919060018160209254845201910191601f1901612bb9565b6020811015612c5c575b8015612bb757929183602003908183105f14612c4f575f19600384901b1c5b81548660031b1b818651169119161784528183111561135657600101920192601f199101015f612bb7565b5f19600383901b1c612c24565b91612c7390612c6b8460051c90565b0192601f1690565b612c05565b6102969060405192601f19603f82860101166040528084525f6020850192612baf565b608081901c919061065f906001600160801b0316612cb8816127ff565b9360208501906136ab565b90612cdc612b7491604051928391602083019586612b1a565b5190205f51602061398f5f395f51905f521890565b5f915f915b60ff82168310612d065750505090565b909192612d1c848360ff91601b0360031b1c1690565b8101809111610cc057926001019190612cf6565b655461626c657360501b66746273746f726560c81b018114612d985760408051655461626c657360501b66746273746f726560c81b016020820190815281830193909352908152612d8260608261062c565b5190205f51602061398f5f395f51905f52185490565b506503001811010160cd1b90565b906102969492612dc1612dcf92608085526080850190611756565b908382036020850152611e26565b9260408201526060818403910152611e26565b6001600160581b03191690565b96959490612e3693612e1560a09694612e23938b5260c060208c015260c08b0190611756565b9089820360408b0152611e26565b9160608801528682036080880152611e26565b930152565b9295949192916001600160f01b03198316611bdd60f21b1461306557612e60836136ef565b5f5b8151811015612f0d57612e7b61252961251b83856107d6565b612e8b816001809160581c161490565b612e99575b50600101612e62565b61257461257461256e612561612eae94612de2565b90813b156100f8575f878b9387838a612edf8a8f6040519a8b98899788966315c19b2760e21b885260048801612def565b03925af1918215610ae057600192612ef9575b5090612e90565b806116305f612f079361062c565b5f612ef2565b50835f5160206139af5f395f51905f5260405180612f2e8a8d8b8a85612da6565b0390a2612f4a612f3e8486612cc3565b865160208801916137ad565b60e082901c60ff1680613006575b505f5b81518110156126fb57612f7461252961251b83856107d6565b612f84816002809160581c161490565b612f92575b50600101612f5b565b61257461257461256e612561612fa794612de2565b90813b156100f8575f878b9387838a612fd88a8f6040519a8b9889978896635b28cdaf60e01b885260048801612def565b03925af1918215610ae057600192612ff2575b5090612f89565b806116305f6130009361062c565b5f612feb565b88613011858761367d565b555f602088015b85878c8560ff86161061302f575050505050612f58565b8361305760ff956130508861304a8160019961305c99612b4d565b95612b9a565b80946137ad565b611e4a565b92011690613018565b509093945f5160206139af5f395f51905f52936130889160405194859485612da6565b0390a2565b91909161309a838261367d565b54926130a68385612b9a565b64ffffffffff8116969095906145cf60f11b6001600160f01b0319851601612776576130dd6130d55f89611e57565b835190611e4a565b8781141597888061332e575b61331957808a116132fc57506131009086886138bc565b9061310a856136ef565b915f5b83518110156131ba5761312661252961251b83876107d6565b613136816010809160581c161490565b613144575b5060010161310d565b61257461257461256e61256161315994612de2565b90813b156100f8575f898d9389838c8f8c61318c91846040519b8c998a988997630abd6b4560e31b8952600489016135dc565b03925af1918215610ae0576001926131a6575b509061313b565b806116305f6131b49361062c565b5f61319f565b509685909891988a905f9060ff8a16905b8160ff8416106132db5750505065ffffffffffff5f51602061394f5f395f51905f5291613204878c5f8d60405196879616908d8761362d565b0390a26132ca575b61321c8289612647888789612b4d565b5f5b81518110156126fb5761323761252961251b83856107d6565b613247816020809160581c161490565b613255575b5060010161321e565b61257461257461256e61256161326a94612de2565b90813b156100f8575f878b9387838a61329c8a8f846040519b8c998a988997636358453360e01b8952600489016135dc565b03925af1918215610ae0576001926132b6575b509061324c565b806116305f6132c49361062c565b5f6132af565b856132d5848661367d565b5561320c565b91935091600160ff916132ee8685612b9a565b0194011690918893926131cb565b637e8578d360e01b5f5260045264ffffffffff891660245260445ffd5b610a9c8a632994042d60e21b5f525f816135c1565b508061333d6127645f8d6135a5565b14156130e9565b65ffffffffffff6133616102969593606084526060840190611756565b931660208201526040818403910152611e26565b9061244e610296959365ffffffffffff928452608060208501526080840190611756565b92939291906001600160f01b03198316611bdd60f21b14613563576133be8184612cc3565b936133c8846136ef565b90865f5b835181101561347a576133e561252961251b83876107d6565b6133f5816004809160581c161490565b613403575b506001016133cc565b61341b91925061257461256e61256161257493612de2565b90813b156100f8575f868a9387838b61344a6040519889968795869463964f667d60e01b865260048601613375565b03925af1908115610ae0578992600192613466575b50906133fa565b806116305f6134749361062c565b5f61345f565b506134b19196865f51602061396f5f395f51905f526040518061349f868b8b84613344565b0390a265ffffffffffff8616906138ab565b5f5b815181101561355a576134cc61252961251b83856107d6565b6134dc816008809160581c161490565b6134ea575b506001016134b3565b61257461257461256e6125616134ff94612de2565b90813b156100f85760405163a8ba872160e01b8152915f90839081838161352c8e8c8c8f60048601613375565b03925af1918215610ae057600192613546575b50906134e1565b806116305f6135549361062c565b5f61353f565b50505050509050565b6130885f51602061396f5f395f51905f5293949560405193849384613344565b6060906102969392613a3160f11b825260208201528160408201520190611e26565b9064ffffffffff8091169116019064ffffffffff8211610cc057565b64ffffffffff90811660045290811660245216604452606490565b9364ffffffffff929060ff61360885936102969b99959a979a895260e060208a015260e0890190611756565b9816604087015216606085015216608083015260a082015260c0818403910152611e26565b929365ffffffffffff610296979560ff61365864ffffffffff9599969960c0895260c0890190611756565b98166020870152166040850152166060830152608082015260a0818403910152611e26565b90613696612b7491604051928391602083019586612b1a565b5190205f516020613a0f5f395f51905f521890565b90915b60208110156136d85780156136d3575f199060031b1c90818351169119905116179052565b505050565b8151835260209283019290910190601f19016136ae565b6136f7610d02565b80511561079457610310816102969360206137a894015264ffffffffff5f5160206139cf5f395f51905f52604051602081019061375281612b74876953746f7265486f6f6b7360301b66746273746f726560c81b0186612b1a565b51902060405191189260208201919061378b908290612b74906953746f7265486f6f6b7360301b66746273746f726560c81b0186612b1a565b5190205f516020613a0f5f395f51905f52185460381c1690612c78565b61299a565b91905b60208110156137d957806137c357505050565b5f199060031b1c90818354169119905116179055565b909160016020918451815501920190601f19016137b0565b9291908061383e575b505b6020811015613826578061380f57505050565b5f1960039190911b1c825491518119169116179055565b909160016020918451815501920190601f19016137fc565b602081101561388f575b80156137fa5791926020839003905f19600384901b1c198460031b90811c908651901c9080198354169116178155818311156113565760010193019101601f19015f6137fa565b926138a69061389e8560051c90565b0193601f1690565b613848565b825161065f936020019290916137f1565b9064ffffffffff831161391b5764ffffffffff8060ff66ffffffffffffff85166138e68587612b9a565b87818110613911570301935b166028026038019416841b931b199166ffffffffffffff191617161790565b90039003936138f2565b82637149a3c160e01b5f5260045260245ffdfe746200000000000000000000000000004c616e64517565737447726f75707300fe158a7adba34e256807c8a149028d3162918713c3838afc643ce9f96716ebfd8c0b5119d4cec7b284c6b1b39252a03d1e2f2d7451a5895562524c113bb952be86425bff6b57326c7859e89024fe4f238ca327a1ae4a230180dd2f0e88aaa7d98dbb3a9672eebfd3773e72dd9c102393436816d832c7ba9e1e1ac8fcadcac7a93b4102da22e32d82fc925482184f16c09fd4281692720b87d124aef6da48a0f1746200000000000000000000000000004c616e64517565737447726f7570000014e2fcc58e58e68ec7edc30c8d50dccc3ce2714a623ec81f46b6a63922d76569a2646970667358221220bc96029e0adb318ec9925ec85c11f2dc36246e85c1c2a12bf107b697f5fa90bc64736f6c634300081c0033","linkReferences":{}},"methodIdentifiers":{"_msgSender()":"119df25f","_msgValue()":"45ec9354","_world()":"e1af802c","activateAllQuestGroups(uint256)":"0c73b135","activateLandQuestGroup(uint256,uint256)":"bd208c92","getActiveLandQuestGroups(uint256)":"4e809753","getLandQuestGroup(uint256,uint256)":"094f1ba2","removeAllExpiredQuestGroups(uint256)":"f437df08","supportsInterface(bytes4)":"01ffc9a7"},"id":140}