{"abi":[{"type":"function","name":"transform","inputs":[{"name":"landId","type":"uint256","internalType":"uint256"},{"name":"x","type":"uint256","internalType":"uint256"},{"name":"y","type":"uint256","internalType":"uint256"},{"name":"input","type":"uint256","internalType":"uint256"},{"name":"config","type":"tuple","internalType":"struct TransformationsData","components":[{"name":"next","type":"uint256","internalType":"uint256"},{"name":"yield","type":"uint256","internalType":"uint256"},{"name":"inputNext","type":"uint256","internalType":"uint256"},{"name":"yieldQuantity","type":"uint256","internalType":"uint256"},{"name":"unlockTime","type":"uint256","internalType":"uint256"},{"name":"timeout","type":"uint256","internalType":"uint256"},{"name":"timeoutYield","type":"uint256","internalType":"uint256"},{"name":"timeoutYieldQuantity","type":"uint256","internalType":"uint256"},{"name":"timeoutNext","type":"uint256","internalType":"uint256"},{"name":"isRecipe","type":"bool","internalType":"bool"},{"name":"isWaterCollection","type":"bool","internalType":"bool"},{"name":"xp","type":"uint256","internalType":"uint256"},{"name":"exists","type":"bool","internalType":"bool"}]}],"outputs":[],"stateMutability":"nonpayable"},{"type":"event","name":"Store_DeleteRecord","inputs":[{"name":"tableId","type":"bytes32","indexed":true,"internalType":"ResourceId"},{"name":"keyTuple","type":"bytes32[]","indexed":false,"internalType":"bytes32[]"}],"anonymous":false},{"type":"event","name":"Store_SpliceStaticData","inputs":[{"name":"tableId","type":"bytes32","indexed":true,"internalType":"ResourceId"},{"name":"keyTuple","type":"bytes32[]","indexed":false,"internalType":"bytes32[]"},{"name":"start","type":"uint48","indexed":false,"internalType":"uint48"},{"name":"data","type":"bytes","indexed":false,"internalType":"bytes"}],"anonymous":false},{"type":"error","name":"Slice_OutOfBounds","inputs":[{"name":"data","type":"bytes","internalType":"bytes"},{"name":"start","type":"uint256","internalType":"uint256"},{"name":"end","type":"uint256","internalType":"uint256"}]},{"type":"error","name":"TransformationIncompatible","inputs":[{"name":"base","type":"uint256","internalType":"uint256"},{"name":"input","type":"uint256","internalType":"uint256"}]},{"type":"error","name":"notUnlockedYet","inputs":[{"name":"timeNow","type":"uint256","internalType":"uint256"},{"name":"unlockTime","type":"uint256","internalType":"uint256"},{"name":"x","type":"uint256","internalType":"uint256"},{"name":"y","type":"uint256","internalType":"uint256"}]}],"bytecode":{"object":"0x608080604052346015576141a0908161001a8239f35b5f80fdfe60806040526004361015610011575f80fd5b5f3560e01c6399e033fb14610024575f80fd5b346100e2576102203660031901126100e2576024356004356064356044356101a06083193601126100e2576100e09361005b610122565b93608435855260a435602086015260c435604086015260e43560608601526101043560808601526101243560a08601526101443560c08601526101643560e0860152610184356101008601526100af610134565b6101208601526100bd610144565b6101408601526101e4356101608601526100d5610154565b6101808601526101c5565b005b5f80fd5b634e487b7160e01b5f52604160045260245ffd5b601f909101601f19168101906001600160401b0382119082101761011d57604052565b6100e6565b604051906101326101a0836100fa565b565b6101a4359081151582036100e257565b6101c4359081151582036100e257565b610204359081151582036100e257565b1561016b57565b60405162461bcd60e51b815260206004820152602c60248201527f6572726f723a20756e6c6f636b2074696d65206d757374206265206c6573732060448201526b1d1a185b881d1a5b595bdd5d60a21b6064820152608490fd5b939290916101d481848761033c565b926101e0828288610477565b956101f96101f0888585856105c3565b9784848461065a565b604088015180610299575b506101208701511561021b57506101329650610b87565b909594508391929315908161028f575b50156102405750602061013295015193610a61565b92936080850180511580610280575b1561025f575061013295506109e5565b5161026e576101329550610901565b939291906020610132960151946106e1565b5061028a856106a3565b61024f565b905015155f61022b565b806102bf9160808a015260608a015180918160a08c0152109081156102c5575b50610164565b5f610204565b9050155f6102b9565b156102d557565b60405162461bcd60e51b81526020600482015260186024820152776765744974656d41743a204f7574206f6620626f756e647360401b6044820152606490fd5b634e487b7160e01b5f52601160045260245ffd5b5f1981019190821161033757565b610315565b90916103466104d8565b80511561044c5761035d8184602085940152611036565b1180610451575b806103ac575b610373906102ce565b610388610381828585610caf565b61ffff1690565b9283156103a45761039b6103a194610329565b92610cf8565b90565b505050505f90565b506103b56104d8565b80511561044c576103ce818460206103d694015261338c565b805190613433565b6040805160206020600160801b0384168201810190925260016001607b1b03600584901c168082529092869285929160801c9085015f5b8381106104305750505050610427908361037394506105af565b5111905061036a565b825182528995508794506020928301929091019060010161040d565b61057b565b5061045a6104d8565b80511561044c5761047181846020879401526110fe565b11610364565b916104859161ffff93610caf565b168061049057505f90565b5f1981019081116103375790565b6040519060a082016001600160401b0381118382101761011d576040525f6080838281528260208201528260408201528260608201520152565b604080519091906104e983826100fa565b6001815291601f1901366020840137565b60405160a0919061050b83826100fa565b6004815291601f1901366020840137565b6040516080919061052d83826100fa565b6003815291601f1901366020840137565b6040519061054d6020836100fa565b5f808352366020840137565b6040516060919061056a83826100fa565b6002815291601f1901366020840137565b634e487b7160e01b5f52603260045260245ffd5b80516003101561044c5760800190565b80516002101561044c5760600190565b805182101561044c5760209160051b010190565b9192906105ce61049e565b506105d76104fa565b9283511561044c57602084015282516001101561044c57604083015281516002101561044c5761061592606083015261060f8261058f565b52610df7565b505061061f61049e565b9060208101519060408101519060608101519060a0608082015191015160f81c15156080860152606085015260408401526020830152815290565b9192906106656104fa565b9283511561044c57602084015282516001101561044c57604083015281516002101561044c576103a192606083015261069d8261058f565b52611186565b6106ab6104d8565b80511561044c576106c0916020820152611204565b60f81c90565b906001820180921161033757565b9190820180921161033757565b93929594959190916106ff6106f7838588610477565b8385886105c3565b60408101518015801599919061089757915b891561088c57606001515b61072683836106d4565b421180610872575b156107755750505095610748848697988486604099611a9e565b610764575b50505b01518061075b575050565b61013291611b32565b61076e91856119cb565b5f8061074d565b9091925061078381836106d4565b42119081610868575b50156107c25750508394956107a58483856040986119ad565b6107b1575b5050610750565b6107bb91856119cb565b5f806107aa565b6107cc82826106d4565b421161081557610811916107df916106d4565b91604051938493638d35b4b360e01b855242600486019094939260609260808301968352602083015260408201520152565b0390fd5b60405162461bcd60e51b815260206004820152602560248201527f5472616e73666f726d6174696f6e3a206e6f2076616c696420756e6c6f636b20604482015264199bdd5b9960da1b6064820152608490fd5b905015155f61078c565b5061087d81836106d4565b42108061072e5750801561072e565b5060a086015161071c565b50608086015191610711565b156108aa57565b60405162461bcd60e51b815260206004820152602960248201527f6572726f723a206f7665726c617070696e6720776174657220636f6c6c656374604482015268696f6e2074696d657360b81b6064820152608490fd5b92919091806109d5575b506020840151806109c0575b506040840151806109b0575b506109318451828486611c21565b61093c818385610477565b9161094b610140860151151590565b610957575b5050505050565b61096c61096684848488611ce5565b156108a3565b60a0610976611d2e565b95610984878686868a611d3e565b015180610992575b50610950565b6109a59561099f916106d4565b93611d3e565b5f808080808061098c565b6109ba9084611b32565b5f610923565b60608501516109cf9185611b5d565b5f610917565b6109df9084611b87565b5f61090b565b926109f090846127c4565b15610a215783602061013295015180610a0c575b505192611c21565b6060820151610a1b9186611b5d565b5f610a04565b60405162461bcd60e51b81526020600482015260186024820152771e5bdd48191bdb89dd081a185d99481d1a1a5cc81d1bdbdb60421b6044820152606490fd5b93608084018051820180831161033757421180610b00575b15610a8957505061013293611e73565b610a949051826106d4565b421015610ad35760405162461bcd60e51b815260206004820152601060248201526f139bdd081d5b9b1bd8dad959081e595d60821b6044820152606490fd5b60a0840151610ae1916106d4565b4211610aee575b50505050565b610af793611d97565b5f808080610ae8565b50610b0f60a0860151836106d4565b4210610a79565b15610b1d57565b606460405162461bcd60e51b815260206004820152602060248201527f796f7520646f6e2774206861766520616e7920616374697665207461626c65736044820152fd5b5f9103126100e257565b908152602081019190915260400190565b6040513d5f823e3d90fd5b9491909294610b958161202a565b610bdc87610ba2886120e9565b95610bca6040850191610bb783511515610b16565b610bc18488611b87565b51878a88611c21565b610bd3876106c6565b90519085612106565b90610bf7610beb610beb6121b9565b6001600160a01b031690565b90813b156100e2575f83610c23938b83604051809781958294631c686f1160e31b845260048401610b6b565b03925af1988915610caa578888610c8597610c8a9a610c72610c78956101329f610c7f9a60609a610c6992610c90575b508c86610c61818884610477565b9889926121cf565b8484848d6122c7565b886123c4565b01516106c6565b906124a2565b6106c6565b90612564565b80610c9e5f610ca4936100fa565b80610b61565b5f610c53565b610b7c565b9190610cb961051c565b9283511561044c57602084015282516001101561044c57604083015281516002101561044c5781610cf191606061ffff940152611298565b60f01c1690565b919290610d036104fa565b9283511561044c57602084015282516001101561044c57604083015281516002101561044c576103a1926060830152610d3b8261058f565b5261131a565b6001600160401b03811161011d57601f01601f191660200190565b81601f820112156100e257805190610d7382610d41565b92610d8160405194856100fa565b828452602083830101116100e257815f9260208093018386015e8301015290565b90602080835192838152019201905f5b818110610dbf5750505090565b8251845260209384019390920191600101610db2565b939291610df2906040928652606060208701526060860190610da2565b930152565b6001600160a01b03610e07612627565b16308103610e3b5750610e349067810500202020200160b81b905f51602061410b5f395f51905f5261268e565b9192909190565b60405163419b58fd60e01b815292915f91849182908190610e7a9067810500202020200160b81b905f51602061410b5f395f51905f5260048501610dd5565b03915afa908115610caa575f5f935f93610e95575b50929190565b93505090503d805f843e610ea981846100fa565b8201906060838303126100e25782516001600160401b0381116100e25782610ed2918501610d5c565b92602081015192604082015160018060401b0381116100e257610ef59201610d5c565b91925f610e8f565b6001600160a01b03610f0d612627565b16308103610f3e5750610e34906b072848090101010008210101609d1b905f5160206140eb5f395f51905f5261268e565b60405163419b58fd60e01b815292915f91849182908190610e7a906b072848090101010008210101609d1b905f5160206140eb5f395f51905f5260048501610dd5565b6001600160a01b03610f91612627565b16308103610fbd5750610e3490660400200101010160c51b905f51602061402b5f395f51905f5261268e565b60405163419b58fd60e01b815292915f91849182908190610e7a90660400200101010160c51b905f51602061402b5f395f51905f5260048501610dd5565b908160209103126100e2575190565b9061102b60609360ff92979695978452608060208501526080840190610da2565b951660408201520152565b6001600160a01b03611046612627565b1630810361107a57506103a1906b072848090101010008210101609d1b906001905f5160206140eb5f395f51905f52612736565b604051638c364d5960e01b8152916020918391829081906110c0906b072848090101010008210101609d1b906001905f5160206140eb5f395f51905f526004860161100a565b03915afa908115610caa575f916110d5575090565b6103a1915060203d6020116110f7575b6110ef81836100fa565b810190610ffb565b503d6110e5565b6001600160a01b0361110e612627565b1630810361114157506103a1906b072848090101010008210101609d1b905f905f5160206140eb5f395f51905f52612736565b604051638c364d5960e01b8152916020918391829081906110c0906b072848090101010008210101609d1b905f905f5160206140eb5f395f51905f526004860161100a565b6001600160a01b03611196612627565b163081036111c457506103a190660400200101010160c51b905f905f51602061402b5f395f51905f52612736565b604051638c364d5960e01b8152916020918391829081906110c090660400200101010160c51b905f905f51602061402b5f395f51905f526004860161100a565b6001600160a01b03611214612627565b1630810361124d57506103a1906b033048000808080808090101609d1b90600290674974656d496e666f60401b613a3160f11b01612736565b604051638c364d5960e01b8152916020918391829081906110c0906b033048000808080808090101609d1b90600290674974656d496e666f60401b613a3160f11b016004860161100a565b6001600160a01b036112a8612627565b163081036112d857506103a190630100800160d91b905f906713185b9910d95b1b60421b613a3160f11b01612736565b604051638c364d5960e01b8152916020918391829081906110c090630100800160d91b905f906713185b9910d95b1b60421b613a3160f11b016004860161100a565b6001600160a01b0361132a612627565b1630810361135957506103a19067810500202020200160b81b905f905f51602061410b5f395f51905f52612736565b604051638c364d5960e01b8152916020918391829081906110c09067810500202020200160b81b905f905f51602061410b5f395f51905f526004860161100a565b6001600160a01b036113aa612627565b163081036113da57506103a19067810500202020200160b81b906002905f51602061410b5f395f51905f52612736565b604051638c364d5960e01b8152916020918391829081906110c09067810500202020200160b81b906002905f51602061410b5f395f51905f526004860161100a565b6001600160a01b0361142c612627565b1630810361146d57506103a1906e0b406001010100410101010101010160851b90600a906f5761746572436f6e74726f6c6c657200613a3160f11b01612736565b604051638c364d5960e01b8152916020918391829081906110c0906e0b406001010100410101010101010160851b90600a906f5761746572436f6e74726f6c6c657200613a3160f11b016004860161100a565b6001600160a01b036114d0612627565b1630810361150457506103a190630100080160dd1b905f906b41637469766553746f76657360201b613a3160f11b01612736565b604051638c364d5960e01b8152916020918391829081906110c090630100080160dd1b905f906b41637469766553746f76657360201b613a3160f11b016004860161100a565b6001600160a01b0361155a612627565b1630810361159057506103a1906d3702c00505050505050505050505608a1b906003905f51602061408b5f395f51905f52612736565b604051638c364d5960e01b8152916020918391829081906110c0906d3702c00505050505050505050505608a1b906003905f51602061408b5f395f51905f526004860161100a565b6001600160a01b036115e8612627565b1630810361161957506103a190630100080160dd1b905f9068496e76656e746f727960381b613a3160f11b01612736565b604051638c364d5960e01b8152916020918391829081906110c090630100080160dd1b905f9068496e76656e746f727960381b613a3160f11b016004860161100a565b6001600160a01b0361166c612627565b163081036116af57506103a190710ea0782101010101010101010100a1010101606d1b905f906f43616665436f736d6f73436f6e666967613a3160f11b01612736565b604051638c364d5960e01b8152916020918391829081906110c090710ea0782101010101010101010100a1010101606d1b905f906f43616665436f736d6f73436f6e666967613a3160f11b016004860161100a565b6001600160a01b03611714612627565b1630810361174857506103a1906b072848090101010008210101609d1b906003905f5160206140eb5f395f51905f52612736565b604051638c364d5960e01b8152916020918391829081906110c0906b072848090101010008210101609d1b906003905f5160206140eb5f395f51905f526004860161100a565b6001600160a01b0361179e612627565b163081036117d357506103a1906d3702c00505050505050505050505608a1b905f905f51602061408b5f395f51905f52612736565b604051638c364d5960e01b8152916020918391829081906110c0906d3702c00505050505050505050505608a1b905f905f51602061408b5f395f51905f526004860161100a565b6001600160a01b0361182a612627565b1630810361186057506103a1906d3702c00505050505050505050505608a1b906001905f51602061408b5f395f51905f52612736565b604051638c364d5960e01b8152916020918391829081906110c0906d3702c00505050505050505050505608a1b906001905f51602061408b5f395f51905f526004860161100a565b6001600160a01b036118b8612627565b163081036118e357506103a190630100080160dd1b905f905f51602061412b5f395f51905f52612736565b604051638c364d5960e01b8152916020918391829081906110c090630100080160dd1b905f905f51602061412b5f395f51905f526004860161100a565b6001600160a01b03611930612627565b1630810361196657506103a1906d3702c00505050505050505050505608a1b906004905f51602061408b5f395f51905f52612736565b604051638c364d5960e01b8152916020918391829081906110c0906d3702c00505050505050505050505608a1b906004905f51602061408b5f395f51905f5282860161100a565b9190610132939160c08301519161010060e08501519401519461279e565b90916119d8818484610477565b906119e16104fa565b80511561044c5783602082015280516001101561044c5780856040611a3693015282611a0c8261059f565b5283611a178261058f565b52604051905f602083015260208252611a316040836100fa565b612d5b565b611a3e6104fa565b9283511561044c57602084015282516001101561044c57610132936040840152611a678361059f565b52611a718261058f565b5260405190611a9982611a8b602082016020905f81520190565b03601f1981018452836100fa565b612cd4565b9291610132949280151580611ad7575b611ac7575b50602083015191606084015193519461279e565b611ad19085611b87565b5f611ab3565b50611ae1816106a3565b15611aae565b15611aee57565b606460405162461bcd60e51b815260206004820152602060248201527f496e76656e746f727953797374656d3a20696e76616c6964206974656d2069646044820152fd5b90611b3e811515611ae7565b611b4881836127c4565b906001820180921161033757610132926127f1565b9190611b6a811515611ae7565b611b7481846127c4565b91820180921161033757610132926127f1565b90611b93811515611ae7565b611b9d81836127c4565b9060018210611bba575f19820191821161033757610132926127f1565b60405162461bcd60e51b815260206004820152602560248201527f496e76656e746f727953797374656d3a20696e73756666696369656e742062616044820152646c616e636560d81b6064820152608490fd5b61ffff5f199116019061ffff821161033757565b929190918015611cda57611c36828486610caf565b9061ffff821615611c8d5781611c63611c809261ffff611c5a610132999796611c0d565b168588886129cd565b611c7b61ffff611c7283611c0d565b16848787612aac565b611c0d565b9261ffff42941692612b99565b60019150611cad61ffff611ca2858789610caf565b1691828587896129cd565b611cba4282858789612b99565b611cc681848688612aac565b019161ffff831161033757610132936136c3565b5090610132926128be565b919290611cf06104fa565b9283511561044c57602084015282516001101561044c57604083015281516002101561044c576103a1926060830152611d288261058f565b5261139a565b6103a1611d3961053e565b61141c565b9193929093611d4b6104fa565b9283511561044c57602084015282516001101561044c57610132946040840152611d748361059f565b52611d7e8261058f565b5260405191602083015260208252611a316040836100fa565b929190611da5610beb6121b9565b93611dae612de2565b50611dba838383610477565b93611dc785858585612e26565b9560c082015180611e63575b5060018060a01b03169560408101519051873b156100e257611e0e975f9283604051809b81958294637c6f512760e01b845260048401610b6b565b03925af1908115610caa5761013296611e3092611e4f575b5051848484611c21565b611e4a611e44611e3f83612ead565b610329565b826124a2565b612eca565b80610c9e5f611e5d936100fa565b5f611e26565b611e6d9084611b32565b5f611dd3565b9190611e7e83612fa2565b50611e8a610beb6121b9565b611e98610beb610beb61306d565b803b156100e2575f80916004604051809481936386d1a69f60e01b83525af18015610caa57611fbb575b506001600160a01b031692833b156100e2576040516332318c5560e01b81525f8160048183895af18015610caa57611fa7575b50611f396020611f06858585610477565b95611f1387878787612e26565b9060408201519151915f60405180968195829463e525310560e01b845260048401610b6b565b03925af1958615610caa5761013296611e30925f91611f88575b5080611f63575051848484611c21565b611f8281611f74611e5d938761307d565b611f7d86613108565b6106d4565b84613125565b611fa1915060203d6020116110f7576110ef81836100fa565b5f611f53565b80610c9e5f611fb5936100fa565b5f611ef5565b80610c9e5f611fc9936100fa565b5f611ec2565b6040519061014082016001600160401b0381118382101761011d576040526060610120835f81525f60208201525f60408201525f838201525f60808201525f60a08201525f60c08201525f60e08201525f6101008201520152565b612032611fcf565b5061203b6104d8565b9081511561044c57816120559160206120e0940152610efd565b90612061939293611fcf565b936020810151906040810151906060810151906120ca6080820151916120c160a082015160f81c918b60a182015160e01c9160e060a58201519260e560c5840151930151610100820152015260c08d015260a08c019063ffffffff169052565b151560808a0152565b6060880152604087015260208601528452613823565b61012082015290565b6120f16104d8565b80511561044c576103a19160208201526114c0565b50915081156121745761211c620186a0926131f4565b91818102918183041490151715610337578115612137570490565b60405162461bcd60e51b815260206004820152601560248201527463616e6e6f7420646976696465206279207a65726f60581b6044820152606490fd5b60405162461bcd60e51b815260206004820152601d60248201527f6e6f206163746976652073746f766573206f66207468697320747970650000006044820152606490fd5b6121c96121c461053e565b61154a565b60601c90565b9291906121da6104fa565b9384511561044c57602085015283516001101561044c5760408401526121ff8361059f565b526122098261058f565b52604051916020830152602082526122226040836100fa565b5f916001600160a01b03612234612627565b1692308403612261576101329350660400200101010160c51b925f51602061402b5f395f51905f526137b8565b5090823b156100e2576040516301c85d5760e51b8152925f9284928391859183916122ac91660400200101010160c51b919085905f51602061402b5f395f51905f5260048701612c9d565b03925af18015610caa576122bd5750565b5f610132916100fa565b9291906122d26104fa565b9384511561044c57602085015283516001101561044c5760408401526122f78361059f565b526123018261058f565b526040519160208301526020825261231a6040836100fa565b6001600160a01b0361232a612627565b169130830361235a576101329250660400200101010160c51b916002905f51602061402b5f395f51905f526137b8565b90823b156100e2576040516301c85d5760e51b8152925f9284928391859183916123a591660400200101010160c51b91906002905f51602061402b5f395f51905f5260048701612c9d565b03925af18015610caa576123b65750565b80610c9e5f610132936100fa565b9291906123cf6104fa565b9384511561044c57602085015283516001101561044c5760408401526123f48361059f565b526123fe8261058f565b52604051916020830152602082526124176040836100fa565b6001600160a01b03612427612627565b1691308303612457576101329250660400200101010160c51b916003905f51602061402b5f395f51905f526137b8565b90823b156100e2576040516301c85d5760e51b8152925f9284928391859183916123a591660400200101010160c51b91906003905f51602061402b5f395f51905f5260048701612c9d565b6124aa6104d8565b9081511561044c576020820152604051916020830152602082526124cf6040836100fa565b6001600160a01b036124df612627565b16913083036125145761013292506b072848090101010008210101609d1b916003905f5160206140eb5f395f51905f526137b8565b90823b156100e2576040516301c85d5760e51b8152925f9284928391859183916123a5916b072848090101010008210101609d1b91906003905f5160206140eb5f395f51905f5260048701612c9d565b61256c6104d8565b9081511561044c576020820152604051916020830152602082526125916040836100fa565b5f916001600160a01b036125a3612627565b16923084036125d6576101329350630100080160dd1b926b41637469766553746f76657360201b613a3160f11b016137b8565b5090823b156100e2576040516301c85d5760e51b8152925f9284928391859183916122ac91630100080160dd1b919085906b41637469766553746f76657360201b613a3160f11b0160048701612c9d565b7f629a4c26e296b22a8e0856e9f6ecb2d1008d7e00081111962cd175fa7488e175546001600160a01b0316806103a157503390565b9061266682610d41565b61267360405191826100fa565b8281528092612684601f1991610d41565b0190602036910137565b91925f926060926126b06126a68760f01c8385613483565b9660e01c60ff1690565b91826126bb57505050565b91945092506126ca838261393f565b54936126de66ffffffffffffff861661265c565b935f92602086015b8360ff8616106126f7575050505050565b6127028584846134e8565b61271782612710888c613535565b809361354a565b81018091116103375760ff90941660ff811461033757600101936126e6565b61275c9161274691949394613656565b9260ff808216601b0360031b84901c1692613684565b9180602084101561278d575b5080548360031b1b9260200380921161278057505090565b600101549060031b1c1790565b601f84169360051c0190505f612768565b9091926101329594816127b3575b5050611c21565b6127bd9183611b5d565b5f806127ac565b6127cc610559565b9081511561044c57602082015280516001101561044c576103a19160408201526115d8565b906127fa610559565b9182511561044c57602083015281516001101561044c5760408201526040519160208301526020825261282e6040836100fa565b5f916001600160a01b03612840612627565b1692308403612870576101329350630100080160dd1b9268496e76656e746f727960381b613a3160f11b016137b8565b5090823b156100e2576040516301c85d5760e51b8152925f9284928391859183916122ac91630100080160dd1b9190859068496e76656e746f727960381b613a3160f11b0160048701612c9d565b916128ca818385610caf565b61ffff811615610ae8576128ef81611c7b6128e761ffff94611c0d565b8587896136c3565b16916128f96104fa565b9384511561044c57602085015283516001101561044c57604084015282516002101561044c57606083015261292d8261058f565b526001600160a01b0361293e612627565b1630810361295e5750610132905f51602061410b5f395f51905f52613bf2565b803b156100e2576040805163505a181d60e01b81525f51602061410b5f395f51905f5260048201526024810191909152915f9183918290849082906129a7906044830190610da2565b03925af18015610caa576129b85750565b806129c45f80936100fa565b8003126100e257565b9291906129d86104fa565b9384511561044c57602085015283516001101561044c5760408401526129fd8361059f565b52612a078261058f565b5260405191602083015260208252612a206040836100fa565b5f916001600160a01b03612a32612627565b1692308403612a6057610132935067810500202020200160b81b925f51602061410b5f395f51905f526137b8565b5090823b156100e2576040516301c85d5760e51b8152925f9284928391859183916122ac9167810500202020200160b81b919085905f51602061410b5f395f51905f5260048701612c9d565b929190612ab76104fa565b9384511561044c57602085015283516001101561044c576040840152612adc8361059f565b52612ae68261058f565b526040515f602082015260018152612aff6021826100fa565b6001600160a01b03612b0f612627565b1691308303612b4f57610132925065ffffffffffff612b3a600467810500202020200160b81b613684565b16905f51602061410b5f395f51905f526139e3565b823b156100e2576040516301c85d5760e51b8152925f9284928391859183916129a79167810500202020200160b81b91906004905f51602061410b5f395f51905f52828701612c9d565b929190612ba46104fa565b9384511561044c57602085015283516001101561044c576040840152612bc98361059f565b52612bd38261058f565b5260405191602083015260208252612bec6040836100fa565b6001600160a01b03612bfc612627565b1691308303612c2d57610132925067810500202020200160b81b916001905f51602061410b5f395f51905f526137b8565b90823b156100e2576040516301c85d5760e51b8152925f9284928391859183916123a59167810500202020200160b81b91906001905f51602061410b5f395f51905f5260048701612c9d565b805180835260209291819084018484015e5f828201840152601f01601f1916010190565b95949360ff612cc0610df294608096948a5260a060208b015260a08a0190610da2565b921660408801528682036060880152612c79565b906001600160a01b03612ce5612627565b1691308303612d1057610132925065ffffffffffff612b3a600367810500202020200160b81b613684565b823b156100e2576040516301c85d5760e51b8152925f9284928391859183916129a79167810500202020200160b81b91906003905f51602061410b5f395f51905f5260048701612c9d565b906001600160a01b03612d6c612627565b1691308303612d9757610132925065ffffffffffff612b3a600267810500202020200160b81b613684565b823b156100e2576040516301c85d5760e51b8152925f9284928391859183916129a79167810500202020200160b81b91906002905f51602061410b5f395f51905f5260048701612c9d565b6103a1612ded61053e565b61165c565b60405190608082016001600160401b0381118382101761011d576040525f6060838281528260208201528260408201520152565b919290612e31612df2565b50612e3a6104fa565b9283511561044c57602084015282516001101561044c57604083015281516002101561044c57612e78926060830152612e728261058f565b52610f81565b5050612e82612df2565b9060208101519060408101519060806060820151910151606085015260408401526020830152815290565b612eb56104d8565b80511561044c576103a1916020820152611704565b929190612ed56104fa565b9384511561044c57602085015283516001101561044c57604084015282516002101561044c576060830152612f098261058f565b526001600160a01b03612f1a612627565b16308103612f3a5750610132905f51602061402b5f395f51905f52613bf2565b803b156100e2576040805163505a181d60e01b81525f51602061402b5f395f51905f5260048201526024810191909152915f9183918290849082906123a5906044830190610da2565b908160209103126100e257516001600160a01b03811681036100e25790565b6001600160a01b03612fb26137d4565b168015613014576040516331a9108f60e11b81526004810192909252602090829060249082905afa908115610caa575f91612feb575090565b6103a1915060203d60201161300d575b61300581836100fa565b810190612f83565b503d612ffb565b60405162461bcd60e51b815260206004820152602b60248201527f4c69624c616e644163636573733a206c616e644e46547320616464726573732060448201526a063616e6e6f7420626520360ac1b6064820152608490fd5b6121c961307861053e565b61178e565b61308d61308861053e565b61181a565b60601c803b156100e257604051632e1a7d4d60e01b815260048101849052905f908290602490829084905af18015610caa575f936130db610beb610beb8796879687966130f4575b506137e4565b8282156130eb575bf115610caa57565b506108fc6130e3565b80610c9e88613102936100fa565b5f6130d5565b6131106104d8565b80511561044c576103a19160208201526118a8565b61312d6104d8565b9081511561044c576020820152604051916020830152602082526131526040836100fa565b5f916001600160a01b03613164612627565b169230840361318e576101329350630100080160dd1b925f51602061412b5f395f51905f526137b8565b5090823b156100e2576040516301c85d5760e51b8152925f9284928391859183916122ac91630100080160dd1b919085905f51602061412b5f395f51905f5260048701612c9d565b81156131e0570490565b634e487b7160e01b5f52601260045260245ffd5b8015613362576103a1906132f86132f16132e76132dd6132d36132c96132bf6132b560016132a35f8b608081901c80613354575b50806132376132999260401c90565b80613347575b506132488160201c90565b8061333a575b506132598160101c90565b8061332d575b5061326a8160081c90565b80613320575b5061327b8160041c90565b80613313575b5061328c8160021c90565b80613306575b5060011c90565b6132fe5760011c90565b1b6132ae818b6131d6565b0160011c90565b6132ae818a6131d6565b6132ae81896131d6565b6132ae81886131d6565b6132ae81876131d6565b6132ae81866131d6565b6132ae81856131d6565b80926131d6565b90613893565b820160011c90565b600291509201915f613292565b600491509201915f613281565b600891509201915f613270565b601091509201915f61325f565b602091509201915f61324e565b604091509201915f61323d565b608092509050613299613228565b505f90565b906020828203126100e25781516001600160401b0381116100e2576103a19201610d5c565b6001600160a01b0361339c612627565b163081036133be57506103a1905f905f5160206140eb5f395f51905f526138a5565b604051631e78897760e01b81525f5160206140eb5f395f51905f52600482015260606024820152915f918391829081906133fc906064830190610da2565b85604483015203915afa908115610caa575f91613417575090565b6103a191503d805f833e61342b81836100fa565b810190613367565b8051821161344e5760200160801b9060018060801b03161790565b6040516323230fa360e01b815260606004820152918291613473906064840190612c79565b905f602484015260448301520390fd5b919091811561349e576103a19261349991613656565b61391c565b5050506040516134af6020826100fa565b5f815290565b60209181520160208251919201905f5b8181106134d25750505090565b82518452602093840193909201916001016134c5565b61350f61351d5f5160206140ab5f395f51905f5294936040519283916020830195866134b5565b03601f1981018352826100fa565b51902060f89190911b6001600160f81b031916181890565b60ff64ffffffffff92166028026038011c1690565b905b6020811015613575578061355f57505050565b5f199060031b1c90818351169119905416179052565b919060018160209254845201910191601f190161354c565b9190806135d9575b505b60208110156135c157806135aa57505050565b5f1960039190911b1c825191548119169116179052565b919060018160209254845201910191601f1901613597565b602081101561363a575b801561359557929183602003908183105f1461362d575f19600384901b1c5b81548660031b1b818651169119161784528183111561095057600101920192601f199101015f613595565b5f19600383901b1c613602565b91613651906136498460051c90565b0192601f1690565b6135e3565b9061366f61350f916040519283916020830195866134b5565b5190205f51602061406b5f395f51905f521890565b5f915f915b60ff821683106136995750505090565b9091926136af848360ff91601b0360031b1c1690565b810180911161033757926001019190613689565b9291906136ce61051c565b9384511561044c57602085015283516001101561044c5760408401526136f38361059f565b5260405160f09190911b6001600160f01b03191660208201526002815261371b6022826100fa565b5f916001600160a01b0361372d612627565b1630810361376b575065ffffffffffff61375161013294630100800160d91b613684565b16906713185b9910d95b1b60421b613a3160f11b016139e3565b8093503b156100e2576040516301c85d5760e51b8152925f9284928391859183916122ac91630100800160d91b919085906713185b9910d95b1b60421b613a3160f11b0160048701612c9d565b916137cd65ffffffffffff9161013296613684565b16916139e3565b6121c96137df61053e565b611920565b60206137f16137df61053e565b6040516331a9108f60e11b815260048101939093528290602490829060601c5afa908115610caa575f91612feb575090565b9064ffffffffff6138389260381c1690613433565b6040805160206020600160801b0384168201810190925260016001607b1b03600584901c168082529092909160809190911c9083015f5b83811061387d575050505090565b602060018192855185520192019201919061386f565b90808210156138a0575090565b905090565b906103a1926138c26138c8926138bc8382876134e8565b9461393f565b54613535565b9061391c565b9060158260801c9260018060801b031604604051926020840160208360051b8601016040528285525f5b8381106139055750505050565b6020600160159285518552019201920191906138f8565b6103a19060405192601f19603f82860101166040528084525f602085019261358d565b9061395861350f916040519283916020830195866134b5565b5190205f5160206140cb5f395f51905f521890565b65ffffffffffff61398a6103a19593606084526060840190610da2565b931660208201526040818403910152612c79565b6001600160581b03191690565b906139cf6103a1959365ffffffffffff928452608060208501526080840190610da2565b931660408201526060818403910152612c79565b92939291906001600160f01b03198316611bdd60f21b14613bcd57613a088184613656565b93613a1284613c05565b90865f5b8351811015613ae457613a42613a3d613a2f83876105af565b516001600160581b03191690565b61399e565b613a52816004809160581c161490565b613a60575b50600101613a16565b613a85919250610beb6121c9613a78610beb9361399e565b6001600160601b03191690565b90813b156100e2575f868a9387838b613ab46040519889968795869463964f667d60e01b8652600486016139ab565b03925af1908115610caa578992600192613ad0575b5090613a57565b80610c9e5f613ade936100fa565b5f613ac9565b50613b1b9196865f51602061404b5f395f51905f5260405180613b09868b8b8461396d565b0390a265ffffffffffff861690613cd4565b5f5b8151811015613bc457613b36613a3d613a2f83856105af565b613b46816008809160581c161490565b613b54575b50600101613b1d565b610beb610beb6121c9613a78613b699461399e565b90813b156100e25760405163a8ba872160e01b8152915f908390818381613b968e8c8c8f600486016139ab565b03925af1918215610caa57600192613bb0575b5090613b4b565b80610c9e5f613bbe936100fa565b5f613ba9565b50505050509050565b613bed5f51602061404b5f395f51905f529394956040519384938461396d565b0390a2565b61013291613bff82613ce5565b91613d6c565b613c0d6104d8565b80511561044c576103ce816103a1936020613cbe94015264ffffffffff5f5160206140ab5f395f51905f526040516020810190613c688161350f876953746f7265486f6f6b7360301b66746273746f726560c81b01866134b5565b519020604051911892602082019190613ca190829061350f906953746f7265486f6f6b7360301b66746273746f726560c81b01866134b5565b5190205f5160206140cb5f395f51905f52185460381c169061391c565b6138ce565b610132915f60208251920192613f4d565b825161013293602001929091613f4d565b655461626c657360501b66746273746f726560c81b018114613d4d5760408051655461626c657360501b66746273746f726560c81b016020820190815281830193909352908152613d376060826100fa565b5190205f51602061406b5f395f51905f52185490565b506503001811010160cd1b90565b9060206103a1928181520190610da2565b9092916001600160f01b03198216611bdd60f21b14613f2c57613d8e82613c05565b5f5b8151811015613e2457613da9613a3d613a2f83856105af565b613db9816040809160581c161490565b613dc7575b50600101613d90565b60601c90813b156100e257604051639faeaf4560e01b8152915f908390818381613df68a8e8d60048501610dd5565b03925af1918215610caa57600192613e10575b5090613dbe565b80610c9e5f613e1e936100fa565b5f613e09565b50825f51602061414b5f395f51905f5260405180613e428982613d5b565b0390a2613e6a613e528685613656565b613e64613e5f8560f01c90565b61265c565b90613cc3565b60e082901c60ff16613f15575b5f5b8151811015613f0d57613e92613a3d613a2f83856105af565b613ea2816080809160581c161490565b613eb0575b50600101613e79565b60601c90813b156100e2576040516383b5c95b60e01b8152915f908390818381613edf8a8e8d60048501610dd5565b03925af1918215610caa57600192613ef9575b5090613ea7565b80610c9e5f613f07936100fa565b5f613ef2565b505050509050565b613f27613f22868561393f565b614007565b613e77565b509091613bed5f51602061414b5f395f51905f529160405191829182613d5b565b92919080613f9a575b505b6020811015613f825780613f6b57505050565b5f1960039190911b1c825491518119169116179055565b909160016020918451815501920190601f1901613f58565b6020811015613feb575b8015613f565791926020839003905f19600384901b1c198460031b90811c908651901c9080198354169116178155818311156109505760010193019101601f19015f613f56565b9261400290613ffa8560051c90565b0193601f1690565b613fa4565b6001810180821161033757905b81811061401f575050565b5f815560010161401456fe746200000000000000000000000000004c616e644974656d436f6f6b696e67538c0b5119d4cec7b284c6b1b39252a03d1e2f2d7451a5895562524c113bb952be86425bff6b57326c7859e89024fe4f238ca327a1ae4a230180dd2f0e88aaa7d974620000000000000000000000000000436f6e666967416464726573736573003b4102da22e32d82fc925482184f16c09fd4281692720b87d124aef6da48a0f114e2fcc58e58e68ec7edc30c8d50dccc3ce2714a623ec81f46b6a63922d76569746200000000000000000000000000004c616e64496e666f0000000000000000746200000000000000000000000000004c616e644974656d000000000000000074620000000000000000000000000000506c61796572546f74616c4561726e650e1f72f429eb97e64878619984a91e687ae91610348b9ff4216782cc96e49d07a264697066735822122014a5d88687f1bd05c0d6472bc3628413222a9c12e43a9da5b4ff0711acabd05264736f6c634300081c0033","linkReferences":{}},"methodIdentifiers":{"transform(uint256,uint256,uint256,uint256,(uint256,uint256,uint256,uint256,uint256,uint256,uint256,uint256,uint256,bool,bool,uint256,bool))":"99e033fb"},"id":144}