{"abi":[{"type":"function","name":"_msgSender","inputs":[],"outputs":[{"name":"sender","type":"address","internalType":"address"}],"stateMutability":"view"},{"type":"function","name":"_msgValue","inputs":[],"outputs":[{"name":"value","type":"uint256","internalType":"uint256"}],"stateMutability":"pure"},{"type":"function","name":"_world","inputs":[],"outputs":[{"name":"","type":"address","internalType":"address"}],"stateMutability":"view"},{"type":"function","name":"acceptGuildInvitation","inputs":[{"name":"landId","type":"uint256","internalType":"uint256"},{"name":"guildName","type":"string","internalType":"string"}],"outputs":[],"stateMutability":"nonpayable"},{"type":"function","name":"createGuild","inputs":[{"name":"landId","type":"uint256","internalType":"uint256"},{"name":"guildName","type":"string","internalType":"string"}],"outputs":[{"name":"guildId","type":"uint8","internalType":"uint8"}],"stateMutability":"nonpayable"},{"type":"function","name":"exitGuild","inputs":[{"name":"landId","type":"uint256","internalType":"uint256"}],"outputs":[],"stateMutability":"nonpayable"},{"type":"function","name":"getGuildId","inputs":[{"name":"guildName","type":"string","internalType":"string"}],"outputs":[{"name":"","type":"uint8","internalType":"uint8"}],"stateMutability":"pure"},{"type":"function","name":"inviteToGuild","inputs":[{"name":"landId","type":"uint256","internalType":"uint256"},{"name":"invitedLandId","type":"uint256","internalType":"uint256"}],"outputs":[],"stateMutability":"nonpayable"},{"type":"function","name":"kickFromGuild","inputs":[{"name":"landId","type":"uint256","internalType":"uint256"},{"name":"kickedLandId","type":"uint256","internalType":"uint256"}],"outputs":[],"stateMutability":"nonpayable"},{"type":"function","name":"supportsInterface","inputs":[{"name":"interfaceId","type":"bytes4","internalType":"bytes4"}],"outputs":[{"name":"","type":"bool","internalType":"bool"}],"stateMutability":"pure"},{"type":"event","name":"Store_SpliceDynamicData","inputs":[{"name":"tableId","type":"bytes32","indexed":true,"internalType":"ResourceId"},{"name":"keyTuple","type":"bytes32[]","indexed":false,"internalType":"bytes32[]"},{"name":"dynamicFieldIndex","type":"uint8","indexed":false,"internalType":"uint8"},{"name":"start","type":"uint48","indexed":false,"internalType":"uint48"},{"name":"deleteCount","type":"uint40","indexed":false,"internalType":"uint40"},{"name":"encodedLengths","type":"bytes32","indexed":false,"internalType":"EncodedLengths"},{"name":"data","type":"bytes","indexed":false,"internalType":"bytes"}],"anonymous":false},{"type":"event","name":"Store_SpliceStaticData","inputs":[{"name":"tableId","type":"bytes32","indexed":true,"internalType":"ResourceId"},{"name":"keyTuple","type":"bytes32[]","indexed":false,"internalType":"bytes32[]"},{"name":"start","type":"uint48","indexed":false,"internalType":"uint48"},{"name":"data","type":"bytes","indexed":false,"internalType":"bytes"}],"anonymous":false},{"type":"error","name":"AccessByNoOperator","inputs":[{"name":"owner","type":"address","internalType":"address"},{"name":"caller","type":"address","internalType":"address"}]},{"type":"error","name":"EncodedLengths_InvalidLength","inputs":[{"name":"length","type":"uint256","internalType":"uint256"}]},{"type":"error","name":"Slice_OutOfBounds","inputs":[{"name":"data","type":"bytes","internalType":"bytes"},{"name":"start","type":"uint256","internalType":"uint256"},{"name":"end","type":"uint256","internalType":"uint256"}]},{"type":"error","name":"Store_IndexOutOfBounds","inputs":[{"name":"length","type":"uint256","internalType":"uint256"},{"name":"accessedIndex","type":"uint256","internalType":"uint256"}]},{"type":"error","name":"Store_InvalidResourceType","inputs":[{"name":"expected","type":"bytes2","internalType":"bytes2"},{"name":"resourceId","type":"bytes32","internalType":"ResourceId"},{"name":"resourceIdString","type":"string","internalType":"string"}]},{"type":"error","name":"Store_InvalidSplice","inputs":[{"name":"startWithinField","type":"uint40","internalType":"uint40"},{"name":"deleteCount","type":"uint40","internalType":"uint40"},{"name":"fieldLength","type":"uint40","internalType":"uint40"}]}],"bytecode":{"object":"0x60808060405234601557611d81908161001a8239f35b5f80fdfe60806040526004361015610011575f80fd5b5f3560e01c806301ffc9a7146100b4578063119df25f146100af5780631e5a037b146100aa57806345ec9354146100a55780636e02af72146100a0578063a01c3a311461009b578063a05f3c8414610096578063df92174714610091578063e1af802c1461008c5763fc11d24114610087575f80fd5b61059c565b610582565b6104f1565b610495565b610394565b610303565b6102e4565b610211565b610116565b346101085760203660031901126101085760043563ffffffff60e01b81168091036101085763b5dee12760e01b81149081156100f7575b50151560805260206080f35b6301ffc9a760e01b149050816100eb565b5f80fd5b5f91031261010857565b34610108575f366003190112610108576020610130610738565b6040516001600160a01b039091168152f35b634e487b7160e01b5f52604160045260245ffd5b601f909101601f19168101906001600160401b0382119082101761017957604052565b610142565b6001600160401b03811161017957601f01601f191660200190565b81601f82011215610108578035906101b08261017e565b926101be6040519485610156565b8284526020838301011161010857815f926020809301838601378301015290565b9060406003198301126101085760043591602435906001600160401b0382116101085761020e91600401610199565b90565b346101085761021f366101df565b6102288261074f565b5080511561028f5780511561028a57602081015161028692610269916102649061025d906001600160f81b0319165b60f81c90565b93826108ce565b610994565b610272816109ff565b60405160ff90911681529081906020820190565b0390f35b6105e4565b60405162461bcd60e51b815260206004820152602760248201527f4775696c6453797374656d3a204775696c64206e616d652063616e6e6f7420626044820152666520656d70747960c81b6064820152608490fd5b34610108575f366003190112610108576020604051601f193601358152f35b3461010857610311366101df565b61031a8261074f565b5080511561028a57602081015160f81c9161033361084b565b80511561028a5781602082015280516001101561028a578361036b6103638361038497604061037f960152610e60565b60f81c6105f8565b61037483610ae3565b610386575b82610b00565b6108ce565b005b61038f836109ce565b610379565b34610108576040366003190112610108576004356024356103b48261074f565b506103c96103c183610b44565b51151561065b565b6103d282610ae3565b15610441576104336103e661038493610b44565b604051610409816103fb6020820180956106b3565b03601f198101835282610156565b51902061041583610b44565b60405161042a816103fb6020820180956106b3565b519020146106c5565b61043b610724565b906108ce565b60405162461bcd60e51b815260206004820152602660248201527f4775696c6453797374656d3a20596f7520617265206e6f742061206775696c646044820152651030b236b4b760d11b6064820152608490fd5b34610108576020366003190112610108576004356104b28161074f565b506104bf6103c182610b44565b6104d96040516104d0602082610156565b5f8152826108ce565b6104e281610ae3565b6104e857005b610384906109ce565b34610108576040366003190112610108576024356105266004356105148161074f565b506105216103c182610b44565b610b44565b80511561028a576020015160f81c9061053d61084b565b9081511561028a57602082015280516001101561028a5760ff6103849216604082015260405190600160f81b60208301526001825261057d602183610156565b610d91565b34610108575f3660031901126101085760206101306111c4565b34610108576020366003190112610108576004356001600160401b038111610108576105cc903690600401610199565b80511561028a5760208091015160f81c604051908152f35b634e487b7160e01b5f52603260045260245ffd5b156105ff57565b60405162461bcd60e51b815260206004820152602e60248201527f4775696c6453797374656d3a20596f7520617265206e6f7420696e766974656460448201526d081d1bc81d1a1a5cc819dd5a5b1960921b6064820152608490fd5b1561066257565b60405162461bcd60e51b815260206004820152602360248201527f4775696c6453797374656d3a20596f7520617265206e6f7420696e20612067756044820152621a5b1960ea1b6064820152608490fd5b805191908290602001825e015f815290565b156106cc57565b60405162461bcd60e51b815260206004820152602a60248201527f4775696c6453797374656d3a20596f7520617265206e6f7420696e20746865206044820152691cd85b594819dd5a5b1960b21b6064820152608490fd5b60405190610733602083610156565b5f8252565b36603319013560601c90811561074a57565b339150565b61075f61075a61086d565b610f16565b60601c61076d811515610b61565b6040516331a9108f60e11b81526004810183905290602090829060249082905afa90811561082f575f91610800575b506107a5610738565b916001600160a01b038084169083161490839082156107ee575b5050156107cd575050600190565b6334a0e31960e21b5f526001600160a01b039081166004521660245260445ffd5b6107f9925083610beb565b825f6107bf565b610822915060203d602011610828575b61081a8183610156565b810190610bc1565b5f61079c565b503d610810565b610be0565b6001600160401b0381116101795760051b60200190565b6040516060919061085c8382610156565b6002815291601f1901366020840137565b6040519061087c602083610156565b5f808352366020840137565b604080519091906108998382610156565b6001815291601f1901366020840137565b80516002101561028a5760600190565b805182101561028a5760209160051b010190565b906108d7610888565b9182511561028a5760208301526001600160a01b036108f46111c4565b16913083036109095761090792506111f9565b565b823b156101085761096f925f92836040518096819582946377b7543160e11b845261095b60048501926a141b185e595c91dd5a5b19602a1b613a3160f11b018452608060208501526080840190610c6a565b918560408201526060818403910152610c9d565b03925af1801561082f576109805750565b8061098e5f61090793610156565b8061010c565b61099c610888565b80511561028a5761090791602082015260405190600160f81b6020830152600182526109c9602183610156565b610cfd565b6109d6610888565b80511561028a57610907916020820152604051905f6020830152600182526109c9602183610156565b610a07610888565b9081511561028a5760ff16602082015260405190600160f81b602083015260018252610a34602183610156565b5f916001600160a01b03610a466111c4565b1692308403610a78576109079350630101000160d81b926a4775696c6445786973747360281b613a3160f11b016114f9565b5090823b15610108576040516301c85d5760e51b8152925f928492839185918391610ac891630101000160d81b919085906a4775696c6445786973747360281b613a3160f11b0160048701610cc1565b03925af1801561082f57610ad95750565b5f61090791610156565b610aeb610888565b80511561028a57610257916020820152610fb7565b610b0861084b565b9081511561028a57602082015280516001101561028a5760ff61090792166040820152604051905f60208301526001825261057d602183610156565b610b4c610888565b80511561028a5761020e91602082015261111d565b15610b6857565b60405162461bcd60e51b815260206004820152602b60248201527f4c69624c616e644163636573733a206c616e644e46547320616464726573732060448201526a063616e6e6f7420626520360ac1b6064820152608490fd5b9081602091031261010857516001600160a01b03811681036101085790565b6040513d5f823e3d90fd5b919060405192610bfc608085610156565b60038452610c0a6003610834565b602085019190601f190136833784511561028a576001600160a01b0316905282516001101561028a57604083015261020e9161025791610c5d91906001600160a01b0316610c57826108aa565b5261102f565b6001600160f81b03191690565b90602080835192838152019201905f5b818110610c875750505090565b8251845260209384019390920191600101610c7a565b805180835260209291819084018484015e5f828201840152601f01601f1916010190565b95949360ff610ce4610cf894608096948a5260a060208b015260a08a0190610c6a565b921660408801528682036060880152610c9d565b930152565b5f91906001600160a01b03610d106111c4565b16308103610d49575065ffffffffffff610d3461090794630101010160d81b6116c7565b16905f516020611d0c5f395f51905f5261176f565b8093503b15610108576040516301c85d5760e51b8152925f928492839185918391610ac891630101010160d81b919085905f516020611d0c5f395f51905f5260048701610cc1565b5f91906001600160a01b03610da46111c4565b16308103610ddd575065ffffffffffff610dc861090794630101000160d81b6116c7565b16905f516020611d2c5f395f51905f5261176f565b8093503b15610108576040516301c85d5760e51b8152925f928492839185918391610ac891630101000160d81b919085905f516020611d2c5f395f51905f5260048701610cc1565b90816020910312610108575190565b90610e5560609360ff92979695978452608060208501526080840190610c6a565b951660408201520152565b6001600160a01b03610e706111c4565b16308103610e9b575061020e90630101000160d81b905f905f516020611d2c5f395f51905f52611515565b604051638c364d5960e01b815291602091839182908190610ed890630101000160d81b905f905f516020611d2c5f395f51905f5260048601610e34565b03915afa90811561082f575f91610eed575090565b61020e915060203d602011610f0f575b610f078183610156565b810190610e25565b503d610efd565b6001600160a01b03610f266111c4565b16308103610f66575061020e906d3702c00505050505050505050505608a1b906004906f436f6e66696741646472657373657300613a3160f11b01611515565b604051638c364d5960e01b815291602091839182908190610ed8906d3702c00505050505050505050505608a1b906004906f436f6e66696741646472657373657300613a3160f11b01828601610e34565b6001600160a01b03610fc76111c4565b16308103610ff2575061020e90630101010160d81b905f905f516020611d0c5f395f51905f52611515565b604051638c364d5960e01b815291602091839182908190610ed890630101010160d81b905f905f516020611d0c5f395f51905f5260048601610e34565b6001600160a01b0361103f6111c4565b16308103611074575061020e90630101000160d81b905f906f4c616e645065726d697373696f6e7300613a3160f11b01611515565b604051638c364d5960e01b815291602091839182908190610ed890630101000160d81b905f906f4c616e645065726d697373696f6e7300613a3160f11b0160048601610e34565b602081830312610108578051906001600160401b038211610108570181601f82011215610108578051906110ee8261017e565b926110fc6040519485610156565b8284526020838301011161010857815f9260208093018386015e8301015290565b6001600160a01b0361112d6111c4565b1630810361114f575061020e905f905f516020611d0c5f395f51905f5261157d565b604051631e78897760e01b81525f516020611d0c5f395f51905f52600482015260606024820152915f9183918290819061118d906064830190610c6a565b85604483015203915afa90811561082f575f916111a8575090565b61020e91503d805f833e6111bc8183610156565b8101906110bb565b7f629a4c26e296b22a8e0856e9f6ecb2d1008d7e00081111962cd175fa7488e175546001600160a01b03168061020e57503390565b90611211825f516020611d0c5f395f51905f52611a1b565b549261121d5f856115bf565b9264ffffffffff84169161123c61123484876115e8565b8551906115fa565b80861415809681976114d9575b506114b557611259905f88611a5c565b61126f5f516020611d0c5f395f51905f52611ad5565b915f5b83518110156113645761129e61129961128b83876108ba565b516001600160581b03191690565b61161d565b6112ae816010809160581c161490565b6112bc575b50600101611272565b6112e46112e46112de6112d16112f09461161d565b6001600160601b03191690565b60601c90565b6001600160a01b031690565b90813b15610108575f878b9382808a6113368e604051998a9788968795630abd6b4560e31b87526a141b185e595c91dd5a5b19602a1b613a3160f11b016004880161162a565b03925af191821561082f57600192611350575b50906112b3565b8061098e5f61135e93610156565b5f611349565b50909650946040515f516020611d0c5f395f51905f52907ffe158a7adba34e256807c8a149028d3162918713c3838afc643ce9f96716ebfd90806113ad898c8a5f808c87611677565b0390a2611497575b6113d6846113d15f855f516020611d0c5f395f51905f526119c9565b611bc5565b5f5b815181101561148e576113f161129961128b83856108ba565b611401816020809160581c161490565b61140f575b506001016113d8565b6112e46112e46112de6112d16114249461161d565b90813b1561010857604051636358453360e01b8152915f9083908183816114608c8f8d858e5f516020611d0c5f395f51905f526004880161162a565b03925af191821561082f5760019261147a575b5090611406565b8061098e5f61148893610156565b5f611473565b50505050509050565b856114af835f516020611d0c5f395f51905f52611a1b565b556113b5565b632994042d60e21b5f90815260045264ffffffffff8416602481905260445260645ffd5b90506114f16114e786611607565b64ffffffffff1690565b14155f611249565b9161150e65ffffffffffff91610907966116c7565b169161176f565b61153b9161152591949394611988565b9260ff808216601b0360031b84901c16926116c7565b9180602084101561156c575b5080548360031b1b9260200380921161155f57505090565b600101549060031b1c1790565b601f84169360051c0190505f611547565b916115a09061159a61020e936115948382886119c9565b95611a1b565b546115bf565b9160405192601f19603f82860101166040528084526020840191611be7565b60ff64ffffffffff92166028026038011c1690565b634e487b7160e01b5f52601160045260245ffd5b919082039182116115f557565b6115d4565b919082018092116115f557565b64ffffffffff169064ffffffffff82116115f557565b6001600160581b03191690565b9294919360ff61165261020e989664ffffffffff94875260e0602088015260e0870190610c6a565b961660408501525f606085015216608083015260a082015260c0818403910152610c9d565b929365ffffffffffff61020e979560ff6116a264ffffffffff9599969960c0895260c0890190610c6a565b98166020870152166040850152166060830152608082015260a0818403910152610c9d565b5f915f915b60ff821683106116dc5750505090565b9091926116f2848360ff91601b0360031b1c1690565b81018091116115f5579260010191906116cc565b65ffffffffffff61172361020e9593606084526060840190610c6a565b931660208201526040818403910152610c9d565b9061175b61020e959365ffffffffffff928452608060208501526080840190610c6a565b931660408201526060818403910152610c9d565b92939291906001600160f01b03198316611bdd60f21b14611930576117948184611988565b9361179e84611ad5565b90865f5b8351811015611850576117bb61129961128b83876108ba565b6117cb816004809160581c161490565b6117d9575b506001016117a2565b6117f19192506112e46112de6112d16112e49361161d565b90813b15610108575f868a9387838b6118206040519889968795869463964f667d60e01b865260048601611737565b03925af190811561082f57899260019261183c575b50906117d0565b8061098e5f61184a93610156565b5f611835565b506118879196865f516020611cec5f395f51905f5260405180611875868b8b84611706565b0390a265ffffffffffff861690611bd6565b5f5b815181101561148e576118a261129961128b83856108ba565b6118b2816008809160581c161490565b6118c0575b50600101611889565b6112e46112e46112de6112d16118d59461161d565b90813b156101085760405163a8ba872160e01b8152915f9083908183816119028e8c8c8f60048601611737565b03925af191821561082f5760019261191c575b50906118b7565b8061098e5f61192a93610156565b5f611915565b6119505f516020611cec5f395f51905f5293949560405193849384611706565b0390a2565b60209181520160208251919201905f5b8181106119725750505090565b8251845260209384019390920191600101611965565b906119a16103fb91604051928391602083019586611955565b5190207f86425bff6b57326c7859e89024fe4f238ca327a1ae4a230180dd2f0e88aaa7d91890565b6103fb611a037f3b4102da22e32d82fc925482184f16c09fd4281692720b87d124aef6da48a0f19493604051928391602083019586611955565b51902060f89190911b6001600160f81b031916181890565b90611a346103fb91604051928391602083019586611955565b5190207f14e2fcc58e58e68ec7edc30c8d50dccc3ce2714a623ec81f46b6a63922d765691890565b9064ffffffffff8311611ac25764ffffffffff8060ff66ffffffffffffff851680611a8786886115bf565b9088828110611ab55790500301935b166028026038019416841b931b199166ffffffffffffff191617161790565b9190925003900393611a96565b82637149a3c160e01b5f5260045260245ffd5b611add610888565b9081511561028a57602082015264ffffffffff611b37611b175f846953746f7265486f6f6b7360301b66746273746f726560c81b016119c9565b926953746f7265486f6f6b7360301b66746273746f726560c81b01611a1b565b5460ff5f166028026038011c1690611b686040519160208301938491601f19603f8387010116604052818552611be7565b519060801b9060018060801b03161760158160801c9160018060801b031604604051916020830160208360051b8501016040528284525f5b838110611bae575050505090565b602060016015928551855201920192019190611ba0565b610907915f60208251920192611c2a565b825161090793602001929091611c2a565b905b6020811015611c125780611bfc57505050565b5f199060031b1c90818351169119905416179052565b919060018160209254845201910191601f1901611be9565b92919080611c77575b505b6020811015611c5f5780611c4857505050565b5f1960039190911b1c825491518119169116179055565b909160016020918451815501920190601f1901611c35565b6020811015611ccf575b8015611c335791926020839003905f19600384901b1c198460031b90811c908651901c908019835416911617815581831115611cc85760010193019101601f19015f611c33565b5050505050565b92611ce690611cde8560051c90565b0193601f1690565b611c8156fe8c0b5119d4cec7b284c6b1b39252a03d1e2f2d7451a5895562524c113bb952be74620000000000000000000000000000506c617965724775696c640000000000746200000000000000000000000000004775696c64496e7669746174696f6e00a2646970667358221220b255525342adfc3bf0eca95ca3da83da4c1e7871c5aa0b37ddb3362c50f47d2864736f6c634300081c0033","linkReferences":{}},"methodIdentifiers":{"_msgSender()":"119df25f","_msgValue()":"45ec9354","_world()":"e1af802c","acceptGuildInvitation(uint256,string)":"6e02af72","createGuild(uint256,string)":"1e5a037b","exitGuild(uint256)":"a05f3c84","getGuildId(string)":"fc11d241","inviteToGuild(uint256,uint256)":"df921747","kickFromGuild(uint256,uint256)":"a01c3a31","supportsInterface(bytes4)":"01ffc9a7"},"id":133}