{"abi":[{"type":"function","name":"incrementProgressCollectItem","inputs":[{"name":"landId","type":"uint256","internalType":"uint256"},{"name":"itemId","type":"uint256","internalType":"uint256"}],"outputs":[],"stateMutability":"nonpayable"},{"type":"function","name":"incrementProgressCraft","inputs":[{"name":"landId","type":"uint256","internalType":"uint256"},{"name":"outputItemId","type":"uint256","internalType":"uint256"}],"outputs":[],"stateMutability":"nonpayable"},{"type":"function","name":"incrementProgressTransform","inputs":[{"name":"landId","type":"uint256","internalType":"uint256"},{"name":"base","type":"uint256","internalType":"uint256"},{"name":"input","type":"uint256","internalType":"uint256"}],"outputs":[],"stateMutability":"nonpayable"},{"type":"function","name":"incrementQuestProgressStackItem","inputs":[{"name":"landId","type":"uint256","internalType":"uint256"},{"name":"base","type":"uint256","internalType":"uint256"},{"name":"input","type":"uint256","internalType":"uint256"}],"outputs":[],"stateMutability":"nonpayable"},{"type":"event","name":"LandQuestCompleted","inputs":[{"name":"landId","type":"uint256","indexed":true,"internalType":"uint256"},{"name":"questGroupId","type":"uint256","indexed":false,"internalType":"uint256"},{"name":"questId","type":"uint256","indexed":false,"internalType":"uint256"}],"anonymous":false},{"type":"event","name":"LandQuestGroupCompleted","inputs":[{"name":"landId","type":"uint256","indexed":true,"internalType":"uint256"},{"name":"questGroupId","type":"uint256","indexed":false,"internalType":"uint256"}],"anonymous":false},{"type":"event","name":"LandQuestItemRewardClaimed","inputs":[{"name":"landId","type":"uint256","indexed":true,"internalType":"uint256"},{"name":"itemId","type":"uint256","indexed":false,"internalType":"uint256"},{"name":"quantity","type":"uint256","indexed":false,"internalType":"uint256"}],"anonymous":false},{"type":"event","name":"LandQuestTaskCompleted","inputs":[{"name":"landId","type":"uint256","indexed":true,"internalType":"uint256"},{"name":"questGroupId","type":"uint256","indexed":false,"internalType":"uint256"},{"name":"questId","type":"uint256","indexed":false,"internalType":"uint256"},{"name":"taskType","type":"uint256","indexed":false,"internalType":"uint256"},{"name":"key","type":"bytes32","indexed":false,"internalType":"bytes32"}],"anonymous":false},{"type":"event","name":"LandQuestXPRewardClaimed","inputs":[{"name":"landId","type":"uint256","indexed":true,"internalType":"uint256"},{"name":"xp","type":"uint256","indexed":false,"internalType":"uint256"}],"anonymous":false},{"type":"event","name":"Store_SpliceDynamicData","inputs":[{"name":"tableId","type":"bytes32","indexed":true,"internalType":"ResourceId"},{"name":"keyTuple","type":"bytes32[]","indexed":false,"internalType":"bytes32[]"},{"name":"dynamicFieldIndex","type":"uint8","indexed":false,"internalType":"uint8"},{"name":"start","type":"uint48","indexed":false,"internalType":"uint48"},{"name":"deleteCount","type":"uint40","indexed":false,"internalType":"uint40"},{"name":"encodedLengths","type":"bytes32","indexed":false,"internalType":"EncodedLengths"},{"name":"data","type":"bytes","indexed":false,"internalType":"bytes"}],"anonymous":false},{"type":"event","name":"Store_SpliceStaticData","inputs":[{"name":"tableId","type":"bytes32","indexed":true,"internalType":"ResourceId"},{"name":"keyTuple","type":"bytes32[]","indexed":false,"internalType":"bytes32[]"},{"name":"start","type":"uint48","indexed":false,"internalType":"uint48"},{"name":"data","type":"bytes","indexed":false,"internalType":"bytes"}],"anonymous":false},{"type":"error","name":"EncodedLengths_InvalidLength","inputs":[{"name":"length","type":"uint256","internalType":"uint256"}]},{"type":"error","name":"Slice_OutOfBounds","inputs":[{"name":"data","type":"bytes","internalType":"bytes"},{"name":"start","type":"uint256","internalType":"uint256"},{"name":"end","type":"uint256","internalType":"uint256"}]},{"type":"error","name":"Store_IndexOutOfBounds","inputs":[{"name":"length","type":"uint256","internalType":"uint256"},{"name":"accessedIndex","type":"uint256","internalType":"uint256"}]},{"type":"error","name":"Store_InvalidResourceType","inputs":[{"name":"expected","type":"bytes2","internalType":"bytes2"},{"name":"resourceId","type":"bytes32","internalType":"ResourceId"},{"name":"resourceIdString","type":"string","internalType":"string"}]},{"type":"error","name":"Store_InvalidSplice","inputs":[{"name":"startWithinField","type":"uint40","internalType":"uint40"},{"name":"deleteCount","type":"uint40","internalType":"uint40"},{"name":"fieldLength","type":"uint40","internalType":"uint40"}]}],"bytecode":{"object":"0x60808060405234601557613903908161001a8239f35b5f80fdfe60806040526004361015610011575f80fd5b5f3560e01c806319c6ad04146100545780634c8b03d21461004f578063cb7d01021461004a5763fa421f5714610045575f80fd5b610288565b6101ad565b6100ae565b34610090576040366003190112610090576024356004356100736103a6565b9081511561008b576100899260208301526104f9565b005b610460565b5f80fd5b606090600319011261009057600435906024359060443590565b34610090576100bc36610094565b91906100e96100f76100cc6103a6565b946040519283916020830195869091604092825260208201520190565b03601f198101835282610367565b51902082511561008b5760208301529061011082610689565b905f925b82518410156100895761012784846104b1565b51610131816106ed565b94602086015180151590816101a3575b5061018a575b9394608001935f5b8551805182101561017b579061017586600361016d846001966104b1565b5187896109fe565b0161014f565b50506001019493506101149050565b610194828461079a565b61019e8284610917565b610147565b905042115f610141565b34610090576101bb36610094565b6101c781839493610645565b926100e96101fd6101e06101db87516104d9565b61042e565b936040519283916020830195869091604092825260208201520190565b51902061020982610474565b525f5b835181101561027e5780610222600192866104b1565b51604051610262816100e96020820194856040917fbdd02474c81b92517571439fccee8195ec31f3b050bfdcd23d46928133a076c3825260208201520190565b519020610277610271836104d9565b856104b1565b520161020c565b50610089916105a6565b34610090576040366003190112610090576024356004356102a76103a6565b9182511561008b576020830152906102be82610689565b905f925b8251841015610089576102d584846104b1565b516102df816106ed565b9460208601518015159081610349575b50610330575b9394608001935f5b85518051821015610321579061031b86600261016d846001966104b1565b016102fd565b50506001019493506102c29050565b61033a828461079a565b6103448284610917565b6102f5565b905042115f6102ef565b634e487b7160e01b5f52604160045260245ffd5b601f909101601f19168101906001600160401b0382119082101761038a57604052565b610353565b6001600160401b03811161038a5760051b60200190565b604080519091906103b78382610367565b6001815291601f1901366020840137565b604051606091906103d98382610367565b6002815291601f1901366020840137565b60405160c091906103fb8382610367565b6005815291601f1901366020840137565b6040516080919061041d8382610367565b6003815291601f1901366020840137565b906104388261038f565b6104456040519182610367565b8281528092610456601f199161038f565b0190602036910137565b634e487b7160e01b5f52603260045260245ffd5b80511561008b5760200190565b80516003101561008b5760800190565b80516004101561008b5760a00190565b80516002101561008b5760600190565b805182101561008b5760209160051b010190565b634e487b7160e01b5f52601160045260245ffd5b90600182018092116104e757565b6104c5565b919082018092116104e757565b9061050382610689565b915f5b83518110156105a05761051981856104b1565b5190610524826106ed565b9560208701518015159081610596575b5061057d575b9495608001945f5b8651805182101561056d5790610567875f61055f846001966104b1565b51888a6109fe565b01610542565b5090969550506001019050610506565b610587838561079a565b6105918385610917565b61053a565b905042115f610534565b50505050565b906105b082610689565b915f5b83518110156105a0576105c681856104b1565b51906105d1826106ed565b956020870151801515908161063b575b50610622575b9495608001945f5b86518051821015610612579061060c87600161055f8482966104b1565b016105ef565b50909695505060010190506105b3565b61062c838561079a565b6106368385610917565b6105e7565b905042115f6105e1565b61064d6103c8565b9081511561008b57602082015280516001101561008b5761067981610686936040610681940152610af8565b805190610c47565b611321565b90565b6106916103a6565b80511561008b5761067981610686936020610681940152610bb3565b6040519060c082016001600160401b0381118382101761038a57604052606060a0835f81525f60208201525f60408201525f838201528260808201520152565b6106f56106ad565b506106fe6103a6565b80511561008b5761071a8161078d936020610681940152610d5b565b6107289492949391936106ad565b946020810151906040810151906061606082015160f81c910151606089015215156040880152602087015285526107678464ffffffffff9060381c1690565b6107856107776106818385610c47565b9560601c64ffffffffff1690565b810191610c97565b60a0830152608082015290565b906107a36103c8565b9182511561008b57602083015281516001101561008b5760408201526040515f6020820152600181526107d7602182610367565b5f916001600160a01b036107e96112c3565b16308103610828575065ffffffffffff6108116108269467031028000901000960bd1b611a48565b16905f51602061386e5f395f51905f52611afd565b565b8093503b15610090576040516301c85d5760e51b8152925f9284928391859183916108749167031028000901000960bd1b919085905f51602061386e5f395f51905f526004870161104b565b03925af1801561088f576108855750565b5f61082691610367565b610aed565b5f198101919082116104e757565b919082039182116104e757565b5f1981146104e75760010190565b156108c457565b60405162461bcd60e51b815260206004820152602560248201527f4c616e6451756573747353797374656d3a205175657374206973206e6f742061604482015264637469766560d81b6064820152608490fd5b91909161092381610689565b9081519182156109ae576109396101db84610894565b925f918290815b8383106109675750505050610826939461095c610962926108bd565b8261079a565b611127565b8861097284846104b1565b51146109a25761099960019161098885856104b1565b51610993828b6104b1565b526108af565b925b0191610940565b9193506001809461099b565b60405162461bcd60e51b815260206004820152602260248201527f4c616e6451756573747353797374656d3a204e6f206163746976652071756573604482015261747360f01b6064820152608490fd5b94935f5b8151811015610a2b5780610a25610a1b600193856104b1565b518787878c61119c565b01610a02565b50505050509050565b6001600160401b03811161038a57601f01601f191660200190565b81601f8201121561009057805190610a6682610a34565b92610a746040519485610367565b8284526020838301011161009057815f9260208093018386015e8301015290565b906020828203126100905781516001600160401b038111610090576106869201610a4f565b90602080835192838152019201905f5b818110610ad75750505090565b8251845260209384019390920191600101610aca565b6040513d5f823e3d90fd5b6001600160a01b03610b086112c3565b16308103610b345750610686905f906f5472616e73666f726d6174696f6e4361613a3160f11b016112f8565b604051631e78897760e01b81526f5472616e73666f726d6174696f6e4361613a3160f11b01600482015260606024820152915f91839182908190610b7c906064830190610aba565b85604483015203915afa90811561088f575f91610b97575090565b61068691503d805f833e610bab8183610367565b810190610a95565b6001600160a01b03610bc36112c3565b16308103610be55750610686905f905f5160206137ee5f395f51905f526112f8565b604051631e78897760e01b81525f5160206137ee5f395f51905f52600482015260606024820152915f91839182908190610b7c906064830190610aba565b805180835260209291819084018484015e5f828201840152601f01601f1916010190565b80518211610c625760200160801b9060018060801b03161790565b6040516323230fa360e01b815260606004820152918291610c87906064840190610c23565b905f602484015260448301520390fd5b8282118015610d07575b610cd25790816020828194010192839101116104e75782039182116104e75760801b6001600160801b039091161790565b6040516323230fa360e01b81526060600482015292839291610cf8906064850190610c23565b91602484015260448301520390fd5b5080518311610ca1565b916060838303126100905782516001600160401b0381116100905782610d38918501610a4f565b92602081015192604082015160018060401b038111610090576106869201610a4f565b6001600160a01b03610d6b6112c3565b16308103610da55750610d9e90660308201101000960c51b90690517565737447726f75760341b613a3160f11b016113f2565b9192909190565b60405163419b58fd60e01b8152690517565737447726f75760341b613a3160f11b0160048201526060602482015292915f91849182908190610deb906064830190610aba565b660308201101000960c51b604483015203915afa90811561088f575f5f935f93610e16575b50929190565b91935050610e3691503d805f833e610e2e8183610367565b810190610d11565b929092915f610e10565b6001600160a01b03610e506112c3565b16308103610e835750610d9e9067810502202020200160b81b906851756573745461736b60381b613a3160f11b016113f2565b60405163419b58fd60e01b81526851756573745461736b60381b613a3160f11b0160048201526060602482015292915f91849182908190610ec8906064830190610aba565b67810502202020200160b81b604483015203915afa90811561088f575f5f935f93610e165750929190565b6001600160a01b03610f036112c3565b16308103610f2f5750610d9e9064210203200160d01b9064145d595cdd605a1b613a3160f11b016113f2565b60405163419b58fd60e01b815264145d595cdd605a1b613a3160f11b0160048201526060602482015292915f91849182908190610f70906064830190610aba565b64210203200160d01b604483015203915afa90811561088f575f5f935f93610e165750929190565b6001600160a01b03610fa86112c3565b16308103610fd65750610d9e906503001801010160cd1b906514995dd85c9960521b613a3160f11b016113f2565b60405163419b58fd60e01b81526514995dd85c9960521b613a3160f11b0160048201526060602482015292915f91849182908190611018906064830190610aba565b6503001801010160cd1b604483015203915afa90811561088f575f5f935f93610e165750929190565b5f91031261009057565b95949360ff61106e61108294608096948a5260a060208b015260a08a0190610aba565b921660408801528682036060880152610c23565b930152565b5f91906001600160a01b0361109a6112c3565b163081036110d9575065ffffffffffff6110be61082694630100080160dd1b611a48565b169068496e76656e746f727960381b613a3160f11b01611afd565b8093503b15610090576040516301c85d5760e51b8152925f92849283918591839161087491630100080160dd1b9190859068496e76656e746f727960381b613a3160f11b016004870161104b565b61112f6103a6565b9081511561008b57602082015281518060051b90808204602014811517156104e75790604051936020850191601f19603f8288010116604052855260205f9101905b838110611186575050505090610826916114b3565b6020600181928451865201920192019190611171565b93929092604051916020830193845260408301526060820152606081526111c4608082610367565b519020906111d0611570565b506111d96103a6565b9182511561008b57826111f3916020611243950152610e40565b906111ff949294611570565b9460208101519060408101519060608101519061122d60a0608083015192015160f81c60808b019015159052565b6060890152604088015260208701528552612c66565b60c084015260a083015281519283156105a0576020830193611277611273865192604087019384519187876115b6565b1590565b611283575b5050505050565b6112b9946112b49161129c865183518351918888611614565b906112ac875193519151926104d9565b928686611669565b61175d565b5f8080808061127c565b7f629a4c26e296b22a8e0856e9f6ecb2d1008d7e00081111962cd175fa7488e175546001600160a01b03168061068657503390565b906106869261131561131b9261130f838287611893565b94612a42565b546118d2565b906118e7565b6040805160206020600160801b0384168201810190925260016001607b1b03600584901c16808252909392909160809190911c9084015f5b8381106113665750505050565b6020600181928551855201920192019190611359565b9060158260801c9260018060801b031604604051926020840160208360051b8601016040528285525f5b8381106113b35750505050565b6020600160159285518552019201920191906113a6565b906113d482610a34565b6113e16040519182610367565b8281528092610456601f1991610a34565b91925f9260609260ff6114098760f01c838561190a565b9660e01c168061141857505050565b91945092506114278385612a42565b549361143b66ffffffffffffff86166113ca565b935f9186602087015b8560ff86161061145657505050505050565b60ff918161147d6114829361147689611470818b8b611893565b956118d2565b809461193c565b6104ec565b931660ff81146104e757600101928790611444565b916114ac65ffffffffffff9161082696611a48565b1691611afd565b6001600160a01b036114c36112c3565b163081036114e6575061082691905f905f5160206137ee5f395f51905f52611d15565b91823b15610090576040516377b7543160e11b81525f5160206137ee5f395f51905f52600482015260806024820152925f92849283918591839161154b9190611533906084850190610aba565b90846044850152600319848303016064850152610c23565b03925af1801561088f5761155c5750565b8061156a5f61082693610367565b80611041565b6040519060e082016001600160401b0381118382101761038a57604052606060c0835f81525f60208201525f60408201525f838201525f60808201528260a08201520152565b919293906115c26103ea565b9283511561008b57602084015282516001101561008b57604083015281516002101561008b5760ff9361160d9360608401526115fd83610481565b5261160782610491565b5261204c565b60f81c1690565b92909391936116216103ea565b9384511561008b57602085015283516001101561008b57604084015282516002101561008b5761068693606084015261165983610481565b5261166382610491565b52612106565b94939291906116766103ea565b9586511561008b57602087015285516001101561008b57604086015261169b856104a1565b526116a584610481565b526116af83610491565b52604051906020820152602081526116c8604082610367565b5f916001600160a01b036116da6112c3565b16308103611714575065ffffffffffff6116ff6108269464210200200160d01b611a48565b16905f51602061380e5f395f51905f52611afd565b8093503b15610090576040516301c85d5760e51b8152925f9284928391859183916108749164210200200160d01b919085905f51602061380e5f395f51905f526004870161104b565b9082516020840161177981519260408701938451918688611614565b6060860151111561178b575050505050565b61179f6112738651835185519187896115b6565b1561127c5783917f44a14c325acb47c1eda2afe5fa040cd32dfeeaa23b976b38063ba54dcc217389916117d98751825184519188886126a2565b61180687519151925160405193849388859094939260609260808301968352602083015260408201520152565b0390a2611815835182846127aa565b611840611824855184866127e7565b9161183b8651611833836104d9565b908688612824565b6104d9565b1461184d575b808061127c565b6118589251916128f9565b5f8080611846565b60209181520160208251919201905f5b81811061187d5750505090565b8251845260209384019390920191600101611870565b6100e96118ba5f51602061384e5f395f51905f529493604051928391602083019586611860565b51902060f89190911b6001600160f81b031916181890565b60ff64ffffffffff92166028026038011c1690565b6106869060405192601f19603f82860101166040528084525f602085019261197f565b9190918115611925576106869261192091612a70565b6118e7565b505050604051611936602082610367565b5f815290565b905b6020811015611967578061195157505050565b5f199060031b1c90818351169119905416179052565b919060018160209254845201910191601f190161193e565b9190806119cb575b505b60208110156119b3578061199c57505050565b5f1960039190911b1c825191548119169116179052565b919060018160209254845201910191601f1901611989565b6020811015611a2c575b801561198757929183602003908183105f14611a1f575f19600384901b1c5b81548660031b1b818651169119161784528183111561127c57600101920192601f199101015f611987565b5f19600383901b1c6119f4565b91611a4390611a3b8460051c90565b0192601f1690565b6119d5565b5f915f915b60ff82168310611a5d5750505090565b909192611a73848360ff91601b0360031b1c1690565b81018091116104e757926001019190611a4d565b65ffffffffffff611aa46106869593606084526060840190610aba565b931660208201526040818403910152610c23565b6001600160581b03191690565b90611ae9610686959365ffffffffffff928452608060208501526080840190610aba565b931660408201526060818403910152610c23565b92939291906001600160f01b03198316611bdd60f21b14611cf057611b228184612a70565b93611b2c84612ab1565b90865f5b8351811015611c1057611b5c611b57611b4983876104b1565b516001600160581b03191690565b611ab8565b611b6c816004809160581c161490565b611b7a575b50600101611b30565b611bb1919250611ba5611b9f611b92611ba593611ab8565b6001600160601b03191690565b60601c90565b6001600160a01b031690565b90813b15610090575f868a9387838b611be06040519889968795869463964f667d60e01b865260048601611ac5565b03925af190811561088f578992600192611bfc575b5090611b71565b8061156a5f611c0a93610367565b5f611bf5565b50611c479196865f51602061382e5f395f51905f5260405180611c35868b8b84611a87565b0390a265ffffffffffff861690612b80565b5f5b8151811015610a2b57611c62611b57611b4983856104b1565b611c72816008809160581c161490565b611c80575b50600101611c49565b611ba5611ba5611b9f611b92611c9594611ab8565b90813b156100905760405163a8ba872160e01b8152915f908390818381611cc28e8c8c8f60048601611ac5565b03925af191821561088f57600192611cdc575b5090611c77565b8061156a5f611cea93610367565b5f611cd5565b611d105f51602061382e5f395f51905f5293949560405193849384611a87565b0390a2565b919091611d228382612a42565b5492611d2e83856118d2565b64ffffffffff8116969095906145cf60f11b6001600160f01b0319851601611fc957611d65611d5d89896108a2565b8351906104ec565b8088141580988199611fa9575b50611f8557611d82908688613504565b90611d8c85612ab1565b915f5b8351811015611e2957611da8611b57611b4983876104b1565b611db8816010809160581c161490565b611dc6575b50600101611d8f565b60601c90813b15610090575f898d9389838c8f8c611dfb916040519a8b9889978896630abd6b4560e31b885260048801612bc9565b03925af191821561088f57600192611e15575b5090611dbd565b8061156a5f611e2393610367565b5f611e0e565b5096859098919884898c5f935f9060ff8d16905b8160ff841610611f5c5750505065ffffffffffff927ffe158a7adba34e256807c8a149028d3162918713c3838afc643ce9f96716ebfd9492611e89928d60405196879616908d87612c16565b0390a2611f4b575b611ea582611ea0878688611893565b612b6f565b5f5b8151811015611f4057611ec0611b57611b4983856104b1565b611ed0816020809160581c161490565b611ede575b50600101611ea7565b60601c90813b15610090575f878b9387838a611f128a8f6040519a8b9889978896636358453360e01b885260048801612bc9565b03925af191821561088f57600192611f2c575b5090611ed5565b8061156a5f611f3a93610367565b5f611f25565b505050505050509050565b85611f568486612a42565b55611e91565b94509490955060ff925060019150611f7486856118d2565b019401168c8b918a95948994611e3d565b632994042d60e21b5f90815260045264ffffffffff8916602481905260445260645ffd5b9050611fc1611fb78b612bb3565b64ffffffffff1690565b14155f611d72565b8360405190611ff182611fe3836020830160209181520190565b03601f198101845283610367565b61200d6040519283926331b4668360e01b845260048401612b91565b0390fd5b90816020910312610090575190565b9061204160609360ff92979695978452608060208501526080840190610aba565b951660408201520152565b6001600160a01b0361205c6112c3565b1630810361208957506106869064210200200160d01b906001905f51602061380e5f395f51905f52612c9f565b604051638c364d5960e01b8152916020918391829081906120c89064210200200160d01b906001905f51602061380e5f395f51905f5260048601612020565b03915afa90811561088f575f916120dd575090565b610686915060203d6020116120ff575b6120f78183610367565b810190612011565b503d6120ed565b6001600160a01b036121166112c3565b1630810361214257506106869064210200200160d01b905f905f51602061380e5f395f51905f52612c9f565b604051638c364d5960e01b8152916020918391829081906120c89064210200200160d01b905f905f51602061380e5f395f51905f5260048601612020565b6001600160a01b036121906112c3565b163081036121c057506106869067031028010100080960bd1b906001905f5160206138ae5f395f51905f52612c9f565b604051638c364d5960e01b8152916020918391829081906120c89067031028010100080960bd1b906001905f5160206138ae5f395f51905f5260048601612020565b6001600160a01b036122126112c3565b1630810361224157506106869067031028010100080960bd1b905f905f5160206138ae5f395f51905f52612c9f565b604051638c364d5960e01b8152916020918391829081906120c89067031028010100080960bd1b905f905f5160206138ae5f395f51905f5260048601612020565b6001600160a01b036122926112c3565b163081036122c257506106869067031028010100080960bd1b906003905f5160206138ae5f395f51905f52612c9f565b604051638c364d5960e01b8152916020918391829081906120c89067031028010100080960bd1b906003905f5160206138ae5f395f51905f5260048601612020565b6001600160a01b036123146112c3565b1630810361234457506106869067031028010100080960bd1b906004905f5160206138ae5f395f51905f52612c9f565b604051638c364d5960e01b8152916020918391829081906120c89067031028010100080960bd1b906004905f5160206138ae5f395f51905f52828601612020565b6001600160a01b036123956112c3565b163081036123c6575061068690630100080160dd1b905f9068496e76656e746f727960381b613a3160f11b01612c9f565b604051638c364d5960e01b8152916020918391829081906120c890630100080160dd1b905f9068496e76656e746f727960381b613a3160f11b0160048601612020565b6001600160a01b036124196112c3565b1630810361244957506106869067031028000901000960bd1b906002905f51602061386e5f395f51905f52612c9f565b604051638c364d5960e01b8152916020918391829081906120c89067031028000901000960bd1b906002905f51602061386e5f395f51905f5260048601612020565b6001600160a01b0361249b6112c3565b163081036124cb57506106869067031028000901000960bd1b906001905f51602061386e5f395f51905f52612c9f565b604051638c364d5960e01b8152916020918391829081906120c89067031028000901000960bd1b906001905f51602061386e5f395f51905f5260048601612020565b6001600160a01b0361251d6112c3565b1630810361254c57506106869067031028000901000960bd1b905f905f51602061386e5f395f51905f52612c9f565b604051638c364d5960e01b8152916020918391829081906120c89067031028000901000960bd1b905f905f51602061386e5f395f51905f5260048601612020565b6001600160a01b0361259d6112c3565b163081036125cd57506106869067031028000901000960bd1b906004905f51602061386e5f395f51905f52612c9f565b604051638c364d5960e01b8152916020918391829081906120c89067031028000901000960bd1b906004905f51602061386e5f395f51905f52828601612020565b6001600160a01b0361261e6112c3565b163081036126575750610686906b072848090101010008210101609d1b90600790674c616e64496e666f60401b613a3160f11b01612c9f565b604051638c364d5960e01b8152916020918391829081906120c8906b072848090101010008210101609d1b90600790674c616e64496e666f60401b613a3160f11b0160048601612020565b939291906126ae6103ea565b9485511561008b57602086015284516001101561008b5760408501526126d3846104a1565b526126dd83610481565b526126e782610491565b52604051600160f81b602082015260018152612704602182610367565b6001600160a01b036127146112c3565b169130830361273c57610826925065ffffffffffff6116ff600164210200200160d01b611a48565b823b15610090576040516301c85d5760e51b8152925f9284928391859183916127849164210200200160d01b91906001905f51602061380e5f395f51905f526004870161104b565b03925af1801561088f576127955750565b806127a15f8093610367565b80031261009057565b906127b361040c565b9182511561008b57602083015281516001101561008b57604082015280516002101561008b57610686916060820152612180565b906127f061040c565b9182511561008b57602083015281516001101561008b57604082015280516002101561008b57610686916060820152612202565b919061282e61040c565b9283511561008b57602084015282516001101561008b576040830152612853826104a1565b526040519160208301526020825261286c604083610367565b6001600160a01b0361287c6112c3565b16913083036128ad57610826925067031028010100080960bd1b916001905f5160206138ae5f395f51905f52611497565b90823b15610090576040516301c85d5760e51b8152925f92849283918591839161154b9167031028010100080960bd1b91906001905f5160206138ae5f395f51905f526004870161104b565b909161290e612909828585612d07565b6108bd565b612919818484612d48565b8015908115612a38575b50156129e2576129348184846127aa565b61293f8285856127e7565b111561294b575b505050565b90919261295782612ff0565b606001935f5b8551805182101561298d57906129878661298261297c846001966104b1565b516130ca565b61311a565b0161295d565b5050916129a89194506129a1818486613254565b8284612d85565b6129b28183613326565b6129c56129bf8385613353565b916104d9565b6129d0818486613380565b146129d9575050565b61082691612ec8565b90807f70c2101aecaeb8026b8f3a9aa794324e9ec95e39adfb89c6be5b1dad259c772c612a3084612a1887966108269886612d85565b60408051878152602081019290925290918291820190565b0390a2612ec8565b905042105f612923565b90612a5b6100e991604051928391602083019586611860565b5190205f51602061388e5f395f51905f521890565b90612a896100e991604051928391602083019586611860565b5190207f86425bff6b57326c7859e89024fe4f238ca327a1ae4a230180dd2f0e88aaa7d91890565b612ab96103a6565b80511561008b5761067981610686936020612b6a94015264ffffffffff5f51602061384e5f395f51905f526040516020810190612b14816100e9876953746f7265486f6f6b7360301b66746273746f726560c81b0186611860565b519020604051911892602082019190612b4d9082906100e9906953746f7265486f6f6b7360301b66746273746f726560c81b0186611860565b5190205f51602061388e5f395f51905f52185460381c16906118e7565b61137c565b610826915f6020825192019261344a565b82516108269360200192909161344a565b6060906106869392613a3160f11b825260208201528160408201520190610c23565b64ffffffffff169064ffffffffff82116104e757565b9294919360ff612bf1610686989664ffffffffff94875260e0602088015260e0870190610aba565b961660408501525f606085015216608083015260a082015260c0818403910152610c23565b929365ffffffffffff610686979560ff612c4164ffffffffff9599969960c0895260c0890190610aba565b98166020870152166040850152166060830152608082015260a0818403910152610c23565b91906106816106869164ffffffffff8560381c1664ffffffffff612c92612c8d8385610c47565b613576565b9660601c16810191610c97565b612cc591612caf91949394612a70565b9260ff808216601b0360031b84901c1692611a48565b91806020841015612cf6575b5080548360031b1b92602003809211612ce957505090565b600101549060031b1c1790565b601f84169360051c0190505f612cd1565b9190612d1161040c565b9283511561008b57602084015282516001101561008b57604083015281516002101561008b578161160d91606060ff940152612282565b90612d5161040c565b9182511561008b57602083015281516001101561008b57604082015280516002101561008b57610686916060820152612304565b9190612d8f61040c565b9283511561008b57602084015282516001101561008b576040830152612db4826104a1565b526040515f602082015260018152612dcd602182610367565b6001600160a01b03612ddd6112c3565b1691308303612e1d57610826925065ffffffffffff612e08600367031028010100080960bd1b611a48565b16905f5160206138ae5f395f51905f52611afd565b823b15610090576040516301c85d5760e51b8152925f9284928391859183916127849167031028010100080960bd1b91906003905f5160206138ae5f395f51905f526004870161104b565b15612e6f57565b60405162461bcd60e51b815260206004820152602b60248201527f4c616e6451756573747353797374656d3a2051756573742047726f757020697360448201526a206e6f742061637469766560a81b6064820152608490fd5b9190612edc612ed7828561359e565b612e68565b612ee681846135d1565b8015908115612fac575b5015612f6a57612f008184613326565b612f0a8285613353565b1115612f1557509050565b612f1e816106ed565b60a001915f5b83518051821015612f495790612f438661298261297c846001966104b1565b01612f24565b5050926108269250612f5b82826135fe565b612f65828261079a565b610917565b82612f7982610826949561079a565b60405182815281907fcd4e8fc381e466b0eae207e329377c200524f5b1c045332e355d9e733ddae2f690602090a2610917565b905042105f612ef0565b6040519060a082016001600160401b0381118382101761038a5760405260606080835f81525f602082015282604082015282808201520152565b612ff8612fb6565b506130016103a6565b80511561008b57613016916020820152610ef3565b9061301f612fb6565b926040602082015191015160f81c15156020850152835261308a61068161304e8364ffffffffff9060381c1690565b9361305c612c8d8683610c47565b9461078561307c610681606088901c64ffffffffff168401809486610c97565b9560881c64ffffffffff1690565b60808401526060830152604082015290565b60405190606082016001600160401b0381118382101761038a576040525f6040838281528260208201520152565b6130d261309c565b506130db6103a6565b80511561008b576130f0916020820152610f98565b50506130fa61309c565b906020810151906060604082015191015160408401526020830152815290565b6020810180511561318a575b51600114613132575050565b611d107f020b8843ba5bef3d2378c5b599d13586b9904cadf93efb18252df91e00f3d1d9916131796131736040613168876136c5565b9301928351906104ec565b856136e2565b516040519081529081906020820190565b8151906040830180519061319c6103c8565b80511561008b5786602082015280516001101561008b57808560406131c2930152612385565b9182018092116104e7576131d46103c8565b9081511561008b5786602083015281516001101561008b5761323887938360019760407f680da94a46411d9fcf8948f1385ed86fd4c2d081dbdbba63cd8d64ad38b9785496015260405191602083015260208252613233604083610367565b611087565b8551905160408051928352602083019190915290a29050613126565b919061325e61040c565b9283511561008b57602084015282516001101561008b576040830152613283826104a1565b52604051600160f81b6020820152600181526132a0602182610367565b6001600160a01b036132b06112c3565b16913083036132db57610826925065ffffffffffff612e08600267031028010100080960bd1b611a48565b823b15610090576040516301c85d5760e51b8152925f9284928391859183916127849167031028010100080960bd1b91906002905f5160206138ae5f395f51905f526004870161104b565b61332e6103c8565b9081511561008b57602082015280516001101561008b57610686916040820152612409565b61335b6103c8565b9081511561008b57602082015280516001101561008b5761068691604082015261248b565b906133896103c8565b9182511561008b57602083015281516001101561008b576040820152604051916020830152602082526133bd604083610367565b6001600160a01b036133cd6112c3565b16913083036133fe57610826925067031028000901000960bd1b916002905f51602061386e5f395f51905f52611497565b90823b15610090576040516301c85d5760e51b8152925f92849283918591839161154b9167031028000901000960bd1b91906002905f51602061386e5f395f51905f526004870161104b565b92919080613497575b505b602081101561347f578061346857505050565b5f1960039190911b1c825491518119169116179055565b909160016020918451815501920190601f1901613455565b60208110156134e8575b80156134535791926020839003905f19600384901b1c198460031b90811c908651901c90801983541691161781558183111561127c5760010193019101601f19015f613453565b926134ff906134f78560051c90565b0193601f1690565b6134a1565b9064ffffffffff83116135635764ffffffffff8060ff66ffffffffffffff851661352e85876118d2565b87818110613559570301935b166028026038019416841b931b199166ffffffffffffff191617161790565b900390039361353a565b82637149a3c160e01b5f5260045260245ffd5b608081901c9190610826906001600160801b0316613593816113ca565b9360208501906137ae565b6135a66103c8565b9081511561008b57602082015280516001101561008b576135cb91604082015261250d565b60f81c90565b6135d96103c8565b9081511561008b57602082015280516001101561008b5761068691604082015261258d565b906136076103c8565b9182511561008b57602083015281516001101561008b576040820152604051600160f81b60208201526001815261363f602182610367565b6001600160a01b0361364f6112c3565b169130830361367a57610826925065ffffffffffff610811600367031028000901000960bd1b611a48565b823b15610090576040516301c85d5760e51b8152925f9284928391859183916127849167031028000901000960bd1b91906003905f51602061386e5f395f51905f526004870161104b565b6136cd6103a6565b80511561008b5761068691602082015261260e565b6136ea6103a6565b9081511561008b5760208201526040519160208301526020825261370f604083610367565b6001600160a01b0361371f6112c3565b16913083036137595761082692506b072848090101010008210101609d1b91600790674c616e64496e666f60401b613a3160f11b01611497565b90823b15610090576040516301c85d5760e51b8152925f92849283918591839161154b916b072848090101010008210101609d1b9190600790674c616e64496e666f60401b613a3160f11b016004870161104b565b90915b60208110156137d6578015612946575f199060031b1c90818351169119905116179052565b8151835260209283019290910190601f19016137b156fe746200000000000000000000000000004c616e64517565737447726f75707300746200000000000000000000000000004c616e6451756573745461736b50726f8c0b5119d4cec7b284c6b1b39252a03d1e2f2d7451a5895562524c113bb952be3b4102da22e32d82fc925482184f16c09fd4281692720b87d124aef6da48a0f1746200000000000000000000000000004c616e64517565737447726f7570000014e2fcc58e58e68ec7edc30c8d50dccc3ce2714a623ec81f46b6a63922d76569746200000000000000000000000000004c616e64517565737400000000000000a264697066735822122039a53941710a2e53de00ac1caa0c2286210522b63b6ea9a48ccf75d2a9b6a70e64736f6c634300081c0033","linkReferences":{}},"methodIdentifiers":{"incrementProgressCollectItem(uint256,uint256)":"fa421f57","incrementProgressCraft(uint256,uint256)":"19c6ad04","incrementProgressTransform(uint256,uint256,uint256)":"cb7d0102","incrementQuestProgressStackItem(uint256,uint256,uint256)":"4c8b03d2"},"id":139}