{"abi":[{"type":"function","name":"_msgSender","inputs":[],"outputs":[{"name":"sender","type":"address","internalType":"address"}],"stateMutability":"view"},{"type":"function","name":"_msgValue","inputs":[],"outputs":[{"name":"value","type":"uint256","internalType":"uint256"}],"stateMutability":"pure"},{"type":"function","name":"_world","inputs":[],"outputs":[{"name":"","type":"address","internalType":"address"}],"stateMutability":"view"},{"type":"function","name":"createDailyQuestIfNotExists","inputs":[],"outputs":[],"stateMutability":"nonpayable"},{"type":"function","name":"createWeeklyQuestIfNotExists","inputs":[],"outputs":[],"stateMutability":"nonpayable"},{"type":"function","name":"getAllActiveQuestGroupIds","inputs":[],"outputs":[{"name":"questGroupIds","type":"uint256[]","internalType":"uint256[]"}],"stateMutability":"view"},{"type":"function","name":"supportsInterface","inputs":[{"name":"interfaceId","type":"bytes4","internalType":"bytes4"}],"outputs":[{"name":"","type":"bool","internalType":"bool"}],"stateMutability":"pure"},{"type":"event","name":"Store_SetRecord","inputs":[{"name":"tableId","type":"bytes32","indexed":true,"internalType":"ResourceId"},{"name":"keyTuple","type":"bytes32[]","indexed":false,"internalType":"bytes32[]"},{"name":"staticData","type":"bytes","indexed":false,"internalType":"bytes"},{"name":"encodedLengths","type":"bytes32","indexed":false,"internalType":"EncodedLengths"},{"name":"dynamicData","type":"bytes","indexed":false,"internalType":"bytes"}],"anonymous":false},{"type":"event","name":"Store_SpliceDynamicData","inputs":[{"name":"tableId","type":"bytes32","indexed":true,"internalType":"ResourceId"},{"name":"keyTuple","type":"bytes32[]","indexed":false,"internalType":"bytes32[]"},{"name":"dynamicFieldIndex","type":"uint8","indexed":false,"internalType":"uint8"},{"name":"start","type":"uint48","indexed":false,"internalType":"uint48"},{"name":"deleteCount","type":"uint40","indexed":false,"internalType":"uint40"},{"name":"encodedLengths","type":"bytes32","indexed":false,"internalType":"EncodedLengths"},{"name":"data","type":"bytes","indexed":false,"internalType":"bytes"}],"anonymous":false},{"type":"event","name":"Store_SpliceStaticData","inputs":[{"name":"tableId","type":"bytes32","indexed":true,"internalType":"ResourceId"},{"name":"keyTuple","type":"bytes32[]","indexed":false,"internalType":"bytes32[]"},{"name":"start","type":"uint48","indexed":false,"internalType":"uint48"},{"name":"data","type":"bytes","indexed":false,"internalType":"bytes"}],"anonymous":false},{"type":"error","name":"EncodedLengths_InvalidLength","inputs":[{"name":"length","type":"uint256","internalType":"uint256"}]},{"type":"error","name":"Slice_OutOfBounds","inputs":[{"name":"data","type":"bytes","internalType":"bytes"},{"name":"start","type":"uint256","internalType":"uint256"},{"name":"end","type":"uint256","internalType":"uint256"}]},{"type":"error","name":"Store_IndexOutOfBounds","inputs":[{"name":"length","type":"uint256","internalType":"uint256"},{"name":"accessedIndex","type":"uint256","internalType":"uint256"}]},{"type":"error","name":"Store_InvalidResourceType","inputs":[{"name":"expected","type":"bytes2","internalType":"bytes2"},{"name":"resourceId","type":"bytes32","internalType":"ResourceId"},{"name":"resourceIdString","type":"string","internalType":"string"}]},{"type":"error","name":"Store_InvalidSplice","inputs":[{"name":"startWithinField","type":"uint40","internalType":"uint40"},{"name":"deleteCount","type":"uint40","internalType":"uint40"},{"name":"fieldLength","type":"uint40","internalType":"uint40"}]}],"bytecode":{"object":"0x60808060405234601557612cff908161001a8239f35b5f80fdfe60806040526004361015610011575f80fd5b5f3560e01c806301ffc9a714610084578063119df25f1461007f578063193b8aab1461007a57806345ec935414610075578063ab57567414610070578063e1af802c1461006b5763eaf4a26914610066575f80fd5b610301565b6102d5565b61024a565b61022b565b610122565b6100e6565b346100d85760203660031901126100d85760043563ffffffff60e01b81168091036100d85763b5dee12760e01b81149081156100c7575b50151560805260206080f35b6301ffc9a760e01b149050816100bb565b5f80fd5b5f9103126100d857565b346100d8575f3660031901126100d85736603319013560601c801561011b575b6040516001600160a01b039091168152602090f35b5033610106565b346100d8575f3660031901126100d85761013a610423565b6101448151610437565b905f5f5b82518110156101c45761016461015e828561048f565b51610c8e565b60608101516101ac57602001514210610182575b6001905b01610148565b906101a4600191610193848661048f565b5161019e828861048f565b526104b7565b919050610178565b50906101be600191610193848661048f565b9161017c565b83826101cf81610437565b915f5b82811061020c576101e284610d3b565b6101ea6104c5565b156101f157005b61020a6102056101ff610564565b906105a1565b6106f3565b005b806102196001928461048f565b51610224828761048f565b52016101d2565b346100d8575f3660031901126100d8576020604051601f193601358152f35b346100d8575f3660031901126100d8576102626107c4565b1561026957005b6205460042018042116102d05762093a80900642034281116102d05762093a8081018082116102d05762093a7f82019081116102d05761020a91610205916102af610ddf565b906102ca6102c46102be610e04565b93611069565b9261114a565b92611266565b6104a3565b346100d8575f3660031901126100d85760206102ef610849565b6040516001600160a01b039091168152f35b346100d8575f3660031901126100d85761033461032f6103276103226103e6565b610942565b805190610b94565b61140d565b6040518091602082016020835281518091526020604084019201905f5b81811061035f575050500390f35b8251845285945060209384019390920191600101610351565b634e487b7160e01b5f52604160045260245ffd5b60c081019081106001600160401b038211176103a757604052565b610378565b601f909101601f19168101906001600160401b038211908210176103a757604052565b6001600160401b0381116103a75760051b60200190565b604051906103f56020836103ac565b5f808352366020840137565b6040805190919061041283826103ac565b6001815291601f1901366020840137565b61043461032f6103276103226103e6565b90565b90610441826103cf565b61044e60405191826103ac565b828152809261045f601f19916103cf565b0190602036910137565b634e487b7160e01b5f52603260045260245ffd5b80511561048a5760200190565b610469565b805182101561048a5760209160051b010190565b634e487b7160e01b5f52601160045260245ffd5b5f1981146102d05760010190565b6104d661032f6103276103226103e6565b5f5b8151811015610536576104ee61015e828461048f565b42815111159081610527575b8161051a575b5061050d576001016104d8565b6105169161048f565b5190565b606091500151155f610500565b905042602082015111906104fa565b50505f90565b90600182018092116102d057565b919082018092116102d057565b919082039182116102d057565b62015180420490620151808202918083046201518014901517156102d057620151808201918281116102d0576201517f81019283116102d0579190565b9190916105ac610401565b80511561048a5761032f610327825f60206105c89501526109ef565b926105d1610401565b80511561048a5761032f610327825f60206105ed950152610a5f565b906105f6610401565b80511561048a576102c461061861032f610327845f602061061f970152610ae3565b8097610efc565b9285519583516009610631828a61054a565b11156106ec5761064b6009610646838b61054a565b610557565b975b61066361065e8a610646858561054a565b610437565b92895b8281106106c35750505f5b828110610691575050506104349596508061068c91506111d3565b611332565b808a6106bc6106b6836106b16106a96001978e61048f565b519488610557565b61054a565b8761048f565b5201610671565b808b6106e56106df6106d76001958761048f565b519284610557565b8861048f565b5201610666565b5f9761064d565b6106fb6103e6565b90604051906020820152602081526107146040826103ac565b6001600160a01b03610724610849565b1691308303610739576107379250611739565b565b823b156100d85761079a925f9283604051809681958294630a87993160e11b845261078660048501926551756573747360501b613a3160f11b018452608060208501526080840190610904565b918560408201526060818403910152610b70565b03925af180156107bf576107ab5750565b806107b95f610737936103ac565b806100dc565b610937565b6107d561032f6103276103226103e6565b5f5b8151811015610536576107ed61015e828461048f565b4260208201511115908161081e575b8161080f575b5061050d576001016107d7565b6001915060600151145f610802565b90504281511015906107fc565b8115610835570690565b634e487b7160e01b5f52601260045260245ffd5b7f629a4c26e296b22a8e0856e9f6ecb2d1008d7e00081111962cd175fa7488e175546001600160a01b03168061043457503390565b6001600160401b0381116103a757601f01601f191660200190565b81601f820112156100d8578051906108b08261087e565b926108be60405194856103ac565b828452602083830101116100d857815f9260208093018386015e8301015290565b906020828203126100d85781516001600160401b0381116100d8576104349201610899565b90602080835192838152019201905f5b8181106109215750505090565b8251845260209384019390920191600101610914565b6040513d5f823e3d90fd5b6001600160a01b03610952610849565b163081036109775750610434905f906551756573747360501b613a3160f11b016113e4565b604051631e78897760e01b81526551756573747360501b613a3160f11b01600482015260606024820152915f918391829081906109b8906064830190610904565b85604483015203915afa9081156107bf575f916109d3575090565b61043491503d805f833e6109e781836103ac565b8101906108df565b6001600160a01b036109ff610849565b16308103610a215750610434905f905f516020612c4a5f395f51905f526113e4565b604051631e78897760e01b81525f516020612c4a5f395f51905f52600482015260606024820152915f918391829081906109b8906064830190610904565b6001600160a01b03610a6f610849565b16308103610a9b5750610434905f906f526577617264436f6c6c656374696f6e613a3160f11b016113e4565b604051631e78897760e01b81526f526577617264436f6c6c656374696f6e613a3160f11b01600482015260606024820152915f918391829081906109b8906064830190610904565b6001600160a01b03610af3610849565b16308103610b165750610434906001905f516020612c4a5f395f51905f526113e4565b604051631e78897760e01b81525f516020612c4a5f395f51905f52600482015260606024820152915f91839182908190610b54906064830190610904565b6001604483015203915afa9081156107bf575f916109d3575090565b805180835260209291819084018484015e5f828201840152601f01601f1916010190565b80518211610baf5760200160801b9060018060801b03161790565b6040516323230fa360e01b815260606004820152918291610bd4906064840190610b70565b905f602484015260448301520390fd5b8282118015610c54575b610c1f5790816020828194010192839101116102d05782039182116102d05760801b6001600160801b039091161790565b6040516323230fa360e01b81526060600482015292839291610c45906064850190610b70565b91602484015260448301520390fd5b5080518311610bee565b60405190610c6b8261038c565b606060a0835f81525f60208201525f60408201525f838201528260808201520152565b610c96610c5e565b50610c9f610401565b80511561048a57610cbb81610d2e93602061032f940152611500565b610cc9949294939193610c5e565b946020810151906040810151906061606082015160f81c91015160608901521515604088015260208701528552610d088464ffffffffff9060381c1690565b610d26610d1861032f8385610b94565b9560601c64ffffffffff1690565b810191610be4565b60a0830152608082015290565b610d4c610d466103e6565b916115e5565b5f6001600160a01b03610d5d610849565b1692308403610d815761073793506551756573747360501b613a3160f11b01611bf0565b919050823b156100d8576040516377b7543160e11b8152925f928492839185918391610dc4919084906551756573747360501b613a3160f11b01600486016113b1565b03925af180156107bf57610dd55750565b5f610737916103ac565b610de7610401565b80511561048a5761032f61032782600160206104349501526109ef565b610e0c610401565b80511561048a5761032f6103278260016020610434950152610a5f565b15610e3057565b60405162461bcd60e51b815260206004820152603260248201527f6e756d4974656d73206578636565647320746865206e756d626572206f6620696044820152713a32b6b99034b7103a34329030b93930bc9760711b6064820152608490fd5b15610e9757565b60405162461bcd60e51b815260206004820152602b60248201527f4578636c7573696f6e206c697374206578636565647320746865206e756d626560448201526a391037b31034ba32b6b99760a91b6064820152608490fd5b80156102d0575f190190565b90610f0b825160031115610e29565b610f19815183511015610e90565b610f238251610437565b8251905f925b8451841015610f94575f5b8151811015610f8a57610f47858761048f565b51610f52828461048f565b5114610f6057600101610f34565b509291610f81600191610f7c610f76868661048f565b60019052565b610ef0565b925b0192610f29565b5092600190610f83565b50915060031161105f57610fa86003610437565b91610fb38151610437565b5f5f915b60038310610fc757505050505090565b919395610fe1610fd98395979361163e565b87519061082b565b610ff4610fee828661048f565b51151590565b801561104c575b1561101157610fd961100c9161053c565b610fe1565b600191979592969461103f610f766110449361102d818a61048f565b51611038888d61048f565b528761048f565b6104b7565b910191610fb7565b5061105a610fee828a61048f565b610ffb565b50506104346103e6565b80516002116111055761107c6002610437565b906110878151610437565b5f5f915b6002831061109a575050505090565b90919293946110b36110ab8461163e565b86519061082b565b6110c0610fee828561048f565b156110d6576110ab6110d19161053c565b6110b3565b600191969594929361103f610f766110fd936110f2818a61048f565b51611038888c61048f565b91019161108b565b60405162461bcd60e51b815260206004820152601e60248201527f4e6f7420656e6f756768206974656d7320696e207468652061727261792e00006044820152606490fd5b80516001116111055761115d6001610437565b906111688151610437565b5f5f915b6001831061117b575050505090565b909192939461118c6110ab8461163e565b611199610fee828561048f565b156111af576110ab6111aa9161053c565b61118c565b600191969594929361103f610f766111cb936110f2818a61048f565b91019161116c565b6111db610401565b9081511561048a576111f2905f60208401526115e5565b906001600160a01b03611203610849565b16308103611227575061073791906001905f516020612c4a5f395f51905f52611bf0565b91823b156100d8576040516377b7543160e11b8152925f928492839185918391610dc491906001905f516020612c4a5f395f51905f52600486016113b1565b9093929161127a6112756103e6565b611f15565b91600183018093116102d0576107379361131461132d93859860a06040516112a18161038c565b8681528260208201525f604082015260016060820152608081019384520193845260405194602086015260408501525f606085015260016061850152606184526112ec6081856103ac565b51915161130e81845190518060651b9180603d1b9160051b9060051b01171790565b92611fe9565b9161131d610401565b856113278261047d565b5261201b565b611672565b909392916113416112756103e6565b91600183018093116102d0576107379361131461132d93859860a06040516113688161038c565b8681528260208201525f60408201525f6060820152608081019384520193845260405194602086015260408501525f60608501525f6061850152606184526112ec6081856103ac565b906113d0610434959360ff928452608060208501526080840190610904565b931660408201526060818403910152610b70565b9061043492611401611407926113fb838287611aa9565b946121e2565b54611ae8565b90611afd565b6040805160206020600160801b0384168201810190925260016001607b1b03600584901c16808252909392909160809190911c9084015f5b8381106114525750505050565b6020600181928551855201920192019190611445565b9060158260801c9260018060801b031604604051926020840160208360051b8601016040528285525f5b83811061149f5750505050565b602060016015928551855201920192019190611492565b916060838303126100d85782516001600160401b0381116100d857826114dd918501610899565b92602081015192604082015160018060401b0381116100d8576104349201610899565b6001600160a01b03611510610849565b1630810361154a575061154390660308201101000960c51b90690517565737447726f75760341b613a3160f11b01611b31565b9192909190565b60405163419b58fd60e01b8152690517565737447726f75760341b613a3160f11b0160048201526060602482015292915f91849182908190611590906064830190610904565b660308201101000960c51b604483015203915afa9081156107bf575f5f935f936115bb575b50929190565b919350506115db91503d805f833e6115d381836103ac565b8101906114b6565b929092915f6115b5565b80518060051b90808204602014811517156102d05790604051926020840191601f19603f8287010116604052845260205f9101905b838110611628575050505090565b602060018192845186520192019201919061161a565b60405160208101914383524260408301523360601b606083015260748201526074815261166c6094826103ac565b51902090565b61167a6103e6565b90604051906020820152602081526116936040826103ac565b6001600160a01b036116a3610849565b163081036116b55750610737916123d4565b90813b156100d8575f9161171891836040518096819582946301c85d5760e51b845261170360048501936551756573747360501b613a3160f11b01855260a0602086015260a0850190610904565b90600160408501528382036060850152610b70565b9060806503001809010160cd1b91015203925af180156107bf576107ab5750565b909190611756816551756573747360501b613a3160f11b016121e2565b54916117625f84611ae8565b9264ffffffffff8416916117816117795f87610557565b87519061054a565b85811415958680611a44575b611a2f57808511611a1157506117a4905f8461240c565b906117be6551756573747360501b613a3160f11b0161247e565b915f5b83518110156118b0576117ed6117e86117da838761048f565b516001600160581b03191690565b612134565b6117fd816010809160581c161490565b61180b575b506001016117c1565b61183361183361182d61182061183f94612134565b6001600160601b03191690565b60601c90565b6001600160a01b031690565b90813b156100d8575f87819382808c8f611882908d6040519a8b9889978896630abd6b4560e31b88526551756573747360501b613a3160f11b0160048901612141565b03925af19182156107bf5760019261189c575b5090611802565b806107b95f6118aa936103ac565b5f611895565b509250946001611a0c575b6040516551756573747360501b613a3160f11b01905f516020612bea5f395f51905f5290806118f78b885f65ffffffffffff8c16818e87612192565b0390a26119eb575b611924868461191f5f886551756573747360501b613a3160f11b01611aa9565b61253c565b5f5b81518110156119e25761193f6117e86117da838561048f565b61194f816020809160581c161490565b61195d575b50600101611926565b61183361183361182d61182061197294612134565b90813b156100d8575f85819382808a6119b48e8b6040519a8b9889978896636358453360e01b88526551756573747360501b613a3160f11b0160048901612141565b03925af19182156107bf576001926119ce575b5090611954565b806107b95f6119dc936103ac565b5f6119c7565b50505050509050565b81611a06856551756573747360501b613a3160f11b016121e2565b556118ff565b6118bb565b637e8578d360e01b5f5260045264ffffffffff841660245260445b5ffd5b611a2c85632994042d60e21b5f525f81612119565b5080611a5d611a535f886120fd565b64ffffffffff1690565b141561178d565b03601f1981018352826103ac565b0390fd5b60209181520160208251919201905f5b818110611a935750505090565b8251845260209384019390920191600101611a86565b611a64611ad05f516020612c8a5f395f51905f529493604051928391602083019586611a76565b51902060f89190911b6001600160f81b031916181890565b60ff64ffffffffff92166028026038011c1690565b6104349060405192601f19603f82860101166040528084525f6020850192612253565b60ff1660ff81146102d05760010190565b91925f9260609260ff611b488760f01c8385612323565b9660e01c1680611b5757505050565b9194509250611b6683856121e2565b549366ffffffffffffff851693611b95611b7f8661087e565b95611b8d60405197886103ac565b80875261087e565b602086019590601f19013687379491865f935b8560ff861610611bba57505050505050565b611be891816106b1611be293611bdb89611bd5818b8b611aa9565b95611ae8565b8094612210565b93611b20565b928790611ba8565b92919092611bfe84826121e2565b5493611c0a8386611ae8565b64ffffffffff8116969095906145cf60f11b6001600160f01b0319851601611e9657611c396117798989610557565b8088141580988199611e7f575b50611e6a57611c5690868461240c565b90611c608561247e565b915f5b8351811015611d1157611c7c6117e86117da838761048f565b611c8c816010809160581c161490565b611c9a575b50600101611c63565b61183361183361182d611820611caf94612134565b90813b156100d8575f898193898f8c8f611ce3908d88946040519b8c998a988997630abd6b4560e31b895260048901612141565b03925af19182156107bf57600192611cfd575b5090611c91565b806107b95f611d0b936103ac565b5f611cf6565b5092859098919888858c5f935f9060ff8d16905b8160ff841610611e415750505065ffffffffffff925f516020612bea5f395f51905f529492611d5e928d60405196879616908d87612192565b0390a2611e30575b611d76865f61191f888789611aa9565b5f5b8151811015611e2557611d916117e86117da838561048f565b611da1816020809160581c161490565b611daf575b50600101611d78565b61183361183361182d611820611dc494612134565b90813b156100d8575f87819387838a8f8e8b611df7926040519b8c998a988997636358453360e01b895260048901612141565b03925af19182156107bf57600192611e11575b5090611da6565b806107b95f611e1f936103ac565b5f611e0a565b505050505050509050565b81611e3b84866121e2565b55611d66565b94509490955060ff925060019150611e598685611ae8565b019401168c87918a95948d94611d25565b611a2c89632994042d60e21b5f52805f612119565b9050611e8e611a538b5f6120fd565b14155f611c46565b8360405190611ebe82611eb0836020830160209181520190565b03601f1981018452836103ac565b611a726040519283926331b4668360e01b8452600484016120db565b908160209103126100d8575190565b90611f0a60609360ff92979695978452608060208501526080840190610904565b951660408201520152565b6001600160a01b03611f25610849565b16308103611f565750610434906503001809010160cd1b906001906551756573747360501b613a3160f11b01612355565b604051638c364d5960e01b815291602091839182908190611f99906503001809010160cd1b906001906551756573747360501b613a3160f11b0160048601611ee9565b03915afa9081156107bf575f91611fae575090565b610434915060203d602011611fd0575b611fc881836103ac565b810190611eda565b503d611fbe565b805191908290602001825e015f815290565b61201591611a64612005611fff610434946115e5565b926115e5565b6040519485936020850190611fd7565b90611fd7565b9192916001600160a01b0361202e610849565b163081036120575750610737939190690517565737447726f75760341b613a3160f11b016123bd565b9092813b156100d85760405163298314fb60e01b8152690517565737447726f75760341b613a3160f11b01600482015260a06024820152945f94869485938793859361079a939192916120c4916120b29060a4880190610904565b86810360031901604488015290610b70565b916064850152600319848303016084850152610b70565b6060906104349392613a3160f11b825260208201528160408201520190610b70565b9064ffffffffff8091169116019064ffffffffff82116102d057565b64ffffffffff90811660045290811660245216604452606490565b6001600160581b03191690565b9364ffffffffff929060ff61216d85936104349b99959a979a895260e060208a015260e0890190610904565b9816604087015216606085015216608083015260a082015260c0818403910152610b70565b929365ffffffffffff610434979560ff6121bd64ffffffffff9599969960c0895260c0890190610904565b98166020870152166040850152166060830152608082015260a0818403910152610b70565b906121fb611a6491604051928391602083019586611a76565b5190205f516020612caa5f395f51905f521890565b905b602081101561223b578061222557505050565b5f199060031b1c90818351169119905416179052565b919060018160209254845201910191601f1901612212565b91908061229f575b505b6020811015612287578061227057505050565b5f1960039190911b1c825191548119169116179052565b919060018160209254845201910191601f190161225d565b6020811015612307575b801561225b57929183602003908183105f146122fa575f19600384901b1c5b81548660031b1b81865116911916178452818311156122f357600101920192601f199101015f61225b565b5050505050565b5f19600383901b1c6122c8565b9161231e906123168460051c90565b0192601f1690565b6122a9565b919091811561233e57610434926123399161254d565b611afd565b50505060405161234f6020826103ac565b5f815290565b61237b916123659194939461254d565b9260ff808216601b0360031b84901c169261257b565b918060208410156123ac575b5080548360031b1b9260200380921161239f57505090565b600101549060031b1c1790565b601f84169360051c0190505f612387565b92909161073794926123ce856125ba565b946126b8565b610737919065ffffffffffff6123f460016503001809010160cd1b61257b565b16906551756573747360501b613a3160f11b01612930565b9064ffffffffff831161246b5764ffffffffff8060ff66ffffffffffffff85166124368587611ae8565b87818110612461570301935b166028026038019416841b931b199166ffffffffffffff191617161790565b9003900393612442565b82637149a3c160e01b5f5260045260245ffd5b612486610401565b80511561048a576103278161043493602061253794015264ffffffffff5f516020612c8a5f395f51905f5260405160208101906124e181611a64876953746f7265486f6f6b7360301b66746273746f726560c81b0186611a76565b51902060405191189260208201919061251a908290611a64906953746f7265486f6f6b7360301b66746273746f726560c81b0186611a76565b5190205f516020612caa5f395f51905f52185460381c1690611afd565b611468565b825161073793602001929091612b2f565b90612566611a6491604051928391602083019586611a76565b5190205f516020612c2a5f395f51905f521890565b5f915f915b60ff821683106125905750505090565b9091926125a6848360ff91601b0360031b1c1690565b81018091116102d057926001019190612580565b655461626c657360501b66746273746f726560c81b0181146126225760408051655461626c657360501b66746273746f726560c81b01602082019081528183019390935290815261260c6060826103ac565b5190205f516020612c2a5f395f51905f52185490565b506503001811010160cd1b90565b90610434949261264b61265992608085526080850190610904565b908382036020850152610b70565b9260408201526060818403910152610b70565b969594906126b39361269260a096946126a0938b5260c060208c015260c08b0190610904565b9089820360408b0152610b70565b9160608801528682036080880152610b70565b930152565b9295949192916001600160f01b03198316611bdd60f21b146128b3576126dd8361247e565b5f5b8151811015612778576126f86117e86117da838561048f565b612708816001809160581c161490565b612716575b506001016126df565b60601c90813b156100d8575f878b9387838a61274a8a8f6040519a8b98899788966315c19b2760e21b88526004880161266c565b03925af19182156107bf57600192612764575b509061270d565b806107b95f612772936103ac565b5f61275d565b50835f516020612c6a5f395f51905f52604051806127998a8d8b8a85612630565b0390a26127b56127a9848661254d565b86516020880191612aeb565b60e082901c60ff168061285f575b505f5b8151811015611e25576127df6117e86117da838561048f565b6127ef816002809160581c161490565b6127fd575b506001016127c6565b60601c90813b156100d8575f878b9387838a6128318a8f6040519a8b9889978896635b28cdaf60e01b88526004880161266c565b03925af19182156107bf5760019261284b575b50906127f4565b806107b95f612859936103ac565b5f612844565b8861286a85876121e2565b555f602088015b85878c8560ff8616106128885750505050506127c3565b836106b160ff956128a388611bd5816001996128aa99611aa9565b8094612aeb565b92011690612871565b509093945f516020612c6a5f395f51905f52936128d69160405194859485612630565b0390a2565b65ffffffffffff6128f86104349593606084526060840190610904565b931660208201526040818403910152610b70565b906113d0610434959365ffffffffffff928452608060208501526080840190610904565b92939291906001600160f01b03198316611bdd60f21b14612acb57612955818461254d565b9361295f8461247e565b90865f5b83518110156129fd5761297c6117e86117da838761048f565b61298c816004809160581c161490565b61299a575b50600101612963565b60601c9150813b156100d8575f868a9387838b6129cd6040519889968795869463964f667d60e01b86526004860161290c565b03925af19081156107bf5789926001926129e9575b5090612991565b806107b95f6129f7936103ac565b5f6129e2565b50612a349196865f516020612c0a5f395f51905f5260405180612a22868b8b846128db565b0390a265ffffffffffff86169061253c565b5f5b81518110156119e257612a4f6117e86117da838561048f565b612a5f816008809160581c161490565b612a6d575b50600101612a36565b60601c90813b156100d85760405163a8ba872160e01b8152915f908390818381612a9d8e8c8c8f6004860161290c565b03925af19182156107bf57600192612ab7575b5090612a64565b806107b95f612ac5936103ac565b5f612ab0565b6128d65f516020612c0a5f395f51905f52939495604051938493846128db565b91905b6020811015612b175780612b0157505050565b5f199060031b1c90818354169119905116179055565b909160016020918451815501920190601f1901612aee565b92919080612b7c575b505b6020811015612b645780612b4d57505050565b5f1960039190911b1c825491518119169116179055565b909160016020918451815501920190601f1901612b3a565b6020811015612bcd575b8015612b385791926020839003905f19600384901b1c198460031b90811c908651901c9080198354169116178155818311156122f35760010193019101601f19015f612b38565b92612be490612bdc8560051c90565b0193601f1690565b612b8656fefe158a7adba34e256807c8a149028d3162918713c3838afc643ce9f96716ebfd8c0b5119d4cec7b284c6b1b39252a03d1e2f2d7451a5895562524c113bb952be86425bff6b57326c7859e89024fe4f238ca327a1ae4a230180dd2f0e88aaa7d9746200000000000000000000000000005175657374436f6c6c656374696f6e008dbb3a9672eebfd3773e72dd9c102393436816d832c7ba9e1e1ac8fcadcac7a93b4102da22e32d82fc925482184f16c09fd4281692720b87d124aef6da48a0f114e2fcc58e58e68ec7edc30c8d50dccc3ce2714a623ec81f46b6a63922d76569a26469706673582212202d078be1b5531c081d088b3a82a518fd2ead31e3338bacc4ad7c52c80f019b7b64736f6c634300081c0033","linkReferences":{}},"methodIdentifiers":{"_msgSender()":"119df25f","_msgValue()":"45ec9354","_world()":"e1af802c","createDailyQuestIfNotExists()":"193b8aab","createWeeklyQuestIfNotExists()":"ab575674","getAllActiveQuestGroupIds()":"eaf4a269","supportsInterface(bytes4)":"01ffc9a7"},"id":149}