{"abi":[{"type":"function","name":"_msgSender","inputs":[],"outputs":[{"name":"sender","type":"address","internalType":"address"}],"stateMutability":"view"},{"type":"function","name":"_msgValue","inputs":[],"outputs":[{"name":"value","type":"uint256","internalType":"uint256"}],"stateMutability":"pure"},{"type":"function","name":"_world","inputs":[],"outputs":[{"name":"","type":"address","internalType":"address"}],"stateMutability":"view"},{"type":"function","name":"supportsInterface","inputs":[{"name":"interfaceId","type":"bytes4","internalType":"bytes4"}],"outputs":[{"name":"","type":"bool","internalType":"bool"}],"stateMutability":"pure"},{"type":"function","name":"unlockAllLevels","inputs":[{"name":"landId","type":"uint256","internalType":"uint256"}],"outputs":[],"stateMutability":"nonpayable"},{"type":"function","name":"unlockLevel","inputs":[{"name":"landId","type":"uint256","internalType":"uint256"},{"name":"level","type":"uint256","internalType":"uint256"}],"outputs":[],"stateMutability":"nonpayable"},{"type":"function","name":"unlockLevels","inputs":[{"name":"landId","type":"uint256","internalType":"uint256"},{"name":"levels","type":"uint256[]","internalType":"uint256[]"}],"outputs":[],"stateMutability":"nonpayable"},{"type":"function","name":"upsertLevelReward","inputs":[{"name":"levelReward","type":"tuple","internalType":"struct LevelRewardDTO","components":[{"name":"level","type":"uint256","internalType":"uint256"},{"name":"tokens","type":"uint256","internalType":"uint256"},{"name":"cumulativeXp","type":"uint256","internalType":"uint256"},{"name":"items","type":"uint256[]","internalType":"uint256[]"}]}],"outputs":[],"stateMutability":"nonpayable"},{"type":"function","name":"upsertLevelRewards","inputs":[{"name":"levelRewards","type":"tuple[]","internalType":"struct LevelRewardDTO[]","components":[{"name":"level","type":"uint256","internalType":"uint256"},{"name":"tokens","type":"uint256","internalType":"uint256"},{"name":"cumulativeXp","type":"uint256","internalType":"uint256"},{"name":"items","type":"uint256[]","internalType":"uint256[]"}]}],"outputs":[],"stateMutability":"nonpayable"},{"type":"event","name":"Store_SetRecord","inputs":[{"name":"tableId","type":"bytes32","indexed":true,"internalType":"ResourceId"},{"name":"keyTuple","type":"bytes32[]","indexed":false,"internalType":"bytes32[]"},{"name":"staticData","type":"bytes","indexed":false,"internalType":"bytes"},{"name":"encodedLengths","type":"bytes32","indexed":false,"internalType":"EncodedLengths"},{"name":"dynamicData","type":"bytes","indexed":false,"internalType":"bytes"}],"anonymous":false},{"type":"event","name":"Store_SpliceStaticData","inputs":[{"name":"tableId","type":"bytes32","indexed":true,"internalType":"ResourceId"},{"name":"keyTuple","type":"bytes32[]","indexed":false,"internalType":"bytes32[]"},{"name":"start","type":"uint48","indexed":false,"internalType":"uint48"},{"name":"data","type":"bytes","indexed":false,"internalType":"bytes"}],"anonymous":false},{"type":"error","name":"Slice_OutOfBounds","inputs":[{"name":"data","type":"bytes","internalType":"bytes"},{"name":"start","type":"uint256","internalType":"uint256"},{"name":"end","type":"uint256","internalType":"uint256"}]},{"type":"error","name":"World_AccessDenied","inputs":[{"name":"resource","type":"string","internalType":"string"},{"name":"caller","type":"address","internalType":"address"}]}],"bytecode":{"object":"0x608080604052346015576123fe908161001a8239f35b5f80fdfe60806040526004361015610011575f80fd5b5f3560e01c806301ffc9a7146100a45780630faa594d1461009f578063119df25f1461009a57806312ff123a14610095578063310032981461009057806345ec93541461008b5780637c12e1f914610086578063bbba89f9146100815763e1af802c1461007c575f80fd5b610422565b610387565b610368565b610349565b6102a6565b6101bb565b61018f565b61012c565b346100f85760203660031901126100f85760043563ffffffff60e01b81168091036100f85763b5dee12760e01b81149081156100e7575b50151560805260206080f35b6301ffc9a760e01b149050816100db565b5f80fd5b9181601f840112156100f8578235916001600160401b0383116100f8576020808501948460051b0101116100f857565b346100f85760403660031901126100f8576004356024356001600160401b0381116100f85761015f9036906004016100fc565b905f5b828110156101835760019061017d8160051b840135866106c6565b01610162565b005b5f9103126100f857565b346100f8575f3660031901126100f85760206101a96107ca565b6040516001600160a01b039091168152f35b346100f85760203660031901126100f8576004356001600160401b0381116100f8576101eb9036906004016100fc565b906101fc6101f76107e1565b610450565b36819003607e1901905f5b83811015610183578060051b820135838112156100f85782019061022c6101f76107e1565b6020820135916040810135606082013536839003601e19018112156100f8578201803592906001600160401b0384116100f857602001948360051b360386136100f8576001956102a0946102959260405195610287876104bc565b865260208601523691610516565b60408301523561097e565b01610207565b346100f85760203660031901126100f8576004356001600160401b0381116100f8578036039060806003198301126100f8576102e36101f76107e1565b604481013590602481013592606482013590602219018112156100f8578101600481013593906001600160401b0385116100f8576024018460051b360381136100f8576101839461033b9260405195610287876104bc565b60408301526004013561097e565b346100f8575f3660031901126100f8576020604051601f193601358152f35b346100f85760403660031901126100f8576101836024356004356106c6565b346100f85760203660031901126100f8576004356103a481610a3e565b906103b56103b061091f565b610f7a565b916103bf82610b6e565b90600181018091116103fe575b838111156103d657005b6103e86103e38285610a5e565b151590565b15610403575b5f1981146103fe576001016103cc565b610562565b61040c81610ab0565b5182106101835761041d81846106c6565b6103ee565b346100f8575f3660031901126100f85760206101a9611586565b634e487b7160e01b5f52603260045260245ffd5b1561045757565b60405162461bcd60e51b815260206004820152602360248201527f526f6f744163636573734f70657261746f723a204e6f206f776e65722061636360448201526265737360e81b6064820152608490fd5b634e487b7160e01b5f52604160045260245ffd5b606081019081106001600160401b038211176104d757604052565b6104a8565b601f909101601f19168101906001600160401b038211908210176104d757604052565b6001600160401b0381116104d75760051b60200190565b929190610522816104ff565b9361053060405195866104dc565b602085838152019160051b81019283116100f857905b82821061055257505050565b8135815260209182019101610546565b634e487b7160e01b5f52601160045260245ffd5b5f198101919082116103fe57565b1561058b57565b60405162461bcd60e51b815260206004820152602a60248201527f4c6576656c696e6753797374656d3a206d75737420636c61696d20796f7572206044820152691b995e1d081b195d995b60b21b6064820152608490fd5b156105ea57565b60405162461bcd60e51b815260206004820152602560248201527f4c6576656c696e6753797374656d3a206c6576656c20616c726561647920636c604482015264185a5b595960da1b6064820152608490fd5b1561064457565b60405162461bcd60e51b815260206004820152602e60248201527f4c6576656c696e6753797374656d3a20696e73756666696369656e742058502060448201526d1d1bc818db185a5b481b195d995b60921b6064820152608490fd5b8051156106ad5760200190565b61043c565b80518210156106ad5760209160051b010190565b91908015610763576106e96106da84610a3e565b6106e383610576565b14610584565b6106fc6106f68285610a5e565b156105e3565b61070581610ab0565b9161071b61071285610b6e565b8451111561063d565b60405f9301925b8351805182101561074a579061074461073d826001946106b2565b5187610b8b565b01610722565b505092610761925061075c8282610c0a565b610cf0565b565b60405162461bcd60e51b815260206004820152602c60248201527f4c6576656c696e6753797374656d3a206c6576656c206d75737420626520677260448201526b06561746572207468616e20360a41b6064820152608490fd5b919082018092116103fe57565b36603319013560601c9081156107dc57565b339150565b6040516020810190616e7360f01b82525f60228201525f60308201526020815261080c6040826104dc565b519051906020811061090e575b506108226107ca565b9061084082600160801b600160f01b038316616e7360f01b17611795565b80156108fe575b15610853575050600190565b608081901b6001600160801b031916906108be90601081901b6001600160901b031916806108ef57506108846115bb565b925b806108de57506108b06108976115bb565b6040519485936001600160f01b031916602085016115df565b03601f1981018352826104dc565b6108da60405192839263d787b73760e01b845260048401610e05565b0390fd5b6108ea6108b0916117cd565b610897565b6108f8906117cd565b92610886565b506109098282611795565b610847565b5f199060200360031b1b165f610819565b6040519061092e6020836104dc565b5f808352366020840137565b6040805190919061094b83826104dc565b6001815291601f1901366020840137565b6040516060919061096d83826104dc565b6002815291601f1901366020840137565b90604081519160208101518251936020850152828401528183526109a36060846104dc565b01518051906109b18261182d565b90604051916020830190601f19603f8286010116604052835260205f9201915b848110610a2857505050916107619391610a066109f8946040519586916020830190610e2d565b03601f1981018652856104dc565b610a0e61093a565b92610a18846106a0565b5280603d1b9060051b1791610e7d565b60206001819285518552019301910190916109d1565b610a4661093a565b8051156106ad57610a5b916020820152611062565b90565b610a6661095c565b908151156106ad5760208201528051600110156106ad57610a8b9160408201526110f6565b60f81c90565b60405190610a9e826104bc565b60606040835f81525f60208201520152565b610ab8610a91565b50610ac161093a565b8051156106ad57610add81610b08936020610b0e9401526113c7565b919390610ae8610a91565b94604060208201519101516020870152855264ffffffffff9060381c1690565b90611df1565b6040805160206020600160801b0384168201810190925260016001607b1b03600584901c168082529092909160809190911c9083015f5b838110610b585750505050604082015290565b6020600181928551855201920192019190610b45565b610b7661093a565b8051156106ad57610a5b91602082015261116e565b610b9361095c565b8051156106ad578160208201528051600110156106ad5780836040610bb9930152611202565b90600182018092116103fe57610bcd61095c565b908151156106ad5760208201528051600110156106ad5761076192604082015260405191602083015260208252610c056040836104dc565b6114e6565b90610c1361095c565b918251156106ad5760208301528151600110156106ad576040820152604051905f91600160f81b602082015260018152610c4e6021826104dc565b6001600160a01b03610c5e611586565b1692308403610c88576107619350630101000160d81b925f5160206123495f395f51905f52611779565b5090823b156100f8576040516301c85d5760e51b8152925f928492839185918391610cd091630101000160d81b919085905f5160206123495f395f51905f52600487016114aa565b03925af18015610ceb57610ce15750565b5f610761916104dc565b610e72565b610cf861093a565b908151156106ad57602082015260405191602083015260208252610d1d6040836104dc565b6001600160a01b03610d2d611586565b1691308303610d675761076192506b072848090101010008210101609d1b91600890674c616e64496e666f60401b613a3160f11b01611779565b90823b156100f8576040516301c85d5760e51b8152925f928492839185918391610dbc916b072848090101010008210101609d1b9190600890674c616e64496e666f60401b613a3160f11b01600487016114aa565b03925af18015610ceb57610dcd5750565b80610ddb5f610761936104dc565b80610185565b805180835260209291819084018484015e5f828201840152601f01601f1916010190565b90610e1d602091949394604084526040840190610de1565b6001600160a01b03909416910152565b805191908290602001825e015f815290565b90602080835192838152019201905f5b818110610e5c5750505090565b8251845260209384019390920191600101610e4f565b6040513d5f823e3d90fd5b9192916001600160a01b03610e90611586565b16308103610eba57506107619391906a13195d995b14995dd85c99602a1b613a3160f11b01611615565b9092813b156100f85760405163298314fb60e01b81526a13195d995b14995dd85c99602a1b613a3160f11b01600482015260a06024820152945f948694859387938593610dbc93919291610f2891610f169060a4880190610e3f565b86810360031901604488015290610de1565b916064850152600319848303016084850152610de1565b908160209103126100f8575190565b90610f6f60609360ff92979695978452608060208501526080840190610e3f565b951660408201520152565b6001600160a01b03610f8a611586565b16308103610fce5750610a5b90710ea0782101010101010101010100a1010101606d1b90600e906f43616665436f736d6f73436f6e666967613a3160f11b0161162c565b604051638c364d5960e01b81529160209183918290819061102490710ea0782101010101010101010100a1010101606d1b90600e906f43616665436f736d6f73436f6e666967613a3160f11b0160048601610f4e565b03915afa908115610ceb575f91611039575090565b610a5b915060203d60201161105b575b61105381836104dc565b810190610f3f565b503d611049565b6001600160a01b03611072611586565b163081036110ab5750610a5b906b072848090101010008210101609d1b90600890674c616e64496e666f60401b613a3160f11b0161162c565b604051638c364d5960e01b815291602091839182908190611024906b072848090101010008210101609d1b90600890674c616e64496e666f60401b613a3160f11b0160048601610f4e565b6001600160a01b03611106611586565b163081036111315750610a5b90630101000160d81b905f905f5160206123495f395f51905f5261162c565b604051638c364d5960e01b81529160209183918290819061102490630101000160d81b905f905f5160206123495f395f51905f5260048601610f4e565b6001600160a01b0361117e611586565b163081036111b75750610a5b906b072848090101010008210101609d1b90600790674c616e64496e666f60401b613a3160f11b0161162c565b604051638c364d5960e01b815291602091839182908190611024906b072848090101010008210101609d1b90600790674c616e64496e666f60401b613a3160f11b0160048601610f4e565b6001600160a01b03611212611586565b163081036112435750610a5b90630100080160dd1b905f9068496e76656e746f727960381b613a3160f11b0161162c565b604051638c364d5960e01b81529160209183918290819061102490630100080160dd1b905f9068496e76656e746f727960381b613a3160f11b0160048601610f4e565b6001600160a01b03611296611586565b163081036112d05750610a5b90630101000160d81b905f906f5265736f757263654163636573730000661d189ddbdc9b1960ca1b0161162c565b604051638c364d5960e01b81529160209183918290819061102490630101000160d81b905f906f5265736f757263654163636573730000661d189ddbdc9b1960ca1b0160048601610f4e565b6001600160401b0381116104d757601f01601f191660200190565b81601f820112156100f85780519061134e8261131c565b9261135c60405194856104dc565b828452602083830101116100f857815f9260208093018386015e8301015290565b916060838303126100f85782516001600160401b0381116100f857826113a4918501611337565b92602081015192604082015160018060401b0381116100f857610a5b9201611337565b6001600160a01b036113d7611586565b1630810361141057506114099064020010090160d51b906a13195d995b14995dd85c99602a1b613a3160f11b016116a5565b9192909190565b60405163419b58fd60e01b81526a13195d995b14995dd85c99602a1b613a3160f11b0160048201526060602482015292915f91849182908190611457906064830190610e3f565b64020010090160d51b604483015203915afa908115610ceb575f5f935f93611480575b50929190565b919350506114a091503d805f833e61149881836104dc565b81019061137d565b929092915f61147a565b95949360ff6114cd6114e194608096948a5260a060208b015260a08a0190610e3f565b921660408801528682036060880152610de1565b930152565b5f91906001600160a01b036114f9611586565b16308103611538575065ffffffffffff61151d61076194630100080160dd1b611c2e565b169068496e76656e746f727960381b613a3160f11b01611eaa565b8093503b156100f8576040516301c85d5760e51b8152925f928492839185918391610cd091630100080160dd1b9190859068496e76656e746f727960381b613a3160f11b01600487016114aa565b7f629a4c26e296b22a8e0856e9f6ecb2d1008d7e00081111962cd175fa7488e175546001600160a01b031680610a5b57503390565b604051906115ca6040836104dc565b60068252651e3937b7ba1f60d11b6020830152565b610a5b939260036116079260019461ffff60f01b168152601d60f91b60028201520190610e2d565b601d60f91b81520190610e2d565b929091610761949261162685611843565b94611949565b6116529161163c91949394611c00565b9260ff808216601b0360031b84901c1692611c2e565b91806020841015611683575b5080548360031b1b9260200380921161167657505090565b600101549060031b1c1790565b601f84169360051c0190505f61165e565b60ff1660ff81146103fe5760010190565b91925f9260609260ff6116bc8760f01c8385611c6d565b9660e01c16806116cb57505050565b91945092506116da8385612258565b549366ffffffffffffff8516936117096116f38661131c565b9561170160405197886104dc565b80875261131c565b602086019590601f19013687379491865f935b8560ff86161061172e57505050505050565b611771918161176661176b9361175f89611749818b8b611c9f565b9560ff64ffffffffff92166028026038011c1690565b8094611cde565b6107bd565b93611694565b92879061171c565b9161178e65ffffffffffff9161076196611c2e565b1691611eaa565b61179d61095c565b908151156106ad5760208201528051600110156106ad576001600160a01b039091166040820152610a8b90611286565b5f5b60108110611800575b6040516001600160801b03199092166020830152601082526117fb6030836104dc565b815290565b6001600160801b03198216600382901b1b6001600160f81b03191615611828576001016117cf565b6117d8565b908160051b91808304602014901517156103fe57565b655461626c657360501b66746273746f726560c81b0181146118ab5760408051655461626c657360501b66746273746f726560c81b0160208201908152818301939093529081526118956060826104dc565b5190205f5160206123295f395f51905f52185490565b506503001811010160cd1b90565b90610a5b94926118d46118e292608085526080850190610e3f565b908382036020850152610de1565b9260408201526060818403910152610de1565b6001600160581b03191690565b969594906114e19361192860a09694611936938b5260c060208c015260c08b0190610e3f565b9089820360408b0152610de1565b9160608801528682036080880152610de1565b9295949192916001600160f01b03198316611bdd60f21b14611ba55761196e83612094565b5f5b8151811015611a4d5761199c61199761198983856106b2565b516001600160581b03191690565b6118f5565b6119ac816001809160581c161490565b6119ba575b50600101611970565b6119e26119e26119dc6119cf6119ee946118f5565b6001600160601b03191690565b60601c90565b6001600160a01b031690565b90813b156100f8575f878b9387838a611a1f8a8f6040519a8b98899788966315c19b2760e21b885260048801611902565b03925af1918215610ceb57600192611a39575b50906119b1565b80610ddb5f611a47936104dc565b5f611a32565b50835f5160206123695f395f51905f5260405180611a6e8a8d8b8a856118b9565b0390a2611a8a611a7e8486611c00565b8651602088019161215a565b60e082901c60ff1680611b51575b505f5b8151811015611b4657611ab461199761198983856106b2565b611ac4816002809160581c161490565b611ad2575b50600101611a9b565b6119e26119e26119dc6119cf611ae7946118f5565b90813b156100f8575f878b9387838a611b188a8f6040519a8b9889978896635b28cdaf60e01b885260048801611902565b03925af1918215610ceb57600192611b32575b5090611ac9565b80610ddb5f611b40936104dc565b5f611b2b565b505050505050509050565b88611b5c8587612258565b555f602088015b85878c8560ff861610611b7a575050505050611a98565b8361176660ff95611b958861174981600199611b9c99611c9f565b809461215a565b92011690611b63565b509093945f5160206123695f395f51905f5293611bc891604051948594856118b9565b0390a2565b60209181520160208251919201905f5b818110611bea5750505090565b8251845260209384019390920191600101611bdd565b90611c196108b091604051928391602083019586611bcd565b5190205f5160206123295f395f51905f521890565b5f915f915b60ff82168310611c435750505090565b909192611c59848360ff91601b0360031b1c1690565b81018091116103fe57926001019190611c33565b9190918115611c8857610a5b92611c8391611c00565b612286565b505050604051611c996020826104dc565b5f815290565b6108b0611cc65f5160206123895f395f51905f529493604051928391602083019586611bcd565b51902060f89190911b6001600160f81b031916181890565b905b6020811015611d095780611cf357505050565b5f199060031b1c90818351169119905416179052565b919060018160209254845201910191601f1901611ce0565b919080611d6d575b505b6020811015611d555780611d3e57505050565b5f1960039190911b1c825191548119169116179052565b919060018160209254845201910191601f1901611d2b565b6020811015611dd5575b8015611d2957929183602003908183105f14611dc8575f19600384901b1c5b81548660031b1b8186511691191617845281831115611dc157600101920192601f199101015f611d29565b5050505050565b5f19600383901b1c611d96565b91611dec90611de48460051c90565b0192601f1690565b611d77565b80518211611e0c5760200160801b9060018060801b03161790565b6040516323230fa360e01b815260606004820152918291611e31906064840190610de1565b905f602484015260448301520390fd5b65ffffffffffff611e5e610a5b9593606084526060840190610e3f565b931660208201526040818403910152610de1565b90611e96610a5b959365ffffffffffff928452608060208501526080840190610e3f565b931660408201526060818403910152610de1565b92939291906001600160f01b03198316611bdd60f21b1461207457611ecf8184611c00565b93611ed984612094565b90865f5b8351811015611f8b57611ef661199761198983876106b2565b611f06816004809160581c161490565b611f14575b50600101611edd565b611f2c9192506119e26119dc6119cf6119e2936118f5565b90813b156100f8575f868a9387838b611f5b6040519889968795869463964f667d60e01b865260048601611e72565b03925af1908115610ceb578992600192611f77575b5090611f0b565b80610ddb5f611f85936104dc565b5f611f70565b50611fc29196865f5160206123095f395f51905f5260405180611fb0868b8b84611e41565b0390a265ffffffffffff8616906122f7565b5f5b815181101561206b57611fdd61199761198983856106b2565b611fed816008809160581c161490565b611ffb575b50600101611fc4565b6119e26119e26119dc6119cf612010946118f5565b90813b156100f85760405163a8ba872160e01b8152915f90839081838161203d8e8c8c8f60048601611e72565b03925af1918215610ceb57600192612057575b5090611ff2565b80610ddb5f612065936104dc565b5f612050565b50505050509050565b611bc85f5160206123095f395f51905f5293949560405193849384611e41565b61209c61093a565b8051156106ad5761214d81610a5b93602061215594015264ffffffffff5f5160206123895f395f51905f5260405160208101906120f7816108b0876953746f7265486f6f6b7360301b66746273746f726560c81b0186611bcd565b5190206040519118926020820191906121309082906108b0906953746f7265486f6f6b7360301b66746273746f726560c81b0186611bcd565b5190205f5160206123a95f395f51905f52185460381c1690612286565b805190611df1565b6122a9565b91905b6020811015612186578061217057505050565b5f199060031b1c90818354169119905116179055565b909160016020918451815501920190601f190161215d565b929190806121eb575b505b60208110156121d357806121bc57505050565b5f1960039190911b1c825491518119169116179055565b909160016020918451815501920190601f19016121a9565b602081101561223c575b80156121a75791926020839003905f19600384901b1c198460031b90811c908651901c908019835416911617815581831115611dc15760010193019101601f19015f6121a7565b926122539061224b8560051c90565b0193601f1690565b6121f5565b906122716108b091604051928391602083019586611bcd565b5190205f5160206123a95f395f51905f521890565b610a5b9060405192601f19603f82860101166040528084525f6020850192611d21565b9060158260801c9260018060801b031604604051926020840160208360051b8601016040528285525f5b8381106122e05750505050565b6020600160159285518552019201920191906122d3565b82516107619360200192909161219e56fe8c0b5119d4cec7b284c6b1b39252a03d1e2f2d7451a5895562524c113bb952be86425bff6b57326c7859e89024fe4f238ca327a1ae4a230180dd2f0e88aaa7d974620000000000000000000000000000436c61696d65644c6576656c730000008dbb3a9672eebfd3773e72dd9c102393436816d832c7ba9e1e1ac8fcadcac7a93b4102da22e32d82fc925482184f16c09fd4281692720b87d124aef6da48a0f114e2fcc58e58e68ec7edc30c8d50dccc3ce2714a623ec81f46b6a63922d76569a26469706673582212203dcf2e4dc6331dc84d20025ba5e342787b5eec9fcc83aea48d8ad2423bba896464736f6c634300081c0033","linkReferences":{}},"methodIdentifiers":{"_msgSender()":"119df25f","_msgValue()":"45ec9354","_world()":"e1af802c","supportsInterface(bytes4)":"01ffc9a7","unlockAllLevels(uint256)":"bbba89f9","unlockLevel(uint256,uint256)":"7c12e1f9","unlockLevels(uint256,uint256[])":"0faa594d","upsertLevelReward((uint256,uint256,uint256,uint256[]))":"31003298","upsertLevelRewards((uint256,uint256,uint256,uint256[])[])":"12ff123a"},"id":146}