{"abi":[{"type":"function","name":"InitialiseWaterController","inputs":[{"name":"_axiomV2QueryAddress","type":"address","internalType":"address"},{"name":"_callbackSourceChainId","type":"uint64","internalType":"uint64"},{"name":"_querySchema","type":"bytes32","internalType":"bytes32"}],"outputs":[],"stateMutability":"nonpayable"},{"type":"function","name":"_msgSender","inputs":[],"outputs":[{"name":"sender","type":"address","internalType":"address"}],"stateMutability":"view"},{"type":"function","name":"_msgValue","inputs":[],"outputs":[{"name":"value","type":"uint256","internalType":"uint256"}],"stateMutability":"pure"},{"type":"function","name":"_world","inputs":[],"outputs":[{"name":"","type":"address","internalType":"address"}],"stateMutability":"view"},{"type":"function","name":"axiomV2Callback","inputs":[{"name":"sourceChainId","type":"uint64","internalType":"uint64"},{"name":"caller","type":"address","internalType":"address"},{"name":"querySchema","type":"bytes32","internalType":"bytes32"},{"name":"queryId","type":"uint256","internalType":"uint256"},{"name":"axiomResults","type":"bytes32[]","internalType":"bytes32[]"},{"name":"extraData","type":"bytes","internalType":"bytes"}],"outputs":[],"stateMutability":"nonpayable"},{"type":"function","name":"axiomV2OffchainCallback","inputs":[{"name":"sourceChainId","type":"uint64","internalType":"uint64"},{"name":"caller","type":"address","internalType":"address"},{"name":"querySchema","type":"bytes32","internalType":"bytes32"},{"name":"queryId","type":"uint256","internalType":"uint256"},{"name":"axiomResults","type":"bytes32[]","internalType":"bytes32[]"},{"name":"extraData","type":"bytes","internalType":"bytes"}],"outputs":[],"stateMutability":"nonpayable"},{"type":"function","name":"axiomV2QueryAddress","inputs":[],"outputs":[{"name":"","type":"address","internalType":"address"}],"stateMutability":"view"},{"type":"function","name":"getWaterYieldTime","inputs":[],"outputs":[{"name":"","type":"uint256","internalType":"uint256"}],"stateMutability":"view"},{"type":"function","name":"setAxionV2QueryAddress","inputs":[{"name":"_axiomV2QueryAddress","type":"address","internalType":"address"}],"outputs":[],"stateMutability":"nonpayable"},{"type":"function","name":"setWaterControllerParameters","inputs":[{"name":"numSamples","type":"uint256","internalType":"uint256"},{"name":"blockInterval","type":"uint256","internalType":"uint256"},{"name":"minYieldTime","type":"uint256","internalType":"uint256"},{"name":"maxYieldTime","type":"uint256","internalType":"uint256"},{"name":"endBlockSlippage","type":"uint256","internalType":"uint256"},{"name":"minDelta","type":"int256","internalType":"int256"},{"name":"maxDelta","type":"int256","internalType":"int256"}],"outputs":[],"stateMutability":"nonpayable"},{"type":"function","name":"supportsInterface","inputs":[{"name":"interfaceId","type":"bytes4","internalType":"bytes4"}],"outputs":[{"name":"","type":"bool","internalType":"bool"}],"stateMutability":"pure"},{"type":"event","name":"AxiomV2Call","inputs":[{"name":"sourceChainId","type":"uint64","indexed":true,"internalType":"uint64"},{"name":"caller","type":"address","indexed":false,"internalType":"address"},{"name":"querySchema","type":"bytes32","indexed":true,"internalType":"bytes32"},{"name":"queryId","type":"uint256","indexed":true,"internalType":"uint256"}],"anonymous":false},{"type":"event","name":"AxiomV2OffchainCall","inputs":[{"name":"sourceChainId","type":"uint64","indexed":true,"internalType":"uint64"},{"name":"caller","type":"address","indexed":false,"internalType":"address"},{"name":"querySchema","type":"bytes32","indexed":true,"internalType":"bytes32"},{"name":"queryId","type":"uint256","indexed":true,"internalType":"uint256"}],"anonymous":false},{"type":"event","name":"Store_SetRecord","inputs":[{"name":"tableId","type":"bytes32","indexed":true,"internalType":"ResourceId"},{"name":"keyTuple","type":"bytes32[]","indexed":false,"internalType":"bytes32[]"},{"name":"staticData","type":"bytes","indexed":false,"internalType":"bytes"},{"name":"encodedLengths","type":"bytes32","indexed":false,"internalType":"EncodedLengths"},{"name":"dynamicData","type":"bytes","indexed":false,"internalType":"bytes"}],"anonymous":false},{"type":"event","name":"Store_SpliceStaticData","inputs":[{"name":"tableId","type":"bytes32","indexed":true,"internalType":"ResourceId"},{"name":"keyTuple","type":"bytes32[]","indexed":false,"internalType":"bytes32[]"},{"name":"start","type":"uint48","indexed":false,"internalType":"uint48"},{"name":"data","type":"bytes","indexed":false,"internalType":"bytes"}],"anonymous":false},{"type":"error","name":"AxiomV2QueryAddressIsZero","inputs":[]},{"type":"error","name":"CallerMustBeAxiomV2Query","inputs":[]},{"type":"error","name":"Slice_OutOfBounds","inputs":[{"name":"data","type":"bytes","internalType":"bytes"},{"name":"start","type":"uint256","internalType":"uint256"},{"name":"end","type":"uint256","internalType":"uint256"}]},{"type":"error","name":"World_AccessDenied","inputs":[{"name":"resource","type":"string","internalType":"string"},{"name":"caller","type":"address","internalType":"address"}]}],"bytecode":{"object":"0x608080604052346015576129dd908161001a8239f35b5f80fdfe60806040526004361015610011575f80fd5b5f3560e01c806301ffc9a7146100c4578063099c3992146100bf578063119df25f146100ba5780632a75d3be146100b55780632eb24741146100b057806345ec9354146100ab5780635b1e3ee1146100a65780638193399c146100a1578063b2e0ab3a1461009c578063dc5cd53c146100975763e1af802c14610092575f80fd5b610558565b610527565b610491565b6103be565b6102ac565b61028d565b610268565b610224565b6101f8565b61011e565b3461011a57602036600319011261011a5760043563ffffffff60e01b811680910361011a5760209063b5dee12760e01b8114908115610109575b506040519015158152f35b6301ffc9a760e01b1490505f6100fe565b5f80fd5b3461011a5760e036600319011261011a576101ec60c4356101e760a4356101e26084356101dd6064356101d86044356101b360243561018e600435610169610164610622565b610572565b610171610777565b604051916020830152602082526101896040836105ff565b610e4b565b610196610777565b604051916020830152602082526101ae6040836105ff565b610f10565b6101bb610777565b604051916020830152602082526101d36040836105ff565b610f9b565b610792565b61086f565b610920565b6109d1565b005b5f91031261011a57565b3461011a575f36600319011261011a576020610212610a82565b6040516001600160a01b039091168152f35b3461011a575f36600319011261011a5760206040515f8152f35b600435906001600160a01b038216820361011a57565b35906001600160a01b038216820361011a57565b3461011a57602036600319011261011a5761028161023e565b506101ec610164610622565b3461011a575f36600319011261011a576020604051601f193601358152f35b3461011a575f36600319011261011a5760206102ce6102c9610777565b611061565b604051908152f35b602435906001600160401b038216820361011a57565b35906001600160401b038216820361011a57565b9181601f8401121561011a578235916001600160401b03831161011a576020838186019501011161011a57565b60c060031982011261011a5761034360046102ec565b9161034e6024610254565b916044359160643591608435916001600160401b03831161011a578160238401121561011a576004830135926001600160401b03841161011a578260248560051b8301011161011a57602401929160a435906001600160401b03821161011a576103ba91600401610300565b9091565b3461011a5760207fd6d9923f6afa6ae6afc97c99da22b8ccadc9beafe897857b2434da0a402da98c6103ef3661032d565b50506040516001600160a01b0390951685529296929590946001600160401b0316939192879285929190a461042a610425610777565b611128565b60c01c0361044c576104476101ec9361044161177d565b14610a99565b610c31565b60405162461bcd60e51b815260206004820152601e60248201527f536f7572636520636861696e20494420646f6573206e6f74206d6174636800006044820152606490fd5b3461011a57606036600319011261011a576104aa61023e565b506101ec6104b66102d6565b604435906104c5610164610622565b604051916104d2836105de565b82525f60208301525f604083015260018060401b031660608201525f60808201525f60a08201525f60c08201525f60e08201525f61010082015248610120820152607861014082015243610160820152610cce565b3461011a5760207fc6d3309bf887e48755c9a455e332b73641b6bf2fd018e3b608bf21676c4c0af56103ef3661032d565b3461011a575f36600319011261011a5760206102126119d1565b1561057957565b60405162461bcd60e51b815260206004820152602360248201527f526f6f744163636573734f70657261746f723a204e6f206f776e65722061636360448201526265737360e81b6064820152608490fd5b634e487b7160e01b5f52604160045260245ffd5b61018081019081106001600160401b038211176105fa57604052565b6105ca565b601f909101601f19168101906001600160401b038211908210176105fa57604052565b6040516020810190616e7360f01b82525f60228201525f60308201526020815261064d6040826105ff565b519051906020811061074f575b50610663610a82565b9061068182600160801b600160f01b038316616e7360f01b17611e26565b801561073f575b15610694575050600190565b608081901b6001600160801b031916906106ff90601081901b6001600160901b0319168061073057506106c5611a06565b925b8061071f57506106f16106d8611a06565b6040519485936001600160f01b03191660208501611a4a565b03601f1981018352826105ff565b61071b60405192839263d787b73760e01b845260048401610da9565b0390fd5b61072b6106f191611e84565b6106d8565b61073990611e84565b926106c7565b5061074a8282611e26565b610688565b5f199060200360031b1b165f61065a565b6001600160401b0381116105fa5760051b60200190565b604051906107866020836105ff565b5f808352366020840137565b61079a610777565b604051916020830152602082526107b26040836105ff565b6001600160a01b036107c26119d1565b16913083036107f7576107f592505f5160206129885f395f51905f52916007905f5160206129285f395f51905f52611a80565b565b90823b1561011a576040516301c85d5760e51b8152925f928492839185918391610845915f5160206129885f395f51905f5291906007905f5160206129285f395f51905f5260048701610e04565b03925af1801561086a576108565750565b806108645f6107f5936105ff565b806101ee565b610e40565b610877610777565b6040519160208301526020825261088f6040836105ff565b6001600160a01b0361089f6119d1565b16913083036108d2576107f592505f5160206129885f395f51905f52916008905f5160206129285f395f51905f52611a80565b90823b1561011a576040516301c85d5760e51b8152925f928492839185918391610845915f5160206129885f395f51905f5291906008905f5160206129285f395f51905f5260048701610e04565b610928610777565b604051916020830152602082526109406040836105ff565b6001600160a01b036109506119d1565b1691308303610983576107f592505f5160206129885f395f51905f52916001905f5160206129285f395f51905f52611a80565b90823b1561011a576040516301c85d5760e51b8152925f928492839185918391610845915f5160206129885f395f51905f5291906001905f5160206129285f395f51905f5260048701610e04565b6109d9610777565b604051916020830152602082526109f16040836105ff565b6001600160a01b03610a016119d1565b1691308303610a34576107f592505f5160206129885f395f51905f52916002905f5160206129285f395f51905f52611a80565b90823b1561011a576040516301c85d5760e51b8152925f928492839185918391610845915f5160206129885f395f51905f5291906002905f5160206129285f395f51905f5260048701610e04565b36603319013560601c908115610a9457565b339150565b15610aa057565b60405162461bcd60e51b8152602060048201526014602482015273496e76616c696420717565727920736368656d6160601b6044820152606490fd5b634e487b7160e01b5f52603260045260245ffd5b15610af757565b60405162461bcd60e51b81526020600482015260176024820152760dac2f040e6c2dae0d8cae640c8dedc4ee840dac2e8c6d604b1b6044820152606490fd5b15610b3d57565b60405162461bcd60e51b81526020600482015260196024820152780e6e8c2e4e840c4d8dec6d640c8decae6dc4ee840dac2e8c6d603b1b6044820152606490fd5b634e487b7160e01b5f52601160045260245ffd5b91908203918211610b9f57565b610b7e565b15610bab57565b60405162461bcd60e51b815260206004820152601a6024820152791b9bdd08195b9bdd59da081d1a5b59481a185cc81c185cdcd95960321b6044820152606490fd5b15610bf457565b60405162461bcd60e51b8152602060048201526015602482015274656e6420626c6f636b20697320746f6f206c61746560581b6044820152606490fd5b908015610cc9578135908060011015610cc9576020830135908060021015610cc95760408401359060031015610cc957610cac610cc492610c8160606107f5970135610c7b61178d565b14610af0565b610c9381610c8d61179d565b14610b36565b610ca5610c9e6117ad565b9184610b92565b1015610ba4565b610cbd610cb76117bd565b43610b92565b1115610bed565b6117e5565b610adc565b6107f59080519060208101519060408101516060820151608083015160a084015160c08501519060e08601519261010087015194610120880151966101606101408a0151990151996040519b60208d015260408c015260608b015260018060c01b03199060c01b1660808a0152608889015260a888015260c887015260e88601526101088501526101288401526101488301526101688201526101688152610d78610188826105ff565b610d80610777565b611920565b805180835260209291819084018484015e5f828201840152601f01601f1916010190565b90610dc1602091949394604084526040840190610d85565b6001600160a01b03909416910152565b90602080835192838152019201905f5b818110610dee5750505090565b8251845260209384019390920191600101610de1565b95949360ff610e27610e3b94608096948a5260a060208b015260a08a0190610dd1565b921660408801528682036060880152610d85565b930152565b6040513d5f823e3d90fd5b906001600160a01b03610e5c6119d1565b1691308303610e9e576107f5925065ffffffffffff610e8960045f5160206129885f395f51905f52611ee4565b16905f5160206129285f395f51905f52611f99565b823b1561011a576040516301c85d5760e51b8152925f928492839185918391610eea915f5160206129885f395f51905f5291906004905f5160206129285f395f51905f52828701610e04565b03925af1801561086a57610efb5750565b80610f075f80936105ff565b80031261011a57565b906001600160a01b03610f216119d1565b1691308303610f4e576107f5925065ffffffffffff610e8960055f5160206129885f395f51905f52611ee4565b823b1561011a576040516301c85d5760e51b8152925f928492839185918391610eea915f5160206129885f395f51905f5291906005905f5160206129285f395f51905f5260048701610e04565b906001600160a01b03610fac6119d1565b1691308303610fd9576107f5925065ffffffffffff610e8960065f5160206129885f395f51905f52611ee4565b823b1561011a576040516301c85d5760e51b8152925f928492839185918391610eea915f5160206129885f395f51905f5291906006905f5160206129285f395f51905f5260048701610e04565b9081602091031261011a575190565b9061105660609360ff92979695978452608060208501526080840190610dd1565b951660408201520152565b6001600160a01b036110716119d1565b163081036110a657506110a3905f5160206129885f395f51905f5290600a905f5160206129285f395f51905f52611a9c565b90565b604051638c364d5960e01b8152916020918391829081906110ea905f5160206129885f395f51905f5290600a905f5160206129285f395f51905f5260048601611035565b03915afa90811561086a575f916110ff575090565b6110a3915060203d602011611121575b61111981836105ff565b810190611026565b503d61110f565b6001600160a01b036111386119d1565b1630810361116a57506110a3905f5160206129885f395f51905f52906003905f5160206129285f395f51905f52611a9c565b604051638c364d5960e01b8152916020918391829081906110ea905f5160206129885f395f51905f52906003905f5160206129285f395f51905f5260048601611035565b6001600160a01b036111be6119d1565b163081036111ef57506110a3905f5160206129885f395f51905f52905f905f5160206129285f395f51905f52611a9c565b604051638c364d5960e01b8152916020918391829081906110ea905f5160206129885f395f51905f52905f905f5160206129285f395f51905f5260048601611035565b6001600160a01b036112426119d1565b1630810361127457506110a3905f5160206129885f395f51905f52906004905f5160206129285f395f51905f52611a9c565b604051638c364d5960e01b8152916020918391829081906110ea905f5160206129885f395f51905f52906004905f5160206129285f395f51905f52828601611035565b6001600160a01b036112c76119d1565b163081036112f957506110a3905f5160206129885f395f51905f5290600b905f5160206129285f395f51905f52611a9c565b604051638c364d5960e01b8152916020918391829081906110ea905f5160206129885f395f51905f5290600b905f5160206129285f395f51905f5260048601611035565b6001600160a01b0361134d6119d1565b1630810361137f57506110a3905f5160206129885f395f51905f52906005905f5160206129285f395f51905f52611a9c565b604051638c364d5960e01b8152916020918391829081906110ea905f5160206129885f395f51905f52906005905f5160206129285f395f51905f5260048601611035565b6001600160a01b036113d36119d1565b1630810361140557506110a3905f5160206129885f395f51905f52906008905f5160206129285f395f51905f52611a9c565b604051638c364d5960e01b8152916020918391829081906110ea905f5160206129885f395f51905f52906008905f5160206129285f395f51905f5260048601611035565b6001600160a01b036114596119d1565b1630810361148b57506110a3905f5160206129885f395f51905f52906009905f5160206129285f395f51905f52611a9c565b604051638c364d5960e01b8152916020918391829081906110ea905f5160206129885f395f51905f52906009905f5160206129285f395f51905f5260048601611035565b6001600160a01b036114df6119d1565b1630810361151157506110a3905f5160206129885f395f51905f52906006905f5160206129285f395f51905f52611a9c565b604051638c364d5960e01b8152916020918391829081906110ea905f5160206129885f395f51905f52906006905f5160206129285f395f51905f5260048601611035565b6001600160a01b036115656119d1565b1630810361159f57506110a390630101000160d81b905f906f5265736f757263654163636573730000661d189ddbdc9b1960ca1b01611a9c565b604051638c364d5960e01b8152916020918391829081906110ea90630101000160d81b905f906f5265736f757263654163636573730000661d189ddbdc9b1960ca1b0160048601611035565b6001600160a01b036115fb6119d1565b1630810361162d57506110a3905f5160206129885f395f51905f52906007905f5160206129285f395f51905f52611a9c565b604051638c364d5960e01b8152916020918391829081906110ea905f5160206129885f395f51905f52906007905f5160206129285f395f51905f5260048601611035565b6001600160a01b036116816119d1565b163081036116b357506110a3905f5160206129885f395f51905f52906001905f5160206129285f395f51905f52611a9c565b604051638c364d5960e01b8152916020918391829081906110ea905f5160206129885f395f51905f52906001905f5160206129285f395f51905f5260048601611035565b6001600160a01b036117076119d1565b1630810361173957506110a3905f5160206129885f395f51905f52906002905f5160206129285f395f51905f52611a9c565b604051638c364d5960e01b8152916020918391829081906110ea905f5160206129885f395f51905f52906002905f5160206129285f395f51905f5260048601611035565b6110a3611788610777565b6111ae565b6110a3611798610777565b611232565b6110a36117a8610777565b6112b7565b6110a36117b8610777565b61133d565b6110a36117c8610777565b6113c3565b81810392915f138015828513169184121617610b9f57565b6118c3906118be6118b96118086118026117fd610777565b611449565b846117cd565b6118b361181361178d565b6118ad61181e6117ad565b936118a761183261182d610777565b6114cf565b61183a61221b565b9661184361222b565b93849161184e61223b565b976118576117bd565b9015159182611916575b508161190c575b81611902575b816118f8575b50806118ef575b61188490611b04565b818112156118cc575061189a816118a1926117cd565b9188610b92565b90611b98565b926117cd565b90611bba565b906117cd565b611be8565b611c99565b6107f543611d4a565b868113156118e2575061189a6118a191876117cd565b6118a19161189a916117cd565b5081871361187b565b905015155f611874565b848b11915061186e565b8415159150611868565b151591505f611861565b6001600160a01b036119306119d1565b1630810361195657506107f5916060915f91905f5160206129285f395f51905f52611dfb565b91823b1561011a5760405163298314fb60e01b81525f5160206129285f395f51905f52600482015260a06024820152925f928492839185918391610845916119b8916119a69060a4860190610dd1565b84810360031901604486015290610d85565b8360648401526003198382030160848401526060610d85565b7f629a4c26e296b22a8e0856e9f6ecb2d1008d7e00081111962cd175fa7488e175546001600160a01b0316806110a357503390565b60408051919082016001600160401b038111838210176105fa5760405260068252651e3937b7ba1f60d11b6020830152565b805191908290602001825e015f815290565b6110a393926003611a729260019461ffff60f01b168152601d60f91b60028201520190611a38565b601d60f91b81520190611a38565b91611a9565ffffffffffff916107f596611ee4565b1691611f99565b611ac291611aac919493946121ed565b9260ff808216601b0360031b84901c1692611ee4565b91806020841015611af3575b5080548360031b1b92602003809211611ae657505090565b600101549060031b1c1790565b601f84169360051c0190505f611ace565b15611b0b57565b60405162461bcd60e51b815260206004820152605960248201527f5761746572436f6e74726f6c6c6572206d6973636f6e66696775726564206f7260448201527f206d697373696e6720636f6e6669672c2075736520776f726c642e7365745761606482015278746572436f6e74726f6c6c6572506172616d6574657273282960381b608482015260a490fd5b81810292915f8212600160ff1b821416610b9f578184051490151715610b9f57565b8115611bd457600160ff1b81145f19831416610b9f570590565b634e487b7160e01b5f52601260045260245ffd5b611bf0610777565b60405191602083015260208252611c086040836105ff565b6001600160a01b03611c186119d1565b1691308303611c4b576107f592505f5160206129885f395f51905f5291600a905f5160206129285f395f51905f52611a80565b90823b1561011a576040516301c85d5760e51b8152925f928492839185918391610845915f5160206129885f395f51905f529190600a905f5160206129285f395f51905f5260048701610e04565b611ca1610777565b60405191602083015260208252611cb96040836105ff565b6001600160a01b03611cc96119d1565b1691308303611cfc576107f592505f5160206129885f395f51905f52916009905f5160206129285f395f51905f52611a80565b90823b1561011a576040516301c85d5760e51b8152925f928492839185918391610845915f5160206129885f395f51905f5291906009905f5160206129285f395f51905f5260048701610e04565b611d52610777565b60405191602083015260208252611d6a6040836105ff565b6001600160a01b03611d7a6119d1565b1691308303611dad576107f592505f5160206129885f395f51905f5291600b905f5160206129285f395f51905f52611a80565b90823b1561011a576040516301c85d5760e51b8152925f928492839185918391610845915f5160206129885f395f51905f529190600b905f5160206129285f395f51905f5260048701610e04565b9290916107f59492611e0c8561224b565b94612344565b8051821015610cc95760209160051b010190565b604051906060611e3681846105ff565b600283526020830190601f1901368237825115610cc95752805160011015610cc9576001600160a01b039091166040820152611e7190611555565b60f81c90565b91908201809211610b9f57565b5f5b60108110611eb7575b6040516001600160801b0319909216602083015260108252611eb26030836105ff565b815290565b6001600160801b03198216600382901b1b6001600160f81b03191615611edf57600101611e86565b611e8f565b5f915f915b60ff82168310611ef95750505090565b909192611f0f848360ff91601b0360031b1c1690565b8101809111610b9f57926001019190611ee9565b65ffffffffffff611f406110a39593606084526060840190610dd1565b931660208201526040818403910152610d85565b6001600160581b03191690565b90611f856110a3959365ffffffffffff928452608060208501526080840190610dd1565b931660408201526060818403910152610d85565b92939291906001600160f01b03198316611bdd60f21b1461219557611fbe81846121ed565b93611fc8846125ac565b90865f5b83518110156120ac57611ff8611ff3611fe58387611e12565b516001600160581b03191690565b611f54565b612008816004809160581c161490565b612016575b50600101611fcc565b61204d91925061204161203b61202e61204193611f54565b6001600160601b03191690565b60601c90565b6001600160a01b031690565b90813b1561011a575f868a9387838b61207c6040519889968795869463964f667d60e01b865260048601611f61565b03925af190811561086a578992600192612098575b509061200d565b806108645f6120a6936105ff565b5f612091565b506120e39196865f5160206128e85f395f51905f52604051806120d1868b8b84611f23565b0390a265ffffffffffff861690612645565b5f5b815181101561218c576120fe611ff3611fe58385611e12565b61210e816008809160581c161490565b61211c575b506001016120e5565b61204161204161203b61202e61213194611f54565b90813b1561011a5760405163a8ba872160e01b8152915f90839081838161215e8e8c8c8f60048601611f61565b03925af191821561086a57600192612178575b5090612113565b806108645f612186936105ff565b5f612171565b50505050509050565b6121b55f5160206128e85f395f51905f5293949560405193849384611f23565b0390a2565b60209181520160208251919201905f5b8181106121d75750505090565b82518452602093840193909201916001016121ca565b906122066106f1916040519283916020830195866121ba565b5190205f5160206129085f395f51905f521890565b6110a3612226610777565b6115eb565b6110a3612236610777565b611671565b6110a3612246610777565b6116f7565b655461626c657360501b66746273746f726560c81b0181146122b35760408051655461626c657360501b66746273746f726560c81b01602082019081528183019390935290815261229d6060826105ff565b5190205f5160206129085f395f51905f52185490565b506503001811010160cd1b90565b906110a394926122dc6122ea92608085526080850190610dd1565b908382036020850152610d85565b9260408201526060818403910152610d85565b96959490610e3b9361232360a09694612331938b5260c060208c015260c08b0190610dd1565b9089820360408b0152610d85565b9160608801528682036080880152610d85565b9295949192916001600160f01b03198316611bdd60f21b1461258957612369836125ac565b5f5b815181101561241657612384611ff3611fe58385611e12565b612394816001809160581c161490565b6123a2575b5060010161236b565b61204161204161203b61202e6123b794611f54565b90813b1561011a575f878b9387838a6123e88a8f6040519a8b98899788966315c19b2760e21b8852600488016122fd565b03925af191821561086a57600192612402575b5090612399565b806108645f612410936105ff565b5f6123fb565b50835f5160206129485f395f51905f52604051806124378a8d8b8a856122c1565b0390a261245361244784866121ed565b86516020880191612656565b60e082901c60ff168061251a575b505f5b815181101561250f5761247d611ff3611fe58385611e12565b61248d816002809160581c161490565b61249b575b50600101612464565b61204161204161203b61202e6124b094611f54565b90813b1561011a575f878b9387838a6124e18a8f6040519a8b9889978896635b28cdaf60e01b8852600488016122fd565b03925af191821561086a576001926124fb575b5090612492565b806108645f612509936105ff565b5f6124f4565b505050505050509050565b8861252585876127b5565b555f602088015b85878c8560ff861610612543575050505050612461565b8361257b60ff956125748861255e8160019961258099612817565b9560ff64ffffffffff92166028026038011c1690565b8094612656565b611e77565b9201169061252c565b509093945f5160206129485f395f51905f52936121b591604051948594856122c1565b60408051906125bb90826105ff565b600181526125c96001610760565b602082019290601f1901368437815115610cc9576110a392526126346126086125fa6125f4846127ce565b9361275b565b5460381c64ffffffffff1690565b9161262c6040519160208301948591601f19603f83870101166040528185526128a4565b519160801b90565b6001600160801b0390911617612856565b82516107f59360200192909161269a565b91905b6020811015612682578061266c57505050565b5f199060031b1c90818354169119905116179055565b909160016020918451815501920190601f1901612659565b929190806126e7575b505b60208110156126cf57806126b857505050565b5f1960039190911b1c825491518119169116179055565b909160016020918451815501920190601f19016126a5565b602081101561273f575b80156126a35791926020839003905f19600384901b1c198460031b90811c908651901c9080198354169116178155818311156127385760010193019101601f19015f6126a3565b5050505050565b926127569061274e8560051c90565b0193601f1690565b6126f1565b604051602081019161278d9082906106f1906953746f7265486f6f6b7360301b66746273746f726560c81b01866121ba565b5190207f14e2fcc58e58e68ec7edc30c8d50dccc3ce2714a623ec81f46b6a63922d765691890565b9061278d6106f1916040519283916020830195866121ba565b6040515f5160206129685f395f51905f52916020820191906128109082906106f1906953746f7265486f6f6b7360301b66746273746f726560c81b01866121ba565b5190201890565b6106f161283e5f5160206129685f395f51905f5294936040519283916020830195866121ba565b51902060f89190911b6001600160f81b031916181890565b60158160801c9160018060801b031604604051916020830160208360051b8501016040528284525f5b83811061288d575050505090565b60206001601592855185520192019201919061287f565b905b60208110156128cf57806128b957505050565b5f199060031b1c90818351169119905416179052565b919060018160209254845201910191601f19016128a656fe8c0b5119d4cec7b284c6b1b39252a03d1e2f2d7451a5895562524c113bb952be86425bff6b57326c7859e89024fe4f238ca327a1ae4a230180dd2f0e88aaa7d9746200000000000000000000000000005761746572436f6e74726f6c6c6572008dbb3a9672eebfd3773e72dd9c102393436816d832c7ba9e1e1ac8fcadcac7a93b4102da22e32d82fc925482184f16c09fd4281692720b87d124aef6da48a0f101680c0020202008202020202020202000000000000000000000000000000000a264697066735822122034dd331cb706c5a8f04e8045530043763be87865af80a463d157aa4e3a48df5664736f6c634300081c0033","linkReferences":{}},"methodIdentifiers":{"InitialiseWaterController(address,uint64,bytes32)":"b2e0ab3a","_msgSender()":"119df25f","_msgValue()":"45ec9354","_world()":"e1af802c","axiomV2Callback(uint64,address,bytes32,uint256,bytes32[],bytes)":"dc5cd53c","axiomV2OffchainCallback(uint64,address,bytes32,uint256,bytes32[],bytes)":"8193399c","axiomV2QueryAddress()":"2a75d3be","getWaterYieldTime()":"5b1e3ee1","setAxionV2QueryAddress(address)":"2eb24741","setWaterControllerParameters(uint256,uint256,uint256,uint256,uint256,int256,int256)":"099c3992","supportsInterface(bytes4)":"01ffc9a7"},"id":153}