{"abi":[{"type":"function","name":"_msgSender","inputs":[],"outputs":[{"name":"sender","type":"address","internalType":"address"}],"stateMutability":"view"},{"type":"function","name":"_msgValue","inputs":[],"outputs":[{"name":"value","type":"uint256","internalType":"uint256"}],"stateMutability":"pure"},{"type":"function","name":"_world","inputs":[],"outputs":[{"name":"","type":"address","internalType":"address"}],"stateMutability":"view"},{"type":"function","name":"craftRecipe","inputs":[{"name":"landId","type":"uint256","internalType":"uint256"},{"name":"output","type":"uint256","internalType":"uint256"}],"outputs":[],"stateMutability":"nonpayable"},{"type":"function","name":"createRecipe","inputs":[{"name":"recipe","type":"tuple","internalType":"struct CraftingRecipeDTO","components":[{"name":"output","type":"uint256","internalType":"uint256"},{"name":"outputQuantity","type":"uint256","internalType":"uint256"},{"name":"xp","type":"uint256","internalType":"uint256"},{"name":"exists","type":"bool","internalType":"bool"},{"name":"inputs","type":"uint256[]","internalType":"uint256[]"},{"name":"quantities","type":"uint256[]","internalType":"uint256[]"}]}],"outputs":[],"stateMutability":"nonpayable"},{"type":"function","name":"createRecipes","inputs":[{"name":"recipes","type":"tuple[]","internalType":"struct CraftingRecipeDTO[]","components":[{"name":"output","type":"uint256","internalType":"uint256"},{"name":"outputQuantity","type":"uint256","internalType":"uint256"},{"name":"xp","type":"uint256","internalType":"uint256"},{"name":"exists","type":"bool","internalType":"bool"},{"name":"inputs","type":"uint256[]","internalType":"uint256[]"},{"name":"quantities","type":"uint256[]","internalType":"uint256[]"}]}],"outputs":[],"stateMutability":"nonpayable"},{"type":"function","name":"removeRecipe","inputs":[{"name":"recipe","type":"tuple","internalType":"struct CraftingRecipeDTO","components":[{"name":"output","type":"uint256","internalType":"uint256"},{"name":"outputQuantity","type":"uint256","internalType":"uint256"},{"name":"xp","type":"uint256","internalType":"uint256"},{"name":"exists","type":"bool","internalType":"bool"},{"name":"inputs","type":"uint256[]","internalType":"uint256[]"},{"name":"quantities","type":"uint256[]","internalType":"uint256[]"}]}],"outputs":[],"stateMutability":"nonpayable"},{"type":"function","name":"supportsInterface","inputs":[{"name":"interfaceId","type":"bytes4","internalType":"bytes4"}],"outputs":[{"name":"","type":"bool","internalType":"bool"}],"stateMutability":"pure"},{"type":"event","name":"CraftRecipe","inputs":[{"name":"landId","type":"uint256","indexed":false,"internalType":"uint256"},{"name":"output","type":"uint256","indexed":false,"internalType":"uint256"},{"name":"inputs","type":"uint256[]","indexed":false,"internalType":"uint256[]"},{"name":"quantities","type":"uint256[]","indexed":false,"internalType":"uint256[]"}],"anonymous":false},{"type":"event","name":"CraftRecipeXpReward","inputs":[{"name":"landId","type":"uint256","indexed":false,"internalType":"uint256"},{"name":"totalXp","type":"uint256","indexed":false,"internalType":"uint256"},{"name":"xp","type":"uint256","indexed":false,"internalType":"uint256"}],"anonymous":false},{"type":"event","name":"Store_DeleteRecord","inputs":[{"name":"tableId","type":"bytes32","indexed":true,"internalType":"ResourceId"},{"name":"keyTuple","type":"bytes32[]","indexed":false,"internalType":"bytes32[]"}],"anonymous":false},{"type":"event","name":"Store_SetRecord","inputs":[{"name":"tableId","type":"bytes32","indexed":true,"internalType":"ResourceId"},{"name":"keyTuple","type":"bytes32[]","indexed":false,"internalType":"bytes32[]"},{"name":"staticData","type":"bytes","indexed":false,"internalType":"bytes"},{"name":"encodedLengths","type":"bytes32","indexed":false,"internalType":"EncodedLengths"},{"name":"dynamicData","type":"bytes","indexed":false,"internalType":"bytes"}],"anonymous":false},{"type":"event","name":"Store_SpliceStaticData","inputs":[{"name":"tableId","type":"bytes32","indexed":true,"internalType":"ResourceId"},{"name":"keyTuple","type":"bytes32[]","indexed":false,"internalType":"bytes32[]"},{"name":"start","type":"uint48","indexed":false,"internalType":"uint48"},{"name":"data","type":"bytes","indexed":false,"internalType":"bytes"}],"anonymous":false},{"type":"error","name":"AccessByNoOperator","inputs":[{"name":"owner","type":"address","internalType":"address"},{"name":"caller","type":"address","internalType":"address"}]},{"type":"error","name":"Slice_OutOfBounds","inputs":[{"name":"data","type":"bytes","internalType":"bytes"},{"name":"start","type":"uint256","internalType":"uint256"},{"name":"end","type":"uint256","internalType":"uint256"}]},{"type":"error","name":"World_AccessDenied","inputs":[{"name":"resource","type":"string","internalType":"string"},{"name":"caller","type":"address","internalType":"address"}]}],"bytecode":{"object":"0x60808060405234601557612d46908161001a8239f35b5f80fdfe60806040526004361015610011575f80fd5b5f3560e01c806301ffc9a714610094578063119df25f1461008f5780631ac91afc1461008a57806343548af91461008557806345ec935414610080578063b91749301461007b578063e1af802c146100765763fa98382d14610071575f80fd5b6103a6565b61038c565b6102c9565b6102aa565b6101b2565b610122565b6100f6565b346100e85760203660031901126100e85760043563ffffffff60e01b81168091036100e85763b5dee12760e01b81149081156100d7575b50151560805260206080f35b6301ffc9a760e01b149050816100cb565b5f80fd5b5f9103126100e857565b346100e8575f3660031901126100e85760206101106108ad565b6040516001600160a01b039091168152f35b346100e85760203660031901126100e8576004356001600160401b0381116100e857366023820112156100e85760048101356001600160401b0381116100e8573660248260051b840101116100e857602461017d92016104f4565b005b60206003198201126100e857600435906001600160401b0382116100e85760c09082900360031901126100e85760040190565b346100e8576101c03661017f565b6101d06101cb6108c4565b61049c565b356101e26101dd82610a61565b610580565b6101ea610a02565b8051156102a55780826020610219930152604051905f602083015260018252610214602183610621565b611516565b610221610a02565b908151156102a55760208201526001600160a01b0361023e6116bd565b16308103610250575061017d90611b63565b803b156100e85760405163505a181d60e01b8152915f91839182908490829061027c90600483016115d4565b03925af180156102a05761028c57005b8061029a5f61017d93610621565b806100ec565b61102a565b61056c565b346100e8575f3660031901126100e8576020604051601f193601358152f35b346100e8576102d73661017f565b6102e26101cb6108c4565b80356102ed81610a61565b6103475761017d916020810135604082013561030b606084016105cb565b9161034161032f61033961032260808801886105d8565b92909760a08101906105d8565b9790923691610660565b953691610660565b94610a84565b60405162461bcd60e51b815260206004820152601f60248201527f4372616674696e673a2072656369706520616c726561647920657869737473006044820152606490fd5b346100e8575f3660031901126100e85760206101106116bd565b346100e85760403660031901126100e8576004356024356103cd6103c8610a24565b611035565b60601c916103dc8315156116f2565b6040516331a9108f60e11b81526004810182905292602090849060249082905afa9283156102a0575f9361046b575b506104146108ad565b6001600160a01b0381811690851614801561045a575b156104395761017d8383610769565b6334a0e31960e21b5f526001600160a01b038085166004521660245260445ffd5b50610466818386611771565b61042a565b61048e91935060203d602011610495575b6104868183610621565b810190611752565b915f61040b565b503d61047c565b156104a357565b60405162461bcd60e51b815260206004820152602360248201527f526f6f744163636573734f70657261746f723a204e6f206f776e65722061636360448201526265737360e81b6064820152608490fd5b9190916105026101cb6108c4565b3681900360be1901915f5b84811015610565578060051b830135848112156100e8578301906105326101cb6108c4565b81359161053e83610a61565b6103475760019261055f916020810135604082013561030b606084016105cb565b0161050d565b5092505050565b634e487b7160e01b5f52603260045260245ffd5b1561058757565b606460405162461bcd60e51b815260206004820152602060248201527f4372616674696e673a2072656369706520646f6573206e6f74206578697374736044820152fd5b3580151581036100e85790565b903590601e19813603018212156100e857018035906001600160401b0382116100e857602001918160051b360383136100e857565b634e487b7160e01b5f52604160045260245ffd5b601f909101601f19168101906001600160401b0382119082101761064457604052565b61060d565b6001600160401b0381116106445760051b60200190565b92919061066c81610649565b9361067a6040519586610621565b602085838152019160051b81019283116100e857905b82821061069c57505050565b8135815260209182019101610690565b90602080835192838152019201905f5b8181106106c95750505090565b82518452602093840193909201916001016106bc565b9261070f949261070192855260208501526080604085015260808401906106ac565b9160608184039101526106ac565b90565b634e487b7160e01b5f52601160045260245ffd5b9190820180921161073357565b610712565b8051156102a55760200190565b8051600210156102a55760600190565b80518210156102a55760209160051b010190565b91906107776101dd82610a61565b61078081610b61565b917f0f0cf52d9098698fcff7ab66ae14d0d3807defee37142d50a274cd588be8d8b3606084019361080a8551946107be60808401968751908a610c6f565b6107ca8351828a610d8c565b7fec90104696a8bf53d6210ef68e27160ac8b79da477e8a0e1f8fc51956c892b9981896108018a518a5190604051948594856106df565b0390a187610db1565b61082c610826602061081b89610e7e565b930192835190610726565b87610e9b565b61084061083887610e7e565b825190610726565b9051604080518881526020810193909352820152606090a15f5b835180518210156108a5579061087b61087582600194610755565b51610f86565b80610888575b500161085a565b61089f90610897838751610755565b519088610d8c565b5f610881565b505092505050565b36603319013560601c9081156108bf57565b339150565b6040516020810190616e7360f01b82525f60228201525f6030820152602081526108ef604082610621565b51905190602081106109f1575b506109056108ad565b9061092382600160801b600160f01b038316616e7360f01b17611cdb565b80156109e1575b15610936575050600190565b608081901b6001600160801b031916906109a190601081901b6001600160901b031916806109d25750610967611a85565b925b806109c1575061099361097a611a85565b6040519485936001600160f01b03191660208501611aa9565b03601f198101835282610621565b6109bd60405192839263d787b73760e01b845260048401610fc7565b0390fd5b6109cd61099391611d13565b61097a565b6109db90611d13565b92610969565b506109ec8282611cdb565b61092a565b5f199060200360031b1b165f6108fc565b60408051909190610a138382610621565b6001815291601f1901366020840137565b60405190610a33602083610621565b5f808352366020840137565b60405160609190610a508382610621565b6002815291601f1901366020840137565b610a69610a02565b8051156102a557610a7e916020820152611100565b60f81c90565b9293610ae494610b259692936040519460208601526040850152151560f81b606084015260418352610ab7606184610621565b610af8815192610aea610ad4610ace835195611b91565b92611b91565b60405198899360208501906115f9565b906115f9565b03601f198101875286610621565b610b00610a02565b93610b0a85610738565b528060651b9180603d1b9160051b9060051b0117179161160b565b565b6040519060a082016001600160401b038111838210176106445760405260606080835f81525f60208201525f604082015282808201520152565b610b69610b27565b50610b72610a02565b8051156102a557610b8e81610bfb936020610be094015261186e565b610b9c949294939193610b27565b946020810151906060604082015191015160f81c1515604088015260208701528552610bd08464ffffffffff9060381c1690565b610bf3610be5610be083856127aa565b612b67565b9560601c64ffffffffff1690565b8101916127fa565b6080830152606082015290565b15610c0f57565b60405162461bcd60e51b815260206004820152602560248201527f496e76656e746f727953797374656d3a20696e73756666696369656e742062616044820152646c616e636560d81b6064820152608490fd5b9190820391821161073357565b9291928151845103610d38575f5b8251811015610d3157610c908184610755565b5115610ce85780610ce2610cb0610ca960019487610755565b5185611970565b610cdb610cbd848a610755565b51610cca81841015610c08565b610cd48589610755565b5192610c62565b908561199d565b01610c7d565b60405162461bcd60e51b8152806109bd600482016020808252808201527f496e76656e746f727953797374656d3a20696e76616c6964206974656d206964604082015260600190565b5050509050565b60405162461bcd60e51b815260206004820152602660248201527f496e76656e746f727953797374656d3a20696e76616c696420696e707574206c604482015265656e6774687360d01b6064820152608490fd5b91908015610ce857610d9e8184611970565b91820180921161073357610b259261199d565b90610e7391604051916020830191630671ab4160e21b83526024840152604483015260448252610de2606483610621565b5f80610df4610def610a24565b61117e565b60601c9260405194610e07606087610621565b602786527f416464726573733a206c6f772d6c6576656c2064656c65676174652063616c6c6020870152660819985a5b195960ca1b60408701525190845af43d15610e76573d91610e57836117f0565b92610e656040519485610621565b83523d5f602085013e612874565b50565b606091612874565b610e86610a02565b8051156102a55761070f91602082015261120c565b610ea3610a02565b908151156102a557602082015260405191602083015260208252610ec8604083610621565b6001600160a01b03610ed86116bd565b1691308303610f1257610b2592506b072848090101010008210101609d1b91600790674c616e64496e666f60401b613a3160f11b01611b47565b90823b156100e8576040516301c85d5760e51b8152925f928492839185918391610f67916b072848090101010008210101609d1b9190600790674c616e64496e666f60401b613a3160f11b01600487016114da565b03925af180156102a057610f785750565b8061029a5f610b2593610621565b610f8e610a02565b8051156102a55761070f9160208201526112a0565b805180835260209291819084018484015e5f828201840152601f01601f1916010190565b90610fdf602091949394604084526040840190610fa3565b6001600160a01b03909416910152565b908160209103126100e8575190565b9061101f60609360ff929796959784526080602085015260808401906106ac565b951660408201520152565b6040513d5f823e3d90fd5b6001600160a01b036110456116bd565b1630810361107b575061070f906d3702c00505050505050505050505608a1b906004905f516020612c515f395f51905f52611adf565b604051638c364d5960e01b8152916020918391829081906110c2906d3702c00505050505050505050505608a1b906004905f516020612c515f395f51905f52828601610ffe565b03915afa9081156102a0575f916110d7575090565b61070f915060203d6020116110f9575b6110f18183610621565b810190610fef565b503d6110e7565b6001600160a01b036111106116bd565b1630810361113e575061070f906541030220200160c81b906002905f516020612cf15f395f51905f52611adf565b604051638c364d5960e01b8152916020918391829081906110c2906541030220200160c81b906002905f516020612cf15f395f51905f5260048601610ffe565b6001600160a01b0361118e6116bd565b163081036111c4575061070f906d3702c00505050505050505050505608a1b906009905f516020612c515f395f51905f52611adf565b604051638c364d5960e01b8152916020918391829081906110c2906d3702c00505050505050505050505608a1b906009905f516020612c515f395f51905f5260048601610ffe565b6001600160a01b0361121c6116bd565b16308103611255575061070f906b072848090101010008210101609d1b90600790674c616e64496e666f60401b613a3160f11b01611adf565b604051638c364d5960e01b8152916020918391829081906110c2906b072848090101010008210101609d1b90600790674c616e64496e666f60401b613a3160f11b0160048601610ffe565b6001600160a01b036112b06116bd565b163081036112e9575061070f906b033048000808080808090101609d1b90600890674974656d496e666f60401b613a3160f11b01611adf565b604051638c364d5960e01b8152916020918391829081906110c2906b033048000808080808090101609d1b90600890674974656d496e666f60401b613a3160f11b0160048601610ffe565b6001600160a01b036113446116bd565b16308103611379575061070f90630101000160d81b905f906f4c616e645065726d697373696f6e7300613a3160f11b01611adf565b604051638c364d5960e01b8152916020918391829081906110c290630101000160d81b905f906f4c616e645065726d697373696f6e7300613a3160f11b0160048601610ffe565b6001600160a01b036113d06116bd565b16308103611401575061070f90630100080160dd1b905f9068496e76656e746f727960381b613a3160f11b01611adf565b604051638c364d5960e01b8152916020918391829081906110c290630100080160dd1b905f9068496e76656e746f727960381b613a3160f11b0160048601610ffe565b6001600160a01b036114546116bd565b1630810361148e575061070f90630101000160d81b905f906f5265736f757263654163636573730000661d189ddbdc9b1960ca1b01611adf565b604051638c364d5960e01b8152916020918391829081906110c290630101000160d81b905f906f5265736f757263654163636573730000661d189ddbdc9b1960ca1b0160048601610ffe565b95949360ff6114fd61151194608096948a5260a060208b015260a08a01906106ac565b921660408801528682036060880152610fa3565b930152565b906001600160a01b036115276116bd565b169130830361156557610b25925065ffffffffffff61155060026541030220200160c81b611dd4565b16905f516020612cf15f395f51905f52611e89565b823b156100e8576040516301c85d5760e51b8152925f9284928391859183916115ae916541030220200160c81b91906002905f516020612cf15f395f51905f52600487016114da565b03925af180156102a0576115bf5750565b806115cb5f8093610621565b8003126100e857565b5f516020612cf15f395f51905f52815260406020820181905261070f929101906106ac565b805191908290602001825e015f815290565b9192916001600160a01b0361161e6116bd565b163081036116405750610b259391905f516020612cf15f395f51905f52611bea565b9092813b156100e85760405163298314fb60e01b81525f516020612cf15f395f51905f52600482015260a06024820152945f948694859387938593610f67939192916116a6916116949060a48801906106ac565b86810360031901604488015290610fa3565b916064850152600319848303016084850152610fa3565b7f629a4c26e296b22a8e0856e9f6ecb2d1008d7e00081111962cd175fa7488e175546001600160a01b03168061070f57503390565b156116f957565b60405162461bcd60e51b815260206004820152602b60248201527f4c69624c616e644163636573733a206c616e644e46547320616464726573732060448201526a063616e6e6f7420626520360ac1b6064820152608490fd5b908160209103126100e857516001600160a01b03811681036100e85790565b919060405192611782608085610621565b600384526117906003610649565b602085019190601f19013683378451156102a5576001600160a01b031690528251600110156102a557604083015261070f91610a7e916117e391906001600160a01b03166117dd82610745565b52611334565b6001600160f81b03191690565b6001600160401b03811161064457601f01601f191660200190565b81601f820112156100e857805190611822826117f0565b926118306040519485610621565b828452602083830101116100e857815f9260208093018386015e8301015290565b9392916115119060409286526060602087015260608601906106ac565b6001600160a01b0361187e6116bd565b163081036118b057506118a9906541030220200160c81b905f516020612cf15f395f51905f52611c33565b9192909190565b60405163419b58fd60e01b815292915f918491829081906118ed906541030220200160c81b905f516020612cf15f395f51905f5260048501611851565b03915afa9081156102a0575f5f935f93611908575b50929190565b93505090503d805f843e61191c8184610621565b8201906060838303126100e85782516001600160401b0381116100e8578261194591850161180b565b92602081015192604082015160018060401b0381116100e857611968920161180b565b91925f611902565b611978610a3f565b908151156102a55760208201528051600110156102a55761070f9160408201526113c0565b906119a6610a3f565b918251156102a55760208301528151600110156102a5576040820152604051916020830152602082526119da604083610621565b5f916001600160a01b036119ec6116bd565b1692308403611a1c57610b259350630100080160dd1b9268496e76656e746f727960381b613a3160f11b01611b47565b5090823b156100e8576040516301c85d5760e51b8152925f928492839185918391611a6a91630100080160dd1b9190859068496e76656e746f727960381b613a3160f11b01600487016114da565b03925af180156102a057611a7b5750565b5f610b2591610621565b60405190611a94604083610621565b60068252651e3937b7ba1f60d11b6020830152565b61070f93926003611ad19260019461ffff60f01b168152601d60f91b600282015201906115f9565b601d60f91b815201906115f9565b611b0591611aef91949394611da6565b9260ff808216601b0360031b84901c1692611dd4565b91806020841015611b36575b5080548360031b1b92602003809211611b2957505090565b600101549060031b1c1790565b601f84169360051c0190505f611b11565b91611b5c65ffffffffffff91610b2596611dd4565b1691611e89565b610b2590611b7d5f516020612cf15f395f51905f526120aa565b905f516020612cf15f395f51905f52612131565b80518060051b90808204602014811517156107335790604051926020840191601f19603f8287010116604052845260205f9101905b838110611bd4575050505090565b6020600181928451865201920192019190611bc6565b929091610b259492611bfb856120aa565b946123b9565b90611c0b826117f0565b611c186040519182610621565b8281528092611c29601f19916117f0565b0190602036910137565b91925f92606092611c55611c4b8760f01c8385612611565b9660e01c60ff1690565b9182611c6057505050565b9194509250611c6f83826129f5565b5493611c8366ffffffffffffff8616611c01565b935f92602086015b8360ff861610611c9c575050505050565b611ca7858484612643565b611cbc82611cb5888c612682565b8093612697565b81018091116107335760ff90941660ff81146107335760010193611c8b565b611ce3610a3f565b908151156102a55760208201528051600110156102a5576001600160a01b039091166040820152610a7e90611444565b5f5b60108110611d46575b6040516001600160801b0319909216602083015260108252611d41603083610621565b815290565b6001600160801b03198216600382901b1b6001600160f81b03191615611d6e57600101611d15565b611d1e565b60209181520160208251919201905f5b818110611d905750505090565b8251845260209384019390920191600101611d83565b90611dbf61099391604051928391602083019586611d73565b5190205f516020612c315f395f51905f521890565b5f915f915b60ff82168310611de95750505090565b909192611dff848360ff91601b0360031b1c1690565b810180911161073357926001019190611dd9565b65ffffffffffff611e3061070f95936060845260608401906106ac565b931660208201526040818403910152610fa3565b6001600160581b03191690565b90611e7561070f959365ffffffffffff9284526080602085015260808401906106ac565b931660408201526060818403910152610fa3565b92939291906001600160f01b03198316611bdd60f21b1461208557611eae8184611da6565b93611eb88461290d565b90865f5b8351811015611f9c57611ee8611ee3611ed58387610755565b516001600160581b03191690565b611e44565b611ef8816004809160581c161490565b611f06575b50600101611ebc565b611f3d919250611f31611f2b611f1e611f3193611e44565b6001600160601b03191690565b60601c90565b6001600160a01b031690565b90813b156100e8575f868a9387838b611f6c6040519889968795869463964f667d60e01b865260048601611e51565b03925af19081156102a0578992600192611f88575b5090611efd565b8061029a5f611f9693610621565b5f611f81565b50611fd39196865f516020612c115f395f51905f5260405180611fc1868b8b84611e13565b0390a265ffffffffffff8616906129e4565b5f5b815181101561207c57611fee611ee3611ed58385610755565b611ffe816008809160581c161490565b61200c575b50600101611fd5565b611f31611f31611f2b611f1e61202194611e44565b90813b156100e85760405163a8ba872160e01b8152915f90839081838161204e8e8c8c8f60048601611e51565b03925af19182156102a057600192612068575b5090612003565b8061029a5f61207693610621565b5f612061565b50505050509050565b6120a55f516020612c115f395f51905f5293949560405193849384611e13565b0390a2565b655461626c657360501b66746273746f726560c81b0181146121125760408051655461626c657360501b66746273746f726560c81b0160208201908152818301939093529081526120fc606082610621565b5190205f516020612c315f395f51905f52185490565b506503001811010160cd1b90565b90602061070f9281815201906106ac565b9092916001600160f01b03198216611bdd60f21b14612315576121538261290d565b5f5b81518110156121fb5761216e611ee3611ed58385610755565b61217e816040809160581c161490565b61218c575b50600101612155565b611f31611f31611f2b611f1e6121a194611e44565b90813b156100e857604051639faeaf4560e01b8152915f9083908183816121cd8a8e8d60048501611851565b03925af19182156102a0576001926121e7575b5090612183565b8061029a5f6121f593610621565b5f6121e0565b50825f516020612cd15f395f51905f52604051806122198982612120565b0390a26122416122298685611da6565b61223b6122368560f01c90565b611c01565b906129d3565b60e082901c60ff166122fe575b5f5b81518110156122f657612269611ee3611ed58385610755565b612279816080809160581c161490565b612287575b50600101612250565b611f31611f31611f2b611f1e61229c94611e44565b90813b156100e8576040516383b5c95b60e01b8152915f9083908183816122c88a8e8d60048501611851565b03925af19182156102a0576001926122e2575b509061227e565b8061029a5f6122f093610621565b5f6122db565b505050509050565b61231061230b86856129f5565b612a23565b61224e565b5090916120a55f516020612cd15f395f51905f529160405191829182612120565b9061070f949261235161235f926080855260808501906106ac565b908382036020850152610fa3565b9260408201526060818403910152610fa3565b969594906115119361239860a096946123a6938b5260c060208c015260c08b01906106ac565b9089820360408b0152610fa3565b9160608801528682036080880152610fa3565b9295949192916001600160f01b03198316611bdd60f21b146125ee576123de8361290d565b5f5b815181101561248b576123f9611ee3611ed58385610755565b612409816001809160581c161490565b612417575b506001016123e0565b611f31611f31611f2b611f1e61242c94611e44565b90813b156100e8575f878b9387838a61245d8a8f6040519a8b98899788966315c19b2760e21b885260048801612372565b03925af19182156102a057600192612477575b509061240e565b8061029a5f61248593610621565b5f612470565b50835f516020612c715f395f51905f52604051806124ac8a8d8b8a85612336565b0390a26124c86124bc8486611da6565b86516020880191612a46565b60e082901c60ff168061258f575b505f5b8151811015612584576124f2611ee3611ed58385610755565b612502816002809160581c161490565b612510575b506001016124d9565b611f31611f31611f2b611f1e61252594611e44565b90813b156100e8575f878b9387838a6125568a8f6040519a8b9889978896635b28cdaf60e01b885260048801612372565b03925af19182156102a057600192612570575b5090612507565b8061029a5f61257e93610621565b5f612569565b505050505050509050565b8861259a85876129f5565b555f602088015b85878c8560ff8616106125b85750505050506124d6565b836125e060ff956125d9886125d3816001996125e599612643565b95612682565b8094612a46565b610726565b920116906125a1565b509093945f516020612c715f395f51905f52936120a59160405194859485612336565b919091811561262c5761070f9261262791611da6565b612b44565b50505060405161263d602082610621565b5f815290565b61099361266a5f516020612c915f395f51905f529493604051928391602083019586611d73565b51902060f89190911b6001600160f81b031916181890565b60ff64ffffffffff92166028026038011c1690565b905b60208110156126c257806126ac57505050565b5f199060031b1c90818351169119905416179052565b919060018160209254845201910191601f1901612699565b919080612726575b505b602081101561270e57806126f757505050565b5f1960039190911b1c825191548119169116179052565b919060018160209254845201910191601f19016126e4565b602081101561278e575b80156126e257929183602003908183105f14612781575f19600384901b1c5b81548660031b1b818651169119161784528183111561277a57600101920192601f199101015f6126e2565b5050505050565b5f19600383901b1c61274f565b916127a59061279d8460051c90565b0192601f1690565b612730565b805182116127c55760200160801b9060018060801b03161790565b6040516323230fa360e01b8152606060048201529182916127ea906064840190610fa3565b905f602484015260448301520390fd5b828211801561286a575b6128355790816020828194010192839101116107335782039182116107335760801b6001600160801b039091161790565b6040516323230fa360e01b8152606060048201529283929161285b906064850190610fa3565b91602484015260448301520390fd5b5080518311612804565b919290156128d65750815115612888575090565b3b156128915790565b60405162461bcd60e51b815260206004820152601d60248201527f416464726573733a2063616c6c20746f206e6f6e2d636f6e74726163740000006044820152606490fd5b8251909150156128e95750805190602001fd5b60405162461bcd60e51b8152602060048201529081906109bd906024830190610fa3565b612915610a02565b8051156102a5576129c68161070f9360206129ce94015264ffffffffff5f516020612c915f395f51905f52604051602081019061297081610993876953746f7265486f6f6b7360301b66746273746f726560c81b0186611d73565b5190206040519118926020820191906129a9908290610993906953746f7265486f6f6b7360301b66746273746f726560c81b0186611d73565b5190205f516020612cb15f395f51905f52185460381c1690612b44565b8051906127aa565b612bc2565b610b25915f60208251920192612a8a565b8251610b2593602001929091612a8a565b90612a0e61099391604051928391602083019586611d73565b5190205f516020612cb15f395f51905f521890565b6001810180821161073357905b818110612a3b575050565b5f8155600101612a30565b91905b6020811015612a725780612a5c57505050565b5f199060031b1c90818354169119905116179055565b909160016020918451815501920190601f1901612a49565b92919080612ad7575b505b6020811015612abf5780612aa857505050565b5f1960039190911b1c825491518119169116179055565b909160016020918451815501920190601f1901612a95565b6020811015612b28575b8015612a935791926020839003905f19600384901b1c198460031b90811c908651901c90801983541691161781558183111561277a5760010193019101601f19015f612a93565b92612b3f90612b378560051c90565b0193601f1690565b612ae1565b61070f9060405192601f19603f82860101166040528084525f60208501926126da565b6040805160206020600160801b0384168201810190925260016001607b1b03600584901c16808252909392909160809190911c9084015f5b838110612bac5750505050565b6020600181928551855201920192019190612b9f565b9060158260801c9260018060801b031604604051926020840160208360051b8601016040528285525f5b838110612bf95750505050565b602060016015928551855201920192019190612bec56fe8c0b5119d4cec7b284c6b1b39252a03d1e2f2d7451a5895562524c113bb952be86425bff6b57326c7859e89024fe4f238ca327a1ae4a230180dd2f0e88aaa7d974620000000000000000000000000000436f6e666967416464726573736573008dbb3a9672eebfd3773e72dd9c102393436816d832c7ba9e1e1ac8fcadcac7a93b4102da22e32d82fc925482184f16c09fd4281692720b87d124aef6da48a0f114e2fcc58e58e68ec7edc30c8d50dccc3ce2714a623ec81f46b6a63922d765690e1f72f429eb97e64878619984a91e687ae91610348b9ff4216782cc96e49d07746200000000000000000000000000004372616674696e675265636970650000a26469706673582212203772676629f2f066a8ce4ba63e22b878928244c3055731f5183d2c95e779e90264736f6c634300081c0033","linkReferences":{}},"methodIdentifiers":{"_msgSender()":"119df25f","_msgValue()":"45ec9354","_world()":"e1af802c","craftRecipe(uint256,uint256)":"fa98382d","createRecipe((uint256,uint256,uint256,bool,uint256[],uint256[]))":"b9174930","createRecipes((uint256,uint256,uint256,bool,uint256[],uint256[])[])":"1ac91afc","removeRecipe((uint256,uint256,uint256,bool,uint256[],uint256[]))":"43548af9","supportsInterface(bytes4)":"01ffc9a7"},"id":132}