{"abi":[{"type":"function","name":"_msgSender","inputs":[],"outputs":[{"name":"sender","type":"address","internalType":"address"}],"stateMutability":"view"},{"type":"function","name":"_msgValue","inputs":[],"outputs":[{"name":"value","type":"uint256","internalType":"uint256"}],"stateMutability":"pure"},{"type":"function","name":"_world","inputs":[],"outputs":[{"name":"","type":"address","internalType":"address"}],"stateMutability":"view"},{"type":"function","name":"batchCall","inputs":[{"name":"systemCalls","type":"tuple[]","internalType":"struct SystemCallData[]","components":[{"name":"systemId","type":"bytes32","internalType":"ResourceId"},{"name":"callData","type":"bytes","internalType":"bytes"}]}],"outputs":[{"name":"returnDatas","type":"bytes[]","internalType":"bytes[]"}],"stateMutability":"nonpayable"},{"type":"function","name":"batchCallFrom","inputs":[{"name":"systemCalls","type":"tuple[]","internalType":"struct SystemCallFromData[]","components":[{"name":"from","type":"address","internalType":"address"},{"name":"systemId","type":"bytes32","internalType":"ResourceId"},{"name":"callData","type":"bytes","internalType":"bytes"}]}],"outputs":[{"name":"returnDatas","type":"bytes[]","internalType":"bytes[]"}],"stateMutability":"nonpayable"},{"type":"function","name":"supportsInterface","inputs":[{"name":"interfaceId","type":"bytes4","internalType":"bytes4"}],"outputs":[{"name":"","type":"bool","internalType":"bool"}],"stateMutability":"pure"},{"type":"error","name":"UnauthorizedCallContext","inputs":[]}],"bytecode":{"object":"0x60a080604052346022573060805261072690816100278239608051816106750152f35b5f80fdfe60806040526004361015610011575f80fd5b5f3560e01c806301ffc9a714610074578063119df25f1461006f57806345ec93541461006a5780638fc8cf7e14610065578063ce5e8dd9146100605763e1af802c1461005b575f80fd5b6103e9565b61030a565b6101f0565b610108565b6100cc565b346100c85760203660031901126100c85760043563ffffffff60e01b81168091036100c85763b5dee12760e01b81149081156100b7575b50151560805260206080f35b6301ffc9a760e01b149050816100ab565b5f80fd5b346100c8575f3660031901126100c85736603319013560601c8015610101575b6040516001600160a01b039091168152602090f35b50336100ec565b346100c8575f3660031901126100c8576020604051601f193601358152f35b9060206003198301126100c8576004356001600160401b0381116100c85760040182601f820112156100c8578035926001600160401b0384116100c8576020808301928560051b0101116100c8579190565b602081016020825282518091526040820191602060408360051b8301019401925f915b8383106101ab57505050505090565b909192939460208080600193603f19868203018752818a518051918291828552018484015e5f828201840152601f01601f19160101970195949190910192019061019c565b346100c8576101fe36610127565b90610207610672565b61021e6102126106bb565b6001600160a01b031690565b61022783610468565b926001600160a01b03909116905f5b81811061024f576040518061024b8782610179565b0390f35b5f8061026461025f8486896104c5565b6104ec565b6102b26102c0602061027787898c6104c5565b0135610291610287888a8d6104c5565b6040810190610500565b6040949194519485936020850197631129d98b60e31b895260248601610552565b03601f198101835282610429565b5190865af46102cd610594565b901561030557906102e9826020806001955183010191016105c3565b6102f38288610625565b526102fe8187610625565b5001610236565b6106b3565b346100c85761031836610127565b610320610672565b61032b6102126106bb565b61033482610468565b926001600160a01b03909116905f5b838110610358576040518061024b8782610179565b5f80610365838786610639565b356103a4610381610377868a89610639565b6020810190610500565b91906102b2604051938492602084019663075cf5e160e31b88526024850161065b565b5190865af46103b1610594565b901561030557906103cd826020806001955183010191016105c3565b6103d78288610625565b526103e28187610625565b5001610343565b346100c8575f3660031901126100c85760206104036106bb565b6040516001600160a01b039091168152f35b634e487b7160e01b5f52604160045260245ffd5b601f909101601f19168101906001600160401b0382119082101761044c57604052565b610415565b6001600160401b03811161044c5760051b60200190565b9061047282610451565b61047f6040519182610429565b8281528092610490601f1991610451565b01905f5b8281106104a057505050565b806060602080938501015201610494565b634e487b7160e01b5f52603260045260245ffd5b91908110156104e75760051b81013590605e19813603018212156100c8570190565b6104b1565b356001600160a01b03811681036100c85790565b903590601e19813603018212156100c857018035906001600160401b0382116100c8576020019181360383136100c857565b908060209392818452848401375f828201840152601f01601f1916010190565b610576949260609260018060a01b0316825260208201528160408201520191610532565b90565b6001600160401b03811161044c57601f01601f191660200190565b3d156105be573d906105a582610579565b916105b36040519384610429565b82523d5f602084013e565b606090565b6020818303126100c8578051906001600160401b0382116100c8570181601f820112156100c8578051906105f682610579565b926106046040519485610429565b828452602083830101116100c857815f9260208093018386015e8301015290565b80518210156104e75760209160051b010190565b91908110156104e75760051b81013590603e19813603018212156100c8570190565b604090610576949281528160208201520191610532565b307f00000000000000000000000000000000000000000000000000000000000000006001600160a01b0316146106a457565b634f81d01360e11b5f5260045ffd5b602081519101fd5b7f629a4c26e296b22a8e0856e9f6ecb2d1008d7e00081111962cd175fa7488e175546001600160a01b0316806105765750339056fea2646970667358221220146d5c629bd828fbcd4adac86bf43148684da8774d45479df9ad828d6883bdb664736f6c634300081c0033","linkReferences":{}},"methodIdentifiers":{"_msgSender()":"119df25f","_msgValue()":"45ec9354","_world()":"e1af802c","batchCall((bytes32,bytes)[])":"ce5e8dd9","batchCallFrom((address,bytes32,bytes)[])":"8fc8cf7e","supportsInterface(bytes4)":"01ffc9a7"},"id":133}