{"abi":[{"type":"constructor","inputs":[{"name":"name","type":"string","internalType":"string"},{"name":"symbol","type":"string","internalType":"string"}],"stateMutability":"nonpayable"},{"type":"function","name":"approve","inputs":[{"name":"to","type":"address","internalType":"address"},{"name":"tokenId","type":"uint256","internalType":"uint256"}],"outputs":[],"stateMutability":"nonpayable"},{"type":"function","name":"balanceOf","inputs":[{"name":"owner","type":"address","internalType":"address"}],"outputs":[{"name":"","type":"uint256","internalType":"uint256"}],"stateMutability":"view"},{"type":"function","name":"getAllLands","inputs":[],"outputs":[{"name":"","type":"tuple[]","internalType":"struct LandMetadata[]","components":[{"name":"landId","type":"uint256","internalType":"uint256"},{"name":"name","type":"string","internalType":"string"}]}],"stateMutability":"view"},{"type":"function","name":"getApproved","inputs":[{"name":"tokenId","type":"uint256","internalType":"uint256"}],"outputs":[{"name":"","type":"address","internalType":"address"}],"stateMutability":"view"},{"type":"function","name":"getLandId","inputs":[{"name":"name","type":"string","internalType":"string"}],"outputs":[{"name":"","type":"uint256","internalType":"uint256"}],"stateMutability":"view"},{"type":"function","name":"getLandName","inputs":[{"name":"landId","type":"uint256","internalType":"uint256"}],"outputs":[{"name":"","type":"string","internalType":"string"}],"stateMutability":"view"},{"type":"function","name":"isApprovedForAll","inputs":[{"name":"owner","type":"address","internalType":"address"},{"name":"operator","type":"address","internalType":"address"}],"outputs":[{"name":"","type":"bool","internalType":"bool"}],"stateMutability":"view"},{"type":"function","name":"mint","inputs":[{"name":"to","type":"address","internalType":"address"}],"outputs":[{"name":"","type":"uint256","internalType":"uint256"}],"stateMutability":"nonpayable"},{"type":"function","name":"name","inputs":[],"outputs":[{"name":"","type":"string","internalType":"string"}],"stateMutability":"view"},{"type":"function","name":"owner","inputs":[],"outputs":[{"name":"","type":"address","internalType":"address"}],"stateMutability":"view"},{"type":"function","name":"ownerOf","inputs":[{"name":"tokenId","type":"uint256","internalType":"uint256"}],"outputs":[{"name":"","type":"address","internalType":"address"}],"stateMutability":"view"},{"type":"function","name":"renounceOwnership","inputs":[],"outputs":[],"stateMutability":"nonpayable"},{"type":"function","name":"safeTransferFrom","inputs":[{"name":"from","type":"address","internalType":"address"},{"name":"to","type":"address","internalType":"address"},{"name":"tokenId","type":"uint256","internalType":"uint256"}],"outputs":[],"stateMutability":"nonpayable"},{"type":"function","name":"safeTransferFrom","inputs":[{"name":"from","type":"address","internalType":"address"},{"name":"to","type":"address","internalType":"address"},{"name":"tokenId","type":"uint256","internalType":"uint256"},{"name":"data","type":"bytes","internalType":"bytes"}],"outputs":[],"stateMutability":"nonpayable"},{"type":"function","name":"setApprovalForAll","inputs":[{"name":"operator","type":"address","internalType":"address"},{"name":"approved","type":"bool","internalType":"bool"}],"outputs":[],"stateMutability":"nonpayable"},{"type":"function","name":"setLand","inputs":[{"name":"_land","type":"address","internalType":"address"}],"outputs":[],"stateMutability":"nonpayable"},{"type":"function","name":"setLandName","inputs":[{"name":"landId","type":"uint256","internalType":"uint256"},{"name":"name","type":"string","internalType":"string"}],"outputs":[],"stateMutability":"nonpayable"},{"type":"function","name":"setURI","inputs":[{"name":"_URI","type":"string","internalType":"string"}],"outputs":[],"stateMutability":"nonpayable"},{"type":"function","name":"supportsInterface","inputs":[{"name":"interfaceId","type":"bytes4","internalType":"bytes4"}],"outputs":[{"name":"","type":"bool","internalType":"bool"}],"stateMutability":"view"},{"type":"function","name":"symbol","inputs":[],"outputs":[{"name":"","type":"string","internalType":"string"}],"stateMutability":"view"},{"type":"function","name":"tokenByIndex","inputs":[{"name":"index","type":"uint256","internalType":"uint256"}],"outputs":[{"name":"","type":"uint256","internalType":"uint256"}],"stateMutability":"view"},{"type":"function","name":"tokenOfOwnerByIndex","inputs":[{"name":"owner","type":"address","internalType":"address"},{"name":"index","type":"uint256","internalType":"uint256"}],"outputs":[{"name":"","type":"uint256","internalType":"uint256"}],"stateMutability":"view"},{"type":"function","name":"tokenURI","inputs":[{"name":"tokenId","type":"uint256","internalType":"uint256"}],"outputs":[{"name":"","type":"string","internalType":"string"}],"stateMutability":"view"},{"type":"function","name":"totalSupply","inputs":[],"outputs":[{"name":"","type":"uint256","internalType":"uint256"}],"stateMutability":"view"},{"type":"function","name":"transferFrom","inputs":[{"name":"from","type":"address","internalType":"address"},{"name":"to","type":"address","internalType":"address"},{"name":"tokenId","type":"uint256","internalType":"uint256"}],"outputs":[],"stateMutability":"nonpayable"},{"type":"function","name":"transferOwnership","inputs":[{"name":"newOwner","type":"address","internalType":"address"}],"outputs":[],"stateMutability":"nonpayable"},{"type":"event","name":"Approval","inputs":[{"name":"owner","type":"address","indexed":true,"internalType":"address"},{"name":"approved","type":"address","indexed":true,"internalType":"address"},{"name":"tokenId","type":"uint256","indexed":true,"internalType":"uint256"}],"anonymous":false},{"type":"event","name":"ApprovalForAll","inputs":[{"name":"owner","type":"address","indexed":true,"internalType":"address"},{"name":"operator","type":"address","indexed":true,"internalType":"address"},{"name":"approved","type":"bool","indexed":false,"internalType":"bool"}],"anonymous":false},{"type":"event","name":"OwnershipTransferred","inputs":[{"name":"previousOwner","type":"address","indexed":true,"internalType":"address"},{"name":"newOwner","type":"address","indexed":true,"internalType":"address"}],"anonymous":false},{"type":"event","name":"Transfer","inputs":[{"name":"from","type":"address","indexed":true,"internalType":"address"},{"name":"to","type":"address","indexed":true,"internalType":"address"},{"name":"tokenId","type":"uint256","indexed":true,"internalType":"uint256"}],"anonymous":false}],"bytecode":{"object":"0x60806040523461034f576121308038038061001981610353565b92833981019060408183031261034f5780516001600160401b03811161034f5782610045918301610378565b60208201519092906001600160401b03811161034f576100659201610378565b81516001600160401b038111610265575f54600181811c91168015610345575b602082101461024757601f81116102e3575b50602092601f821160011461028457928192935f92610279575b50508160011b915f199060031b1c1916175f555b80516001600160401b03811161026557600154600181811c9116801561025b575b602082101461024757601f81116101e4575b50602091601f8211600114610184579181925f92610179575b50508160011b915f199060031b1c1916176001555b600a8054336001600160a01b03198216811790925560405191906001600160a01b03167f8be0079c531659141344cd1fd0a4f28419497f9722a3daafe3b4186f6b6457e05f80a3611d6690816103ca8239f35b015190505f80610111565b601f1982169260015f52805f20915f5b8581106101cc575083600195106101b4575b505050811b01600155610126565b01515f1960f88460031b161c191690555f80806101a6565b91926020600181928685015181550194019201610194565b60015f527fb10e2d527612073b26eecdfd717e6a320cf44b4afac2b0732d9fcbe2b7fa0cf6601f830160051c8101916020841061023d575b601f0160051c01905b81811061023257506100f8565b5f8155600101610225565b909150819061021c565b634e487b7160e01b5f52602260045260245ffd5b90607f16906100e6565b634e487b7160e01b5f52604160045260245ffd5b015190505f806100b1565b601f198216935f8052805f20915f5b8681106102cb57508360019596106102b3575b505050811b015f556100c5565b01515f1960f88460031b161c191690555f80806102a6565b91926020600181928685015181550194019201610293565b5f80527f290decd9548b62a8d60345a988386fc84ba6bc95484008f6362f93160ef3e563601f830160051c8101916020841061033b575b601f0160051c01905b8181106103305750610097565b5f8155600101610323565b909150819061031a565b90607f1690610085565b5f80fd5b6040519190601f01601f191682016001600160401b0381118382101761026557604052565b81601f8201121561034f578051906001600160401b038211610265576103a7601f8301601f1916602001610353565b928284526020838301011161034f57815f9260208093018386015e830101529056fe6080806040526004361015610012575f80fd5b5f3560e01c90816301ffc9a7146113075750806302fe5305146111c257806306fdde0314611120578063081812fc14611102578063095ea7b314610f7c57806318160ddd14610f5f57806323b872dd14610f365780632f745c5914610e8857806342842e0e14610e5f5780634f6ccce714610dcd5780636352211e14610d9d5780636a62784214610bd957806370a0823114610bae578063715018a614610b6657806381d9e0cf14610b175780638da5cb5b14610aef578063938ce40a146108c657806395d89b41146107fc578063a22cb46514610732578063af598f9c14610708578063b7b6e543146105ae578063b88d4fde1461054d578063c87b56dd1461029e578063de3d5e3914610249578063e985e9c5146101f25763f2fde38b1461013a575f80fd5b346101ee5760203660031901126101ee5761015361145d565b61015b6117ae565b6001600160a01b0316801561019a57600a80546001600160a01b0319811683179091556001600160a01b03165f516020611cf15f395f51905f525f80a3005b60405162461bcd60e51b815260206004820152602660248201527f4f776e61626c653a206e6577206f776e657220697320746865207a65726f206160448201526564647265737360d01b6064820152608490fd5b5f80fd5b346101ee5760403660031901126101ee5761020b61145d565b610213611473565b9060018060a01b03165f52600560205260405f209060018060a01b03165f52602052602060ff60405f2054166040519015158152f35b346101ee5760203660031901126101ee576004356001600160401b0381116101ee5760208061027d8193369060040161141b565b604051928184925191829101835e8101600e81520301902054604051908152f35b346101ee5760203660031901126101ee576004356102c36102be82611b92565b61164f565b604051600c5490915f836102d6846114c3565b9182825260208201946001811690815f1461053157506001146104e5575b610300925003846113a7565b8251156104c957915f90838072184f03e93ff9f4daa797ed6e38ed64bf6a1f0160401b8110156104a3575b50600a906904ee2d6d415b85acef8160201b811015610487575b662386f26fc10000811015610473575b6305f5e100811015610462575b612710811015610453575b6064811015610445575b101561043b575b6001820193600a60216103a9610393886113ca565b976103a1604051998a6113a7565b8089526113ca565b602088019590601f19013687378701015b5f1901916f181899199a1a9b1b9c1cb0b131b232b360811b8282061a8353049081156103e857600a906103ba565b5050602061042392610437956040519586945180918587015e840190838201905f8252519283915e01015f815203601f1981018352826113a7565b604051918291602083526020830190611439565b0390f35b906001019061037e565b606460029104930192610377565b6127106004910493019261036d565b6305f5e10060089104930192610362565b662386f26fc1000060109104930192610355565b602093909301926904ee2d6d415b85acef8160201b9004610345565b6040935072184f03e93ff9f4daa797ed6e38ed64bf6a1f0160401b90049050600a61032b565b5050506104376040516104dd6020826113a7565b5f8152610423565b50600c5f90815290915f516020611cd15f395f51905f525b818310610515575050906020610300928201016102f4565b6020919350806001915483858a010152019101909185926104fd565b60ff191686525061030092151560051b820160200190506102f4565b346101ee5760803660031901126101ee5761056661145d565b61056e611473565b606435916001600160401b0383116101ee57366023840112156101ee576105a26105ac9336906024816004013591016113e5565b9160443591611766565b005b346101ee575f3660031901126101ee57600d546105ca8161173b565b906105d860405192836113a7565b808252601f196105e78261173b565b015f5b8181106106e457505060015b8181111561067657826040518091602082016020835281518091526040830190602060408260051b8601019301915f905b82821061063657505050500390f35b919360019193955060206106668192603f198a82030186526040838a518051845201519181858201520190611439565b9601920192018594939192610627565b805f52600f60205260405f209061069b604051926106938461138c565b8284526114fb565b60208301525f198101918183116106d057826106c5916106be6106cb9588611752565b5285611752565b506116b8565b6105f6565b634e487b7160e01b5f52601160045260245ffd5b6020906040516106f38161138c565b5f8152606083820152828287010152016105ea565b346101ee5760203660031901126101ee576004355f52600f60205261043761042360405f206114fb565b346101ee5760403660031901126101ee5761074b61145d565b602435908115158092036101ee576001600160a01b0316903382146107bb57335f52600560205260405f20825f5260205260405f2060ff1981541660ff83161790556040519081527f17307eab39ab6107e8899845ad3d59bd9653f200f220920489ca2b5937696c3160203392a3005b60405162461bcd60e51b815260206004820152601960248201527822a9219b99189d1030b8383937bb32903a379031b0b63632b960391b6044820152606490fd5b346101ee575f3660031901126101ee576040515f60015461081c816114c3565b80845290600181169081156108a25750600114610844575b61043783610423818503826113a7565b60015f9081527fb10e2d527612073b26eecdfd717e6a320cf44b4afac2b0732d9fcbe2b7fa0cf6939250905b80821061088857509091508101602001610423610834565b919260018160209254838588010152019101909291610870565b60ff191660208086019190915291151560051b840190910191506104239050610834565b346101ee5760403660031901126101ee576004356024356001600160401b0381116101ee576108f990369060040161141b565b600b549091906001600160a01b03163303610aab57604051825190602081818601938085835e8101600e81520301902054610a665781906020604051809286518091835e8101600e815203019020555f52600f60205260405f20815160018060401b038111610a525761096c82546114c3565b601f8111610a0d575b50602092601f82116001146109b157928192935f926109a6575b50505f19600383901b1c191660019190911b179055005b01519050838061098f565b601f19821693835f52805f20915f5b8681106109f557508360019596106109dd575b505050811b019055005b01515f1960f88460031b161c191690558380806109d3565b919260206001819286850151815501940192016109c0565b825f5260205f20601f830160051c81019160208410610a48575b601f0160051c01905b818110610a3d5750610975565b5f8155600101610a30565b9091508190610a27565b634e487b7160e01b5f52604160045260245ffd5b60405162461bcd60e51b815260206004820152601d60248201527f4c616e644e4654733a206e616d6520616c7265616479206578697374730000006044820152606490fd5b606460405162461bcd60e51b815260206004820152602060248201527f4c616e644e4654733a206f6e6c79206c616e642063616e20736574206e616d656044820152fd5b346101ee575f3660031901126101ee57600a546040516001600160a01b039091168152602090f35b346101ee5760203660031901126101ee57610b3061145d565b610b386117ae565b600b54906001600160a01b0382166101ee576001600160a01b03166001600160a01b03199190911617600b55005b346101ee575f3660031901126101ee57610b7e6117ae565b600a80546001600160a01b031981169091555f906001600160a01b03165f516020611cf15f395f51905f528280a3005b346101ee5760203660031901126101ee576020610bd1610bcc61145d565b6116c6565b604051908152f35b346101ee5760203660031901126101ee57610bf261145d565b600b546001600160a01b03163303610d5957610c0f600d546116b8565b600d8190556001600160a01b038216801580159391929190610d1557610c3d610c3783611b92565b15611af4565b60085493825f5260096020528460405f2055600160401b851015610a5257610c8983610c7187600160209901600855611623565b90919082549060031b91821b915f19901b1916179055565b610ce4575b50610c9b610c3782611b92565b5f828152600384526040808220805460010190558282526002855280822080546001600160a01b031916851790555192905f516020611d115f395f51905f528180a4600d548152f35b610ced906116c6565b825f526006845260405f20815f5284528160405f2055815f526007845260405f205583610c8e565b606460405162461bcd60e51b815260206004820152602060248201527f4552433732313a206d696e7420746f20746865207a65726f20616464726573736044820152fd5b60405162461bcd60e51b815260206004820152601c60248201527b13185b991391951cce881bdb9b1e481b185b990818d85b881b5a5b9d60221b6044820152606490fd5b346101ee5760203660031901126101ee576020610dbb600435611696565b6040516001600160a01b039091168152f35b346101ee5760203660031901126101ee57600435600854811015610e0557610df6602091611623565b90549060031b1c604051908152f35b60405162461bcd60e51b815260206004820152602c60248201527f455243373231456e756d657261626c653a20676c6f62616c20696e646578206f60448201526b7574206f6620626f756e647360a01b6064820152608490fd5b346101ee576105ac610e7036611489565b9060405192610e806020856113a7565b5f8452611766565b346101ee5760403660031901126101ee57610ea161145d565b60243590610eae816116c6565b821015610edd5760018060a01b03165f52600660205260405f20905f52602052602060405f2054604051908152f35b60405162461bcd60e51b815260206004820152602b60248201527f455243373231456e756d657261626c653a206f776e657220696e646578206f7560448201526a74206f6620626f756e647360a81b6064820152608490fd5b346101ee576105ac610f4736611489565b91610f5a610f558433611806565b6115c1565b6118d5565b346101ee575f3660031901126101ee576020600854604051908152f35b346101ee5760403660031901126101ee57610f9561145d565b602435906001600160a01b03610faa83611696565b6001600160a01b0390921691168181146110b35780331490811561108f575b5015611024575f82815260046020526040902080546001600160a01b031916821790556001600160a01b03610ffd83611696565b167f8c5be1e5ebec7d5bd14f71427d1e84f3dd0314c0f7b2291e5b200ac8c7c3b9255f80a4005b60405162461bcd60e51b815260206004820152603d60248201527f4552433732313a20617070726f76652063616c6c6572206973206e6f7420746f60448201527f6b656e206f776e6572206f7220617070726f76656420666f7220616c6c0000006064820152608490fd5b5f90815260056020908152604080832033845290915290205460ff16905083610fc9565b60405162461bcd60e51b815260206004820152602160248201527f4552433732313a20617070726f76616c20746f2063757272656e74206f776e656044820152603960f91b6064820152608490fd5b346101ee5760203660031901126101ee576020610dbb60043561159b565b346101ee575f3660031901126101ee576040515f5f5461113f816114c3565b80845290600181169081156108a257506001146111665761043783610423818503826113a7565b5f8080527f290decd9548b62a8d60345a988386fc84ba6bc95484008f6362f93160ef3e563939250905b8082106111a857509091508101602001610423610834565b919260018160209254838588010152019101909291611190565b346101ee5760203660031901126101ee576004356001600160401b0381116101ee576111f290369060040161141b565b6111fa6117ae565b80516001600160401b038111610a5257611215600c546114c3565b601f81116112b7575b50602091601f821160011461125a579181925f9261124f575b50505f19600383901b1c191660019190911b17600c55005b015190508280611237565b601f19821692600c5f52805f20915f5b85811061129f57508360019510611287575b505050811b01600c55005b01515f1960f88460031b161c1916905582808061127c565b9192602060018192868501518155019401920161126a565b600c5f525f516020611cd15f395f51905f52601f830160051c810191602084106112fd575b601f0160051c01905b8181106112f2575061121e565b5f81556001016112e5565b90915081906112dc565b346101ee5760203660031901126101ee576004359063ffffffff60e01b82168092036101ee5760209163780e9d6360e01b8114908115611349575b5015158152f35b6380ac58cd60e01b81149150811561137b575b811561136a575b5083611342565b6301ffc9a760e01b14905083611363565b635b5e139f60e01b8114915061135c565b604081019081106001600160401b03821117610a5257604052565b601f909101601f19168101906001600160401b03821190821017610a5257604052565b6001600160401b038111610a5257601f01601f191660200190565b9291926113f1826113ca565b916113ff60405193846113a7565b8294818452818301116101ee578281602093845f960137010152565b9080601f830112156101ee57816020611436933591016113e5565b90565b805180835260209291819084018484015e5f828201840152601f01601f1916010190565b600435906001600160a01b03821682036101ee57565b602435906001600160a01b03821682036101ee57565b60609060031901126101ee576004356001600160a01b03811681036101ee57906024356001600160a01b03811681036101ee579060443590565b90600182811c921680156114f1575b60208310146114dd57565b634e487b7160e01b5f52602260045260245ffd5b91607f16916114d2565b9060405191825f82549261150e846114c3565b80845293600181169081156115795750600114611535575b50611533925003836113a7565b565b90505f9291925260205f20905f915b81831061155d575050906020611533928201015f611526565b6020919350806001915483858901015201910190918492611544565b90506020925061153394915060ff191682840152151560051b8201015f611526565b6115a76102be82611b92565b5f908152600460205260409020546001600160a01b031690565b156115c857565b60405162461bcd60e51b815260206004820152602d60248201527f4552433732313a2063616c6c6572206973206e6f7420746f6b656e206f776e6560448201526c1c881bdc88185c1c1c9bdd9959609a1b6064820152608490fd5b60085481101561163b5760085f5260205f2001905f90565b634e487b7160e01b5f52603260045260245ffd5b1561165657565b60405162461bcd60e51b8152602060048201526018602482015277115490cdcc8c4e881a5b9d985b1a59081d1bdad95b88125160421b6044820152606490fd5b5f908152600260205260409020546001600160a01b031661143681151561164f565b5f1981146106d05760010190565b6001600160a01b031680156116e4575f52600360205260405f205490565b60405162461bcd60e51b815260206004820152602960248201527f4552433732313a2061646472657373207a65726f206973206e6f7420612076616044820152683634b21037bbb732b960b91b6064820152608490fd5b6001600160401b038111610a525760051b60200190565b805182101561163b5760209160051b010190565b9061178a93929161177a610f558433611806565b6117858383836118d5565b611bae565b1561179157565b60405162461bcd60e51b8152806117aa60048201611b3f565b0390fd5b600a546001600160a01b031633036117c257565b606460405162461bcd60e51b815260206004820152602060248201527f4f776e61626c653a2063616c6c6572206973206e6f7420746865206f776e65726044820152fd5b906001600160a01b0361181882611696565b6001600160a01b0390931692168281149291908315611858575b50821561183e57505090565b9091506001600160a01b03906118539061159b565b161490565b9092505f52600560205260405f20815f5260205260ff60405f205416915f611832565b1561188257565b60405162461bcd60e51b815260206004820152602560248201527f4552433732313a207472616e736665722066726f6d20696e636f72726563742060448201526437bbb732b960d91b6064820152608490fd5b906118df83611696565b6001600160a01b0383811692916118f89116831461187b565b6001600160a01b038116928315611aa357826119fe5750600854845f5260096020528060405f2055600160401b811015610a525784610c718260016119409401600855611623565b8183036119ca575b50611965816001600160a01b0361195e86611696565b161461187b565b5f83815260046020908152604080832080546001600160a01b03199081169091558484526003835281842080545f1901905585845281842080546001019055868452600290925282208054909116841790555f516020611d115f395f51905f529080a4565b6119d3906116c6565b825f52600660205260405f20815f526020528360405f2055835f52600760205260405f20555f611948565b838303611a0c575b50611940565b611a15906116c6565b5f1981019081116106d057845f52600760205260405f2054818103611a62575b50845f5260076020525f6040812055825f52600660205260405f20905f526020525f60408120555f611a06565b835f52600660205260405f20825f5260205260405f2054845f52600660205260405f20825f526020528060405f20555f52600760205260405f20555f611a35565b60405162461bcd60e51b8152602060048201526024808201527f4552433732313a207472616e7366657220746f20746865207a65726f206164646044820152637265737360e01b6064820152608490fd5b15611afb57565b60405162461bcd60e51b815260206004820152601c60248201527b115490cdcc8c4e881d1bdad95b88185b1c9958591e481b5a5b9d195960221b6044820152606490fd5b60809060208152603260208201527f4552433732313a207472616e7366657220746f206e6f6e20455243373231526560408201527131b2b4bb32b91034b6b83632b6b2b73a32b960711b60608201520190565b5f908152600260205260409020546001600160a01b0316151590565b919290803b15611cc757611bfd935f60209460405196879586948593630a85bd0160e11b855233600486015260018060a01b031660248501526044840152608060648401526084830190611439565b03926001600160a01b03165af15f9181611c82575b50611c6c573d15611c65573d611c27816113ca565b90611c3560405192836113a7565b81523d5f602083013e5b80519081611c605760405162461bcd60e51b8152806117aa60048201611b3f565b602001fd5b6060611c3f565b6001600160e01b031916630a85bd0160e11b1490565b9091506020813d602011611cbf575b81611c9e602093836113a7565b810103126101ee57516001600160e01b0319811681036101ee57905f611c12565b3d9150611c91565b5050505060019056fedf6966c971051c3d54ec59162606531493a51404a002842f56009d7e5cf4a8c78be0079c531659141344cd1fd0a4f28419497f9722a3daafe3b4186f6b6457e0ddf252ad1be2c89b69c2b068fc378daa952ba7f163c4a11628f55a4df523b3efa2646970667358221220b0c84e21dd92c2178965b509dbfdbb82d0fcf56da5f6a17d285188b5537864e064736f6c634300081c0033","linkReferences":{}},"methodIdentifiers":{"approve(address,uint256)":"095ea7b3","balanceOf(address)":"70a08231","getAllLands()":"b7b6e543","getApproved(uint256)":"081812fc","getLandId(string)":"de3d5e39","getLandName(uint256)":"af598f9c","isApprovedForAll(address,address)":"e985e9c5","mint(address)":"6a627842","name()":"06fdde03","owner()":"8da5cb5b","ownerOf(uint256)":"6352211e","renounceOwnership()":"715018a6","safeTransferFrom(address,address,uint256)":"42842e0e","safeTransferFrom(address,address,uint256,bytes)":"b88d4fde","setApprovalForAll(address,bool)":"a22cb465","setLand(address)":"81d9e0cf","setLandName(uint256,string)":"938ce40a","setURI(string)":"02fe5305","supportsInterface(bytes4)":"01ffc9a7","symbol()":"95d89b41","tokenByIndex(uint256)":"4f6ccce7","tokenOfOwnerByIndex(address,uint256)":"2f745c59","tokenURI(uint256)":"c87b56dd","totalSupply()":"18160ddd","transferFrom(address,address,uint256)":"23b872dd","transferOwnership(address)":"f2fde38b"},"id":295}