{"abi":[{"type":"function","name":"_msgSender","inputs":[],"outputs":[{"name":"sender","type":"address","internalType":"address"}],"stateMutability":"view"},{"type":"function","name":"_msgValue","inputs":[],"outputs":[{"name":"value","type":"uint256","internalType":"uint256"}],"stateMutability":"pure"},{"type":"function","name":"_world","inputs":[],"outputs":[{"name":"","type":"address","internalType":"address"}],"stateMutability":"view"},{"type":"function","name":"registerDelegation","inputs":[{"name":"delegatee","type":"address","internalType":"address"},{"name":"delegationControlId","type":"bytes32","internalType":"ResourceId"},{"name":"initCallData","type":"bytes","internalType":"bytes"}],"outputs":[],"stateMutability":"nonpayable"},{"type":"function","name":"registerFunctionSelector","inputs":[{"name":"systemId","type":"bytes32","internalType":"ResourceId"},{"name":"systemFunctionSignature","type":"string","internalType":"string"}],"outputs":[{"name":"worldFunctionSelector","type":"bytes4","internalType":"bytes4"}],"stateMutability":"nonpayable"},{"type":"function","name":"registerNamespace","inputs":[{"name":"namespaceId","type":"bytes32","internalType":"ResourceId"}],"outputs":[],"stateMutability":"nonpayable"},{"type":"function","name":"registerNamespaceDelegation","inputs":[{"name":"namespaceId","type":"bytes32","internalType":"ResourceId"},{"name":"delegationControlId","type":"bytes32","internalType":"ResourceId"},{"name":"initCallData","type":"bytes","internalType":"bytes"}],"outputs":[],"stateMutability":"nonpayable"},{"type":"function","name":"registerRootFunctionSelector","inputs":[{"name":"systemId","type":"bytes32","internalType":"ResourceId"},{"name":"worldFunctionSignature","type":"string","internalType":"string"},{"name":"systemFunctionSignature","type":"string","internalType":"string"}],"outputs":[{"name":"worldFunctionSelector","type":"bytes4","internalType":"bytes4"}],"stateMutability":"nonpayable"},{"type":"function","name":"registerSystem","inputs":[{"name":"systemId","type":"bytes32","internalType":"ResourceId"},{"name":"system","type":"address","internalType":"contract System"},{"name":"publicAccess","type":"bool","internalType":"bool"}],"outputs":[],"stateMutability":"nonpayable"},{"type":"function","name":"registerSystemHook","inputs":[{"name":"systemId","type":"bytes32","internalType":"ResourceId"},{"name":"hookAddress","type":"address","internalType":"contract ISystemHook"},{"name":"enabledHooksBitmap","type":"uint8","internalType":"uint8"}],"outputs":[],"stateMutability":"nonpayable"},{"type":"function","name":"supportsInterface","inputs":[{"name":"interfaceId","type":"bytes4","internalType":"bytes4"}],"outputs":[{"name":"","type":"bool","internalType":"bool"}],"stateMutability":"pure"},{"type":"function","name":"unregisterDelegation","inputs":[{"name":"delegatee","type":"address","internalType":"address"}],"outputs":[],"stateMutability":"nonpayable"},{"type":"function","name":"unregisterNamespaceDelegation","inputs":[{"name":"namespaceId","type":"bytes32","internalType":"ResourceId"}],"outputs":[],"stateMutability":"nonpayable"},{"type":"function","name":"unregisterSystemHook","inputs":[{"name":"systemId","type":"bytes32","internalType":"ResourceId"},{"name":"hookAddress","type":"address","internalType":"contract ISystemHook"}],"outputs":[],"stateMutability":"nonpayable"},{"type":"event","name":"Store_DeleteRecord","inputs":[{"name":"tableId","type":"bytes32","indexed":true,"internalType":"ResourceId"},{"name":"keyTuple","type":"bytes32[]","indexed":false,"internalType":"bytes32[]"}],"anonymous":false},{"type":"event","name":"Store_SetRecord","inputs":[{"name":"tableId","type":"bytes32","indexed":true,"internalType":"ResourceId"},{"name":"keyTuple","type":"bytes32[]","indexed":false,"internalType":"bytes32[]"},{"name":"staticData","type":"bytes","indexed":false,"internalType":"bytes"},{"name":"encodedLengths","type":"bytes32","indexed":false,"internalType":"EncodedLengths"},{"name":"dynamicData","type":"bytes","indexed":false,"internalType":"bytes"}],"anonymous":false},{"type":"event","name":"Store_SpliceDynamicData","inputs":[{"name":"tableId","type":"bytes32","indexed":true,"internalType":"ResourceId"},{"name":"keyTuple","type":"bytes32[]","indexed":false,"internalType":"bytes32[]"},{"name":"dynamicFieldIndex","type":"uint8","indexed":false,"internalType":"uint8"},{"name":"start","type":"uint48","indexed":false,"internalType":"uint48"},{"name":"deleteCount","type":"uint40","indexed":false,"internalType":"uint40"},{"name":"encodedLengths","type":"bytes32","indexed":false,"internalType":"EncodedLengths"},{"name":"data","type":"bytes","indexed":false,"internalType":"bytes"}],"anonymous":false},{"type":"event","name":"Store_SpliceStaticData","inputs":[{"name":"tableId","type":"bytes32","indexed":true,"internalType":"ResourceId"},{"name":"keyTuple","type":"bytes32[]","indexed":false,"internalType":"bytes32[]"},{"name":"start","type":"uint48","indexed":false,"internalType":"uint48"},{"name":"data","type":"bytes","indexed":false,"internalType":"bytes"}],"anonymous":false},{"type":"error","name":"EncodedLengths_InvalidLength","inputs":[{"name":"length","type":"uint256","internalType":"uint256"}]},{"type":"error","name":"Slice_OutOfBounds","inputs":[{"name":"data","type":"bytes","internalType":"bytes"},{"name":"start","type":"uint256","internalType":"uint256"},{"name":"end","type":"uint256","internalType":"uint256"}]},{"type":"error","name":"Store_IndexOutOfBounds","inputs":[{"name":"length","type":"uint256","internalType":"uint256"},{"name":"accessedIndex","type":"uint256","internalType":"uint256"}]},{"type":"error","name":"Store_InvalidResourceType","inputs":[{"name":"expected","type":"bytes2","internalType":"bytes2"},{"name":"resourceId","type":"bytes32","internalType":"ResourceId"},{"name":"resourceIdString","type":"string","internalType":"string"}]},{"type":"error","name":"Store_InvalidSplice","inputs":[{"name":"startWithinField","type":"uint40","internalType":"uint40"},{"name":"deleteCount","type":"uint40","internalType":"uint40"},{"name":"fieldLength","type":"uint40","internalType":"uint40"}]},{"type":"error","name":"UnauthorizedCallContext","inputs":[]},{"type":"error","name":"World_AccessDenied","inputs":[{"name":"resource","type":"string","internalType":"string"},{"name":"caller","type":"address","internalType":"address"}]},{"type":"error","name":"World_AlreadyInitialized","inputs":[]},{"type":"error","name":"World_CallbackNotAllowed","inputs":[{"name":"functionSelector","type":"bytes4","internalType":"bytes4"}]},{"type":"error","name":"World_DelegationNotFound","inputs":[{"name":"delegator","type":"address","internalType":"address"},{"name":"delegatee","type":"address","internalType":"address"}]},{"type":"error","name":"World_FunctionSelectorAlreadyExists","inputs":[{"name":"functionSelector","type":"bytes4","internalType":"bytes4"}]},{"type":"error","name":"World_FunctionSelectorNotFound","inputs":[{"name":"functionSelector","type":"bytes4","internalType":"bytes4"}]},{"type":"error","name":"World_InsufficientBalance","inputs":[{"name":"balance","type":"uint256","internalType":"uint256"},{"name":"amount","type":"uint256","internalType":"uint256"}]},{"type":"error","name":"World_InterfaceNotSupported","inputs":[{"name":"contractAddress","type":"address","internalType":"address"},{"name":"interfaceId","type":"bytes4","internalType":"bytes4"}]},{"type":"error","name":"World_InvalidNamespace","inputs":[{"name":"namespace","type":"bytes14","internalType":"bytes14"}]},{"type":"error","name":"World_InvalidResourceId","inputs":[{"name":"resourceId","type":"bytes32","internalType":"ResourceId"},{"name":"resourceIdString","type":"string","internalType":"string"}]},{"type":"error","name":"World_InvalidResourceType","inputs":[{"name":"expected","type":"bytes2","internalType":"bytes2"},{"name":"resourceId","type":"bytes32","internalType":"ResourceId"},{"name":"resourceIdString","type":"string","internalType":"string"}]},{"type":"error","name":"World_ResourceAlreadyExists","inputs":[{"name":"resourceId","type":"bytes32","internalType":"ResourceId"},{"name":"resourceIdString","type":"string","internalType":"string"}]},{"type":"error","name":"World_ResourceNotFound","inputs":[{"name":"resourceId","type":"bytes32","internalType":"ResourceId"},{"name":"resourceIdString","type":"string","internalType":"string"}]},{"type":"error","name":"World_SystemAlreadyExists","inputs":[{"name":"system","type":"address","internalType":"address"}]},{"type":"error","name":"World_UnlimitedDelegationNotAllowed","inputs":[]}],"bytecode":{"object":"0x60a08060405234602257306080526144a39081610027823960805181610e3b0152f35b5f80fdfe60806040526004361015610011575f80fd5b5f3560e01c806301ffc9a7146100f4578063119df25f146100ef5780631d2257ba146100ea57806326d98102146100e55780633350b6a9146100e057806345ec9354146100db5780636548a90a146100d6578063a92813ad146100d1578063aa66e9c8146100cc578063b29e4089146100c7578063bfdfaff7146100c2578063cdc938c5146100bd578063d5f8337f146100b85763e1af802c146100b3575f80fd5b610d15565b610c5c565b610b60565b610a93565b610911565b610821565b6106ef565b6105eb565b6105cc565b61046d565b610316565b610230565b610158565b3461014a57602036600319011261014a5760043563ffffffff60e01b811680910361014a5760209063b5dee12760e01b8114908115610139575b506040519015158152f35b6301ffc9a760e01b1490505f61012e565b5f80fd5b5f91031261014a57565b3461014a575f36600319011261014a576020610172610e21565b6040516001600160a01b039091168152f35b6001600160a01b0381160361014a57565b634e487b7160e01b5f52604160045260245ffd5b601f909101601f19168101906001600160401b038211908210176101cc57604052565b610195565b6001600160401b0381116101cc57601f01601f191660200190565b81601f8201121561014a57602081359101610206826101d1565b9261021460405194856101a9565b8284528282011161014a57815f92602092838601378301015290565b3461014a57606036600319011261014a5760043561024d81610184565b6024356044356001600160401b03811161014a5761026f9036906004016101ec565b90610278610e38565b610280610e21565b926102896110d4565b805115610311576001600160a01b0385166020820152805160011015610311576102e69160018060a01b03166040820152604051906102e1826102d3866020830160209181520190565b03601f1981018452836101a9565b612891565b6102ef81612535565b6102f557005b61030f9261030a610305836116b5565b6114e2565b612581565b005b611118565b3461014a57604036600319011261014a576004356024356001600160401b03811161014a576103499036906004016101ec565b90610352610e38565b618c8760f01b6001600160f01b03198216016104435761037181610f44565b61038261037c610e21565b82610fa3565b6103ac826103a76103a26103958561104d565b6001600160901b03191690565b61105d565b610dac565b805160208201209092906001600160e01b031916916103ca83611140565b610425579261040082610421956103fb6103f36104069651602085012063ffffffff60e01b1690565b8092886111ad565b611484565b82611484565b604051918291826001600160e01b0319909116815260200190565b0390f35b631e8e8d7160e11b5f526001600160e01b0319831660045260245b5ffd5b61044c81610e9d565b604051635c30fb6f60e01b81529182916104699160048401610d53565b0390fd5b3461014a57606036600319011261014a5760043560243561048d81610184565b60443590811515820361014a576104a2610e38565b618c8760f01b6001600160f01b03198416016105c2576104c1836114cc565b906104cb82610f44565b6104dc6104d6610e21565b83610fa3565b6001600160a01b0316916104ef83611551565b608084901b6001600160801b0319161561059b5761050c83611663565b848115159182610590575b5050610574578361055a6105609261053161030f976116b5565b6001600160a01b03811615610565578061054d610553926118f7565b86611b0e565b8583611d1f565b83611fa6565b6121a7565b5061056f836116f9565b610553565b63c0b7074160e01b5f526001600160a01b03831660045260245ffd5b14159050845f610517565b836105a581610e9d565b604051637256034f60e11b81529182916104699160048401610ddb565b8261044c81610e9d565b3461014a575f36600319011261014a576020604051601f193601358152f35b3461014a57606036600319011261014a576004356024356001600160401b03811161014a5761061e9036906004016101ec565b6044356001600160401b03811161014a5761063d9036906004016101ec565b610645610e38565b6106956106876040516106828161067460208201602090616e7360f01b81525f60028201525f60108201520190565b03601f1981018352826101a9565b610df2565b61068f610e21565b90610fa3565b63ffffffff60e01b82516020840120169263ffffffff60e01b8251602084012016906106c085611140565b6106dc5761040692826103fb87969461040094610421996111ad565b84631e8e8d7160e11b5f5260045260245ffd5b3461014a57604036600319011261014a5760043560243561070f81610184565b610717610e38565b6107226104d6610e21565b6001600160a01b0316906107346110f6565b8051156103115761077c6107748284602061078195015261076e61076061075a83612f16565b92612ec2565b5460381c64ffffffffff1690565b90613ba2565b805190613497565b6134e7565b61078b8151612225565b5f935f5b835181101561081457816001600160a01b036107cd6107c76107c26107b4868a61112c565b516001600160581b03191690565b610e14565b60601c90565b16036107dc575b60010161078f565b946001809161080b6107f16107b48a8961112c565b6107fb838861112c565b6001600160581b03199091169052565b019590506107d4565b61030f8386888252612b06565b3461014a57602036600319011261014a5760043561083d610e38565b61084681612257565b61084f81610f44565b61085a61037c610e21565b6108626110f6565b908151156103115760208201526001600160a01b0361087f612bfa565b1630810361089f575061030f905f51602061440e5f395f51905f526137c2565b803b1561014a576040805163505a181d60e01b81525f51602061440e5f395f51905f5260048201526024810191909152915f9183918290849082906108e8906044830190612784565b03925af1801561090c576108f857005b806109065f61030f936101a9565b8061014e565b61283f565b3461014a57602036600319011261014a5760043561092d610e38565b61093681612257565b61093f8161104d565b6109526001600160901b0319821661105d565b90815191826109b2575b505050610968816122cf565b61098c578061097961030f926116f9565b610981610e21565b906105608282612337565b61099581610e9d565b6040516306e147b560e11b81529182916104699160048401610ddb565b9192909190605f60f81b6001600160f81b03196109da6109d1876122b4565b85016020015190565b1614610a76575f5b6109eb856122b4565b811015610a6957602081840101516001600160f81b031916605f60f81b1480610a38575b610a1b576001016109e2565b630efb4b8560e01b5f526001600160901b0319841660045260245ffd5b50605f60f81b610a63610a56610a4d84611643565b86016020015190565b6001600160f81b03191690565b14610a0f565b50925050505f808061095c565b630efb4b8560e01b5f526001600160901b0319831660045260245ffd5b3461014a57606036600319011261014a576004356024356044356001600160401b03811161014a57610ac99036906004016101ec565b90610ad2610e38565b610adb83612257565b610ae481612535565b15610b5157610af1610e21565b92610afc8482610fa3565b610b08610305836116b5565b610b106110f6565b80511561031157610b409160208201526040519083602083015260208252610b396040836101a9565b5f906130d1565b8151610b4857005b61030f92612581565b6371ee9e8160e01b5f5260045ffd5b3461014a57602036600319011261014a57600435610b7d81610184565b610b85610e38565b610b8d610e21565b90610b966110d4565b91825115610311576001600160a01b03166020830152815160011015610311576001600160a01b039081166040830152610bce612bfa565b16308103610bee575061030f905f51602061424e5f395f51905f526137c2565b803b1561014a576040805163505a181d60e01b81525f51602061424e5f395f51905f5260048201526024810191909152915f918391829084908290610c37906044830190612784565b03925af1801561090c57610c4757005b80610c535f80936101a9565b80031261014a57005b3461014a57606036600319011261014a57600435602435610c7c81610184565b60443560ff8116810361014a57610c91610e38565b618c8760f01b6001600160f01b03198416016105c25761030f9291610d0f91610cc26001600160a01b0383166115c0565b610ccb84610f44565b610cdc610cd7856114cc565b610f44565b610ced610ce7610e21565b85610fa3565b60609190911b6001600160601b03191660589190911b60ff60581b1617610e14565b906126e0565b3461014a575f36600319011261014a576020610172612bfa565b805180835260209291819084018484015e5f828201840152601f01601f1916010190565b606090610d75939261737960f01b825260208201528160408201520190610d2f565b90565b606090610d759392613a3160f11b825260208201528160408201520190610d2f565b805191908290602001825e015f815290565b610dd9906102d3610dca949360026040519687946020860190610d9a565b615f5f60f01b81520190610d9a565b565b604090610d75939281528160208201520190610d2f565b602081519101519060208110610e06575090565b5f199060200360031b1b1690565b6001600160581b03191690565b36603319013560601c908115610e3357565b339150565b307f00000000000000000000000000000000000000000000000000000000000000006001600160a01b031614610e6a57565b634f81d01360e11b5f5260045ffd5b60405190610e886040836101a9565b60068252651e3937b7ba1f60d11b6020830152565b6001600160801b0319608082901b1690610d75906001600160901b0319601082901b1680610f355750610ece610e79565b925b6001600160801b03198116610f245750610674610eeb610e79565b6001610f1660405196879561ffff60f01b166020870152601d60f91b60228701526023860190610d9a565b601d60f91b81520190610d9a565b610f306106749161105d565b610eeb565b610f3e9061105d565b92610ed0565b610f4d816122cf565b15610f555750565b610f5e81610e9d565b604051637df8867360e11b81529182916104699160048401610ddb565b90610f93602091949394604084526040840190610d2f565b6001600160a01b03909416910152565b610fac816114cc565b610fb46110f6565b80511561031157611012916020820152604051610ff68161067460208201946f4e616d6573706163654f776e65720000661d189ddbdc9b1960ca1b0186612c2f565b5190205f5160206142ce5f395f51905f521860145f5b91612cc8565b60601c6001600160a01b03831603611028575050565b61103190610e9d565b61046960405192839263d787b73760e01b845260048401610f7b565b60101b6001600160901b03191690565b5f5b60108110611090575b6040516001600160801b031990921660208301526010825261108b6030836101a9565b815290565b6001600160801b03198216600382901b1b6001600160f81b031916156110b85760010161105f565b611068565b6001600160401b0381116101cc5760051b60200190565b604051606091906110e583826101a9565b6002815291601f1901366020840137565b6040805190919061110783826101a9565b6001815291601f1901366020840137565b634e487b7160e01b5f52603260045260245ffd5b80518210156103115760209160051b010190565b6111486110f6565b80511561031157610d759163ffffffff60e01b1660208201526040516111938161067460208201946f46756e6374696f6e53656c6563746f72661d189ddbdc9b1960ca1b0186612c2f565b5190205f5160206142ce5f395f51905f521860205f61100c565b92919091604051916020830193845263ffffffff60e01b166040830152602482526111d96044836101a9565b6111e16110f6565b93845115610311576001600160e01b031916602085015261120e5f51602061428e5f395f51905f52612d04565b905f5b82518110156112fb5761122a6107c26107b4838661112c565b61123a816001809160581c161490565b611248575b50600101611211565b61126a61126a6107c761125d61127694610e14565b6001600160601b03191690565b6001600160a01b031690565b90813b1561014a575f606088938280896112cd604051988996879586946315c19b2760e21b865264090080080160d21b936f46756e6374696f6e53656c6563746f72661d189ddbdc9b1960ca1b01600488016127f3565b03925af191821561090c576001926112e7575b509061123f565b806109065f6112f5936101a9565b5f6112e0565b506040519093611354915f51602061428e5f395f51905f52905f51602061432e5f395f51905f52908061133260605f8a8d856127b7565b0390a261134c865f51602061428e5f395f51905f52612c62565b845190612dbd565b5f5b505f5b8151811015611426576113726107c26107b4838561112c565b611382816002809160581c161490565b611390575b50600101611359565b61126a61126a6107c761125d6113a594610e14565b90813b1561014a575f6040518093635b28cdaf60e01b82528183816113f88c6060848d64090080080160d21b936f46756e6374696f6e53656c6563746f72661d189ddbdc9b1960ca1b01600488016127f3565b03925af191821561090c57600192611412575b5090611387565b806109065f611420936101a9565b5f61140b565b5050509050565b8260ff83161061143e575050611356565b60ff9060019061147b90611460858b5f51602061428e5f395f51905f52612f6b565b906114768161146f885f612f92565b8094612dbd565b611656565b9201169061142d565b906102d39061149f8151916040519384916020830190610d9a565b6114a76110f6565b9081511561031157610dd99363ffffffff60e01b1660208301528060381b179061284a565b600160801b600160f01b0316616e7360f01b1790565b6114eb81612fa7565b80611541575b8061152a575b156114ff5750565b6374b5e6ff60e01b5f9081526001600160a01b03919091166004526301a86b5560e41b602452604490fd5b5061153c6301a86b5560e41b82613035565b6114f7565b5061154b81613004565b156114f1565b61155a81612fa7565b806115b0575b80611599575b1561156e5750565b6374b5e6ff60e01b5f9081526001600160a01b039190911660045263b5dee12760e01b602452604490fd5b506115ab63b5dee12760e01b82613035565b611566565b506115ba81613004565b15611560565b6115c981612fa7565b8061161f575b80611608575b156115dd5750565b6374b5e6ff60e01b5f9081526001600160a01b0391909116600452630a81f7f560e31b602452604490fd5b5061161a630a81f7f560e31b82613035565b6115d5565b5061162981613004565b156115cf565b634e487b7160e01b5f52601160045260245ffd5b906001820180921161165157565b61162f565b9190820180921161165157565b61166b6110f6565b80511561031157610d759160018060a01b031660208201526040516111938161067460208201946f53797374656d52656769737472790000661d189ddbdc9b1960ca1b0186612c2f565b6116bd6110f6565b805115610311576107c7916020820152604051610ff68161067460208201946653797374656d7360481b661d189ddbdc9b1960ca1b0186612c2f565b906117026110f6565b9182511561031157602083015260405191600160f81b60208401526001835261172c6021846101a9565b5f92611745825f51602061442e5f395f51905f52612c62565b9261175c5f51602061442e5f395f51905f52612d04565b905f5b8251811015611801576117786107c26107b4838661112c565b611788816004809160581c161490565b611796575b5060010161175f565b60601c90813b1561014a5760405163964f667d60e01b8152915f9083908183816117d38b8f8e5f51602061442e5f395f51905f5260048601613099565b03925af191821561090c576001926117ed575b509061178d565b806109065f6117fb936101a9565b5f6117e6565b50604051909461184b918491905f51602061442e5f395f51905f52905f5160206142ae5f395f51905f529080611839868d8c84613068565b0390a265ffffffffffff881690613463565b5f5b81518110156118ef576118666107c26107b4838561112c565b611876816008809160581c161490565b611884575b5060010161184d565b60601c90813b1561014a5760405163a8ba872160e01b8152915f9083908183816118c18a8e8d5f51602061442e5f395f51905f5260048601613099565b03925af191821561090c576001926118db575b509061187b565b806109065f6118e9936101a9565b5f6118d4565b505050509050565b906119006110f6565b91825115610311576001600160a01b0316602083015261192c5f5160206142ee5f395f51905f52612d04565b5f5b81518110156119e8576119476107c26107b4838561112c565b611957816040809160581c161490565b611965575b5060010161192e565b61126a61126a6107c761125d61197a94610e14565b90813b1561014a57604051639faeaf4560e01b8152915f9083908183816119ba630100080160dd1b8c5f5160206142ee5f395f51905f52600485016128d4565b03925af191821561090c576001926119d4575b509061195c565b806109065f6119e2936101a9565b5f6119cd565b506040515f5160206142ee5f395f51905f52905f51602061444e5f395f51905f529080611a1587826128c3565b0390a2611a47611a32845f5160206142ee5f395f51905f52612c62565b611a4160206128f1565b6128f1565b90613452565b5f5b8151811015611b0357611a626107c26107b4838561112c565b611a72816080809160581c161490565b611a80575b50600101611a49565b61126a61126a6107c761125d611a9594610e14565b90813b1561014a576040516383b5c95b60e01b8152915f908390818381611ad5630100080160dd1b8c5f5160206142ee5f395f51905f52600485016128d4565b03925af191821561090c57600192611aef575b5090611a77565b806109065f611afd936101a9565b5f611ae8565b50509050565b613474565b9190611b186110d4565b92835115610311576020840152825160011015610311576001600160a01b03166040830152611b535f51602061430e5f395f51905f52612d04565b5f5b8151811015611c0f57611b6e6107c26107b4838561112c565b611b7e816040809160581c161490565b611b8c575b50600101611b55565b61126a61126a6107c761125d611ba194610e14565b90813b1561014a57604051639faeaf4560e01b8152915f908390818381611be1630101000160d81b8c5f51602061430e5f395f51905f52600485016128d4565b03925af191821561090c57600192611bfb575b5090611b83565b806109065f611c09936101a9565b5f611bf4565b506040515f51602061430e5f395f51905f52905f51602061444e5f395f51905f529080611c3c87826128c3565b0390a2611c63611c59845f51602061430e5f395f51905f52612c62565b611a4160016128f1565b5f5b8151811015611b0357611c7e6107c26107b4838561112c565b611c8e816080809160581c161490565b611c9c575b50600101611c65565b61126a61126a6107c761125d611cb194610e14565b90813b1561014a576040516383b5c95b60e01b8152915f908390818381611cf1630101000160d81b8c5f51602061430e5f395f51905f52600485016128d4565b03925af191821561090c57600192611d0b575b5090611c93565b806109065f611d19936101a9565b5f611d04565b60405160609290921b6001600160601b0319166020830190815292151560f81b60348301526015825292611d546035836101a9565b611d5c6110f6565b93845115610311576020850152611d7f5f51602061438e5f395f51905f52612d04565b905f5b8251811015611e4d57611d9b6107c26107b4838661112c565b611dab816001809160581c161490565b611db9575b50600101611d82565b61126a61126a6107c761125d611dce94610e14565b90813b1561014a575f60608893828089611e1f604051988996879586946315c19b2760e21b865264150200140160d01b936653797374656d7360481b661d189ddbdc9b1960ca1b01600488016127f3565b03925af191821561090c57600192611e39575b5090611db0565b806109065f611e47936101a9565b5f611e32565b506040519093611e9e915f51602061438e5f395f51905f52905f51602061432e5f395f51905f529080611e8460605f8a8d856127b7565b0390a261134c865f51602061438e5f395f51905f52612c62565b5f5b505f5b815181101561142657611ebc6107c26107b4838561112c565b611ecc816002809160581c161490565b611eda575b50600101611ea3565b61126a61126a6107c761125d611eef94610e14565b90813b1561014a575f6040518093635b28cdaf60e01b8252818381611f3c8c6060848d64150200140160d01b936653797374656d7360481b661d189ddbdc9b1960ca1b01600488016127f3565b03925af191821561090c57600192611f56575b5090611ed1565b806109065f611f64936101a9565b5f611f4f565b8260ff831610611f7b575050611ea0565b60ff90600190611f9d90611460858b5f51602061438e5f395f51905f52612f6b565b92011690611f6a565b919091611fb16110f6565b908151156103115760018060a01b0316602082015260405192602084015260208352611fde6040846101a9565b5f92611ff7825f5160206142ee5f395f51905f52612c62565b9261200e5f5160206142ee5f395f51905f52612d04565b90855f5b83518110156120b75761202b6107c26107b4838761112c565b61203b816004809160581c161490565b612049575b50600101612012565b60601c9150813b1561014a5760405163964f667d60e01b8152915f9083908183816120878b8f8e5f5160206142ee5f395f51905f5260048601613099565b03925af190811561090c5788926001926120a3575b5090612040565b806109065f6120b1936101a9565b5f61209c565b50839061210392966040515f5160206142ae5f395f51905f526f53797374656d52656769737472790000661d189ddbdc9b1960ca1b0191806120fb87878d84613068565b0390a2613463565b5f5b81518110156118ef5761211e6107c26107b4838561112c565b61212e816008809160581c161490565b61213c575b50600101612105565b60601c90813b1561014a5760405163a8ba872160e01b8152915f9083908183816121798a8e8d5f5160206142ee5f395f51905f5260048601613099565b03925af191821561090c57600192612193575b5090612133565b806109065f6121a1936101a9565b5f61218c565b6121af6110d4565b90815115610311576020820152805160011015610311576001600160a01b0390911660408281019190915251600160f81b602082015260018152610dd9916121f86021836101a9565b65ffffffffffff6122105f630101000160d81b612c90565b16905f51602061430e5f395f51905f5261328e565b9061222f826110bd565b61223c60405191826101a9565b828152809261224d601f19916110bd565b0190602036910137565b600160801b600160f01b038116616e7360f01b1781036122745750565b61227d81610e9d565b604051635c30fb6f60e01b8152616e7360f01b60048201526024810192909252606060448301528190610469906064830190610d2f565b5f1981019190821161165157565b9190820391821161165157565b6122d76110f6565b805115610311576123319160208201526040516123178161067460208201946a5265736f7572636549647360281b66746273746f726560c81b0186612c2f565b5190205f5160206142ce5f395f51905f521860015f61100c565b60f81c90565b9190916123426110f6565b908151156103115760208201526040519260018060601b03199060601b166020840152601483526123746034846101a9565b5f9261238d825f51602061436e5f395f51905f52612c62565b926123a45f51602061436e5f395f51905f52612d04565b90855f5b835181101561244d576123c16107c26107b4838761112c565b6123d1816004809160581c161490565b6123df575b506001016123a8565b60601c9150813b1561014a5760405163964f667d60e01b8152915f90839081838161241d8b8f8e5f51602061436e5f395f51905f5260048601613099565b03925af190811561090c578892600192612439575b50906123d6565b806109065f612447936101a9565b5f612432565b50839061249192966040515f5160206142ae5f395f51905f526f4e616d6573706163654f776e65720000661d189ddbdc9b1960ca1b0191806120fb87878d84613068565b5f5b81518110156118ef576124ac6107c26107b4838561112c565b6124bc816008809160581c161490565b6124ca575b50600101612493565b60601c90813b1561014a5760405163a8ba872160e01b8152915f9083908183816125078a8e8d5f51602061436e5f395f51905f5260048601613099565b03925af191821561090c57600192612521575b50906124c1565b806109065f61252f936101a9565b5f61251a565b8015159081612542575090565b905061257c60405161737960f01b60208201525f6022820152681d5b9b1a5b5a5d195960ba1b6030820152602081526106826040826101a9565b141590565b90929161258d846137d5565b5f5b8151811015612623576125a86107c26107b4838561112c565b6125b8816001809160581c161490565b6125c6575b5060010161258f565b60601c90813b1561014a5760405163c332303160e01b8152915f9083908183816125f58a8e8d60048501612b8f565b03925af191821561090c5760019261260f575b50906125bd565b806109065f61261d936101a9565b5f612608565b5061263082865f86613811565b9094905f5b83518110156126cb5761264e6107c26107b4838761112c565b61265e816002809160581c161490565b61266c575b50600101612635565b60601c90813b1561014a575f8661269d938b838b6040519788958694859363973d8f9960e01b855260048501612b8f565b03925af191821561090c576001926126b7575b5090612663565b806109065f6126c5936101a9565b5f6126b0565b5094935094505050156126db5790565b612bb3565b906126e96110f6565b918251156103115760208301526040519060018060581b0319166020820152601581526127176035826101a9565b6001600160a01b03612727612bfa565b169130830361273a57610dd992506138e1565b90823b1561014a57612765925f9283604051809681958294630a87993160e11b845260048401612bbb565b03925af1801561090c576127765750565b806109065f610dd9936101a9565b90602080835192838152019201905f5b8181106127a15750505090565b8251845260209384019390920191600101612794565b90610d7594926127d26127e092608085526080850190612784565b908382036020850152610d2f565b9260408201526060818403910152610d2f565b9695949061283a9361281960a09694612827938b5260c060208c015260c08b0190612784565b9089820360408b0152610d2f565b9160608801528682036080880152610d2f565b930152565b6040513d5f823e3d90fd5b6040516f46756e6374696f6e5369676e61747572661bdd1ddbdc9b1960ca1b01935f51602061432e5f395f51905f52939192839261288c9291606090856127b7565b0390a2565b610dd9919065ffffffffffff6128ae5f630100080160dd1b612c90565b16905f51602061424e5f395f51905f5261328e565b906020610d75928181520190612784565b93929161283a906040928652606060208701526060860190612784565b906128fb826101d1565b61290860405191826101a9565b828152809261224d601f19916101d1565b9092916001600160f01b03198216611bdd60f21b14612ae55761293b82612d04565b5f5b81518110156129e3576129566107c26107b4838561112c565b612966816040809160581c161490565b612974575b5060010161293d565b61126a61126a6107c761125d61298994610e14565b90813b1561014a57604051639faeaf4560e01b8152915f9083908183816129b58a8e8d600485016128d4565b03925af191821561090c576001926129cf575b509061296b565b806109065f6129dd936101a9565b5f6129c8565b50825f51602061444e5f395f51905f5260405180612a0189826128c3565b0390a2612a1e612a118685612c62565b611a41611a3c8560f01c90565b60e082901c60ff16612ad3575b5f5b81518110156118ef57612a466107c26107b4838561112c565b612a56816080809160581c161490565b612a64575b50600101612a2d565b61126a61126a6107c761125d612a7994610e14565b90813b1561014a576040516383b5c95b60e01b8152915f908390818381612aa58a8e8d600485016128d4565b03925af191821561090c57600192612abf575b5090612a5b565b806109065f612acd936101a9565b5f612ab8565b612ae0611b098685612efd565b612a2b565b50909161288c5f51602061444e5f395f51905f5291604051918291826128c3565b919091612b116110f6565b9081511561031157602082015282519060158202828104601514831517156116515791604051926020840190601f19603f8287010116604052845260205f9601955b828110612b785750939450610dd993505f5160206143ee5f395f51905f529050613535565b602060016015928951855201970191019095612b53565b610d75939260609260018060a01b0316825260208201528160408201520190610d2f565b602081519101fd5b5f5160206143ee5f395f51905f528152608060208201819052610d75939192612be691840190612784565b915f60408201526060818403910152610d2f565b7f629a4c26e296b22a8e0856e9f6ecb2d1008d7e00081111962cd175fa7488e175546001600160a01b031680610d7557503390565b60209181520160208251919201905f5b818110612c4c5750505090565b8251845260209384019390920191600101612c3f565b90612c7b61067491604051928391602083019586612c2f565b5190205f5160206142ce5f395f51905f521890565b5f915f915b60ff82168310612ca55750505090565b90919260ff8285601b0360031b1c16810180911161165157926001019190612c95565b6020831015612cf6575b80548360031b1b92602003809211612ce957505090565b600101549060031b1c1790565b601f83169260051c01612cd2565b612d0c6110f6565b8051156103115761077481610d7593602061077c94015264ffffffffff5f51602061434e5f395f51905f526040516020810190612d6781610674876953746f7265486f6f6b7360301b66746273746f726560c81b0186612c2f565b519020604051911892602082019190612da0908290610674906953746f7265486f6f6b7360301b66746273746f726560c81b0186612c2f565b5190205f5160206143ce5f395f51905f52185460381c1690613ba2565b91905b6020811015612de95780612dd357505050565b5f199060031b1c90818354169119905116179055565b909160016020918451815501920190601f1901612dc0565b92919080612e4e575b505b6020811015612e365780612e1f57505050565b5f1960039190911b1c825491518119169116179055565b909160016020918451815501920190601f1901612e0c565b6020811015612ea6575b8015612e0a5791926020839003905f19600384901b1c198460031b90811c908651901c908019835416911617815581831115612e9f5760010193019101601f19015f612e0a565b5050505050565b92612ebd90612eb58560051c90565b0193601f1690565b612e58565b6040516020810191612ee8908290610674905f5160206143ee5f395f51905f5286612c2f565b5190205f5160206143ce5f395f51905f521890565b90612ee861067491604051928391602083019586612c2f565b6040515f51602061434e5f395f51905f5291602082019190612f4c908290610674905f5160206143ee5f395f51905f5286612c2f565b5190201890565b51902060f89190911b6001600160f81b031916181890565b610674612f535f51602061434e5f395f51905f529493604051928391602083019586612c2f565b60ff64ffffffffff92166028026038011c1690565b5f602091604051838101906301ffc9a760e01b82526301ffc9a760e01b602482015260248152612fd86044826101a9565b5191617530fa5f513d82612ff8575b5081612ff1575090565b9050151590565b6020111591505f612fe7565b5f602091604051838101906301ffc9a760e01b825263ffffffff60e01b602482015260248152612fd86044826101a9565b5f90602092604051848101916301ffc9a760e01b835263ffffffff60e01b16602482015260248152612fd86044826101a9565b65ffffffffffff613085610d759593606084526060840190612784565b931660208201526040818403910152610d2f565b906130bd610d75959365ffffffffffff928452608060208501526080840190612784565b931660408201526060818403910152610d2f565b9092916130eb825f51602061440e5f395f51905f52612c62565b926131025f51602061440e5f395f51905f52612d04565b905f5b82518110156131a75761311e6107c26107b4838661112c565b61312e816004809160581c161490565b61313c575b50600101613105565b60601c90813b1561014a5760405163964f667d60e01b8152915f9083908183816131798b8f8e5f51602061440e5f395f51905f5260048601613099565b03925af191821561090c57600192613193575b5090613133565b806109065f6131a1936101a9565b5f61318c565b5093826131ea916040515f5160206142ae5f395f51905f526f4e616d65737061636544656c65676174661d189ddbdc9b1960ca1b019180611839868d8c84613068565b5f5b81518110156118ef576132056107c26107b4838561112c565b613215816008809160581c161490565b613223575b506001016131ec565b60601c90813b1561014a5760405163a8ba872160e01b8152915f9083908183816132608a8e8d5f51602061440e5f395f51905f5260048601613099565b03925af191821561090c5760019261327a575b509061321a565b806109065f613288936101a9565b5f613273565b92939291906001600160f01b03198316611bdd60f21b14613432576132b38184612c62565b936132bd84612d04565b90865f5b835181101561335b576132da6107c26107b4838761112c565b6132ea816004809160581c161490565b6132f8575b506001016132c1565b60601c9150813b1561014a575f868a9387838b61332b6040519889968795869463964f667d60e01b865260048601613099565b03925af190811561090c578992600192613347575b50906132ef565b806109065f613355936101a9565b5f613340565b506133929196865f5160206142ae5f395f51905f5260405180613380868b8b84613068565b0390a265ffffffffffff861690613463565b5f5b8151811015613429576133ad6107c26107b4838561112c565b6133bd816008809160581c161490565b6133cb575b50600101613394565b60601c90813b1561014a5760405163a8ba872160e01b8152915f9083908183816133fb8e8c8c8f60048601613099565b03925af191821561090c57600192613415575b50906133c2565b806109065f613423936101a9565b5f61340e565b50505050509050565b61288c5f5160206142ae5f395f51905f5293949560405193849384613068565b610dd9915f60208251920192612e01565b8251610dd993602001929091612e01565b6001810180821161165157905b81811061348c575050565b5f8155600101613481565b805182116134b25760200160801b9060018060801b03161790565b6040516323230fa360e01b8152606060048201529182916134d7906064840190610d2f565b905f602484015260448301520390fd5b60158160801c9160018060801b031604604051916020830160208360051b8501016040528284525f5b83811061351e575050505090565b602060016015928551855201920192019190613510565b9290916135428385612efd565b5461354d5f82612f92565b9364ffffffffff8516936145cf60f11b6001600160f01b031988160161378c5761358261357a86886122c2565b855190611656565b808714158097819861376b575b506137565761359f905f856140f7565b906135a988612d04565b915f5b8351811015613648576135c56107c26107b4838761112c565b6135d5816010809160581c161490565b6135e3575b506001016135ac565b60601c90813b1561014a575f80809388828f61361a8f8f908f906040519b8c998a988997630abd6b4560e31b895260048901613bfc565b03925af191821561090c57600192613634575b50906135da565b806109065f613642936101a9565b5f61362d565b509350956001613751575b875f51602061426e5f395f51905f526040518061367d89898c65ffffffffffff5f165f8c87613c4d565b0390a2613740575b61369a845f61369581868c612f6b565b613463565b5f5b8151811015613736576136b56107c26107b4838561112c565b6136c5816020809160581c161490565b6136d3575b5060010161369c565b60601c90813b1561014a575f80809386828d6137088c8c8f6040519b8c998a988997636358453360e01b895260048901613bfc565b03925af191821561090c57600192613722575b50906136ca565b806109065f613730936101a9565b5f61371b565b5050505050509050565b8261374b8389612efd565b55613685565b613653565b61044086632994042d60e21b5f52805f613be1565b905061378461377a885f613bc5565b64ffffffffff1690565b14155f61358f565b86604051906137a6826102d3836020830160209181520190565b6104696040519283926331b4668360e01b845260048401610d78565b610dd9916137cf82613c9d565b91612919565b6137dd6110f6565b8051156103115761077481610d7593602061077c94015264ffffffffff61380661075a83612f16565b5460381c1690613ba2565b92919061381c6110f6565b805115610311578260208201526138346015826141ae565b905061384c6034602083015160601c92015160f81c90565b9092906001600160a01b038416156138d757156138c8575b816138a4575b6001600160901b03199061387d9061104d565b1661388f5761388b93613fcc565b9091565b9061389e929161388b94613faa565b90151591565b6138c36138b0826114cc565b6138bd8461147683613d50565b90613d95565b61386a565b6138d28582613d13565b613864565b50610f5e81610e9d565b9091906138fb815f5160206143ee5f395f51905f52612efd565b54916139075f84612f92565b9264ffffffffff84169161392661391e5f876122c2565b875190611656565b85811415958680613b8c575b613b7757808511613b5a5750613949905f846140f7565b906139605f5160206143ee5f395f51905f52612d04565b915f5b8351811015613a185761397c6107c26107b4838761112c565b61398c816010809160581c161490565b61399a575b50600101613963565b60601c90813b1561014a575f87819382808c8f6139ea908d6040519a8b9889978896630abd6b4560e31b88526a53797374656d486f6f6b7360281b661d189ddbdc9b1960ca1b0160048901613bfc565b03925af191821561090c57600192613a04575b5090613991565b806109065f613a12936101a9565b5f6139fd565b509250946001613b55575b6040515f5160206143ee5f395f51905f52905f51602061426e5f395f51905f529080613a5c8b885f65ffffffffffff8c16818e87613c4d565b0390a2613b37575b613a8186846136955f885f5160206143ee5f395f51905f52612f6b565b5f5b815181101561342957613a9c6107c26107b4838561112c565b613aac816020809160581c161490565b613aba575b50600101613a83565b60601c90813b1561014a575f85819382808a613b098e8b6040519a8b9889978896636358453360e01b88526a53797374656d486f6f6b7360281b661d189ddbdc9b1960ca1b0160048901613bfc565b03925af191821561090c57600192613b23575b5090613ab1565b806109065f613b31936101a9565b5f613b1c565b81613b4f855f5160206143ee5f395f51905f52612efd565b55613a64565b613a23565b637e8578d360e01b5f5260045264ffffffffff841660245260445ffd5b61044085632994042d60e21b5f525f81613be1565b5080613b9b61377a5f88613bc5565b1415613932565b610d759060405192601f19603f82860101166040528084525f602085019261402e565b9064ffffffffff8091169116019064ffffffffff821161165157565b64ffffffffff90811660045290811660245216604452606490565b9364ffffffffff929060ff613c288593610d759b99959a979a895260e060208a015260e0890190612784565b9816604087015216606085015216608083015260a082015260c0818403910152610d2f565b929365ffffffffffff610d75979560ff613c7864ffffffffff9599969960c0895260c0890190612784565b98166020870152166040850152166060830152608082015260a0818403910152610d2f565b655461626c657360501b66746273746f726560c81b018114613d055760408051655461626c657360501b66746273746f726560c81b016020820190815281830193909352908152613cef6060826101a9565b5190205f5160206142ce5f395f51905f52185490565b506503001811010160cd1b90565b613d3082600160801b600160f01b038316616e7360f01b176141eb565b8015613d40575b15611028575050565b50613d4b82826141eb565b613d37565b613d586110f6565b80511561031157610d759160208201526040516111938161067460208201946742616c616e63657360401b661d189ddbdc9b1960ca1b0186612c2f565b919091613da06110f6565b9081511561031157602082015260405192602084015260208352613dc56040846101a9565b5f92613dde825f5160206143ae5f395f51905f52612c62565b92613df55f5160206143ae5f395f51905f52612d04565b90855f5b8351811015613e9e57613e126107c26107b4838761112c565b613e22816004809160581c161490565b613e30575b50600101613df9565b60601c9150813b1561014a5760405163964f667d60e01b8152915f908390818381613e6e8b8f8e5f5160206143ae5f395f51905f5260048601613099565b03925af190811561090c578892600192613e8a575b5090613e27565b806109065f613e98936101a9565b5f613e83565b506040519195613ed792859291905f5160206143ae5f395f51905f52905f5160206142ae5f395f51905f5290806120fb87878d84613068565b5f5b81518110156118ef57613ef26107c26107b4838561112c565b613f02816008809160581c161490565b613f10575b50600101613ed9565b60601c90813b1561014a5760405163a8ba872160e01b8152915f908390818381613f4d8a8e8d5f5160206143ae5f395f51905f5260048601613099565b03925af191821561090c57600192613f67575b5090613f07565b806109065f613f75936101a9565b5f613f60565b3d15613fa5573d90613f8c826101d1565b91613f9a60405193846101a9565b82523d5f602084013e565b606090565b5f9391613fb991859493614170565b9082602083519301915af161388b613f7b565b5f9391613fdb91859493614170565b90602082519201905af461388b613f7b565b6020811015614016578061400057505050565b5f199060031b1c90818351169119905416179052565b919060018160209254845201910191601f1901613fed565b91908061407a575b505b6020811015614062578061404b57505050565b5f1960039190911b1c825191548119169116179052565b919060018160209254845201910191601f1901614038565b60208110156140db575b801561403657929183602003908183105f146140ce575f19600384901b1c5b81548660031b1b8186511691191617845281831115612e9f57600101920192601f199101015f614036565b5f19600383901b1c6140a3565b916140f2906140ea8460051c90565b0192601f1690565b614084565b9064ffffffffff831161415d5764ffffffffff8060ff66ffffffffffffff8516806141228688612f92565b90888281106141505790500301935b166028026038019416841b931b199166ffffffffffffff191617161790565b9190925003900393614131565b82637149a3c160e01b5f5260045260245ffd5b603490610d759261418b946040519586936020850190610d9a565b9160018060601b03199060601b16825260148201520360148101845201826101a9565b9080156141d557610d75916141d0905f51602061438e5f395f51905f52612c62565b613ba2565b50506040516141e56020826101a9565b5f815290565b6141f36110d4565b90815115610311576020820152805160011015610311576123319160018060a01b031660408201526040516123178161067460208201946f5265736f757263654163636573730000661d189ddbdc9b1960ca1b0186612c2f56fe7462776f726c640000000000000000005573657244656c65676174696f6e436ffe158a7adba34e256807c8a149028d3162918713c3838afc643ce9f96716ebfd7462776f726c6400000000000000000046756e6374696f6e53656c6563746f728c0b5119d4cec7b284c6b1b39252a03d1e2f2d7451a5895562524c113bb952be86425bff6b57326c7859e89024fe4f238ca327a1ae4a230180dd2f0e88aaa7d97462776f726c6400000000000000000053797374656d526567697374727900007462776f726c640000000000000000005265736f7572636541636365737300008dbb3a9672eebfd3773e72dd9c102393436816d832c7ba9e1e1ac8fcadcac7a93b4102da22e32d82fc925482184f16c09fd4281692720b87d124aef6da48a0f17462776f726c640000000000000000004e616d6573706163654f776e657200007462776f726c6400000000000000000053797374656d730000000000000000007462776f726c6400000000000000000042616c616e636573000000000000000014e2fcc58e58e68ec7edc30c8d50dccc3ce2714a623ec81f46b6a63922d765697462776f726c6400000000000000000053797374656d486f6f6b7300000000007462776f726c640000000000000000004e616d65737061636544656c65676174746273746f72650000000000000000005265736f7572636549647300000000000e1f72f429eb97e64878619984a91e687ae91610348b9ff4216782cc96e49d07a2646970667358221220ac11eb8504baed1857d3dfeed200ce5ccbcb8ae11ae3a3241bd86a64314afed864736f6c634300081c0033","linkReferences":{}},"methodIdentifiers":{"_msgSender()":"119df25f","_msgValue()":"45ec9354","_world()":"e1af802c","registerDelegation(address,bytes32,bytes)":"1d2257ba","registerFunctionSelector(bytes32,string)":"26d98102","registerNamespace(bytes32)":"b29e4089","registerNamespaceDelegation(bytes32,bytes32,bytes)":"bfdfaff7","registerRootFunctionSelector(bytes32,string,string)":"6548a90a","registerSystem(bytes32,address,bool)":"3350b6a9","registerSystemHook(bytes32,address,uint8)":"d5f8337f","supportsInterface(bytes4)":"01ffc9a7","unregisterDelegation(address)":"cdc938c5","unregisterNamespaceDelegation(bytes32)":"aa66e9c8","unregisterSystemHook(bytes32,address)":"a92813ad"},"id":136}