{"abi":[{"type":"function","name":"_msgSender","inputs":[],"outputs":[{"name":"sender","type":"address","internalType":"address"}],"stateMutability":"view"},{"type":"function","name":"_msgValue","inputs":[],"outputs":[{"name":"value","type":"uint256","internalType":"uint256"}],"stateMutability":"pure"},{"type":"function","name":"_world","inputs":[],"outputs":[{"name":"","type":"address","internalType":"address"}],"stateMutability":"view"},{"type":"function","name":"moveItem","inputs":[{"name":"landId","type":"uint256","internalType":"uint256"},{"name":"srcX","type":"uint256","internalType":"uint256"},{"name":"srcY","type":"uint256","internalType":"uint256"},{"name":"dstX","type":"uint256","internalType":"uint256"},{"name":"dstY","type":"uint256","internalType":"uint256"}],"outputs":[],"stateMutability":"nonpayable"},{"type":"function","name":"placeItem","inputs":[{"name":"landId","type":"uint256","internalType":"uint256"},{"name":"x","type":"uint256","internalType":"uint256"},{"name":"y","type":"uint256","internalType":"uint256"},{"name":"itemId","type":"uint256","internalType":"uint256"}],"outputs":[],"stateMutability":"nonpayable"},{"type":"function","name":"removeItem","inputs":[{"name":"landId","type":"uint256","internalType":"uint256"},{"name":"x","type":"uint256","internalType":"uint256"},{"name":"y","type":"uint256","internalType":"uint256"}],"outputs":[],"stateMutability":"nonpayable"},{"type":"function","name":"supportsInterface","inputs":[{"name":"interfaceId","type":"bytes4","internalType":"bytes4"}],"outputs":[{"name":"","type":"bool","internalType":"bool"}],"stateMutability":"pure"},{"type":"function","name":"timestampCheck","inputs":[],"outputs":[],"stateMutability":"nonpayable"},{"type":"function","name":"toggleRotation","inputs":[{"name":"landId","type":"uint256","internalType":"uint256"},{"name":"x","type":"uint256","internalType":"uint256"},{"name":"y","type":"uint256","internalType":"uint256"},{"name":"z","type":"uint256","internalType":"uint256"}],"outputs":[],"stateMutability":"nonpayable"},{"type":"event","name":"Store_DeleteRecord","inputs":[{"name":"tableId","type":"bytes32","indexed":true,"internalType":"ResourceId"},{"name":"keyTuple","type":"bytes32[]","indexed":false,"internalType":"bytes32[]"}],"anonymous":false},{"type":"event","name":"Store_SpliceStaticData","inputs":[{"name":"tableId","type":"bytes32","indexed":true,"internalType":"ResourceId"},{"name":"keyTuple","type":"bytes32[]","indexed":false,"internalType":"bytes32[]"},{"name":"start","type":"uint48","indexed":false,"internalType":"uint48"},{"name":"data","type":"bytes","indexed":false,"internalType":"bytes"}],"anonymous":false},{"type":"error","name":"AccessByNoOperator","inputs":[{"name":"owner","type":"address","internalType":"address"},{"name":"caller","type":"address","internalType":"address"}]},{"type":"error","name":"Slice_OutOfBounds","inputs":[{"name":"data","type":"bytes","internalType":"bytes"},{"name":"start","type":"uint256","internalType":"uint256"},{"name":"end","type":"uint256","internalType":"uint256"}]},{"type":"error","name":"TransformationIncompatible","inputs":[{"name":"base","type":"uint256","internalType":"uint256"},{"name":"input","type":"uint256","internalType":"uint256"}]}],"bytecode":{"object":"0x60808060405234601557613839908161001a8239f35b5f80fdfe60806040526004361015610011575f80fd5b5f3560e01c806301ffc9a7146100a4578063119df25f1461009f578063160697541461009a57806345ec9354146100955780635234d9391461009057806354877df71461008b578063a049bbb514610086578063b49355e5146100815763e1af802c1461007c575f80fd5b610522565b610463565b6103a4565b61029f565b61028d565b61026e565b610150565b610106565b346100f85760203660031901126100f85760043563ffffffff60e01b81168091036100f85763b5dee12760e01b81149081156100e7575b50151560805260206080f35b6301ffc9a760e01b149050816100db565b5f80fd5b5f9103126100f857565b346100f8575f3660031901126100f85760206101206107ef565b6040516001600160a01b039091168152f35b60809060031901126100f85760043590602435906044359060643590565b346100f85761015e36610132565b9161016884610806565b50610174828286610933565b156102335761018383856111e2565b1580159061022b575b610195906105fa565b6101a0828286610a3f565b801580610215575b8061020c575b156101bf57506101bd93610ca9565b005b6101c98482610bdc565b156101d857506101bd93611f55565b9291906101e58385610c09565b156101f3576101bd94610c36565b63600f2a9360e11b5f526004849052602483905260445ffd5b508315156101ae565b5061022661022285610ba9565b1590565b6101a8565b50821561018c565b60405162461bcd60e51b81526020600482015260136024820152724c616e643a204f7574206f6620626f756e647360681b6044820152606490fd5b346100f8575f3660031901126100f8576020604051601f193601358152f35b346100f8575f3660031901126100f857005b346100f85760a03660031901126100f8576044356024356084356064356004356102c881610806565b506102d4858583610a3f565b936102de82610806565b506102ea868284610a3f565b6102f2610b06565b80511561039f576101bd97610387936103656103168488602061038197015261127d565b6103218615156106aa565b61033561033061022288610ed9565b6106ed565b61033e86610ef6565b80610396575b61034e9015610737565b61035786610f13565b908161038c575b5015610793565b61036f8487610f3d565b61037a828288610f71565b83866110a7565b826110df565b61053c565b905015155f61035e565b50801515610344565b6108eb565b346100f8576103b236610132565b906103be849394610806565b5061ffff6103cd828686610d31565b16821015610423576103e182828686610d7a565b936103ea610b06565b80511561039f57610406816101bd97602061040e940152611345565b60f81c610660565b61041d61022284848488610dc3565b93610e72565b60405162461bcd60e51b81526020600482015260186024820152774c616e643a20696e646578206f7574206f662072616e676560401b6044820152606490fd5b346100f85760603660031901126100f85760243560443560043561048681610806565b50610492828483610a3f565b9161049b610b06565b9081511561039f576101bd946104f86104bc8486602061051497015261127d565b6104c78715156106aa565b6104d661033061022289610ed9565b6104df87610ef6565b80610519575b6104ef9015610737565b61035787610f13565b6105028585610f3d565b61050d828286610f71565b84846110a7565b6110df565b508015156104e5565b346100f8575f3660031901126100f85760206101206124c2565b9392919061054985610806565b50610555828287610933565b156102335761056483866111e2565b158015906105f2575b610576906105fa565b610581828287610a3f565b8015806105e0575b806105d7575b156105a1575061059f9394610ca9565b565b6105ab8482610bdc565b156105bb575061059f9394611f55565b9291906105c88385610c09565b156101f35761059f9495610c36565b5083151561058f565b506105ed61022285610ba9565b610589565b50821561056d565b1561060157565b60405162461bcd60e51b815260206004820152603160248201527f4c616e643a20796f7520646f206e6f7420686176652074686973206974656d20604482015270696e20796f757220696e76656e746f727960781b6064820152608490fd5b1561066757565b60405162461bcd60e51b815260206004820152601b60248201527a4c616e643a206974656d206973206e6f7420726f74617461626c6560281b6044820152606490fd5b156106b157565b60405162461bcd60e51b81526020600482015260146024820152734c616e643a20737061636520697320656d70747960601b6044820152606490fd5b156106f457565b60405162461bcd60e51b815260206004820152601b60248201527a4c616e643a206974656d206973206e6f6e2072656d6f7661626c6560281b6044820152606490fd5b1561073e57565b60405162461bcd60e51b815260206004820152602760248201527f4c616e643a2063616e6e6f742072656d6f7665206368616972207768696c6520604482015266636f6f6b696e6760c81b6064820152608490fd5b1561079a57565b60405162461bcd60e51b815260206004820152602760248201527f4c616e643a2063616e6e6f742072656d6f7665207461626c65207768696c6520604482015266636f6f6b696e6760c81b6064820152608490fd5b36603319013560601c90811561080157565b339150565b610816610811610b28565b6113cf565b60601c61082481151561110d565b6040516331a9108f60e11b81526004810183905290602090829060249082905afa9081156108e6575f916108b7575b5061085c6107ef565b916001600160a01b038084169083161490839082156108a5575b505015610884575050600190565b6334a0e31960e21b5f526001600160a01b039081166004521660245260445ffd5b6108b0925083611197565b825f610876565b6108d9915060203d6020116108df575b6108d18183610ade565b81019061116d565b5f610853565b503d6108c7565b61118c565b634e487b7160e01b5f52603260045260245ffd5b80516003101561039f5760800190565b80516002101561039f5760600190565b805182101561039f5760209160051b010190565b9161093c610b06565b80511561039f57610953818560208594015261145c565b119283610a03575b83610967575b50505090565b90919250610973610b06565b9081511561039f578161098d916020610995940152612562565b805190612609565b6040805160206020600160801b0384168201810190925260016001607b1b03600584901c168082529092909160809190911c9083015f5b8381106109ed575050505090816109e3925061091f565b51115f8080610961565b60206001819285518552019201920191906109cc565b9250610a0d610b06565b80511561039f57610a2481856020869401526114e6565b119261095b565b634e487b7160e01b5f52601160045260245ffd5b91610a4b818385610933565b15610a8a5761ffff610a5e828486610d31565b16918215610a82575f198301928311610a7d57610a7a93610d7a565b90565b610a2b565b505050505f90565b60405162461bcd60e51b81526020600482015260186024820152776765744974656d41743a204f7574206f6620626f756e647360401b6044820152606490fd5b634e487b7160e01b5f52604160045260245ffd5b601f909101601f19168101906001600160401b03821190821017610b0157604052565b610aca565b60408051909190610b178382610ade565b6001815291601f1901366020840137565b60405190610b37602083610ade565b5f808352366020840137565b60405160609190610b548382610ade565b6002815291601f1901366020840137565b60405160809190610b768382610ade565b6003815291601f1901366020840137565b60405160a09190610b988382610ade565b6004815291601f1901366020840137565b610bb1610b43565b80511561039f575f602082015280516001101561039f57610bd691604082015261156e565b60f81c90565b610be4610b43565b9081511561039f57602082015280516001101561039f57610bd691604082015261156e565b610c11610b43565b9081511561039f57602082015280516001101561039f57610bd6916040820152611602565b90610ca69493610c64610c8e94610c8093610c518487611d7a565b610c5d84838389611e0d565b8386611e5d565b60405163264581e960e11b602082015294859360248501611e85565b03601f198101835282610ade565b610c9e610c99610b28565b611bd4565b60601c612434565b50565b92610cb2610b06565b80511561039f5780826020610cc893015261168e565b60f81c610cee5783610cdd8261059f96611d7a565b610ce9828585846120c5565b611e5d565b60405162461bcd60e51b815260206004820152601b60248201527a4c616e643a206974656d206973206e6f6e20706c61636561626c6560281b6044820152606490fd5b9190610d3b610b65565b9283511561039f57602084015282516001101561039f57604083015281516002101561039f5781610d7391606061ffff940152611718565b60f01c1690565b919290610d85610b87565b9283511561039f57602084015282516001101561039f57604083015281516002101561039f57610a7a926060830152610dbd826108ff565b5261179a565b90610dcc610b87565b9182511561039f57602083015281516001101561039f57604082015280516002101561039f5760ff92610e0d926060830152610e07826108ff565b5261181a565b60f81c1690565b91929092610e20610b87565b9283511561039f57602084015282516001101561039f5761059f936040840152610e498361090f565b52610e53826108ff565b52604051905f602083015260018252610e6d602183610ade565b6121a1565b919293610e7d610b87565b9283511561039f57602084015282516001101561039f5761059f94600194610e6d936040860152610ead8561090f565b52610eb7846108ff565b526040519384916020830190151560f81b81520103601f198101845283610ade565b610ee1610b06565b80511561039f57610bd691602082015261189b565b610efe610b06565b80511561039f57610bd6916020820152611923565b610f1b610b06565b80511561039f57610bd69160208201526119ac565b91908201809211610a7d57565b90610f4881836111e2565b9060018201809211610a7d5761059f9261223c565b61ffff5f199116019061ffff8211610a7d57565b91610f7d818385610d31565b61ffff81161561108557610fa781610fa2610f9a61ffff94610f5d565b858789612324565b610f5d565b1691610fb1610b87565b9384511561039f57602085015283516001101561039f57604084015282516002101561039f576060830152610fe5826108ff565b526001600160a01b03610ff66124c2565b16308103611016575061059f905f5160206137c45f395f51905f52612f2a565b803b156100f8576040805163505a181d60e01b81525f5160206137c45f395f51905f5260048201526024810191909152915f91839182908490829061105f90604483019061121e565b03925af180156108e6576110705750565b8061107c5f8093610ade565b8003126100f857565b50505050565b9094939260609260808301968352602083015260408201520152565b610c80610ca6946110cf939460405195869463124964d960e01b60208701526024860161108b565b610c9e6110da610b28565b611b46565b610ca6916040519163fa421f5760e01b60208401526024830152604482015260448152610c8e606482610ade565b1561111457565b60405162461bcd60e51b815260206004820152602b60248201527f4c69624c616e644163636573733a206c616e644e46547320616464726573732060448201526a063616e6e6f7420626520360ac1b6064820152608490fd5b908160209103126100f857516001600160a01b03811681036100f85790565b6040513d5f823e3d90fd5b61119f610b65565b9081511561039f576001600160a01b0316602082015280516001101561039f5760ff92610e0d92604083015260018060a01b03166111dc8261090f565b52611a36565b6111ea610b43565b9081511561039f57602082015280516001101561039f57610a7a916040820152611ac2565b908160209103126100f8575190565b90602080835192838152019201905f5b81811061123b5750505090565b825184526020938401939092019160010161122e565b9061127260609360ff9297969597845260806020850152608084019061121e565b951660408201520152565b6001600160a01b0361128d6124c2565b163081036112c15750610a7a906b072848090101010008210101609d1b906003905f5160206137a45f395f51905f52612659565b604051638c364d5960e01b815291602091839182908190611307906b072848090101010008210101609d1b906003905f5160206137a45f395f51905f5260048601611251565b03915afa9081156108e6575f9161131c575090565b610a7a915060203d60201161133e575b6113368183610ade565b81019061120f565b503d61132c565b6001600160a01b036113556124c2565b163081036113895750610a7a906b033048000808080808090101609d1b906005905f5160206137045f395f51905f52612659565b604051638c364d5960e01b815291602091839182908190611307906b033048000808080808090101609d1b906005905f5160206137045f395f51905f5260048601611251565b6001600160a01b036113df6124c2565b163081036114155750610a7a906d3702c00505050505050505050505608a1b906004905f5160206137245f395f51905f52612659565b604051638c364d5960e01b815291602091839182908190611307906d3702c00505050505050505050505608a1b906004905f5160206137245f395f51905f52828601611251565b6001600160a01b0361146c6124c2565b163081036114a05750610a7a906b072848090101010008210101609d1b906001905f5160206137a45f395f51905f52612659565b604051638c364d5960e01b815291602091839182908190611307906b072848090101010008210101609d1b906001905f5160206137a45f395f51905f5260048601611251565b6001600160a01b036114f66124c2565b163081036115295750610a7a906b072848090101010008210101609d1b905f905f5160206137a45f395f51905f52612659565b604051638c364d5960e01b815291602091839182908190611307906b072848090101010008210101609d1b905f905f5160206137a45f395f51905f5260048601611251565b6001600160a01b0361157e6124c2565b163081036115b75750610a7a907001430d002020202020202020200101200160781b90600c905f5160206137645f395f51905f52612659565b604051638c364d5960e01b815291602091839182908190611307907001430d002020202020202020200101200160781b90600c905f5160206137645f395f51905f5260048601611251565b6001600160a01b036116126124c2565b163081036116475750610a7a90630101000160d81b905f906f537461636b61626c654974656d000000613a3160f11b01612659565b604051638c364d5960e01b81529160209183918290819061130790630101000160d81b905f906f537461636b61626c654974656d000000613a3160f11b0160048601611251565b6001600160a01b0361169e6124c2565b163081036116d25750610a7a906b033048000808080808090101609d1b906001905f5160206137045f395f51905f52612659565b604051638c364d5960e01b815291602091839182908190611307906b033048000808080808090101609d1b906001905f5160206137045f395f51905f5260048601611251565b6001600160a01b036117286124c2565b163081036117585750610a7a90630100800160d91b905f906713185b9910d95b1b60421b613a3160f11b01612659565b604051638c364d5960e01b81529160209183918290819061130790630100800160d91b905f906713185b9910d95b1b60421b613a3160f11b0160048601611251565b6001600160a01b036117aa6124c2565b163081036117d95750610a7a9067810500202020200160b81b905f905f5160206137c45f395f51905f52612659565b604051638c364d5960e01b8152916020918391829081906113079067810500202020200160b81b905f905f5160206137c45f395f51905f5260048601611251565b6001600160a01b0361182a6124c2565b1630810361185a5750610a7a9067810500202020200160b81b906004905f5160206137c45f395f51905f52612659565b604051638c364d5960e01b8152916020918391829081906113079067810500202020200160b81b906004905f5160206137c45f395f51905f52828601611251565b6001600160a01b036118ab6124c2565b163081036118de5750610a7a906b033048000808080808090101609d1b905f905f5160206137045f395f51905f52612659565b604051638c364d5960e01b815291602091839182908190611307906b033048000808080808090101609d1b905f905f5160206137045f395f51905f5260048601611251565b6001600160a01b036119336124c2565b163081036119675750610a7a906b033048000808080808090101609d1b906004905f5160206137045f395f51905f52612659565b604051638c364d5960e01b815291602091839182908190611307906b033048000808080808090101609d1b906004905f5160206137045f395f51905f52828601611251565b6001600160a01b036119bc6124c2565b163081036119f05750610a7a906b033048000808080808090101609d1b906003905f5160206137045f395f51905f52612659565b604051638c364d5960e01b815291602091839182908190611307906b033048000808080808090101609d1b906003905f5160206137045f395f51905f5260048601611251565b6001600160a01b03611a466124c2565b16308103611a7b5750610a7a90630101000160d81b905f906f4c616e645065726d697373696f6e7300613a3160f11b01612659565b604051638c364d5960e01b81529160209183918290819061130790630101000160d81b905f906f4c616e645065726d697373696f6e7300613a3160f11b0160048601611251565b6001600160a01b03611ad26124c2565b16308103611b035750610a7a90630100080160dd1b905f9068496e76656e746f727960381b613a3160f11b01612659565b604051638c364d5960e01b81529160209183918290819061130790630100080160dd1b905f9068496e76656e746f727960381b613a3160f11b0160048601611251565b6001600160a01b03611b566124c2565b16308103611b8c5750610a7a906d3702c00505050505050505050505608a1b906008905f5160206137245f395f51905f52612659565b604051638c364d5960e01b815291602091839182908190611307906d3702c00505050505050505050505608a1b906008905f5160206137245f395f51905f5260048601611251565b6001600160a01b03611be46124c2565b16308103611c1a5750610a7a906d3702c00505050505050505050505608a1b906009905f5160206137245f395f51905f52612659565b604051638c364d5960e01b815291602091839182908190611307906d3702c00505050505050505050505608a1b906009905f5160206137245f395f51905f5260048601611251565b6001600160a01b03611c726124c2565b16308103611ca65750610a7a906b072848090101010008210101609d1b906007905f5160206137a45f395f51905f52612659565b604051638c364d5960e01b815291602091839182908190611307906b072848090101010008210101609d1b906007905f5160206137a45f395f51905f5260048601611251565b6001600160a01b03611cfc6124c2565b16308103611d325750610a7a906d3702c00505050505050505050505608a1b906007905f5160206137245f395f51905f52612659565b604051638c364d5960e01b815291602091839182908190611307906d3702c00505050505050505050505608a1b906007905f5160206137245f395f51905f5260048601611251565b90611d8581836111e2565b9060018210611da2575f198201918211610a7d5761059f9261223c565b60405162461bcd60e51b815260206004820152603d60248201527f4c6962496e76656e746f72794d616e6167656d656e742064656372656173655160448201527f75616e746974793a20696e73756666696369656e742062616c616e63650000006064820152608490fd5b92600190929192611e3061ffff611e25858789610d31565b1691828587896126c1565b611e3d42828587896127a0565b611e4981848688610e14565b019161ffff8311610a7d5761059f93612324565b610c80610ca6946110cf9394604051958694639aa3d5cd60e01b60208701526024860161108b565b6040919493926060820195825260208201520152565b929461059f9461018092979661020094610220870199875260208701526040860152606085015280516080850152602081015160a0850152604081015160c0850152606081015160e0850152608081015161010085015260a081015161012085015260c081015161014085015260e081015161016085015261010081015182850152611f326101208201516101a086019015159052565b61014081015115156101c08501526101608101516101e085015201511515910152565b9291611f62818386610a3f565b91611f6b6128a5565b50611f74610b43565b80511561039f5783602082015280516001101561039f578085604088930152611f9c90612b81565b5050611fa66128a5565b602082015160408301516060840151608085015160a086015160c087015160e08801516101008901516101208a01516101408b01516101418c01519a9b8c9b60f892831c921c908c6101428201519161016201516120049060f81c90565b90610160019d610180019061201a919015159052565b8c5215156101408d015215156101208c01526101008b015260e08a015260c089015260a08801526080870152606086015260408501526020840152825261206083612915565b905161206b91610f30565b6120759083612932565b856040519485946399e033fb60e01b6020870152602486019461209795611e9b565b03601f19810182526120a99082610ade565b6120b16129f4565b906120bb91612434565b5061059f92612a0a565b90918315612135576120d8818484610d31565b9361ffff851615612128578461210361211b9261ffff6120fa61059f99610f5d565b168588886126c1565b610fa261ffff61211283610f5d565b16848787610e14565b9261ffff429416926127a0565b92909161059f9450611e0d565b919061059f9350610f71565b805180835260209291819084018484015e5f828201840152601f01601f1916010190565b95949360ff61218861219c94608096948a5260a060208b015260a08a019061121e565b921660408801528682036060880152612141565b930152565b906001600160a01b036121b26124c2565b16913083036121f25761059f925065ffffffffffff6121dd600467810500202020200160b81b612b25565b16905f5160206137c45f395f51905f52612d0f565b823b156100f8576040516301c85d5760e51b8152925f92849283918591839161105f9167810500202020200160b81b91906004905f5160206137c45f395f51905f52828701612165565b90612245610b43565b9182511561039f57602083015281516001101561039f57604082015260405191602083015260208252612279604083610ade565b5f916001600160a01b0361228b6124c2565b16923084036122bb5761059f9350630100080160dd1b9268496e76656e746f727960381b613a3160f11b01612a31565b5090823b156100f8576040516301c85d5760e51b8152925f92849283918591839161230991630100080160dd1b9190859068496e76656e746f727960381b613a3160f11b0160048701612165565b03925af180156108e65761231a5750565b5f61059f91610ade565b92919061232f610b65565b9384511561039f57602085015283516001101561039f5760408401526123548361090f565b5260405160f09190911b6001600160f01b03191660208201526002815261237c602282610ade565b5f916001600160a01b0361238e6124c2565b163081036123cc575065ffffffffffff6123b261059f94630100800160d91b612b25565b16906713185b9910d95b1b60421b613a3160f11b01612d0f565b8093503b156100f8576040516301c85d5760e51b8152925f92849283918591839161230991630100800160d91b919085906713185b9910d95b1b60421b613a3160f11b0160048701612165565b6001600160401b038111610b0157601f01601f191660200190565b90610a7a915f806040519361244a606086610ade565b602785527f416464726573733a206c6f772d6c6576656c2064656c65676174652063616c6c6020860152660819985a5b195960ca1b6040860152602081519101845af43d156124ba573d9161249e83612419565b926124ac6040519485610ade565b83523d5f602085013e612f3d565b606091612f3d565b7f629a4c26e296b22a8e0856e9f6ecb2d1008d7e00081111962cd175fa7488e175546001600160a01b031680610a7a57503390565b81601f820112156100f85780519061250e82612419565b9261251c6040519485610ade565b828452602083830101116100f857815f9260208093018386015e8301015290565b906020828203126100f85781516001600160401b0381116100f857610a7a92016124f7565b6001600160a01b036125726124c2565b163081036125945750610a7a905f905f5160206137a45f395f51905f52612a4d565b604051631e78897760e01b81525f5160206137a45f395f51905f52600482015260606024820152915f918391829081906125d290606483019061121e565b85604483015203915afa9081156108e6575f916125ed575090565b610a7a91503d805f833e6126018183610ade565b81019061253d565b805182116126245760200160801b9060018060801b03161790565b6040516323230fa360e01b815260606004820152918291612649906064840190612141565b905f602484015260448301520390fd5b61267f9161266991949394612af7565b9260ff808216601b0360031b84901c1692612b25565b918060208410156126b0575b5080548360031b1b926020038092116126a357505090565b600101549060031b1c1790565b601f84169360051c0190505f61268b565b9291906126cc610b87565b9384511561039f57602085015283516001101561039f5760408401526126f18361090f565b526126fb826108ff565b5260405191602083015260208252612714604083610ade565b5f916001600160a01b036127266124c2565b16923084036127545761059f935067810500202020200160b81b925f5160206137c45f395f51905f52612a31565b5090823b156100f8576040516301c85d5760e51b8152925f9284928391859183916123099167810500202020200160b81b919085905f5160206137c45f395f51905f5260048701612165565b9291906127ab610b87565b9384511561039f57602085015283516001101561039f5760408401526127d08361090f565b526127da826108ff565b52604051916020830152602082526127f3604083610ade565b6001600160a01b036128036124c2565b16913083036128345761059f925067810500202020200160b81b916001905f5160206137c45f395f51905f52612a31565b90823b156100f8576040516301c85d5760e51b8152925f9284928391859183916128809167810500202020200160b81b91906001905f5160206137c45f395f51905f5260048701612165565b03925af180156108e6576128915750565b8061289f5f61059f93610ade565b806100fc565b604051906101a082016001600160401b03811183821017610b01576040525f610180838281528260208201528260408201528260608201528260808201528260a08201528260c08201528260e0820152826101008201528261012082015282610140820152826101608201520152565b61291d610b06565b80511561039f57610a7a916020820152611c62565b61293a610b06565b9081511561039f5760208201526040519160208301526020825261295f604083610ade565b6001600160a01b0361296f6124c2565b16913083036129a45761059f92506b072848090101010008210101609d1b916007905f5160206137a45f395f51905f52612a31565b90823b156100f8576040516301c85d5760e51b8152925f928492839185918391612880916b072848090101010008210101609d1b91906007905f5160206137a45f395f51905f5260048701612165565b612a046129ff610b28565b611cec565b60601c90565b610c8e90610c80610ca6946040519485936365be808160e11b602086015260248501611e85565b91612a4665ffffffffffff9161059f96612b25565b1691612d0f565b90610a7a92612a6a612a7092612a64838287612fda565b94613473565b54613019565b9061302e565b9060158260801c9260018060801b031604604051926020840160208360051b8601016040528285525f5b838110612aad5750505050565b602060016015928551855201920192019190612aa0565b60209181520160208251919201905f5b818110612ae15750505090565b8251845260209384019390920191600101612ad4565b90612b10610c8091604051928391602083019586612ac4565b5190205f5160206136e45f395f51905f521890565b5f915f915b60ff82168310612b3a5750505090565b909192612b50848360ff91601b0360031b1c1690565b8101809111610a7d57926001019190612b2a565b93929161219c90604092865260606020870152606086019061121e565b6001600160a01b03612b916124c2565b16308103612bce5750612bc7907001430d002020202020202020200101200160781b905f5160206137645f395f51905f52613083565b9192909190565b60405163419b58fd60e01b815292915f91849182908190612c16907001430d002020202020202020200101200160781b905f5160206137645f395f51905f5260048501612b64565b03915afa9081156108e6575f5f935f93612c31575b50929190565b93505090503d805f843e612c458184610ade565b8201906060838303126100f85782516001600160401b0381116100f85782612c6e9185016124f7565b92602081015192604082015160018060401b0381116100f857612c9192016124f7565b91925f612c2b565b65ffffffffffff612cb6610a7a959360608452606084019061121e565b931660208201526040818403910152612141565b6001600160581b03191690565b90612cfb610a7a959365ffffffffffff92845260806020850152608084019061121e565b931660408201526060818403910152612141565b92939291906001600160f01b03198316611bdd60f21b14612f0557612d348184612af7565b93612d3e8461312b565b90865f5b8351811015612e1c57612d6e612d69612d5b838761091f565b516001600160581b03191690565b612cca565b612d7e816004809160581c161490565b612d8c575b50600101612d42565b612dbd919250612db1612a04612da4612db193612cca565b6001600160601b03191690565b6001600160a01b031690565b90813b156100f8575f868a9387838b612dec6040519889968795869463964f667d60e01b865260048601612cd7565b03925af19081156108e6578992600192612e08575b5090612d83565b8061289f5f612e1693610ade565b5f612e01565b50612e539196865f5160206136c45f395f51905f5260405180612e41868b8b84612c99565b0390a265ffffffffffff8616906131fa565b5f5b8151811015612efc57612e6e612d69612d5b838561091f565b612e7e816008809160581c161490565b612e8c575b50600101612e55565b612db1612db1612a04612da4612ea194612cca565b90813b156100f85760405163a8ba872160e01b8152915f908390818381612ece8e8c8c8f60048601612cd7565b03925af19182156108e657600192612ee8575b5090612e83565b8061289f5f612ef693610ade565b5f612ee1565b50505050509050565b612f255f5160206136c45f395f51905f5293949560405193849384612c99565b0390a2565b61059f91612f378261320b565b91613292565b91929015612f9f5750815115612f51575090565b3b15612f5a5790565b60405162461bcd60e51b815260206004820152601d60248201527f416464726573733a2063616c6c20746f206e6f6e2d636f6e74726163740000006044820152606490fd5b825190915015612fb25750805190602001fd5b60405162461bcd60e51b815260206004820152908190612fd6906024830190612141565b0390fd5b610c806130015f5160206137445f395f51905f529493604051928391602083019586612ac4565b51902060f89190911b6001600160f81b031916181890565b60ff64ffffffffff92166028026038011c1690565b610a7a9060405192601f19603f82860101166040528084525f60208501926134e4565b9061305b82612419565b6130686040519182610ade565b8281528092613079601f1991612419565b0190602036910137565b91925f926060926130a561309b8760f01c83856135b4565b9660e01c60ff1690565b91826130b057505050565b91945092506130bf8382613473565b54936130d366ffffffffffffff8616613051565b935f92602086015b8360ff8616106130ec575050505050565b6130f7858484612fda565b61310c82613105888c613019565b80936134a1565b8101809111610a7d5760ff90941660ff8114610a7d57600101936130db565b613133610b06565b80511561039f5761098d81610a7a9360206131e494015264ffffffffff5f5160206137445f395f51905f52604051602081019061318e81610c80876953746f7265486f6f6b7360301b66746273746f726560c81b0186612ac4565b5190206040519118926020820191906131c7908290610c80906953746f7265486f6f6b7360301b66746273746f726560c81b0186612ac4565b5190205f5160206137845f395f51905f52185460381c169061302e565b612a76565b61059f915f602082519201926135e6565b825161059f936020019290916135e6565b655461626c657360501b66746273746f726560c81b0181146132735760408051655461626c657360501b66746273746f726560c81b01602082019081528183019390935290815261325d606082610ade565b5190205f5160206136e45f395f51905f52185490565b506503001811010160cd1b90565b906020610a7a92818152019061121e565b9092916001600160f01b03198216611bdd60f21b14613452576132b48261312b565b5f5b815181101561334a576132cf612d69612d5b838561091f565b6132df816040809160581c161490565b6132ed575b506001016132b6565b60601c90813b156100f857604051639faeaf4560e01b8152915f90839081838161331c8a8e8d60048501612b64565b03925af19182156108e657600192613336575b50906132e4565b8061289f5f61334493610ade565b5f61332f565b50825f5160206137e45f395f51905f52604051806133688982613281565b0390a26133906133788685612af7565b61338a6133858560f01c90565b613051565b906131e9565b60e082901c60ff1661343b575b5f5b8151811015613433576133b8612d69612d5b838561091f565b6133c8816080809160581c161490565b6133d6575b5060010161339f565b60601c90813b156100f8576040516383b5c95b60e01b8152915f9083908183816134058a8e8d60048501612b64565b03925af19182156108e65760019261341f575b50906133cd565b8061289f5f61342d93610ade565b5f613418565b505050509050565b61344d6134488685613473565b6136a0565b61339d565b509091612f255f5160206137e45f395f51905f529160405191829182613281565b9061348c610c8091604051928391602083019586612ac4565b5190205f5160206137845f395f51905f521890565b905b60208110156134cc57806134b657505050565b5f199060031b1c90818351169119905416179052565b919060018160209254845201910191601f19016134a3565b919080613530575b505b6020811015613518578061350157505050565b5f1960039190911b1c825191548119169116179052565b919060018160209254845201910191601f19016134ee565b6020811015613598575b80156134ec57929183602003908183105f1461358b575f19600384901b1c5b81548660031b1b818651169119161784528183111561358457600101920192601f199101015f6134ec565b5050505050565b5f19600383901b1c613559565b916135af906135a78460051c90565b0192601f1690565b61353a565b91909181156135cf57610a7a926135ca91612af7565b61302e565b5050506040516135e0602082610ade565b5f815290565b92919080613633575b505b602081101561361b578061360457505050565b5f1960039190911b1c825491518119169116179055565b909160016020918451815501920190601f19016135f1565b6020811015613684575b80156135ef5791926020839003905f19600384901b1c198460031b90811c908651901c9080198354169116178155818311156135845760010193019101601f19015f6135ef565b9261369b906136938560051c90565b0193601f1690565b61363d565b60018101808211610a7d57905b8181106136b8575050565b5f81556001016136ad56fe8c0b5119d4cec7b284c6b1b39252a03d1e2f2d7451a5895562524c113bb952be86425bff6b57326c7859e89024fe4f238ca327a1ae4a230180dd2f0e88aaa7d9746200000000000000000000000000004974656d496e666f000000000000000074620000000000000000000000000000436f6e666967416464726573736573003b4102da22e32d82fc925482184f16c09fd4281692720b87d124aef6da48a0f1746200000000000000000000000000005472616e73666f726d6174696f6e730014e2fcc58e58e68ec7edc30c8d50dccc3ce2714a623ec81f46b6a63922d76569746200000000000000000000000000004c616e64496e666f0000000000000000746200000000000000000000000000004c616e644974656d00000000000000000e1f72f429eb97e64878619984a91e687ae91610348b9ff4216782cc96e49d07a2646970667358221220140d9c6afbe3221e0480bbaffdf626b8ae79a88d51dee26f028e476a83dbc5f164736f6c634300081c0033","linkReferences":{}},"methodIdentifiers":{"_msgSender()":"119df25f","_msgValue()":"45ec9354","_world()":"e1af802c","moveItem(uint256,uint256,uint256,uint256,uint256)":"54877df7","placeItem(uint256,uint256,uint256,uint256)":"16069754","removeItem(uint256,uint256,uint256)":"b49355e5","supportsInterface(bytes4)":"01ffc9a7","timestampCheck()":"5234d939","toggleRotation(uint256,uint256,uint256,uint256)":"a049bbb5"},"id":137}